{
    "SuicideTransaction_Byzantium" : {
        "_info" : {
            "comment" : "",
            "filledwith" : "cpp-1.3.0+commit.6e0ce939.Linux.g++",
            "lllcversion" : "Version: 0.4.18-develop.2017.9.25+commit.a72237f2.Linux.g++",
            "source" : "src/BlockchainTestsFiller/bcBlockGasLimitTest/SuicideTransactionFiller.json",
            "sourceHash" : "f10b6714c0853cca2d2bdadc1bd02f63f7da18b0782000a6c26512b772af42ee"
        },
        "blocks" : [
            {
                "blockHeader" : {
                    "bloom" : "0x00000000000000000000000000000000000000000000000000000000000000000000000000000000000000000000000000000000000000000000000000000000000000000000000000000000000000000000000000000000000000000000000000000000000000000000000000000000000000000000000000000000000000000000000000000000000000000000000000000000000000000000000000000000000000000000000000000000000000000000000000000000000000000000000000000000000000000000000000000000000000000000000000000000000000000000000000000000000000000000000000000000000000000000000000000000",
                    "coinbase" : "0x8888f1f195afa192cfee860698584c030f4c9db1",
                    "difficulty" : "0x020000",
                    "extraData" : "",
                    "gasLimit" : "0x01e8c1",
                    "gasUsed" : "0x32ca",
                    "hash" : "0xe667cd2939e36fd73bebca5a4bbf07054e4c7b0affdb93e5285f0e026f27dac6",
                    "mixHash" : "0xa327fcbe80d1afcfbfe5684a6ba65e0c751fc68bc164fb67f55407aeac5e02a9",
                    "nonce" : "0xe02a6f36867b3376",
                    "number" : "0x01",
                    "parentHash" : "0x926fddd6a0f69ff8c29833222a7150b9d50f759bda6d50e4c9ea3af6c4ba921d",
                    "receiptTrie" : "0xbdc6970604c358a6e29ea6d74bc6182566b1d8479b2d5fdae39ff17df01813d7",
                    "stateRoot" : "0xcc01fe78a0cbf46aada2ba9b5b26b0c83401b82d0ecaa777c8b5fa173c304c56",
                    "timestamp" : "0x59d66363",
                    "transactionsTrie" : "0xf0162cdb94cda8b79bf634c6093931008a12d1e4922821a992e34511b83ed0d5",
                    "uncleHash" : "0x1dcc4de8dec75d7aab85b567b6ccd41ad312451b948a7413f0a142fd40d49347"
                },
                "rlp" : "0xf90261f901f9a0926fddd6a0f69ff8c29833222a7150b9d50f759bda6d50e4c9ea3af6c4ba921da01dcc4de8dec75d7aab85b567b6ccd41ad312451b948a7413f0a142fd40d49347948888f1f195afa192cfee860698584c030f4c9db1a0cc01fe78a0cbf46aada2ba9b5b26b0c83401b82d0ecaa777c8b5fa173c304c56a0f0162cdb94cda8b79bf634c6093931008a12d1e4922821a992e34511b83ed0d5a0bdc6970604c358a6e29ea6d74bc6182566b1d8479b2d5fdae39ff17df01813d7b901000000000000000000000000000000000000000000000000000000000000000000000000000000000000000000000000000000000000000000000000000000000000000000000000000000000000000000000000000000000000000000000000000000000000000000000000000000000000000000000000000000000000000000000000000000000000000000000000000000000000000000000000000000000000000000000000000000000000000000000000000000000000000000000000000000000000000000000000000000000000000000000000000000000000000000000000000000000000000000000000000000000000000000000000000000000083020000018301e8c18232ca8459d6636380a0a327fcbe80d1afcfbfe5684a6ba65e0c751fc68bc164fb67f55407aeac5e02a988e02a6f36867b3376f862f860800a830186a094aaaf5374fce5edbc8e2a8697c15331677e6ebf0b0a801ba0444ed2cb67c1cce2c37add4bef48d3dda9ef05e28eaf023006036a4c5f7c96b0a00c56b07bfc50471d458e67923c91108b90cb7bba23f4d373f0a75632a413bd84c0",
                "transactions" : [
                    {
                        "data" : "",
                        "gasLimit" : "0x0186a0",
                        "gasPrice" : "0x0a",
                        "nonce" : "0x00",
                        "r" : "0x444ed2cb67c1cce2c37add4bef48d3dda9ef05e28eaf023006036a4c5f7c96b0",
                        "s" : "0x0c56b07bfc50471d458e67923c91108b90cb7bba23f4d373f0a75632a413bd84",
                        "to" : "0xaaaf5374fce5edbc8e2a8697c15331677e6ebf0b",
                        "v" : "0x1b",
                        "value" : "0x0a"
                    }
                ],
                "uncleHeaders" : [
                ]
            }
        ],
        "genesisBlockHeader" : {
            "bloom" : "0x00000000000000000000000000000000000000000000000000000000000000000000000000000000000000000000000000000000000000000000000000000000000000000000000000000000000000000000000000000000000000000000000000000000000000000000000000000000000000000000000000000000000000000000000000000000000000000000000000000000000000000000000000000000000000000000000000000000000000000000000000000000000000000000000000000000000000000000000000000000000000000000000000000000000000000000000000000000000000000000000000000000000000000000000000000000",
            "coinbase" : "0x8888f1f195afa192cfee860698584c030f4c9db1",
            "difficulty" : "0x020000",
            "extraData" : "0x42",
            "gasLimit" : "0x01e848",
            "gasUsed" : "0x00",
            "hash" : "0x926fddd6a0f69ff8c29833222a7150b9d50f759bda6d50e4c9ea3af6c4ba921d",
            "mixHash" : "0x56e81f171bcc55a6ff8345e692c0f86e5b48e01b996cadc001622fb5e363b421",
            "nonce" : "0x0102030405060708",
            "number" : "0x00",
            "parentHash" : "0x0000000000000000000000000000000000000000000000000000000000000000",
            "receiptTrie" : "0x56e81f171bcc55a6ff8345e692c0f86e5b48e01b996cadc001622fb5e363b421",
            "stateRoot" : "0xaf81e09f8c46ca322193edfda764fa7e88e81923f802f1d325ec0b0308ac2cd0",
            "timestamp" : "0x54c98c81",
            "transactionsTrie" : "0x56e81f171bcc55a6ff8345e692c0f86e5b48e01b996cadc001622fb5e363b421",
            "uncleHash" : "0x1dcc4de8dec75d7aab85b567b6ccd41ad312451b948a7413f0a142fd40d49347"
        },
        "genesisRLP" : "0xf901fcf901f7a00000000000000000000000000000000000000000000000000000000000000000a01dcc4de8dec75d7aab85b567b6ccd41ad312451b948a7413f0a142fd40d49347948888f1f195afa192cfee860698584c030f4c9db1a0af81e09f8c46ca322193edfda764fa7e88e81923f802f1d325ec0b0308ac2cd0a056e81f171bcc55a6ff8345e692c0f86e5b48e01b996cadc001622fb5e363b421a056e81f171bcc55a6ff8345e692c0f86e5b48e01b996cadc001622fb5e363b421b901000000000000000000000000000000000000000000000000000000000000000000000000000000000000000000000000000000000000000000000000000000000000000000000000000000000000000000000000000000000000000000000000000000000000000000000000000000000000000000000000000000000000000000000000000000000000000000000000000000000000000000000000000000000000000000000000000000000000000000000000000000000000000000000000000000000000000000000000000000000000000000000000000000000000000000000000000000000000000000000000000000000000000000000000000000000083020000808301e848808454c98c8142a056e81f171bcc55a6ff8345e692c0f86e5b48e01b996cadc001622fb5e363b421880102030405060708c0c0",
        "lastblockhash" : "0xe667cd2939e36fd73bebca5a4bbf07054e4c7b0affdb93e5285f0e026f27dac6",
        "network" : "Byzantium",
        "postState" : {
            "0x8888f1f195afa192cfee860698584c030f4c9db1" : {
                "balance" : "0x29a2241af62dfbe4",
                "code" : "",
                "nonce" : "0x00",
                "storage" : {
                }
            },
            "0xa94f5374fce5edbc8e2a8697c15331677e6ebf0b" : {
                "balance" : "0x4a723dc6b40b8cee09e81c",
                "code" : "",
                "nonce" : "0x01",
                "storage" : {
                }
            }
        },
        "pre" : {
            "0xa94f5374fce5edbc8e2a8697c15331677e6ebf0b" : {
                "balance" : "0x4a723dc6b40b8a9a000000",
                "code" : "",
                "nonce" : "0x00",
                "storage" : {
                }
            },
            "0xaaaf5374fce5edbc8e2a8697c15331677e6ebf0b" : {
                "balance" : "0x02540be400",
                "code" : "0x73a94f5374fce5edbc8e2a8697c15331677e6ebf0bff",
                "nonce" : "0x00",
                "storage" : {
                }
            }
        }
    }
}
