{
    "randomStatetest213BC_Byzantium" : {
        "_info" : {
            "comment" : "",
            "filledwith" : "cpp-1.3.0+commit.6e0ce939.Linux.g++",
            "lllcversion" : "Version: 0.4.18-develop.2017.9.25+commit.a72237f2.Linux.g++",
            "source" : "src/BlockchainTestsFiller/bcRandomBlockhashTest/randomStatetest213BCFiller.json",
            "sourceHash" : "427f7e9de931c9d72e1c94ce801a58dd6693d9978d7de4c6d919619df5fa448e"
        },
        "blocks" : [
            {
                "blockHeader" : {
                    "bloom" : "0x00000000000000000000000000000000000000000000000000000000000000000000000000000000000000000000000000000000000000000000000000000000000000000000000000000000000000000000000000000000000000000000000000000000000000000000000000000000000000000000000000000000000000000000000000000000000000000000000000000000000000000000000000000000000000000000000000000000000000000000000000000000000000000000000000000000000000000000000000000000000000000000000000000000000000000000000000000000000000000000000000000000000000000000000000000000",
                    "coinbase" : "0x945304eb96065b2a98b57a48a06ae28d285a71b5",
                    "difficulty" : "0x020000",
                    "extraData" : "",
                    "gasLimit" : "0x7fffffffffffffff",
                    "gasUsed" : "0xba39",
                    "hash" : "0x0653eae79f927121eceb8cb0ff1103d00121b723f7bbd494b3adb54c612128f3",
                    "mixHash" : "0xad4ebe8e7552f65954ace08580f5dc25731296977941351153a4b43e91d7e89d",
                    "nonce" : "0x8a6aff72ebceb68f",
                    "number" : "0x01",
                    "parentHash" : "0x0a533130fa6de7c0b017def197d33d940ccccd597bc6d9d72eb541e1bfbf618e",
                    "receiptTrie" : "0x8a1863377828da47721c7a0d49ba6418fe29341e7539bb34e7f0ea36cd4a7ddf",
                    "stateRoot" : "0x619b87a2e0d16b7ac03a7ac669f888c01822d1699c256b72f1a81008b6dc6b89",
                    "timestamp" : "0x03e8",
                    "transactionsTrie" : "0xe64b4a4e287a60c2b8b503b0bbdc864d0ecdaf80cffba44e88e3d21ee8207053",
                    "uncleHash" : "0x1dcc4de8dec75d7aab85b567b6ccd41ad312451b948a7413f0a142fd40d49347"
                },
                "rlp" : "0xf902e2f901fca00a533130fa6de7c0b017def197d33d940ccccd597bc6d9d72eb541e1bfbf618ea01dcc4de8dec75d7aab85b567b6ccd41ad312451b948a7413f0a142fd40d4934794945304eb96065b2a98b57a48a06ae28d285a71b5a0619b87a2e0d16b7ac03a7ac669f888c01822d1699c256b72f1a81008b6dc6b89a0e64b4a4e287a60c2b8b503b0bbdc864d0ecdaf80cffba44e88e3d21ee8207053a08a1863377828da47721c7a0d49ba6418fe29341e7539bb34e7f0ea36cd4a7ddfb90100000000000000000000000000000000000000000000000000000000000000000000000000000000000000000000000000000000000000000000000000000000000000000000000000000000000000000000000000000000000000000000000000000000000000000000000000000000000000000000000000000000000000000000000000000000000000000000000000000000000000000000000000000000000000000000000000000000000000000000000000000000000000000000000000000000000000000000000000000000000000000000000000000000000000000000000000000000000000000000000000000000000000000000000000000000008302000001887fffffffffffffff82ba398203e880a0ad4ebe8e7552f65954ace08580f5dc25731296977941351153a4b43e91d7e89d888a6aff72ebceb68ff8e0f8de8001843d40466494095e7baea6a6c7c4c2dfeb977efac326af552d878461cd5764b8784338407f000000000000000000000000ffffffffffffffffffffffffffffffffffffffff425a7f000000000000000000000000945304eb96065b2a98b57a48a06ae28d285a71b57fffffffffffffffffffffffffffffffffffffffffffffffffffffffffffffffff6f3b1860586d8587cc788e106fa3937f1ca0a20b6d234ef8e08a44342a1182abe4d6762d2f6415d1e0e4aa4bf4f9723b5ee7a0115959b53b888eec791d6522935efac78ea0932f449fae551a8897ce0abc280dc0",
                "transactions" : [
                    {
                        "data" : "0x4338407f000000000000000000000000ffffffffffffffffffffffffffffffffffffffff425a7f000000000000000000000000945304eb96065b2a98b57a48a06ae28d285a71b57fffffffffffffffffffffffffffffffffffffffffffffffffffffffffffffffff6f3b1860586d8587cc788e106fa3937f",
                        "gasLimit" : "0x3d404664",
                        "gasPrice" : "0x01",
                        "nonce" : "0x00",
                        "r" : "0xa20b6d234ef8e08a44342a1182abe4d6762d2f6415d1e0e4aa4bf4f9723b5ee7",
                        "s" : "0x115959b53b888eec791d6522935efac78ea0932f449fae551a8897ce0abc280d",
                        "to" : "0x095e7baea6a6c7c4c2dfeb977efac326af552d87",
                        "v" : "0x1c",
                        "value" : "0x61cd5764"
                    }
                ],
                "uncleHeaders" : [
                ]
            }
        ],
        "genesisBlockHeader" : {
            "bloom" : "0x00000000000000000000000000000000000000000000000000000000000000000000000000000000000000000000000000000000000000000000000000000000000000000000000000000000000000000000000000000000000000000000000000000000000000000000000000000000000000000000000000000000000000000000000000000000000000000000000000000000000000000000000000000000000000000000000000000000000000000000000000000000000000000000000000000000000000000000000000000000000000000000000000000000000000000000000000000000000000000000000000000000000000000000000000000000",
            "coinbase" : "0x945304eb96065b2a98b57a48a06ae28d285a71b5",
            "difficulty" : "0x020000",
            "extraData" : "0x42",
            "gasLimit" : "0x7fffffffffffffff",
            "gasUsed" : "0x00",
            "hash" : "0x0a533130fa6de7c0b017def197d33d940ccccd597bc6d9d72eb541e1bfbf618e",
            "mixHash" : "0x56e81f171bcc55a6ff8345e692c0f86e5b48e01b996cadc001622fb5e363b421",
            "nonce" : "0x0102030405060708",
            "number" : "0x00",
            "parentHash" : "0x0000000000000000000000000000000000000000000000000000000000000000",
            "receiptTrie" : "0x56e81f171bcc55a6ff8345e692c0f86e5b48e01b996cadc001622fb5e363b421",
            "stateRoot" : "0x392e68f9e4ade989eb363972204e68ac3e3c29da90b3537b69afa53493c2029d",
            "timestamp" : "0x03b6",
            "transactionsTrie" : "0x56e81f171bcc55a6ff8345e692c0f86e5b48e01b996cadc001622fb5e363b421",
            "uncleHash" : "0x1dcc4de8dec75d7aab85b567b6ccd41ad312451b948a7413f0a142fd40d49347"
        },
        "genesisRLP" : "0xf901fff901faa00000000000000000000000000000000000000000000000000000000000000000a01dcc4de8dec75d7aab85b567b6ccd41ad312451b948a7413f0a142fd40d4934794945304eb96065b2a98b57a48a06ae28d285a71b5a0392e68f9e4ade989eb363972204e68ac3e3c29da90b3537b69afa53493c2029da056e81f171bcc55a6ff8345e692c0f86e5b48e01b996cadc001622fb5e363b421a056e81f171bcc55a6ff8345e692c0f86e5b48e01b996cadc001622fb5e363b421b90100000000000000000000000000000000000000000000000000000000000000000000000000000000000000000000000000000000000000000000000000000000000000000000000000000000000000000000000000000000000000000000000000000000000000000000000000000000000000000000000000000000000000000000000000000000000000000000000000000000000000000000000000000000000000000000000000000000000000000000000000000000000000000000000000000000000000000000000000000000000000000000000000000000000000000000000000000000000000000000000000000000000000000000000000000000008302000080887fffffffffffffff808203b642a056e81f171bcc55a6ff8345e692c0f86e5b48e01b996cadc001622fb5e363b421880102030405060708c0c0",
        "lastblockhash" : "0x0653eae79f927121eceb8cb0ff1103d00121b723f7bbd494b3adb54c612128f3",
        "network" : "Byzantium",
        "postState" : {
            "0x095e7baea6a6c7c4c2dfeb977efac326af552d87" : {
                "balance" : "0x61cd5764",
                "code" : "0x4338407f000000000000000000000000ffffffffffffffffffffffffffffffffffffffff425a7f000000000000000000000000945304eb96065b2a98b57a48a06ae28d285a71b57fffffffffffffffffffffffffffffffffffffffffffffffffffffffffffffffff6f3b1860586d8587cc788e106fa3937f5560005155",
                "nonce" : "0x00",
                "storage" : {
                    "0x00" : "0x3b1860586d8587cc788e106fa3937f55"
                }
            },
            "0x945304eb96065b2a98b57a48a06ae28d285a71b5" : {
                "balance" : "0x29a2241af62cba67",
                "code" : "0x6000355415600957005b60203560003555",
                "nonce" : "0x00",
                "storage" : {
                }
            },
            "0xa94f5374fce5edbc8e2a8697c15331677e6ebf0b" : {
                "balance" : "0x0de0b6b34595ee63",
                "code" : "",
                "nonce" : "0x01",
                "storage" : {
                }
            }
        },
        "pre" : {
            "0x095e7baea6a6c7c4c2dfeb977efac326af552d87" : {
                "balance" : "0x00",
                "code" : "0x4338407f000000000000000000000000ffffffffffffffffffffffffffffffffffffffff425a7f000000000000000000000000945304eb96065b2a98b57a48a06ae28d285a71b57fffffffffffffffffffffffffffffffffffffffffffffffffffffffffffffffff6f3b1860586d8587cc788e106fa3937f5560005155",
                "nonce" : "0x00",
                "storage" : {
                }
            },
            "0x945304eb96065b2a98b57a48a06ae28d285a71b5" : {
                "balance" : "0x2e",
                "code" : "0x6000355415600957005b60203560003555",
                "nonce" : "0x00",
                "storage" : {
                }
            },
            "0xa94f5374fce5edbc8e2a8697c15331677e6ebf0b" : {
                "balance" : "0x0de0b6b3a7640000",
                "code" : "",
                "nonce" : "0x00",
                "storage" : {
                }
            }
        }
    }
}
