{
    "randomStatetest168BC_Byzantium" : {
        "_info" : {
            "comment" : "",
            "filledwith" : "cpp-1.3.0+commit.6e0ce939.Linux.g++",
            "lllcversion" : "Version: 0.4.18-develop.2017.9.25+commit.a72237f2.Linux.g++",
            "source" : "src/BlockchainTestsFiller/bcRandomBlockhashTest/randomStatetest168BCFiller.json",
            "sourceHash" : "6e9f7a2cdd8e0456dae9b56ca02f42ef9ca059fc1b8df3939697cdc36fc3af91"
        },
        "blocks" : [
            {
                "blockHeader" : {
                    "bloom" : "0x00000000000000000000000000000000000000000000000000000000000000000000000000000000000000000000000000000000000000000000000000000000000000000000000000000000000000000000000000000000000000000000000000000000000000000000000000000000000000000000000000000000000000000000000000000000000000000000000000000000000000000000000000000000000000000000000000000000000000000000000000000000000000000000000000000000000000000000000000000000000000000000000000000000000000000000000000000000000000000000000000000000000000000000000000000000",
                    "coinbase" : "0x945304eb96065b2a98b57a48a06ae28d285a71b5",
                    "difficulty" : "0x020000",
                    "extraData" : "",
                    "gasLimit" : "0x7fffffffffffffff",
                    "gasUsed" : "0xc276",
                    "hash" : "0xde3b3e9f5d0a295bd2c06ec4834d9d6126035419852a7a2bf7cdcbfa913df3b4",
                    "mixHash" : "0x838f87ec465097d2bd768a9aeea63b6f6f3f449f9aabd10d3551958737b12fde",
                    "nonce" : "0xcaa22e7607a9009e",
                    "number" : "0x01",
                    "parentHash" : "0xe8cb50f87dc798fb2abdbcd7fda4f67e4e4839a6c6b21b7a0e49d457edbfb246",
                    "receiptTrie" : "0xb82ca983ab547a84a130968dd005d996f684e672cf5da887504a3628dc1577ac",
                    "stateRoot" : "0xde810360a7f0c6ce501d231b94f4eac66439b949c60e0946d98883c1dfe2f058",
                    "timestamp" : "0x03e8",
                    "transactionsTrie" : "0x764610bf3755bff76340101b9d68c7f1f6a9be56d613c166018c83c74bd69d97",
                    "uncleHash" : "0x1dcc4de8dec75d7aab85b567b6ccd41ad312451b948a7413f0a142fd40d49347"
                },
                "rlp" : "0xf90301f901fca0e8cb50f87dc798fb2abdbcd7fda4f67e4e4839a6c6b21b7a0e49d457edbfb246a01dcc4de8dec75d7aab85b567b6ccd41ad312451b948a7413f0a142fd40d4934794945304eb96065b2a98b57a48a06ae28d285a71b5a0de810360a7f0c6ce501d231b94f4eac66439b949c60e0946d98883c1dfe2f058a0764610bf3755bff76340101b9d68c7f1f6a9be56d613c166018c83c74bd69d97a0b82ca983ab547a84a130968dd005d996f684e672cf5da887504a3628dc1577acb90100000000000000000000000000000000000000000000000000000000000000000000000000000000000000000000000000000000000000000000000000000000000000000000000000000000000000000000000000000000000000000000000000000000000000000000000000000000000000000000000000000000000000000000000000000000000000000000000000000000000000000000000000000000000000000000000000000000000000000000000000000000000000000000000000000000000000000000000000000000000000000000000000000000000000000000000000000000000000000000000000000000000000000000000000000000008302000001887fffffffffffffff82c2768203e880a0838f87ec465097d2bd768a9aeea63b6f6f3f449f9aabd10d3551958737b12fde88caa22e7607a9009ef8fff8fd8001843593cf7794095e7baea6a6c7c4c2dfeb977efac326af552d878412804f88b8977fffffffffffffffffffffffffffffffffffffffffffffffffffffffffffffffff5b407f000000000000000000000000945304eb96065b2a98b57a48a06ae28d285a71b57ffffffffffffffffffffffffffffffffffffffffffffffffffffffffffffffffe067f000000000000000000000000ffffffffffffffffffffffffffffffffffffffff6f618a8186756319140295026c0996871ca05379f7dea456f199a6ad99326acff4295c60356f56aa79faf75fbf6f44ac041ca05e01e7e7ed1b2b6d1386e4f613c57c18840a4db7a35b88811fff0946bd3fb467c0",
                "transactions" : [
                    {
                        "data" : "0x7fffffffffffffffffffffffffffffffffffffffffffffffffffffffffffffffff5b407f000000000000000000000000945304eb96065b2a98b57a48a06ae28d285a71b57ffffffffffffffffffffffffffffffffffffffffffffffffffffffffffffffffe067f000000000000000000000000ffffffffffffffffffffffffffffffffffffffff6f618a8186756319140295026c099687",
                        "gasLimit" : "0x3593cf77",
                        "gasPrice" : "0x01",
                        "nonce" : "0x00",
                        "r" : "0x5379f7dea456f199a6ad99326acff4295c60356f56aa79faf75fbf6f44ac041c",
                        "s" : "0x5e01e7e7ed1b2b6d1386e4f613c57c18840a4db7a35b88811fff0946bd3fb467",
                        "to" : "0x095e7baea6a6c7c4c2dfeb977efac326af552d87",
                        "v" : "0x1c",
                        "value" : "0x12804f88"
                    }
                ],
                "uncleHeaders" : [
                ]
            }
        ],
        "genesisBlockHeader" : {
            "bloom" : "0x00000000000000000000000000000000000000000000000000000000000000000000000000000000000000000000000000000000000000000000000000000000000000000000000000000000000000000000000000000000000000000000000000000000000000000000000000000000000000000000000000000000000000000000000000000000000000000000000000000000000000000000000000000000000000000000000000000000000000000000000000000000000000000000000000000000000000000000000000000000000000000000000000000000000000000000000000000000000000000000000000000000000000000000000000000000",
            "coinbase" : "0x945304eb96065b2a98b57a48a06ae28d285a71b5",
            "difficulty" : "0x020000",
            "extraData" : "0x42",
            "gasLimit" : "0x7fffffffffffffff",
            "gasUsed" : "0x00",
            "hash" : "0xe8cb50f87dc798fb2abdbcd7fda4f67e4e4839a6c6b21b7a0e49d457edbfb246",
            "mixHash" : "0x56e81f171bcc55a6ff8345e692c0f86e5b48e01b996cadc001622fb5e363b421",
            "nonce" : "0x0102030405060708",
            "number" : "0x00",
            "parentHash" : "0x0000000000000000000000000000000000000000000000000000000000000000",
            "receiptTrie" : "0x56e81f171bcc55a6ff8345e692c0f86e5b48e01b996cadc001622fb5e363b421",
            "stateRoot" : "0x2ed16d9b02704b445ea785bddcf4177f81e28130164d5a1447d80f65bf3167a4",
            "timestamp" : "0x03b6",
            "transactionsTrie" : "0x56e81f171bcc55a6ff8345e692c0f86e5b48e01b996cadc001622fb5e363b421",
            "uncleHash" : "0x1dcc4de8dec75d7aab85b567b6ccd41ad312451b948a7413f0a142fd40d49347"
        },
        "genesisRLP" : "0xf901fff901faa00000000000000000000000000000000000000000000000000000000000000000a01dcc4de8dec75d7aab85b567b6ccd41ad312451b948a7413f0a142fd40d4934794945304eb96065b2a98b57a48a06ae28d285a71b5a02ed16d9b02704b445ea785bddcf4177f81e28130164d5a1447d80f65bf3167a4a056e81f171bcc55a6ff8345e692c0f86e5b48e01b996cadc001622fb5e363b421a056e81f171bcc55a6ff8345e692c0f86e5b48e01b996cadc001622fb5e363b421b90100000000000000000000000000000000000000000000000000000000000000000000000000000000000000000000000000000000000000000000000000000000000000000000000000000000000000000000000000000000000000000000000000000000000000000000000000000000000000000000000000000000000000000000000000000000000000000000000000000000000000000000000000000000000000000000000000000000000000000000000000000000000000000000000000000000000000000000000000000000000000000000000000000000000000000000000000000000000000000000000000000000000000000000000000000000008302000080887fffffffffffffff808203b642a056e81f171bcc55a6ff8345e692c0f86e5b48e01b996cadc001622fb5e363b421880102030405060708c0c0",
        "lastblockhash" : "0xde3b3e9f5d0a295bd2c06ec4834d9d6126035419852a7a2bf7cdcbfa913df3b4",
        "network" : "Byzantium",
        "postState" : {
            "0x095e7baea6a6c7c4c2dfeb977efac326af552d87" : {
                "balance" : "0x12804f88",
                "code" : "0x7fffffffffffffffffffffffffffffffffffffffffffffffffffffffffffffffff5b407f000000000000000000000000945304eb96065b2a98b57a48a06ae28d285a71b57ffffffffffffffffffffffffffffffffffffffffffffffffffffffffffffffffe067f000000000000000000000000ffffffffffffffffffffffffffffffffffffffff6f618a8186756319140295026c0996875560005155",
                "nonce" : "0x00",
                "storage" : {
                    "0x00" : "0x618a8186756319140295026c09968755"
                }
            },
            "0x945304eb96065b2a98b57a48a06ae28d285a71b5" : {
                "balance" : "0x29a2241af62cc2a4",
                "code" : "0x6000355415600957005b60203560003555",
                "nonce" : "0x00",
                "storage" : {
                }
            },
            "0xa94f5374fce5edbc8e2a8697c15331677e6ebf0b" : {
                "balance" : "0x0de0b6b394e2ee02",
                "code" : "",
                "nonce" : "0x01",
                "storage" : {
                }
            }
        },
        "pre" : {
            "0x095e7baea6a6c7c4c2dfeb977efac326af552d87" : {
                "balance" : "0x00",
                "code" : "0x7fffffffffffffffffffffffffffffffffffffffffffffffffffffffffffffffff5b407f000000000000000000000000945304eb96065b2a98b57a48a06ae28d285a71b57ffffffffffffffffffffffffffffffffffffffffffffffffffffffffffffffffe067f000000000000000000000000ffffffffffffffffffffffffffffffffffffffff6f618a8186756319140295026c0996875560005155",
                "nonce" : "0x00",
                "storage" : {
                }
            },
            "0x945304eb96065b2a98b57a48a06ae28d285a71b5" : {
                "balance" : "0x2e",
                "code" : "0x6000355415600957005b60203560003555",
                "nonce" : "0x00",
                "storage" : {
                }
            },
            "0xa94f5374fce5edbc8e2a8697c15331677e6ebf0b" : {
                "balance" : "0x0de0b6b3a7640000",
                "code" : "",
                "nonce" : "0x00",
                "storage" : {
                }
            }
        }
    }
}
