{
    "randomStatetest258BC_Byzantium" : {
        "_info" : {
            "comment" : "",
            "filledwith" : "cpp-1.3.0+commit.6e0ce939.Linux.g++",
            "lllcversion" : "Version: 0.4.18-develop.2017.9.25+commit.a72237f2.Linux.g++",
            "source" : "src/BlockchainTestsFiller/bcRandomBlockhashTest/randomStatetest258BCFiller.json",
            "sourceHash" : "b5852c5058d2b2bde90b4d8863bc70631400761d9a3dd8d6c13c0a08e814f645"
        },
        "blocks" : [
            {
                "blockHeader" : {
                    "bloom" : "0x00000000000000000000000000000000000000000000000000000000000000000000000000000000000000000000000000000000000000000000000000000000000000000000000000000000000000000000000000000000000000000000000000000000000000000000000000000000000000000000000000000000000000000000000000000000000000000000000000000000000000000000000000000000000000000000000000000000000000000000000000000000000000000000000000000000000000000000000000000000000000000000000000000000000000000000000000000000000000000000000000000000000000000000000000000000",
                    "coinbase" : "0x945304eb96065b2a98b57a48a06ae28d285a71b5",
                    "difficulty" : "0x020000",
                    "extraData" : "",
                    "gasLimit" : "0x7fffffffffffffff",
                    "gasUsed" : "0xaf00",
                    "hash" : "0xaa1fa061a512ba68b7715b6af906a8b356558ce0295bfaaeada74ee3a2e45f1a",
                    "mixHash" : "0x7edb44da557dea409591f7c5983ab5d3e7aa441642c200674a6c41be4a9bddb2",
                    "nonce" : "0x8ef8fe551d9f9cf2",
                    "number" : "0x01",
                    "parentHash" : "0xe7d0c82b79f562aa7d1c7a81f2f4345fb7ed48cd379e3b790dcf00b1a522f4d2",
                    "receiptTrie" : "0xca1b19653a7dbf50f69a97f0480edae47d58c48595a17ac69faff7aa50d42601",
                    "stateRoot" : "0x444b7feed90db00202361bf15f9776370a4377fd157678218cbab1a3056afc4f",
                    "timestamp" : "0x03e8",
                    "transactionsTrie" : "0x4da96b9469f5ba42d2f4daf2cdc1194f0334669ee999595c815acd2c3bb265a0",
                    "uncleHash" : "0x1dcc4de8dec75d7aab85b567b6ccd41ad312451b948a7413f0a142fd40d49347"
                },
                "rlp" : "0xf90303f901fca0e7d0c82b79f562aa7d1c7a81f2f4345fb7ed48cd379e3b790dcf00b1a522f4d2a01dcc4de8dec75d7aab85b567b6ccd41ad312451b948a7413f0a142fd40d4934794945304eb96065b2a98b57a48a06ae28d285a71b5a0444b7feed90db00202361bf15f9776370a4377fd157678218cbab1a3056afc4fa04da96b9469f5ba42d2f4daf2cdc1194f0334669ee999595c815acd2c3bb265a0a0ca1b19653a7dbf50f69a97f0480edae47d58c48595a17ac69faff7aa50d42601b90100000000000000000000000000000000000000000000000000000000000000000000000000000000000000000000000000000000000000000000000000000000000000000000000000000000000000000000000000000000000000000000000000000000000000000000000000000000000000000000000000000000000000000000000000000000000000000000000000000000000000000000000000000000000000000000000000000000000000000000000000000000000000000000000000000000000000000000000000000000000000000000000000000000000000000000000000000000000000000000000000000000000000000000000000000000008302000001887fffffffffffffff82af008203e880a07edb44da557dea409591f7c5983ab5d3e7aa441642c200674a6c41be4a9bddb2888ef8fe551d9f9cf2f90100f8fe800184120fed1894095e7baea6a6c7c4c2dfeb977efac326af552d878465b61990b8987f000000000000000000000000945304eb96065b2a98b57a48a06ae28d285a71b554447f00000000000000000000000100000000000000000000000000000000000000007f00000000000000000000000000000000000000000000000000000000000000007f000000000000000000000000000000000000000000000000000000000000000145406f986d138a67320b4113330a64934f831ba060d079bae31fa906e5fcf0db9e48b022212c8dbde3c4d67c57e9b82c13c52ce8a06894e1f2655008afc0da841e6ff0030d55e18970e3d68b88d341229440f3df1cc0",
                "transactions" : [
                    {
                        "data" : "0x7f000000000000000000000000945304eb96065b2a98b57a48a06ae28d285a71b554447f00000000000000000000000100000000000000000000000000000000000000007f00000000000000000000000000000000000000000000000000000000000000007f000000000000000000000000000000000000000000000000000000000000000145406f986d138a67320b4113330a64934f83",
                        "gasLimit" : "0x120fed18",
                        "gasPrice" : "0x01",
                        "nonce" : "0x00",
                        "r" : "0x60d079bae31fa906e5fcf0db9e48b022212c8dbde3c4d67c57e9b82c13c52ce8",
                        "s" : "0x6894e1f2655008afc0da841e6ff0030d55e18970e3d68b88d341229440f3df1c",
                        "to" : "0x095e7baea6a6c7c4c2dfeb977efac326af552d87",
                        "v" : "0x1b",
                        "value" : "0x65b61990"
                    }
                ],
                "uncleHeaders" : [
                ]
            }
        ],
        "genesisBlockHeader" : {
            "bloom" : "0x00000000000000000000000000000000000000000000000000000000000000000000000000000000000000000000000000000000000000000000000000000000000000000000000000000000000000000000000000000000000000000000000000000000000000000000000000000000000000000000000000000000000000000000000000000000000000000000000000000000000000000000000000000000000000000000000000000000000000000000000000000000000000000000000000000000000000000000000000000000000000000000000000000000000000000000000000000000000000000000000000000000000000000000000000000000",
            "coinbase" : "0x945304eb96065b2a98b57a48a06ae28d285a71b5",
            "difficulty" : "0x020000",
            "extraData" : "0x42",
            "gasLimit" : "0x7fffffffffffffff",
            "gasUsed" : "0x00",
            "hash" : "0xe7d0c82b79f562aa7d1c7a81f2f4345fb7ed48cd379e3b790dcf00b1a522f4d2",
            "mixHash" : "0x56e81f171bcc55a6ff8345e692c0f86e5b48e01b996cadc001622fb5e363b421",
            "nonce" : "0x0102030405060708",
            "number" : "0x00",
            "parentHash" : "0x0000000000000000000000000000000000000000000000000000000000000000",
            "receiptTrie" : "0x56e81f171bcc55a6ff8345e692c0f86e5b48e01b996cadc001622fb5e363b421",
            "stateRoot" : "0xdc306afca17b5f24e8c58f8e327159d35254dd1ba9f454b1d214a80c5434c6ba",
            "timestamp" : "0x03b6",
            "transactionsTrie" : "0x56e81f171bcc55a6ff8345e692c0f86e5b48e01b996cadc001622fb5e363b421",
            "uncleHash" : "0x1dcc4de8dec75d7aab85b567b6ccd41ad312451b948a7413f0a142fd40d49347"
        },
        "genesisRLP" : "0xf901fff901faa00000000000000000000000000000000000000000000000000000000000000000a01dcc4de8dec75d7aab85b567b6ccd41ad312451b948a7413f0a142fd40d4934794945304eb96065b2a98b57a48a06ae28d285a71b5a0dc306afca17b5f24e8c58f8e327159d35254dd1ba9f454b1d214a80c5434c6baa056e81f171bcc55a6ff8345e692c0f86e5b48e01b996cadc001622fb5e363b421a056e81f171bcc55a6ff8345e692c0f86e5b48e01b996cadc001622fb5e363b421b90100000000000000000000000000000000000000000000000000000000000000000000000000000000000000000000000000000000000000000000000000000000000000000000000000000000000000000000000000000000000000000000000000000000000000000000000000000000000000000000000000000000000000000000000000000000000000000000000000000000000000000000000000000000000000000000000000000000000000000000000000000000000000000000000000000000000000000000000000000000000000000000000000000000000000000000000000000000000000000000000000000000000000000000000000000000008302000080887fffffffffffffff808203b642a056e81f171bcc55a6ff8345e692c0f86e5b48e01b996cadc001622fb5e363b421880102030405060708c0c0",
        "lastblockhash" : "0xaa1fa061a512ba68b7715b6af906a8b356558ce0295bfaaeada74ee3a2e45f1a",
        "network" : "Byzantium",
        "postState" : {
            "0x095e7baea6a6c7c4c2dfeb977efac326af552d87" : {
                "balance" : "0x65b61990",
                "code" : "0x7f000000000000000000000000945304eb96065b2a98b57a48a06ae28d285a71b554447f00000000000000000000000100000000000000000000000000000000000000007f00000000000000000000000000000000000000000000000000000000000000007f000000000000000000000000000000000000000000000000000000000000000145406f986d138a67320b4113330a64934f835560005155",
                "nonce" : "0x00",
                "storage" : {
                    "0x00" : "0x986d138a67320b4113330a64934f8355"
                }
            },
            "0x945304eb96065b2a98b57a48a06ae28d285a71b5" : {
                "balance" : "0x29a2241af62caf2e",
                "code" : "0x6000355415600957005b60203560003555",
                "nonce" : "0x00",
                "storage" : {
                }
            },
            "0xa94f5374fce5edbc8e2a8697c15331677e6ebf0b" : {
                "balance" : "0x0de0b6b341ad3770",
                "code" : "",
                "nonce" : "0x01",
                "storage" : {
                }
            }
        },
        "pre" : {
            "0x095e7baea6a6c7c4c2dfeb977efac326af552d87" : {
                "balance" : "0x00",
                "code" : "0x7f000000000000000000000000945304eb96065b2a98b57a48a06ae28d285a71b554447f00000000000000000000000100000000000000000000000000000000000000007f00000000000000000000000000000000000000000000000000000000000000007f000000000000000000000000000000000000000000000000000000000000000145406f986d138a67320b4113330a64934f835560005155",
                "nonce" : "0x00",
                "storage" : {
                }
            },
            "0x945304eb96065b2a98b57a48a06ae28d285a71b5" : {
                "balance" : "0x2e",
                "code" : "0x6000355415600957005b60203560003555",
                "nonce" : "0x00",
                "storage" : {
                }
            },
            "0xa94f5374fce5edbc8e2a8697c15331677e6ebf0b" : {
                "balance" : "0x0de0b6b3a7640000",
                "code" : "",
                "nonce" : "0x00",
                "storage" : {
                }
            }
        }
    }
}
