{
    "randomStatetest193BC_Byzantium" : {
        "_info" : {
            "comment" : "",
            "filledwith" : "cpp-1.3.0+commit.6e0ce939.Linux.g++",
            "lllcversion" : "Version: 0.4.18-develop.2017.9.25+commit.a72237f2.Linux.g++",
            "source" : "src/BlockchainTestsFiller/bcRandomBlockhashTest/randomStatetest193BCFiller.json",
            "sourceHash" : "12b8a668d85ac150037d0e3ec9e0ac937715c508b70eed0967fb101956fa7e94"
        },
        "blocks" : [
            {
                "blockHeader" : {
                    "bloom" : "0x00000000000000000000000000000000000000000000000000000000000000000000000000000000000000000000000000000000000000000000000000000000000000000000000000000000000000000000000000000000000000000000000000000000000000000000000000000000000000000000000000000000000000000000000000000000000000000000000000000000000000000000000000000000000000000000000000000000000000000000000000000000000000000000000000000000000000000000000000000000000000000000000000000000000000000000000000000000000000000000000000000000000000000000000000000000",
                    "coinbase" : "0x945304eb96065b2a98b57a48a06ae28d285a71b5",
                    "difficulty" : "0x020000",
                    "extraData" : "",
                    "gasLimit" : "0x7fffffffffffffff",
                    "gasUsed" : "0x417a",
                    "hash" : "0xc324f5adf0149c1f0a7120b9cedac9c89f4fe073b1e68fd2e910942059c11f6a",
                    "mixHash" : "0x7710fddc30b4ed960e403e06c1894c898fa3fef0f31c3883166a24f65f81861f",
                    "nonce" : "0xe780f43a79f56dee",
                    "number" : "0x01",
                    "parentHash" : "0xb0e9ca3f17f1a8d4dbd0db266b2794b94fb002770baa0d53dad7fac46233670a",
                    "receiptTrie" : "0xadcc71c3360a20326c87ef11e2a8752b834e0308b0c1922564549ba0870c5ea0",
                    "stateRoot" : "0xc60a8520ad6cc07057ac2d89948450cc40d8b8077318a7f05f2425e88c58f27c",
                    "timestamp" : "0x03e8",
                    "transactionsTrie" : "0x181dc8dd572e314f841be5395f42231c7b7608dead4c5090b274999a825c66d1",
                    "uncleHash" : "0x1dcc4de8dec75d7aab85b567b6ccd41ad312451b948a7413f0a142fd40d49347"
                },
                "rlp" : "0xf9033bf901fca0b0e9ca3f17f1a8d4dbd0db266b2794b94fb002770baa0d53dad7fac46233670aa01dcc4de8dec75d7aab85b567b6ccd41ad312451b948a7413f0a142fd40d4934794945304eb96065b2a98b57a48a06ae28d285a71b5a0c60a8520ad6cc07057ac2d89948450cc40d8b8077318a7f05f2425e88c58f27ca0181dc8dd572e314f841be5395f42231c7b7608dead4c5090b274999a825c66d1a0adcc71c3360a20326c87ef11e2a8752b834e0308b0c1922564549ba0870c5ea0b90100000000000000000000000000000000000000000000000000000000000000000000000000000000000000000000000000000000000000000000000000000000000000000000000000000000000000000000000000000000000000000000000000000000000000000000000000000000000000000000000000000000000000000000000000000000000000000000000000000000000000000000000000000000000000000000000000000000000000000000000000000000000000000000000000000000000000000000000000000000000000000000000000000000000000000000000000000000000000000000000000000000000000000000000000000000008302000001887fffffffffffffff82417a8203e880a07710fddc30b4ed960e403e06c1894c898fa3fef0f31c3883166a24f65f81861f88e780f43a79f56deef90138f901358001847fc7181494095e7baea6a6c7c4c2dfeb977efac326af552d878478221579b8cf7f00000000000000000000000000000000000000000000000000000000000000017f000000000000000000000000000000000000000000000000000000000000c350417fffffffffffffffffffffffffffffffffffffffffffffffffffffffffffffffff7f000000000000000000000000000000000000000000000000000000000000c3507fffffffffffffffffffffffffffffffffffffffffffffffffffffffffffffffff407f000000000000000000000000945304eb96065b2a98b57a48a06ae28d285a71b5ff6b42909913521ca09949ed3ae7ebe35260962232903179206324d51e32c0c5b7cc6905084ff88b0ba0446f532f90219ba4881e984fdafe7fee14704fb2565928045f320f82965d775fc0",
                "transactions" : [
                    {
                        "data" : "0x7f00000000000000000000000000000000000000000000000000000000000000017f000000000000000000000000000000000000000000000000000000000000c350417fffffffffffffffffffffffffffffffffffffffffffffffffffffffffffffffff7f000000000000000000000000000000000000000000000000000000000000c3507fffffffffffffffffffffffffffffffffffffffffffffffffffffffffffffffff407f000000000000000000000000945304eb96065b2a98b57a48a06ae28d285a71b5ff6b4290991352",
                        "gasLimit" : "0x7fc71814",
                        "gasPrice" : "0x01",
                        "nonce" : "0x00",
                        "r" : "0x9949ed3ae7ebe35260962232903179206324d51e32c0c5b7cc6905084ff88b0b",
                        "s" : "0x446f532f90219ba4881e984fdafe7fee14704fb2565928045f320f82965d775f",
                        "to" : "0x095e7baea6a6c7c4c2dfeb977efac326af552d87",
                        "v" : "0x1c",
                        "value" : "0x78221579"
                    }
                ],
                "uncleHeaders" : [
                ]
            }
        ],
        "genesisBlockHeader" : {
            "bloom" : "0x00000000000000000000000000000000000000000000000000000000000000000000000000000000000000000000000000000000000000000000000000000000000000000000000000000000000000000000000000000000000000000000000000000000000000000000000000000000000000000000000000000000000000000000000000000000000000000000000000000000000000000000000000000000000000000000000000000000000000000000000000000000000000000000000000000000000000000000000000000000000000000000000000000000000000000000000000000000000000000000000000000000000000000000000000000000",
            "coinbase" : "0x945304eb96065b2a98b57a48a06ae28d285a71b5",
            "difficulty" : "0x020000",
            "extraData" : "0x42",
            "gasLimit" : "0x7fffffffffffffff",
            "gasUsed" : "0x00",
            "hash" : "0xb0e9ca3f17f1a8d4dbd0db266b2794b94fb002770baa0d53dad7fac46233670a",
            "mixHash" : "0x56e81f171bcc55a6ff8345e692c0f86e5b48e01b996cadc001622fb5e363b421",
            "nonce" : "0x0102030405060708",
            "number" : "0x00",
            "parentHash" : "0x0000000000000000000000000000000000000000000000000000000000000000",
            "receiptTrie" : "0x56e81f171bcc55a6ff8345e692c0f86e5b48e01b996cadc001622fb5e363b421",
            "stateRoot" : "0x765f59d71a425ce2eec964dca7cac932c023e9b04a7c072ca22b457c48b98587",
            "timestamp" : "0x03b6",
            "transactionsTrie" : "0x56e81f171bcc55a6ff8345e692c0f86e5b48e01b996cadc001622fb5e363b421",
            "uncleHash" : "0x1dcc4de8dec75d7aab85b567b6ccd41ad312451b948a7413f0a142fd40d49347"
        },
        "genesisRLP" : "0xf901fff901faa00000000000000000000000000000000000000000000000000000000000000000a01dcc4de8dec75d7aab85b567b6ccd41ad312451b948a7413f0a142fd40d4934794945304eb96065b2a98b57a48a06ae28d285a71b5a0765f59d71a425ce2eec964dca7cac932c023e9b04a7c072ca22b457c48b98587a056e81f171bcc55a6ff8345e692c0f86e5b48e01b996cadc001622fb5e363b421a056e81f171bcc55a6ff8345e692c0f86e5b48e01b996cadc001622fb5e363b421b90100000000000000000000000000000000000000000000000000000000000000000000000000000000000000000000000000000000000000000000000000000000000000000000000000000000000000000000000000000000000000000000000000000000000000000000000000000000000000000000000000000000000000000000000000000000000000000000000000000000000000000000000000000000000000000000000000000000000000000000000000000000000000000000000000000000000000000000000000000000000000000000000000000000000000000000000000000000000000000000000000000000000000000000000000000000008302000080887fffffffffffffff808203b642a056e81f171bcc55a6ff8345e692c0f86e5b48e01b996cadc001622fb5e363b421880102030405060708c0c0",
        "lastblockhash" : "0xc324f5adf0149c1f0a7120b9cedac9c89f4fe073b1e68fd2e910942059c11f6a",
        "network" : "Byzantium",
        "postState" : {
            "0x945304eb96065b2a98b57a48a06ae28d285a71b5" : {
                "balance" : "0x29a2241b6e4e5721",
                "code" : "0x6000355415600957005b60203560003555",
                "nonce" : "0x00",
                "storage" : {
                }
            },
            "0xa94f5374fce5edbc8e2a8697c15331677e6ebf0b" : {
                "balance" : "0x0de0b6b32f41a90d",
                "code" : "",
                "nonce" : "0x01",
                "storage" : {
                }
            }
        },
        "pre" : {
            "0x095e7baea6a6c7c4c2dfeb977efac326af552d87" : {
                "balance" : "0x00",
                "code" : "0x7f00000000000000000000000000000000000000000000000000000000000000017f000000000000000000000000000000000000000000000000000000000000c350417fffffffffffffffffffffffffffffffffffffffffffffffffffffffffffffffff7f000000000000000000000000000000000000000000000000000000000000c3507fffffffffffffffffffffffffffffffffffffffffffffffffffffffffffffffff407f000000000000000000000000945304eb96065b2a98b57a48a06ae28d285a71b5ff6b4290991352",
                "nonce" : "0x00",
                "storage" : {
                }
            },
            "0x945304eb96065b2a98b57a48a06ae28d285a71b5" : {
                "balance" : "0x2e",
                "code" : "0x6000355415600957005b60203560003555",
                "nonce" : "0x00",
                "storage" : {
                }
            },
            "0xa94f5374fce5edbc8e2a8697c15331677e6ebf0b" : {
                "balance" : "0x0de0b6b3a7640000",
                "code" : "",
                "nonce" : "0x00",
                "storage" : {
                }
            }
        }
    }
}
