{
    "randomStatetest606BC_Byzantium" : {
        "_info" : {
            "comment" : "",
            "filledwith" : "cpp-1.3.0+commit.6e0ce939.Linux.g++",
            "lllcversion" : "Version: 0.4.18-develop.2017.9.25+commit.a72237f2.Linux.g++",
            "source" : "src/BlockchainTestsFiller/bcRandomBlockhashTest/randomStatetest606BCFiller.json",
            "sourceHash" : "31f0b70215a4c30ecf6ab61c5d0bf706e349afd0d915aff17db5bdfddfff9f7f"
        },
        "blocks" : [
            {
                "blockHeader" : {
                    "bloom" : "0x00000000000000000000000000000000000000000000000000000000000000000000000000000000000000000000000000000000000000000000000000000000000000000000000000000000000000000000000000000000000000000000000000000000000000000000000000000000000000000000000000000000000000000000000000000000000000000000000000000000000000000000000000000000000000000000000000000000000000000000000000000000000000000000000000000000000000000000000000000000000000000000000000000000000000000000000000000000000000000000000000000000000000000000000000000000",
                    "coinbase" : "0x945304eb96065b2a98b57a48a06ae28d285a71b5",
                    "difficulty" : "0x020000",
                    "extraData" : "",
                    "gasLimit" : "0x7fffffffffffffff",
                    "gasUsed" : "0x8b96",
                    "hash" : "0x6923ea81c20399a1ca387f213e2ec29407210deb16503608b1c5a24d49c7d09d",
                    "mixHash" : "0xb27da9d744ec1fcd643aef66d4ae8c5372bd44b775b274c9abf256f959fed63b",
                    "nonce" : "0x6d81a4cc516ac69b",
                    "number" : "0x01",
                    "parentHash" : "0xbf58e21ac02253cfcba703209378759b2f3c66fa718364b634ec8d627beb797b",
                    "receiptTrie" : "0xbafa8a80818dc8319a205f86836056510d9819f5dd4cdfd63eb7baa54ff2f2b0",
                    "stateRoot" : "0x129bfaaa7aee6de5995de27ddc7e77f0929601634701e30f528d00c051626cc0",
                    "timestamp" : "0x03e8",
                    "transactionsTrie" : "0xb8a7152c9c0bb83a692af1ad691b61761217b50190bd6f4c8008c213a152f0d1",
                    "uncleHash" : "0x1dcc4de8dec75d7aab85b567b6ccd41ad312451b948a7413f0a142fd40d49347"
                },
                "rlp" : "0xf90322f901fca0bf58e21ac02253cfcba703209378759b2f3c66fa718364b634ec8d627beb797ba01dcc4de8dec75d7aab85b567b6ccd41ad312451b948a7413f0a142fd40d4934794945304eb96065b2a98b57a48a06ae28d285a71b5a0129bfaaa7aee6de5995de27ddc7e77f0929601634701e30f528d00c051626cc0a0b8a7152c9c0bb83a692af1ad691b61761217b50190bd6f4c8008c213a152f0d1a0bafa8a80818dc8319a205f86836056510d9819f5dd4cdfd63eb7baa54ff2f2b0b90100000000000000000000000000000000000000000000000000000000000000000000000000000000000000000000000000000000000000000000000000000000000000000000000000000000000000000000000000000000000000000000000000000000000000000000000000000000000000000000000000000000000000000000000000000000000000000000000000000000000000000000000000000000000000000000000000000000000000000000000000000000000000000000000000000000000000000000000000000000000000000000000000000000000000000000000000000000000000000000000000000000000000000000000000000000008302000001887fffffffffffffff828b968203e880a0b27da9d744ec1fcd643aef66d4ae8c5372bd44b775b274c9abf256f959fed63b886d81a4cc516ac69bf9011ff9011c8001841d7057a694095e7baea6a6c7c4c2dfeb977efac326af552d878441570179b8b67f000000000000000000000000000000000000000000000000000000000000c3507fffffffffffffffffffffffffffffffffffffffffffffffffffffffffffffffff7ffffffffffffffffffffffffffffffffffffffffffffffffffffffffffffffffe7fffffffffffffffffffffffffffffffffffffffffffffffffffffffffffffffff097f000000000000000000000000ffffffffffffffffffffffffffffffffffffffff40557cf03c31a361388d89ea8065866f1ba0d3b553fc888996d5841fb16d5bbc5da7dbb3e49e8e01ccae982e86e0c965ce24a0262e3133937e012df3aba5be6c0b5bd847ec8674e4471951c25a857a33ec3648c0",
                "transactions" : [
                    {
                        "data" : "0x7f000000000000000000000000000000000000000000000000000000000000c3507fffffffffffffffffffffffffffffffffffffffffffffffffffffffffffffffff7ffffffffffffffffffffffffffffffffffffffffffffffffffffffffffffffffe7fffffffffffffffffffffffffffffffffffffffffffffffffffffffffffffffff097f000000000000000000000000ffffffffffffffffffffffffffffffffffffffff40557cf03c31a361388d89ea8065866f",
                        "gasLimit" : "0x1d7057a6",
                        "gasPrice" : "0x01",
                        "nonce" : "0x00",
                        "r" : "0xd3b553fc888996d5841fb16d5bbc5da7dbb3e49e8e01ccae982e86e0c965ce24",
                        "s" : "0x262e3133937e012df3aba5be6c0b5bd847ec8674e4471951c25a857a33ec3648",
                        "to" : "0x095e7baea6a6c7c4c2dfeb977efac326af552d87",
                        "v" : "0x1b",
                        "value" : "0x41570179"
                    }
                ],
                "uncleHeaders" : [
                ]
            }
        ],
        "genesisBlockHeader" : {
            "bloom" : "0x00000000000000000000000000000000000000000000000000000000000000000000000000000000000000000000000000000000000000000000000000000000000000000000000000000000000000000000000000000000000000000000000000000000000000000000000000000000000000000000000000000000000000000000000000000000000000000000000000000000000000000000000000000000000000000000000000000000000000000000000000000000000000000000000000000000000000000000000000000000000000000000000000000000000000000000000000000000000000000000000000000000000000000000000000000000",
            "coinbase" : "0x945304eb96065b2a98b57a48a06ae28d285a71b5",
            "difficulty" : "0x020000",
            "extraData" : "0x42",
            "gasLimit" : "0x7fffffffffffffff",
            "gasUsed" : "0x00",
            "hash" : "0xbf58e21ac02253cfcba703209378759b2f3c66fa718364b634ec8d627beb797b",
            "mixHash" : "0x56e81f171bcc55a6ff8345e692c0f86e5b48e01b996cadc001622fb5e363b421",
            "nonce" : "0x0102030405060708",
            "number" : "0x00",
            "parentHash" : "0x0000000000000000000000000000000000000000000000000000000000000000",
            "receiptTrie" : "0x56e81f171bcc55a6ff8345e692c0f86e5b48e01b996cadc001622fb5e363b421",
            "stateRoot" : "0x3e3afcd6e18f1dfa11c1693a7bdeffbfad54aa243d6f568d8cb0813b7866278a",
            "timestamp" : "0x03b6",
            "transactionsTrie" : "0x56e81f171bcc55a6ff8345e692c0f86e5b48e01b996cadc001622fb5e363b421",
            "uncleHash" : "0x1dcc4de8dec75d7aab85b567b6ccd41ad312451b948a7413f0a142fd40d49347"
        },
        "genesisRLP" : "0xf901fff901faa00000000000000000000000000000000000000000000000000000000000000000a01dcc4de8dec75d7aab85b567b6ccd41ad312451b948a7413f0a142fd40d4934794945304eb96065b2a98b57a48a06ae28d285a71b5a03e3afcd6e18f1dfa11c1693a7bdeffbfad54aa243d6f568d8cb0813b7866278aa056e81f171bcc55a6ff8345e692c0f86e5b48e01b996cadc001622fb5e363b421a056e81f171bcc55a6ff8345e692c0f86e5b48e01b996cadc001622fb5e363b421b90100000000000000000000000000000000000000000000000000000000000000000000000000000000000000000000000000000000000000000000000000000000000000000000000000000000000000000000000000000000000000000000000000000000000000000000000000000000000000000000000000000000000000000000000000000000000000000000000000000000000000000000000000000000000000000000000000000000000000000000000000000000000000000000000000000000000000000000000000000000000000000000000000000000000000000000000000000000000000000000000000000000000000000000000000000000008302000080887fffffffffffffff808203b642a056e81f171bcc55a6ff8345e692c0f86e5b48e01b996cadc001622fb5e363b421880102030405060708c0c0",
        "lastblockhash" : "0x6923ea81c20399a1ca387f213e2ec29407210deb16503608b1c5a24d49c7d09d",
        "network" : "Byzantium",
        "postState" : {
            "0x095e7baea6a6c7c4c2dfeb977efac326af552d87" : {
                "balance" : "0x41570179",
                "code" : "0x7f000000000000000000000000000000000000000000000000000000000000c3507fffffffffffffffffffffffffffffffffffffffffffffffffffffffffffffffff7ffffffffffffffffffffffffffffffffffffffffffffffffffffffffffffffffe7fffffffffffffffffffffffffffffffffffffffffffffffffffffffffffffffff097f000000000000000000000000ffffffffffffffffffffffffffffffffffffffff40557cf03c31a361388d89ea8065866f",
                "nonce" : "0x00",
                "storage" : {
                }
            },
            "0x945304eb96065b2a98b57a48a06ae28d285a71b5" : {
                "balance" : "0x29a2241af62c8bc4",
                "code" : "0x6000355415600957005b60203560003555",
                "nonce" : "0x00",
                "storage" : {
                }
            },
            "0xa94f5374fce5edbc8e2a8697c15331677e6ebf0b" : {
                "balance" : "0x0de0b6b3660c72f1",
                "code" : "",
                "nonce" : "0x01",
                "storage" : {
                }
            }
        },
        "pre" : {
            "0x095e7baea6a6c7c4c2dfeb977efac326af552d87" : {
                "balance" : "0x00",
                "code" : "0x7f000000000000000000000000000000000000000000000000000000000000c3507fffffffffffffffffffffffffffffffffffffffffffffffffffffffffffffffff7ffffffffffffffffffffffffffffffffffffffffffffffffffffffffffffffffe7fffffffffffffffffffffffffffffffffffffffffffffffffffffffffffffffff097f000000000000000000000000ffffffffffffffffffffffffffffffffffffffff40557cf03c31a361388d89ea8065866f",
                "nonce" : "0x00",
                "storage" : {
                }
            },
            "0x945304eb96065b2a98b57a48a06ae28d285a71b5" : {
                "balance" : "0x2e",
                "code" : "0x6000355415600957005b60203560003555",
                "nonce" : "0x00",
                "storage" : {
                }
            },
            "0xa94f5374fce5edbc8e2a8697c15331677e6ebf0b" : {
                "balance" : "0x0de0b6b3a7640000",
                "code" : "",
                "nonce" : "0x00",
                "storage" : {
                }
            }
        }
    }
}
