{
    "lotsOfLeafs_Byzantium" : {
        "_info" : {
            "comment" : "",
            "filledwith" : "cpp-1.3.0+commit.6e0ce939.Linux.g++",
            "lllcversion" : "Version: 0.4.18-develop.2017.9.25+commit.a72237f2.Linux.g++",
            "source" : "src/BlockchainTestsFiller/bcTotalDifficultyTest/lotsOfLeafsFiller.json",
            "sourceHash" : "bb5e3b361429a2694f4cd31dee0a8ac162dfcad6f46bb4301d31ba84b4c20f39"
        },
        "blocks" : [
            {
                "blockHeader" : {
                    "bloom" : "0x00000000000000000000000000000000000000000000000000000000000000000000000000000000000000000000000000000000000000000000000000000000000000000000000000000000000000000000000000000000000000000000000000000000000000000000000000000000000000000000000000000000000000000000000000000000000000000000000000000000000000000000000000000000000000000000000000000000000000000000000000000000000000000000000000000000000000000000000000000000000000000000000000000000000000000000000000000000000000000000000000000000000000000000000000000000",
                    "coinbase" : "0x8888f1f195afa192cfee860698584c030f4c9db1",
                    "difficulty" : "0x035b50",
                    "extraData" : "",
                    "gasLimit" : "0x2fefba",
                    "gasUsed" : "0x5208",
                    "hash" : "0x981bc3ebeed1f672345ab97c7ad9029c5b35103721d395d20b9d53bd18ef37e4",
                    "mixHash" : "0x14d0ccecf3b060f35ac3e7938568318870da2b40cb5b920c25ad87b68337448d",
                    "nonce" : "0xedf7dbbf1e5736fd",
                    "number" : "0x01",
                    "parentHash" : "0x6d991da1db456d86ca4438279b25d771e8e8d4fd288be2f2bc3a49d6b04f29ee",
                    "receiptTrie" : "0x056b23fbba480696b65fe5a59b8f2148a1299103c4f57df839233af2cf4ca2d2",
                    "stateRoot" : "0x886bafa47b0536bb4ae070d54e0c1a2023331483a0e07fa3aea122ccefc7e2df",
                    "timestamp" : "0x59d666df",
                    "transactionsTrie" : "0x21ca11429aca1bd82ce042ca3f678e5851d4d40dd6ba1ba9676d828977745adc",
                    "uncleHash" : "0x1dcc4de8dec75d7aab85b567b6ccd41ad312451b948a7413f0a142fd40d49347"
                },
                "blocknumber" : "1",
                "rlp" : "0xf90261f901f9a06d991da1db456d86ca4438279b25d771e8e8d4fd288be2f2bc3a49d6b04f29eea01dcc4de8dec75d7aab85b567b6ccd41ad312451b948a7413f0a142fd40d49347948888f1f195afa192cfee860698584c030f4c9db1a0886bafa47b0536bb4ae070d54e0c1a2023331483a0e07fa3aea122ccefc7e2dfa021ca11429aca1bd82ce042ca3f678e5851d4d40dd6ba1ba9676d828977745adca0056b23fbba480696b65fe5a59b8f2148a1299103c4f57df839233af2cf4ca2d2b901000000000000000000000000000000000000000000000000000000000000000000000000000000000000000000000000000000000000000000000000000000000000000000000000000000000000000000000000000000000000000000000000000000000000000000000000000000000000000000000000000000000000000000000000000000000000000000000000000000000000000000000000000000000000000000000000000000000000000000000000000000000000000000000000000000000000000000000000000000000000000000000000000000000000000000000000000000000000000000000000000000000000000000000000000000000083035b5001832fefba8252088459d666df80a014d0ccecf3b060f35ac3e7938568318870da2b40cb5b920c25ad87b68337448d88edf7dbbf1e5736fdf862f86080018304cb2f94095e7baea6a6c7c4c2dfeb977efac326af552d8780801ca0d8c3d8bdd11779b7fa8b672699646f6c62e7637f90ae50216936688cd060d5aca013c873b28a04a51026e9692c93e0f20d69109ba1972d58057d1e3a195f41a727c0",
                "transactions" : [
                    {
                        "data" : "",
                        "gasLimit" : "0x04cb2f",
                        "gasPrice" : "0x01",
                        "nonce" : "0x00",
                        "r" : "0xd8c3d8bdd11779b7fa8b672699646f6c62e7637f90ae50216936688cd060d5ac",
                        "s" : "0x13c873b28a04a51026e9692c93e0f20d69109ba1972d58057d1e3a195f41a727",
                        "to" : "0x095e7baea6a6c7c4c2dfeb977efac326af552d87",
                        "v" : "0x1c",
                        "value" : "0x00"
                    }
                ],
                "uncleHeaders" : [
                ]
            },
            {
                "blockHeader" : {
                    "bloom" : "0x00000000000000000000000000000000000000000000000000000000000000000000000000000000000000000000000000000000000000000000000000000000000000000000000000000000000000000000000000000000000000000000000000000000000000000000000000000000000000000000000000000000000000000000000000000000000000000000000000000000000000000000000000000000000000000000000000000000000000000000000000000000000000000000000000000000000000000000000000000000000000000000000000000000000000000000000000000000000000000000000000000000000000000000000000000000",
                    "coinbase" : "0x8888f1f195afa192cfee860698584c030f4c9db1",
                    "difficulty" : "0x035bbb",
                    "extraData" : "",
                    "gasLimit" : "0x2fefba",
                    "gasUsed" : "0x5208",
                    "hash" : "0x59588286b8fce82cc00dc6ae13aa5745b44f71ef77c8f7439ce8edac270c0b3b",
                    "mixHash" : "0x1adae2d1d3cad36cb8f77b45d71f43844549b94a08b498bf5a2d405e25f6b13c",
                    "nonce" : "0x3fe61d8e3ec756cb",
                    "number" : "0x02",
                    "parentHash" : "0x981bc3ebeed1f672345ab97c7ad9029c5b35103721d395d20b9d53bd18ef37e4",
                    "receiptTrie" : "0x056b23fbba480696b65fe5a59b8f2148a1299103c4f57df839233af2cf4ca2d2",
                    "stateRoot" : "0x0c2c66a78eb0e38ea6a5b3a693731b0718e20007e8de9e8f0674a21fa8541ba7",
                    "timestamp" : "0x59d666e2",
                    "transactionsTrie" : "0x0abf4a9e610582d29ac505c389230c598d54e74441f481954249ddc39fe7f9af",
                    "uncleHash" : "0x1dcc4de8dec75d7aab85b567b6ccd41ad312451b948a7413f0a142fd40d49347"
                },
                "blocknumber" : "2",
                "rlp" : "0xf90261f901f9a0981bc3ebeed1f672345ab97c7ad9029c5b35103721d395d20b9d53bd18ef37e4a01dcc4de8dec75d7aab85b567b6ccd41ad312451b948a7413f0a142fd40d49347948888f1f195afa192cfee860698584c030f4c9db1a00c2c66a78eb0e38ea6a5b3a693731b0718e20007e8de9e8f0674a21fa8541ba7a00abf4a9e610582d29ac505c389230c598d54e74441f481954249ddc39fe7f9afa0056b23fbba480696b65fe5a59b8f2148a1299103c4f57df839233af2cf4ca2d2b901000000000000000000000000000000000000000000000000000000000000000000000000000000000000000000000000000000000000000000000000000000000000000000000000000000000000000000000000000000000000000000000000000000000000000000000000000000000000000000000000000000000000000000000000000000000000000000000000000000000000000000000000000000000000000000000000000000000000000000000000000000000000000000000000000000000000000000000000000000000000000000000000000000000000000000000000000000000000000000000000000000000000000000000000000000000083035bbb02832fefba8252088459d666e280a01adae2d1d3cad36cb8f77b45d71f43844549b94a08b498bf5a2d405e25f6b13c883fe61d8e3ec756cbf862f86001018304cb2f94095e7baea6a6c7c4c2dfeb977efac326af552d8780801ba0604ff269abdc5f9caafae2deb24c15d0596033e4e32023f152ea3143dc3faeeaa04f704a5b7f09d0ab97254ad3b21fd53560f18f4d76e6eae2adadcc634320e7b4c0",
                "transactions" : [
                    {
                        "data" : "",
                        "gasLimit" : "0x04cb2f",
                        "gasPrice" : "0x01",
                        "nonce" : "0x01",
                        "r" : "0x604ff269abdc5f9caafae2deb24c15d0596033e4e32023f152ea3143dc3faeea",
                        "s" : "0x4f704a5b7f09d0ab97254ad3b21fd53560f18f4d76e6eae2adadcc634320e7b4",
                        "to" : "0x095e7baea6a6c7c4c2dfeb977efac326af552d87",
                        "v" : "0x1b",
                        "value" : "0x00"
                    }
                ],
                "uncleHeaders" : [
                ]
            },
            {
                "blockHeader" : {
                    "bloom" : "0x00000000000000000000000000000000000000000000000000000000000000000000000000000000000000000000000000000000000000000000000000000000000000000000000000000000000000000000000000000000000000000000000000000000000000000000000000000000000000000000000000000000000000000000000000000000000000000000000000000000000000000000000000000000000000000000000000000000000000000000000000000000000000000000000000000000000000000000000000000000000000000000000000000000000000000000000000000000000000000000000000000000000000000000000000000000",
                    "coinbase" : "0x8888f1f195afa192cfee860698584c030f4c9db1",
                    "difficulty" : "0x0356b7",
                    "extraData" : "",
                    "gasLimit" : "0x2fefba",
                    "gasUsed" : "0x5208",
                    "hash" : "0x8aab51d81a6ca478bb7a2816b891942a55b8526a502caa1db84ffebc45845a95",
                    "mixHash" : "0xa0029e036b1d20ea029eb0b4079dbec279ff86a7af77d6612925af4607e8c096",
                    "nonce" : "0xd55fcb0ac70726d0",
                    "number" : "0x03",
                    "parentHash" : "0x59588286b8fce82cc00dc6ae13aa5745b44f71ef77c8f7439ce8edac270c0b3b",
                    "receiptTrie" : "0x056b23fbba480696b65fe5a59b8f2148a1299103c4f57df839233af2cf4ca2d2",
                    "stateRoot" : "0xab0ab7ae6c1bb6691c4fbd029bb654dab33efe67c7921474945047328c88fcc5",
                    "timestamp" : "0x59d6675a",
                    "transactionsTrie" : "0x80d4b46e8fe207267e6c285a3dda9ec5ced32396da0061816fc9c663ec9e378e",
                    "uncleHash" : "0x1dcc4de8dec75d7aab85b567b6ccd41ad312451b948a7413f0a142fd40d49347"
                },
                "blocknumber" : "3",
                "rlp" : "0xf90261f901f9a059588286b8fce82cc00dc6ae13aa5745b44f71ef77c8f7439ce8edac270c0b3ba01dcc4de8dec75d7aab85b567b6ccd41ad312451b948a7413f0a142fd40d49347948888f1f195afa192cfee860698584c030f4c9db1a0ab0ab7ae6c1bb6691c4fbd029bb654dab33efe67c7921474945047328c88fcc5a080d4b46e8fe207267e6c285a3dda9ec5ced32396da0061816fc9c663ec9e378ea0056b23fbba480696b65fe5a59b8f2148a1299103c4f57df839233af2cf4ca2d2b9010000000000000000000000000000000000000000000000000000000000000000000000000000000000000000000000000000000000000000000000000000000000000000000000000000000000000000000000000000000000000000000000000000000000000000000000000000000000000000000000000000000000000000000000000000000000000000000000000000000000000000000000000000000000000000000000000000000000000000000000000000000000000000000000000000000000000000000000000000000000000000000000000000000000000000000000000000000000000000000000000000000000000000000000000000000000830356b703832fefba8252088459d6675a80a0a0029e036b1d20ea029eb0b4079dbec279ff86a7af77d6612925af4607e8c09688d55fcb0ac70726d0f862f86002018304cb2f94095e7baea6a6c7c4c2dfeb977efac326af552d8701801ca049c097ec19a9bb679b0e274d28ac550908402a04d5d5e97704248d2018cc52dba06372a58cd7c606d7fb0183d4d80b43a385cf7cfb2f0ad21edde9900753c03d60c0",
                "transactions" : [
                    {
                        "data" : "",
                        "gasLimit" : "0x04cb2f",
                        "gasPrice" : "0x01",
                        "nonce" : "0x02",
                        "r" : "0x49c097ec19a9bb679b0e274d28ac550908402a04d5d5e97704248d2018cc52db",
                        "s" : "0x6372a58cd7c606d7fb0183d4d80b43a385cf7cfb2f0ad21edde9900753c03d60",
                        "to" : "0x095e7baea6a6c7c4c2dfeb977efac326af552d87",
                        "v" : "0x1c",
                        "value" : "0x01"
                    }
                ],
                "uncleHeaders" : [
                ]
            },
            {
                "blockHeader" : {
                    "bloom" : "0x00000000000000000000000000000000000000000000000000000000000000000000000000000000000000000000000000000000000000000000000000000000000000000000000000000000000000000000000000000000000000000000000000000000000000000000000000000000000000000000000000000000000000000000000000000000000000000000000000000000000000000000000000000000000000000000000000000000000000000000000000000000000000000000000000000000000000000000000000000000000000000000000000000000000000000000000000000000000000000000000000000000000000000000000000000000",
                    "coinbase" : "0x8888f1f195afa192cfee860698584c030f4c9db1",
                    "difficulty" : "0x0356b7",
                    "extraData" : "",
                    "gasLimit" : "0x2fefba",
                    "gasUsed" : "0x00",
                    "hash" : "0xd3ac2688fc89bcb11bcbdcd508f7d679d004e036145edb65fc246ed3b1c7f830",
                    "mixHash" : "0x99701a28476c5c1e83f88456ac08bc0d4b9225440327ec90d73a9cf52b606ab5",
                    "nonce" : "0x062aec2a1953b1d5",
                    "number" : "0x03",
                    "parentHash" : "0x59588286b8fce82cc00dc6ae13aa5745b44f71ef77c8f7439ce8edac270c0b3b",
                    "receiptTrie" : "0x56e81f171bcc55a6ff8345e692c0f86e5b48e01b996cadc001622fb5e363b421",
                    "stateRoot" : "0xfb369b59491073eb6aad63f4d483a628d459e910d7119a1d289d96bcf2dd4285",
                    "timestamp" : "0x59d6675a",
                    "transactionsTrie" : "0x56e81f171bcc55a6ff8345e692c0f86e5b48e01b996cadc001622fb5e363b421",
                    "uncleHash" : "0x1dcc4de8dec75d7aab85b567b6ccd41ad312451b948a7413f0a142fd40d49347"
                },
                "blocknumber" : "3",
                "rlp" : "0xf901fcf901f7a059588286b8fce82cc00dc6ae13aa5745b44f71ef77c8f7439ce8edac270c0b3ba01dcc4de8dec75d7aab85b567b6ccd41ad312451b948a7413f0a142fd40d49347948888f1f195afa192cfee860698584c030f4c9db1a0fb369b59491073eb6aad63f4d483a628d459e910d7119a1d289d96bcf2dd4285a056e81f171bcc55a6ff8345e692c0f86e5b48e01b996cadc001622fb5e363b421a056e81f171bcc55a6ff8345e692c0f86e5b48e01b996cadc001622fb5e363b421b9010000000000000000000000000000000000000000000000000000000000000000000000000000000000000000000000000000000000000000000000000000000000000000000000000000000000000000000000000000000000000000000000000000000000000000000000000000000000000000000000000000000000000000000000000000000000000000000000000000000000000000000000000000000000000000000000000000000000000000000000000000000000000000000000000000000000000000000000000000000000000000000000000000000000000000000000000000000000000000000000000000000000000000000000000000000000830356b703832fefba808459d6675a80a099701a28476c5c1e83f88456ac08bc0d4b9225440327ec90d73a9cf52b606ab588062aec2a1953b1d5c0c0",
                "transactions" : [
                ],
                "uncleHeaders" : [
                ]
            },
            {
                "blockHeader" : {
                    "bloom" : "0x00000000000000000000000000000000000000000000000000000000000000000000000000000000000000000000000000000000000000000000000000000000000000000000000000000000000000000000000000000000000000000000000000000000000000000000000000000000000000000000000000000000000000000000000000000000000000000000000000000000000000000000000000000000000000000000000000000000000000000000000000000000000000000000000000000000000000000000000000000000000000000000000000000000000000000000000000000000000000000000000000000000000000000000000000000000",
                    "coinbase" : "0x8888f1f195afa192cfee860698584c030f4c9db1",
                    "difficulty" : "0x0356b7",
                    "extraData" : "",
                    "gasLimit" : "0x2fefba",
                    "gasUsed" : "0x00",
                    "hash" : "0x51dc1bab0149626874a9d314f2359d11d47e5b208d0bfd0407d0f68dc8e293af",
                    "mixHash" : "0x7ba17ef196f38a36c149fda1b4fe7ffd66857b57090be0433ba3685a51b7d815",
                    "nonce" : "0xb277f1d5e95f750b",
                    "number" : "0x03",
                    "parentHash" : "0x59588286b8fce82cc00dc6ae13aa5745b44f71ef77c8f7439ce8edac270c0b3b",
                    "receiptTrie" : "0x56e81f171bcc55a6ff8345e692c0f86e5b48e01b996cadc001622fb5e363b421",
                    "stateRoot" : "0xfb369b59491073eb6aad63f4d483a628d459e910d7119a1d289d96bcf2dd4285",
                    "timestamp" : "0x59d6675a",
                    "transactionsTrie" : "0x56e81f171bcc55a6ff8345e692c0f86e5b48e01b996cadc001622fb5e363b421",
                    "uncleHash" : "0x1dcc4de8dec75d7aab85b567b6ccd41ad312451b948a7413f0a142fd40d49347"
                },
                "blocknumber" : "3",
                "rlp" : "0xf901fcf901f7a059588286b8fce82cc00dc6ae13aa5745b44f71ef77c8f7439ce8edac270c0b3ba01dcc4de8dec75d7aab85b567b6ccd41ad312451b948a7413f0a142fd40d49347948888f1f195afa192cfee860698584c030f4c9db1a0fb369b59491073eb6aad63f4d483a628d459e910d7119a1d289d96bcf2dd4285a056e81f171bcc55a6ff8345e692c0f86e5b48e01b996cadc001622fb5e363b421a056e81f171bcc55a6ff8345e692c0f86e5b48e01b996cadc001622fb5e363b421b9010000000000000000000000000000000000000000000000000000000000000000000000000000000000000000000000000000000000000000000000000000000000000000000000000000000000000000000000000000000000000000000000000000000000000000000000000000000000000000000000000000000000000000000000000000000000000000000000000000000000000000000000000000000000000000000000000000000000000000000000000000000000000000000000000000000000000000000000000000000000000000000000000000000000000000000000000000000000000000000000000000000000000000000000000000000000830356b703832fefba808459d6675a80a07ba17ef196f38a36c149fda1b4fe7ffd66857b57090be0433ba3685a51b7d81588b277f1d5e95f750bc0c0",
                "transactions" : [
                ],
                "uncleHeaders" : [
                ]
            },
            {
                "blockHeader" : {
                    "bloom" : "0x00000000000000000000000000000000000000000000000000000000000000000000000000000000000000000000000000000000000000000000000000000000000000000000000000000000000000000000000000000000000000000000000000000000000000000000000000000000000000000000000000000000000000000000000000000000000000000000000000000000000000000000000000000000000000000000000000000000000000000000000000000000000000000000000000000000000000000000000000000000000000000000000000000000000000000000000000000000000000000000000000000000000000000000000000000000",
                    "coinbase" : "0x8888f1f195afa192cfee860698584c030f4c9db1",
                    "difficulty" : "0x035c26",
                    "extraData" : "",
                    "gasLimit" : "0x2fefba",
                    "gasUsed" : "0x5208",
                    "hash" : "0x7f0baeecc1ff64c3794653b16a688a2ab18030045a280edf8d37e7e81a55f434",
                    "mixHash" : "0xe2f3e4a813d85d724d2000ac15a5f3989b1035f99ea046248df987524094731a",
                    "nonce" : "0xdb78c6e0bf9dc984",
                    "number" : "0x03",
                    "parentHash" : "0x59588286b8fce82cc00dc6ae13aa5745b44f71ef77c8f7439ce8edac270c0b3b",
                    "receiptTrie" : "0x056b23fbba480696b65fe5a59b8f2148a1299103c4f57df839233af2cf4ca2d2",
                    "stateRoot" : "0x6245acc99a80c5738ffaa0b2a18a2d019379aa0e0df07eb429ab4c7365a9d3cb",
                    "timestamp" : "0x59d666e7",
                    "transactionsTrie" : "0x6248badbff65ed9910fe53dc4368a1d8db872f00d9b32713d4e876763a5fe96c",
                    "uncleHash" : "0x1dcc4de8dec75d7aab85b567b6ccd41ad312451b948a7413f0a142fd40d49347"
                },
                "blocknumber" : "3",
                "rlp" : "0xf90263f901f9a059588286b8fce82cc00dc6ae13aa5745b44f71ef77c8f7439ce8edac270c0b3ba01dcc4de8dec75d7aab85b567b6ccd41ad312451b948a7413f0a142fd40d49347948888f1f195afa192cfee860698584c030f4c9db1a06245acc99a80c5738ffaa0b2a18a2d019379aa0e0df07eb429ab4c7365a9d3cba06248badbff65ed9910fe53dc4368a1d8db872f00d9b32713d4e876763a5fe96ca0056b23fbba480696b65fe5a59b8f2148a1299103c4f57df839233af2cf4ca2d2b901000000000000000000000000000000000000000000000000000000000000000000000000000000000000000000000000000000000000000000000000000000000000000000000000000000000000000000000000000000000000000000000000000000000000000000000000000000000000000000000000000000000000000000000000000000000000000000000000000000000000000000000000000000000000000000000000000000000000000000000000000000000000000000000000000000000000000000000000000000000000000000000000000000000000000000000000000000000000000000000000000000000000000000000000000000000083035c2603832fefba8252088459d666e780a0e2f3e4a813d85d724d2000ac15a5f3989b1035f99ea046248df987524094731a88db78c6e0bf9dc984f864f86202820d038304cb2f94095e7baea6a6c7c4c2dfeb977efac326af552d8704801ba0fc2548515447aee1b15e9e2f1c1889caa5c43b55a04fd83b6fa6febc865816bba0128812d72c943c7bfd17545c2b353d28712534bda7e362c09b9dcff77c774f9ec0",
                "transactions" : [
                    {
                        "data" : "",
                        "gasLimit" : "0x04cb2f",
                        "gasPrice" : "0x0d03",
                        "nonce" : "0x02",
                        "r" : "0xfc2548515447aee1b15e9e2f1c1889caa5c43b55a04fd83b6fa6febc865816bb",
                        "s" : "0x128812d72c943c7bfd17545c2b353d28712534bda7e362c09b9dcff77c774f9e",
                        "to" : "0x095e7baea6a6c7c4c2dfeb977efac326af552d87",
                        "v" : "0x1b",
                        "value" : "0x04"
                    }
                ],
                "uncleHeaders" : [
                ]
            },
            {
                "blockHeader" : {
                    "bloom" : "0x00000000000000000000000000000000000000000000000000000000000000000000000000000000000000000000000000000000000000000000000000000000000000000000000000000000000000000000000000000000000000000000000000000000000000000000000000000000000000000000000000000000000000000000000000000000000000000000000000000000000000000000000000000000000000000000000000000000000000000000000000000000000000000000000000000000000000000000000000000000000000000000000000000000000000000000000000000000000000000000000000000000000000000000000000000000",
                    "coinbase" : "0x8888f1f195afa192cfee860698584c030f4c9db1",
                    "difficulty" : "0x0356b7",
                    "extraData" : "",
                    "gasLimit" : "0x2fefba",
                    "gasUsed" : "0x5318",
                    "hash" : "0x32ae431e71d8c770007f9605a1b81f56f4a927183bc364b829b145bada565dfd",
                    "mixHash" : "0xbd2fe789f9954f02e5dd87e0d3afe335e1d418396422d5717ec5691d906d3221",
                    "nonce" : "0x4543a6f5f2e27fa8",
                    "number" : "0x03",
                    "parentHash" : "0x59588286b8fce82cc00dc6ae13aa5745b44f71ef77c8f7439ce8edac270c0b3b",
                    "receiptTrie" : "0x24690914c0b962fe99977f721c628b5eb0cd400e4e2a38093cc1f1104418e406",
                    "stateRoot" : "0xd3b3de355528cf46fdbede6e7068f9e698a58953b2d64e6d3aa5495fabf25ffa",
                    "timestamp" : "0x59d6675a",
                    "transactionsTrie" : "0x15f7fc6985115c0094cdb4d454c1cf7925c0bbfede919337af9d2f67e8460f88",
                    "uncleHash" : "0x1dcc4de8dec75d7aab85b567b6ccd41ad312451b948a7413f0a142fd40d49347"
                },
                "blocknumber" : "3",
                "rlp" : "0xf90265f901f9a059588286b8fce82cc00dc6ae13aa5745b44f71ef77c8f7439ce8edac270c0b3ba01dcc4de8dec75d7aab85b567b6ccd41ad312451b948a7413f0a142fd40d49347948888f1f195afa192cfee860698584c030f4c9db1a0d3b3de355528cf46fdbede6e7068f9e698a58953b2d64e6d3aa5495fabf25ffaa015f7fc6985115c0094cdb4d454c1cf7925c0bbfede919337af9d2f67e8460f88a024690914c0b962fe99977f721c628b5eb0cd400e4e2a38093cc1f1104418e406b9010000000000000000000000000000000000000000000000000000000000000000000000000000000000000000000000000000000000000000000000000000000000000000000000000000000000000000000000000000000000000000000000000000000000000000000000000000000000000000000000000000000000000000000000000000000000000000000000000000000000000000000000000000000000000000000000000000000000000000000000000000000000000000000000000000000000000000000000000000000000000000000000000000000000000000000000000000000000000000000000000000000000000000000000000000000000830356b703832fefba8253188459d6675a80a0bd2fe789f9954f02e5dd87e0d3afe335e1d418396422d5717ec5691d906d3221884543a6f5f2e27fa8f866f86402018304cb2f94095e7baea6a6c7c4c2dfeb977efac326af552d870584446346341ba038bb0b4c094d0f4e3ad6ea586f78321b8199330a3399a9121e91e7b7b36c199fa010f625e63324d66a3cbe2296d1d1d435a01384d060d8e66f9ddad186a25171a5c0",
                "transactions" : [
                    {
                        "data" : "0x44634634",
                        "gasLimit" : "0x04cb2f",
                        "gasPrice" : "0x01",
                        "nonce" : "0x02",
                        "r" : "0x38bb0b4c094d0f4e3ad6ea586f78321b8199330a3399a9121e91e7b7b36c199f",
                        "s" : "0x10f625e63324d66a3cbe2296d1d1d435a01384d060d8e66f9ddad186a25171a5",
                        "to" : "0x095e7baea6a6c7c4c2dfeb977efac326af552d87",
                        "v" : "0x1b",
                        "value" : "0x05"
                    }
                ],
                "uncleHeaders" : [
                ]
            },
            {
                "blockHeader" : {
                    "bloom" : "0x00000000000000000000000000000000000000000000000000000000000000000000000000000000000000000000000000000000000000000000000000000000000000000000000000000000000000000000000000000000000000000000000000000000000000000000000000000000000000000000000000000000000000000000000000000000000000000000000000000000000000000000000000000000000000000000000000000000000000000000000000000000000000000000000000000000000000000000000000000000000000000000000000000000000000000000000000000000000000000000000000000000000000000000000000000000",
                    "coinbase" : "0x8888f1f195afa192cfee860698584c030f4c9db1",
                    "difficulty" : "0x0356b7",
                    "extraData" : "",
                    "gasLimit" : "0x2fefba",
                    "gasUsed" : "0x5208",
                    "hash" : "0xa625e61f1cf6a88e5ae4cee0846ab8bf734e9728695bf10b3f728b92ee6ac200",
                    "mixHash" : "0xfed6d65359409f72945979920dc479dc485f933e74f187c2671d28f8669361cc",
                    "nonce" : "0x3bafd75958ed8e9d",
                    "number" : "0x03",
                    "parentHash" : "0x59588286b8fce82cc00dc6ae13aa5745b44f71ef77c8f7439ce8edac270c0b3b",
                    "receiptTrie" : "0x056b23fbba480696b65fe5a59b8f2148a1299103c4f57df839233af2cf4ca2d2",
                    "stateRoot" : "0x6c133a3b734dd82c16f8f7a52bef4e970736ebaceadf68c2428a874f35965f3d",
                    "timestamp" : "0x59d6675a",
                    "transactionsTrie" : "0x75fbaa0d21261c250d72804548590a0dcaf3f1849fcb9036eae67a1ea1328de3",
                    "uncleHash" : "0x1dcc4de8dec75d7aab85b567b6ccd41ad312451b948a7413f0a142fd40d49347"
                },
                "blocknumber" : "3",
                "rlp" : "0xf90260f901f9a059588286b8fce82cc00dc6ae13aa5745b44f71ef77c8f7439ce8edac270c0b3ba01dcc4de8dec75d7aab85b567b6ccd41ad312451b948a7413f0a142fd40d49347948888f1f195afa192cfee860698584c030f4c9db1a06c133a3b734dd82c16f8f7a52bef4e970736ebaceadf68c2428a874f35965f3da075fbaa0d21261c250d72804548590a0dcaf3f1849fcb9036eae67a1ea1328de3a0056b23fbba480696b65fe5a59b8f2148a1299103c4f57df839233af2cf4ca2d2b9010000000000000000000000000000000000000000000000000000000000000000000000000000000000000000000000000000000000000000000000000000000000000000000000000000000000000000000000000000000000000000000000000000000000000000000000000000000000000000000000000000000000000000000000000000000000000000000000000000000000000000000000000000000000000000000000000000000000000000000000000000000000000000000000000000000000000000000000000000000000000000000000000000000000000000000000000000000000000000000000000000000000000000000000000000000000830356b703832fefba8252088459d6675a80a0fed6d65359409f72945979920dc479dc485f933e74f187c2671d28f8669361cc883bafd75958ed8e9df861f85f020182795394095e7baea6a6c7c4c2dfeb977efac326af552d8706801ba0f0270ab1d37cefd527be86ad9914256506d919c1da6b825044ece7bb7f32b6bda0347c1adf10978e380be412dfb3f9e44d834aa17536abf14f15f61692ca60b24dc0",
                "transactions" : [
                    {
                        "data" : "",
                        "gasLimit" : "0x7953",
                        "gasPrice" : "0x01",
                        "nonce" : "0x02",
                        "r" : "0xf0270ab1d37cefd527be86ad9914256506d919c1da6b825044ece7bb7f32b6bd",
                        "s" : "0x347c1adf10978e380be412dfb3f9e44d834aa17536abf14f15f61692ca60b24d",
                        "to" : "0x095e7baea6a6c7c4c2dfeb977efac326af552d87",
                        "v" : "0x1b",
                        "value" : "0x06"
                    }
                ],
                "uncleHeaders" : [
                ]
            },
            {
                "blockHeader" : {
                    "bloom" : "0x00000000000000000000000000000000000000000000000000000000000000000000000000000000000000000000000000000000000000000000000000000000000000000000000000000000000000000000000000000000000000000000000000000000000000000000000000000000000000000000000000000000000000000000000000000000000000000000000000000000000000000000000000000000000000000000000000000000000000000000000000000000000000000000000000000000000000000000000000000000000000000000000000000000000000000000000000000000000000000000000000000000000000000000000000000000",
                    "coinbase" : "0x8888f1f195afa192cfee860698584c030f4c9db1",
                    "difficulty" : "0x0356b7",
                    "extraData" : "",
                    "gasLimit" : "0x2fefba",
                    "gasUsed" : "0x5318",
                    "hash" : "0xf1734ad15214dc12a1b343f6064cd76e0e6129e7aa5b354fce8afc7a3ab9566b",
                    "mixHash" : "0xc400d7179c94ee5931963245a7cc2d64398221875901f56df3708bce30a0ab37",
                    "nonce" : "0xf30d28f795f6cc6e",
                    "number" : "0x03",
                    "parentHash" : "0x59588286b8fce82cc00dc6ae13aa5745b44f71ef77c8f7439ce8edac270c0b3b",
                    "receiptTrie" : "0x24690914c0b962fe99977f721c628b5eb0cd400e4e2a38093cc1f1104418e406",
                    "stateRoot" : "0xce32eb91c87c92aa6491b6045632e9860456de3f137256be499237b36184de15",
                    "timestamp" : "0x59d6675a",
                    "transactionsTrie" : "0x8669745990c090d4f9b0fc2211287a67bb5d00adf5dd6453d833223533ad5791",
                    "uncleHash" : "0x1dcc4de8dec75d7aab85b567b6ccd41ad312451b948a7413f0a142fd40d49347"
                },
                "blocknumber" : "3",
                "rlp" : "0xf90264f901f9a059588286b8fce82cc00dc6ae13aa5745b44f71ef77c8f7439ce8edac270c0b3ba01dcc4de8dec75d7aab85b567b6ccd41ad312451b948a7413f0a142fd40d49347948888f1f195afa192cfee860698584c030f4c9db1a0ce32eb91c87c92aa6491b6045632e9860456de3f137256be499237b36184de15a08669745990c090d4f9b0fc2211287a67bb5d00adf5dd6453d833223533ad5791a024690914c0b962fe99977f721c628b5eb0cd400e4e2a38093cc1f1104418e406b9010000000000000000000000000000000000000000000000000000000000000000000000000000000000000000000000000000000000000000000000000000000000000000000000000000000000000000000000000000000000000000000000000000000000000000000000000000000000000000000000000000000000000000000000000000000000000000000000000000000000000000000000000000000000000000000000000000000000000000000000000000000000000000000000000000000000000000000000000000000000000000000000000000000000000000000000000000000000000000000000000000000000000000000000000000000000830356b703832fefba8253188459d6675a80a0c400d7179c94ee5931963245a7cc2d64398221875901f56df3708bce30a0ab3788f30d28f795f6cc6ef865f8630201827b1594095e7baea6a6c7c4c2dfeb977efac326af552d870784345345401ca0ce87045a5369aba7265ad97dc16fe942ceff7d0fc48ad0f060d0ee818e1fab48a06cad108943efb7508c9c4d51b678cdfed19de5bdbdc84f2344f2add6a4ef01ffc0",
                "transactions" : [
                    {
                        "data" : "0x34534540",
                        "gasLimit" : "0x7b15",
                        "gasPrice" : "0x01",
                        "nonce" : "0x02",
                        "r" : "0xce87045a5369aba7265ad97dc16fe942ceff7d0fc48ad0f060d0ee818e1fab48",
                        "s" : "0x6cad108943efb7508c9c4d51b678cdfed19de5bdbdc84f2344f2add6a4ef01ff",
                        "to" : "0x095e7baea6a6c7c4c2dfeb977efac326af552d87",
                        "v" : "0x1c",
                        "value" : "0x07"
                    }
                ],
                "uncleHeaders" : [
                ]
            },
            {
                "blockHeader" : {
                    "bloom" : "0x00000000000000000000000000000000000000000000000000000000000000000000000000000000000000000000000000000000000000000000000000000000000000000000000000000000000000000000000000000000000000000000000000000000000000000000000000000000000000000000000000000000000000000000000000000000000000000000000000000000000000000000000000000000000000000000000000000000000000000000000000000000000000000000000000000000000000000000000000000000000000000000000000000000000000000000000000000000000000000000000000000000000000000000000000000000",
                    "coinbase" : "0x8888f1f195afa192cfee860698584c030f4c9db1",
                    "difficulty" : "0x0356b7",
                    "extraData" : "",
                    "gasLimit" : "0x2fefba",
                    "gasUsed" : "0x00",
                    "hash" : "0xf3044df60793a6de9c8cc5d08099d634330fe02f719aa4580c4a79b5ba395b51",
                    "mixHash" : "0x3ea52a7882fb3d8b60593dd2d954803d2ecdaf28e46bf45e38f9ea02d1a2baff",
                    "nonce" : "0x4642d8c8349851b6",
                    "number" : "0x03",
                    "parentHash" : "0x59588286b8fce82cc00dc6ae13aa5745b44f71ef77c8f7439ce8edac270c0b3b",
                    "receiptTrie" : "0x56e81f171bcc55a6ff8345e692c0f86e5b48e01b996cadc001622fb5e363b421",
                    "stateRoot" : "0xfb369b59491073eb6aad63f4d483a628d459e910d7119a1d289d96bcf2dd4285",
                    "timestamp" : "0x59d6675a",
                    "transactionsTrie" : "0x56e81f171bcc55a6ff8345e692c0f86e5b48e01b996cadc001622fb5e363b421",
                    "uncleHash" : "0x1dcc4de8dec75d7aab85b567b6ccd41ad312451b948a7413f0a142fd40d49347"
                },
                "blocknumber" : "3",
                "rlp" : "0xf901fcf901f7a059588286b8fce82cc00dc6ae13aa5745b44f71ef77c8f7439ce8edac270c0b3ba01dcc4de8dec75d7aab85b567b6ccd41ad312451b948a7413f0a142fd40d49347948888f1f195afa192cfee860698584c030f4c9db1a0fb369b59491073eb6aad63f4d483a628d459e910d7119a1d289d96bcf2dd4285a056e81f171bcc55a6ff8345e692c0f86e5b48e01b996cadc001622fb5e363b421a056e81f171bcc55a6ff8345e692c0f86e5b48e01b996cadc001622fb5e363b421b9010000000000000000000000000000000000000000000000000000000000000000000000000000000000000000000000000000000000000000000000000000000000000000000000000000000000000000000000000000000000000000000000000000000000000000000000000000000000000000000000000000000000000000000000000000000000000000000000000000000000000000000000000000000000000000000000000000000000000000000000000000000000000000000000000000000000000000000000000000000000000000000000000000000000000000000000000000000000000000000000000000000000000000000000000000000000830356b703832fefba808459d6675a80a03ea52a7882fb3d8b60593dd2d954803d2ecdaf28e46bf45e38f9ea02d1a2baff884642d8c8349851b6c0c0",
                "transactions" : [
                ],
                "uncleHeaders" : [
                ]
            },
            {
                "blockHeader" : {
                    "bloom" : "0x00000000000000000000000000000000000000000000000000000000000000000000000000000000000000000000000000000000000000000000000000000000000000000000000000000000000000000000000000000000000000000000000000000000000000000000000000000000000000000000000000000000000000000000000000000000000000000000000000000000000000000000000000000000000000000000000000000000000000000000000000000000000000000000000000000000000000000000000000000000000000000000000000000000000000000000000000000000000000000000000000000000000000000000000000000000",
                    "coinbase" : "0x8888f1f195afa192cfee860698584c030f4c9db1",
                    "difficulty" : "0x0356b7",
                    "extraData" : "",
                    "gasLimit" : "0x2fefba",
                    "gasUsed" : "0x5208",
                    "hash" : "0xf6c2c118411bfdaf8f3b7f083857880a01a0607b67c69f59d8a474825392da13",
                    "mixHash" : "0x25728bfdb9b415bf65015d1f94fc38635075c17de89a4271c1830cf4f2263e22",
                    "nonce" : "0x0fb4d7188a545ea2",
                    "number" : "0x03",
                    "parentHash" : "0x59588286b8fce82cc00dc6ae13aa5745b44f71ef77c8f7439ce8edac270c0b3b",
                    "receiptTrie" : "0x056b23fbba480696b65fe5a59b8f2148a1299103c4f57df839233af2cf4ca2d2",
                    "stateRoot" : "0x1252c3a5dc12340954334bea3984aae247deaa01fe30680067e16cfbd136aa85",
                    "timestamp" : "0x59d6675a",
                    "transactionsTrie" : "0xeee8da1032d67fdbdd8a06aae4be0dd76a950314a182b72e9a741e82e7bb3c1b",
                    "uncleHash" : "0x1dcc4de8dec75d7aab85b567b6ccd41ad312451b948a7413f0a142fd40d49347"
                },
                "blocknumber" : "3",
                "rlp" : "0xf90261f901f9a059588286b8fce82cc00dc6ae13aa5745b44f71ef77c8f7439ce8edac270c0b3ba01dcc4de8dec75d7aab85b567b6ccd41ad312451b948a7413f0a142fd40d49347948888f1f195afa192cfee860698584c030f4c9db1a01252c3a5dc12340954334bea3984aae247deaa01fe30680067e16cfbd136aa85a0eee8da1032d67fdbdd8a06aae4be0dd76a950314a182b72e9a741e82e7bb3c1ba0056b23fbba480696b65fe5a59b8f2148a1299103c4f57df839233af2cf4ca2d2b9010000000000000000000000000000000000000000000000000000000000000000000000000000000000000000000000000000000000000000000000000000000000000000000000000000000000000000000000000000000000000000000000000000000000000000000000000000000000000000000000000000000000000000000000000000000000000000000000000000000000000000000000000000000000000000000000000000000000000000000000000000000000000000000000000000000000000000000000000000000000000000000000000000000000000000000000000000000000000000000000000000000000000000000000000000000000830356b703832fefba8252088459d6675a80a025728bfdb9b415bf65015d1f94fc38635075c17de89a4271c1830cf4f2263e22880fb4d7188a545ea2f862f86002018304cb2f94795e7baea6a6c7c4c2dfeb977efac326af552d8709801ba09aebe65f630416e9f8d0b6d2767f6f7247fcd91a975ffb43f0cd4ad70c271f26a066deb8ae753107c19abb0cbe97b3252334dc17a985c5d02b490146caf21c8133c0",
                "transactions" : [
                    {
                        "data" : "",
                        "gasLimit" : "0x04cb2f",
                        "gasPrice" : "0x01",
                        "nonce" : "0x02",
                        "r" : "0x9aebe65f630416e9f8d0b6d2767f6f7247fcd91a975ffb43f0cd4ad70c271f26",
                        "s" : "0x66deb8ae753107c19abb0cbe97b3252334dc17a985c5d02b490146caf21c8133",
                        "to" : "0x795e7baea6a6c7c4c2dfeb977efac326af552d87",
                        "v" : "0x1b",
                        "value" : "0x09"
                    }
                ],
                "uncleHeaders" : [
                ]
            },
            {
                "blockHeader" : {
                    "bloom" : "0x00000000000000000000000000000000000000000000000000000000000000000000000000000000000000000000000000000000000000000000000000000000000000000000000000000000000000000000000000000000000000000000000000000000000000000000000000000000000000000000000000000000000000000000000000000000000000000000000000000000000000000000000000000000000000000000000000000000000000000000000000000000000000000000000000000000000000000000000000000000000000000000000000000000000000000000000000000000000000000000000000000000000000000000000000000000",
                    "coinbase" : "0x8888f1f195afa192cfee860698584c030f4c9db1",
                    "difficulty" : "0x0356b7",
                    "extraData" : "",
                    "gasLimit" : "0x2fefba",
                    "gasUsed" : "0x00",
                    "hash" : "0x391e48ae0430ab478893ba03ddf1ee08a619b9756889e392772fb3c9b2207487",
                    "mixHash" : "0xd7ddf60a7acb508cddf150a38327ea68944ad722edfedaef5874f1b622cf800d",
                    "nonce" : "0x949b546092d9658e",
                    "number" : "0x03",
                    "parentHash" : "0x59588286b8fce82cc00dc6ae13aa5745b44f71ef77c8f7439ce8edac270c0b3b",
                    "receiptTrie" : "0x56e81f171bcc55a6ff8345e692c0f86e5b48e01b996cadc001622fb5e363b421",
                    "stateRoot" : "0xfb369b59491073eb6aad63f4d483a628d459e910d7119a1d289d96bcf2dd4285",
                    "timestamp" : "0x59d6675a",
                    "transactionsTrie" : "0x56e81f171bcc55a6ff8345e692c0f86e5b48e01b996cadc001622fb5e363b421",
                    "uncleHash" : "0x1dcc4de8dec75d7aab85b567b6ccd41ad312451b948a7413f0a142fd40d49347"
                },
                "blocknumber" : "3",
                "rlp" : "0xf901fcf901f7a059588286b8fce82cc00dc6ae13aa5745b44f71ef77c8f7439ce8edac270c0b3ba01dcc4de8dec75d7aab85b567b6ccd41ad312451b948a7413f0a142fd40d49347948888f1f195afa192cfee860698584c030f4c9db1a0fb369b59491073eb6aad63f4d483a628d459e910d7119a1d289d96bcf2dd4285a056e81f171bcc55a6ff8345e692c0f86e5b48e01b996cadc001622fb5e363b421a056e81f171bcc55a6ff8345e692c0f86e5b48e01b996cadc001622fb5e363b421b9010000000000000000000000000000000000000000000000000000000000000000000000000000000000000000000000000000000000000000000000000000000000000000000000000000000000000000000000000000000000000000000000000000000000000000000000000000000000000000000000000000000000000000000000000000000000000000000000000000000000000000000000000000000000000000000000000000000000000000000000000000000000000000000000000000000000000000000000000000000000000000000000000000000000000000000000000000000000000000000000000000000000000000000000000000000000830356b703832fefba808459d6675a80a0d7ddf60a7acb508cddf150a38327ea68944ad722edfedaef5874f1b622cf800d88949b546092d9658ec0c0",
                "transactions" : [
                ],
                "uncleHeaders" : [
                ]
            },
            {
                "blockHeader" : {
                    "bloom" : "0x00000000000000000000000000000000000000000000000000000000000000000000000000000000000000000000000000000000000000000000000000000000000000000000000000000000000000000000000000000000000000000000000000000000000000000000000000000000000000000000000000000000000000000000000000000000000000000000000000000000000000000000000000000000000000000000000000000000000000000000000000000000000000000000000000000000000000000000000000000000000000000000000000000000000000000000000000000000000000000000000000000000000000000000000000000000",
                    "coinbase" : "0x8888f1f195afa192cfee860698584c030f4c9db1",
                    "difficulty" : "0x0356b7",
                    "extraData" : "",
                    "gasLimit" : "0x2fefba",
                    "gasUsed" : "0x5208",
                    "hash" : "0x7491e14b4a807b7998f1f0d7c61c2a50ca9eadbc3c8bf566092c2ec6f73a14df",
                    "mixHash" : "0x4646414ac008b3e5ccf3789b9ab788781c8532d4823a36ecf3de6360d5c2d9bd",
                    "nonce" : "0x00d92b85a9a9cf11",
                    "number" : "0x03",
                    "parentHash" : "0x59588286b8fce82cc00dc6ae13aa5745b44f71ef77c8f7439ce8edac270c0b3b",
                    "receiptTrie" : "0x056b23fbba480696b65fe5a59b8f2148a1299103c4f57df839233af2cf4ca2d2",
                    "stateRoot" : "0xa8d753f30ce1d4f3b2fc64ffc08525034aa9fabc80fb25a31829c51fa6007321",
                    "timestamp" : "0x59d6675a",
                    "transactionsTrie" : "0x4aecda80a762615dbd4ba2ae6c0634b9042a6efb10aa841b59370258b7f226b5",
                    "uncleHash" : "0x1dcc4de8dec75d7aab85b567b6ccd41ad312451b948a7413f0a142fd40d49347"
                },
                "blocknumber" : "3",
                "rlp" : "0xf90261f901f9a059588286b8fce82cc00dc6ae13aa5745b44f71ef77c8f7439ce8edac270c0b3ba01dcc4de8dec75d7aab85b567b6ccd41ad312451b948a7413f0a142fd40d49347948888f1f195afa192cfee860698584c030f4c9db1a0a8d753f30ce1d4f3b2fc64ffc08525034aa9fabc80fb25a31829c51fa6007321a04aecda80a762615dbd4ba2ae6c0634b9042a6efb10aa841b59370258b7f226b5a0056b23fbba480696b65fe5a59b8f2148a1299103c4f57df839233af2cf4ca2d2b9010000000000000000000000000000000000000000000000000000000000000000000000000000000000000000000000000000000000000000000000000000000000000000000000000000000000000000000000000000000000000000000000000000000000000000000000000000000000000000000000000000000000000000000000000000000000000000000000000000000000000000000000000000000000000000000000000000000000000000000000000000000000000000000000000000000000000000000000000000000000000000000000000000000000000000000000000000000000000000000000000000000000000000000000000000000000830356b703832fefba8252088459d6675a80a04646414ac008b3e5ccf3789b9ab788781c8532d4823a36ecf3de6360d5c2d9bd8800d92b85a9a9cf11f862f860020a8304cb2f94095e7baea6a6c7c4c2dfeb977efac326af552d870b801ba09a5a25de70854a14113a86ce21d085b82198187e82576ef02ebd97598f47a917a07f718d34b77e73aa1ffdcd53da9c609bc4e551d13dc5d6afdfed23dcaf843e4bc0",
                "transactions" : [
                    {
                        "data" : "",
                        "gasLimit" : "0x04cb2f",
                        "gasPrice" : "0x0a",
                        "nonce" : "0x02",
                        "r" : "0x9a5a25de70854a14113a86ce21d085b82198187e82576ef02ebd97598f47a917",
                        "s" : "0x7f718d34b77e73aa1ffdcd53da9c609bc4e551d13dc5d6afdfed23dcaf843e4b",
                        "to" : "0x095e7baea6a6c7c4c2dfeb977efac326af552d87",
                        "v" : "0x1b",
                        "value" : "0x0b"
                    }
                ],
                "uncleHeaders" : [
                ]
            }
        ],
        "genesisBlockHeader" : {
            "bloom" : "0x00000000000000000000000000000000000000000000000000000000000000000000000000000000000000000000000000000000000000000000000000000000000000000000000000000000000000000000000000000000000000000000000000000000000000000000000000000000000000000000000000000000000000000000000000000000000000000000000000000000000000000000000000000000000000000000000000000000000000000000000000000000000000000000000000000000000000000000000000000000000000000000000000000000000000000000000000000000000000000000000000000000000000000000000000000000",
            "coinbase" : "0x8888f1f195afa192cfee860698584c030f4c9db1",
            "difficulty" : "0x0386a0",
            "extraData" : "0x42",
            "gasLimit" : "0x2fefd8",
            "gasUsed" : "0x00",
            "hash" : "0x6d991da1db456d86ca4438279b25d771e8e8d4fd288be2f2bc3a49d6b04f29ee",
            "mixHash" : "0x56e81f171bcc55a6ff8345e692c0f86e5b48e01b996cadc001622fb5e363b421",
            "nonce" : "0x0102030405060708",
            "number" : "0x00",
            "parentHash" : "0x0000000000000000000000000000000000000000000000000000000000000000",
            "receiptTrie" : "0x56e81f171bcc55a6ff8345e692c0f86e5b48e01b996cadc001622fb5e363b421",
            "stateRoot" : "0x7dba07d6b448a186e9612e5f737d1c909dce473e53199901a302c00646d523c1",
            "timestamp" : "0x54c98c81",
            "transactionsTrie" : "0x56e81f171bcc55a6ff8345e692c0f86e5b48e01b996cadc001622fb5e363b421",
            "uncleHash" : "0x1dcc4de8dec75d7aab85b567b6ccd41ad312451b948a7413f0a142fd40d49347"
        },
        "genesisRLP" : "0xf901fcf901f7a00000000000000000000000000000000000000000000000000000000000000000a01dcc4de8dec75d7aab85b567b6ccd41ad312451b948a7413f0a142fd40d49347948888f1f195afa192cfee860698584c030f4c9db1a07dba07d6b448a186e9612e5f737d1c909dce473e53199901a302c00646d523c1a056e81f171bcc55a6ff8345e692c0f86e5b48e01b996cadc001622fb5e363b421a056e81f171bcc55a6ff8345e692c0f86e5b48e01b996cadc001622fb5e363b421b9010000000000000000000000000000000000000000000000000000000000000000000000000000000000000000000000000000000000000000000000000000000000000000000000000000000000000000000000000000000000000000000000000000000000000000000000000000000000000000000000000000000000000000000000000000000000000000000000000000000000000000000000000000000000000000000000000000000000000000000000000000000000000000000000000000000000000000000000000000000000000000000000000000000000000000000000000000000000000000000000000000000000000000000000000000000000830386a080832fefd8808454c98c8142a056e81f171bcc55a6ff8345e692c0f86e5b48e01b996cadc001622fb5e363b421880102030405060708c0c0",
        "lastblockhash" : "0x7f0baeecc1ff64c3794653b16a688a2ab18030045a280edf8d37e7e81a55f434",
        "network" : "Byzantium",
        "postState" : {
            "0x095e7baea6a6c7c4c2dfeb977efac326af552d87" : {
                "balance" : "0x04",
                "code" : "",
                "nonce" : "0x00",
                "storage" : {
                }
            },
            "0x8888f1f195afa192cfee860698584c030f4c9db1" : {
                "balance" : "0x7ce66c50e6b00228",
                "code" : "",
                "nonce" : "0x00",
                "storage" : {
                }
            },
            "0xa94f5374fce5edbc8e2a8697c15331677e6ebf0b" : {
                "balance" : "0x09184a469dd4",
                "code" : "",
                "nonce" : "0x03",
                "storage" : {
                }
            }
        },
        "pre" : {
            "0xa94f5374fce5edbc8e2a8697c15331677e6ebf0b" : {
                "balance" : "0x09184e72a000",
                "code" : "",
                "nonce" : "0x00",
                "storage" : {
                }
            }
        }
    }
}
