{
    "sideChainWithMoreTransactions_Byzantium" : {
        "_info" : {
            "comment" : "",
            "filledwith" : "cpp-1.3.0+commit.6e0ce939.Linux.g++",
            "lllcversion" : "Version: 0.4.18-develop.2017.9.25+commit.a72237f2.Linux.g++",
            "source" : "src/BlockchainTestsFiller/bcTotalDifficultyTest/sideChainWithMoreTransactionsFiller.json",
            "sourceHash" : "b8ec7c6fec5c23c4dda247199cdacef0ebf3c6ac79b117a991575c21c50a3e6b"
        },
        "blocks" : [
            {
                "blockHeader" : {
                    "bloom" : "0x00000000000000000000000000000000000000000000000000000000000000000000000000000000000000000000000000000000000000000000000000000000000000000000000000000000000000000000000000000000000000000000000000000000000000000000000000000000000000000000000000000000000000000000000000000000000000000000000000000000000000000000000000000000000000000000000000000000000000000000000000000000000000000000000000000000000000000000000000000000000000000000000000000000000000000000000000000000000000000000000000000000000000000000000000000000",
                    "coinbase" : "0x8888f1f195afa192cfee860698584c030f4c9db1",
                    "difficulty" : "0x020000",
                    "extraData" : "",
                    "gasLimit" : "0x2fefba",
                    "gasUsed" : "0x5208",
                    "hash" : "0x512c2d5b664ff29788a6ea32e8087b44e59a060a3d7dbaf92fc93c31f11f4de8",
                    "mixHash" : "0xb248a961d6d6bd7c45d68a64b7852d7b14d3ca0b11c8821a0a5331d83f0d7560",
                    "nonce" : "0xd254b92a7e9056cf",
                    "number" : "0x01",
                    "parentHash" : "0x5a39ed1020c04d4d84539975b893a4e7c53eab6c2965db8bc3468093a31bc5ae",
                    "receiptTrie" : "0x056b23fbba480696b65fe5a59b8f2148a1299103c4f57df839233af2cf4ca2d2",
                    "stateRoot" : "0x5c2e5a51a79da58791cdfe572bcfa3dfe9c860bf7fad7d9738a1aace56ef9332",
                    "timestamp" : "0x59d66594",
                    "transactionsTrie" : "0x5c9151c2413d1cd25c51ffb4ac38948acc1359bf08c6b49f283660e9bcf0f516",
                    "uncleHash" : "0x1dcc4de8dec75d7aab85b567b6ccd41ad312451b948a7413f0a142fd40d49347"
                },
                "blocknumber" : "1",
                "rlp" : "0xf90261f901f9a05a39ed1020c04d4d84539975b893a4e7c53eab6c2965db8bc3468093a31bc5aea01dcc4de8dec75d7aab85b567b6ccd41ad312451b948a7413f0a142fd40d49347948888f1f195afa192cfee860698584c030f4c9db1a05c2e5a51a79da58791cdfe572bcfa3dfe9c860bf7fad7d9738a1aace56ef9332a05c9151c2413d1cd25c51ffb4ac38948acc1359bf08c6b49f283660e9bcf0f516a0056b23fbba480696b65fe5a59b8f2148a1299103c4f57df839233af2cf4ca2d2b90100000000000000000000000000000000000000000000000000000000000000000000000000000000000000000000000000000000000000000000000000000000000000000000000000000000000000000000000000000000000000000000000000000000000000000000000000000000000000000000000000000000000000000000000000000000000000000000000000000000000000000000000000000000000000000000000000000000000000000000000000000000000000000000000000000000000000000000000000000000000000000000000000000000000000000000000000000000000000000000000000000000000000000000000000000000008302000001832fefba8252088459d6659480a0b248a961d6d6bd7c45d68a64b7852d7b14d3ca0b11c8821a0a5331d83f0d756088d254b92a7e9056cff862f86080018304cb2f94095e7baea6a6c7c4c2dfeb977efac326af552d870a801ba077c7cd36820c71821c1aed59de46e70e701c4a8dd89c9ba508ab722210f60da8a03f29825d40c7c3f7bff3ca69267e0f3fb74b2d18b8c2c4e3c135b5d3b06e288dc0",
                "transactions" : [
                    {
                        "data" : "",
                        "gasLimit" : "0x04cb2f",
                        "gasPrice" : "0x01",
                        "nonce" : "0x00",
                        "r" : "0x77c7cd36820c71821c1aed59de46e70e701c4a8dd89c9ba508ab722210f60da8",
                        "s" : "0x3f29825d40c7c3f7bff3ca69267e0f3fb74b2d18b8c2c4e3c135b5d3b06e288d",
                        "to" : "0x095e7baea6a6c7c4c2dfeb977efac326af552d87",
                        "v" : "0x1b",
                        "value" : "0x0a"
                    }
                ],
                "uncleHeaders" : [
                ]
            },
            {
                "blockHeader" : {
                    "bloom" : "0x00000000000000000000000000000000000000000000000000000000000000000000000000000000000000000000000000000000000000000000000000000000000000000000000000000000000000000000000000000000000000000000000000000000000000000000000000000000000000000000000000000000000000000000000000000000000000000000000000000000000000000000000000000000000000000000000000000000000000000000000000000000000000000000000000000000000000000000000000000000000000000000000000000000000000000000000000000000000000000000000000000000000000000000000000000000",
                    "coinbase" : "0x8888f1f195afa192cfee860698584c030f4c9db1",
                    "difficulty" : "0x020040",
                    "extraData" : "",
                    "gasLimit" : "0x2fefba",
                    "gasUsed" : "0x5208",
                    "hash" : "0x2683575bf141a131242eab1ab39b3c6d96606800a5c125c4259921325f297c8d",
                    "mixHash" : "0xeeab81c405f8edbaccf28bcf79e25988896fa127944209eee21a436ebe4f8ef6",
                    "nonce" : "0x7f72498fe1e84027",
                    "number" : "0x02",
                    "parentHash" : "0x512c2d5b664ff29788a6ea32e8087b44e59a060a3d7dbaf92fc93c31f11f4de8",
                    "receiptTrie" : "0x056b23fbba480696b65fe5a59b8f2148a1299103c4f57df839233af2cf4ca2d2",
                    "stateRoot" : "0xafa912463a5b4eb0c07cf26dbba6281effdc1d109b6fa28c961647217d90d39d",
                    "timestamp" : "0x59d66596",
                    "transactionsTrie" : "0xc673e076264c4669a5c2e479f1757b78e42511efe33b5fd2c0a23b929c7f87f5",
                    "uncleHash" : "0x1dcc4de8dec75d7aab85b567b6ccd41ad312451b948a7413f0a142fd40d49347"
                },
                "blocknumber" : "2",
                "rlp" : "0xf90260f901f9a0512c2d5b664ff29788a6ea32e8087b44e59a060a3d7dbaf92fc93c31f11f4de8a01dcc4de8dec75d7aab85b567b6ccd41ad312451b948a7413f0a142fd40d49347948888f1f195afa192cfee860698584c030f4c9db1a0afa912463a5b4eb0c07cf26dbba6281effdc1d109b6fa28c961647217d90d39da0c673e076264c4669a5c2e479f1757b78e42511efe33b5fd2c0a23b929c7f87f5a0056b23fbba480696b65fe5a59b8f2148a1299103c4f57df839233af2cf4ca2d2b90100000000000000000000000000000000000000000000000000000000000000000000000000000000000000000000000000000000000000000000000000000000000000000000000000000000000000000000000000000000000000000000000000000000000000000000000000000000000000000000000000000000000000000000000000000000000000000000000000000000000000000000000000000000000000000000000000000000000000000000000000000000000000000000000000000000000000000000000000000000000000000000000000000000000000000000000000000000000000000000000000000000000000000000000000000000008302004002832fefba8252088459d6659680a0eeab81c405f8edbaccf28bcf79e25988896fa127944209eee21a436ebe4f8ef6887f72498fe1e84027f861f85f01018304cb2f94095e7baea6a6c7c4c2dfeb977efac326af552d870a801ba033c86e64d708c97c6b135cadff79dbf45985aa0b53694789e90d15f756765f239f1d0f8caa2a16405148c9d85581be5814960010f3cba938b5501590cea1f7cfc0",
                "transactions" : [
                    {
                        "data" : "",
                        "gasLimit" : "0x04cb2f",
                        "gasPrice" : "0x01",
                        "nonce" : "0x01",
                        "r" : "0x33c86e64d708c97c6b135cadff79dbf45985aa0b53694789e90d15f756765f23",
                        "s" : "0x1d0f8caa2a16405148c9d85581be5814960010f3cba938b5501590cea1f7cf",
                        "to" : "0x095e7baea6a6c7c4c2dfeb977efac326af552d87",
                        "v" : "0x1b",
                        "value" : "0x0a"
                    }
                ],
                "uncleHeaders" : [
                ]
            },
            {
                "blockHeader" : {
                    "bloom" : "0x00000000000000000000000000000000000000000000000000000000000000000000000000000000000000000000000000000000000000000000000000000000000000000000000000000000000000000000000000000000000000000000000000000000000000000000000000000000000000000000000000000000000000000000000000000000000000000000000000000000000000000000000000000000000000000000000000000000000000000000000000000000000000000000000000000000000000000000000000000000000000000000000000000000000000000000000000000000000000000000000000000000000000000000000000000000",
                    "coinbase" : "0x8888f1f195afa192cfee860698584c030f4c9db1",
                    "difficulty" : "0x020080",
                    "extraData" : "",
                    "gasLimit" : "0x2fefba",
                    "gasUsed" : "0x5208",
                    "hash" : "0x5b4154fa690afdbff0aa2b75766ccea2b2d2194e434a48368b2576f325002507",
                    "mixHash" : "0x72509d1b5f35a36e3a8311b2f15545932dd21aac567b4ef451872777e1fd845c",
                    "nonce" : "0x8f14ce56e580720a",
                    "number" : "0x03",
                    "parentHash" : "0x2683575bf141a131242eab1ab39b3c6d96606800a5c125c4259921325f297c8d",
                    "receiptTrie" : "0x056b23fbba480696b65fe5a59b8f2148a1299103c4f57df839233af2cf4ca2d2",
                    "stateRoot" : "0x0e6fc2a2603c865d55e1210b3306d6a450183752927e1443fdddfff9991e845e",
                    "timestamp" : "0x59d66597",
                    "transactionsTrie" : "0x1722b8a91bfc4f5614ce36ee77c7cce6620ab4af36d3c54baa66d7dbeb7bce1a",
                    "uncleHash" : "0x1dcc4de8dec75d7aab85b567b6ccd41ad312451b948a7413f0a142fd40d49347"
                },
                "blocknumber" : "3",
                "rlp" : "0xf90261f901f9a02683575bf141a131242eab1ab39b3c6d96606800a5c125c4259921325f297c8da01dcc4de8dec75d7aab85b567b6ccd41ad312451b948a7413f0a142fd40d49347948888f1f195afa192cfee860698584c030f4c9db1a00e6fc2a2603c865d55e1210b3306d6a450183752927e1443fdddfff9991e845ea01722b8a91bfc4f5614ce36ee77c7cce6620ab4af36d3c54baa66d7dbeb7bce1aa0056b23fbba480696b65fe5a59b8f2148a1299103c4f57df839233af2cf4ca2d2b90100000000000000000000000000000000000000000000000000000000000000000000000000000000000000000000000000000000000000000000000000000000000000000000000000000000000000000000000000000000000000000000000000000000000000000000000000000000000000000000000000000000000000000000000000000000000000000000000000000000000000000000000000000000000000000000000000000000000000000000000000000000000000000000000000000000000000000000000000000000000000000000000000000000000000000000000000000000000000000000000000000000000000000000000000000000008302008003832fefba8252088459d6659780a072509d1b5f35a36e3a8311b2f15545932dd21aac567b4ef451872777e1fd845c888f14ce56e580720af862f86002018304cb2f94095e7baea6a6c7c4c2dfeb977efac326af552d870a801ca015eb1cc916728b9799e55c489857727669afb2986433d5f54cde11faaed9f0eea05d36f6d06c34aae8d0a2a5895c8ba4a17ad46a5fa59f361cb3e7e01a23030e38c0",
                "transactions" : [
                    {
                        "data" : "",
                        "gasLimit" : "0x04cb2f",
                        "gasPrice" : "0x01",
                        "nonce" : "0x02",
                        "r" : "0x15eb1cc916728b9799e55c489857727669afb2986433d5f54cde11faaed9f0ee",
                        "s" : "0x5d36f6d06c34aae8d0a2a5895c8ba4a17ad46a5fa59f361cb3e7e01a23030e38",
                        "to" : "0x095e7baea6a6c7c4c2dfeb977efac326af552d87",
                        "v" : "0x1c",
                        "value" : "0x0a"
                    }
                ],
                "uncleHeaders" : [
                ]
            },
            {
                "blockHeader" : {
                    "bloom" : "0x00000000000000000000000000000000000000000000000000000000000000000000000000000000000000000000000000000000000000000000000000000000000000000000000000000000000000000000000000000000000000000000000000000000000000000000000000000000000000000000000000000000000000000000000000000000000000000000000000000000000000000000000000000000000000000000000000000000000000000000000000000000000000000000000000000000000000000000000000000000000000000000000000000000000000000000000000000000000000000000000000000000000000000000000000000000",
                    "coinbase" : "0x8888f1f195afa192cfee860698584c030f4c9db1",
                    "difficulty" : "0x0200c0",
                    "extraData" : "",
                    "gasLimit" : "0x2fefba",
                    "gasUsed" : "0x5208",
                    "hash" : "0x47301c929a8ddac8ea001d7ebc2dcb1476a96537c54b87fe42b89b8e90bb00f0",
                    "mixHash" : "0x8133150621fd636b73de678f7c1a5b3dceb2813cc26aad2a77138bc9bb522f49",
                    "nonce" : "0x97983db72b186c54",
                    "number" : "0x04",
                    "parentHash" : "0x5b4154fa690afdbff0aa2b75766ccea2b2d2194e434a48368b2576f325002507",
                    "receiptTrie" : "0x056b23fbba480696b65fe5a59b8f2148a1299103c4f57df839233af2cf4ca2d2",
                    "stateRoot" : "0xbc4df5eacb8c5bcbac14c38b20d3956f375a68e35a8426a4e058247527aeff8b",
                    "timestamp" : "0x59d66599",
                    "transactionsTrie" : "0x9735e49acaddb4d8338ed33df8dd006449b20b85e89e47224ac8ec8f7ea26071",
                    "uncleHash" : "0x1dcc4de8dec75d7aab85b567b6ccd41ad312451b948a7413f0a142fd40d49347"
                },
                "blocknumber" : "4",
                "rlp" : "0xf90261f901f9a05b4154fa690afdbff0aa2b75766ccea2b2d2194e434a48368b2576f325002507a01dcc4de8dec75d7aab85b567b6ccd41ad312451b948a7413f0a142fd40d49347948888f1f195afa192cfee860698584c030f4c9db1a0bc4df5eacb8c5bcbac14c38b20d3956f375a68e35a8426a4e058247527aeff8ba09735e49acaddb4d8338ed33df8dd006449b20b85e89e47224ac8ec8f7ea26071a0056b23fbba480696b65fe5a59b8f2148a1299103c4f57df839233af2cf4ca2d2b9010000000000000000000000000000000000000000000000000000000000000000000000000000000000000000000000000000000000000000000000000000000000000000000000000000000000000000000000000000000000000000000000000000000000000000000000000000000000000000000000000000000000000000000000000000000000000000000000000000000000000000000000000000000000000000000000000000000000000000000000000000000000000000000000000000000000000000000000000000000000000000000000000000000000000000000000000000000000000000000000000000000000000000000000000000000000830200c004832fefba8252088459d6659980a08133150621fd636b73de678f7c1a5b3dceb2813cc26aad2a77138bc9bb522f498897983db72b186c54f862f86003018304cb2f94095e7baea6a6c7c4c2dfeb977efac326af552d870a801ba0a7b7f2fa93025fc1e6aa18c1aa07c32a456439754e196cb74f2f7d12cf3e840da02078cf840fb25fc3d858b2a85b622f21be0588b5c5d81d433427f6470e06a4a7c0",
                "transactions" : [
                    {
                        "data" : "",
                        "gasLimit" : "0x04cb2f",
                        "gasPrice" : "0x01",
                        "nonce" : "0x03",
                        "r" : "0xa7b7f2fa93025fc1e6aa18c1aa07c32a456439754e196cb74f2f7d12cf3e840d",
                        "s" : "0x2078cf840fb25fc3d858b2a85b622f21be0588b5c5d81d433427f6470e06a4a7",
                        "to" : "0x095e7baea6a6c7c4c2dfeb977efac326af552d87",
                        "v" : "0x1b",
                        "value" : "0x0a"
                    }
                ],
                "uncleHeaders" : [
                ]
            },
            {
                "blockHeader" : {
                    "bloom" : "0x00000000000000000000000000000000000000000000000000000000000000000000000000000000000000000000000000000000000000000000000000000000000000000000000000000000000000000000000000000000000000000000000000000000000000000000000000000000000000000000000000000000000000000000000000000000000000000000000000000000000000000000000000000000000000000000000000000000000000000000000000000000000000000000000000000000000000000000000000000000000000000000000000000000000000000000000000000000000000000000000000000000000000000000000000000000",
                    "coinbase" : "0x8888f1f195afa192cfee860698584c030f4c9db1",
                    "difficulty" : "0x020080",
                    "extraData" : "",
                    "gasLimit" : "0x2fefba",
                    "gasUsed" : "0x5208",
                    "hash" : "0x4c91a157c469ec4478bacaf87e491e860a74acfa7875ff42649d1cc32b9c30c6",
                    "mixHash" : "0x97ddf520c5d75a757ffd8b7c5c83a8f08bde358adfc95c7465d5e185cf99bff2",
                    "nonce" : "0x00c62a37fa2c34bd",
                    "number" : "0x03",
                    "parentHash" : "0x2683575bf141a131242eab1ab39b3c6d96606800a5c125c4259921325f297c8d",
                    "receiptTrie" : "0x056b23fbba480696b65fe5a59b8f2148a1299103c4f57df839233af2cf4ca2d2",
                    "stateRoot" : "0x9a128c7bb310d9b2213db6b74cefb8323d1e697dd86e58df3302eb6d3dc76d89",
                    "timestamp" : "0x59d6659a",
                    "transactionsTrie" : "0x8d4f70e47fd980bc4182bf6735e827a3ab98040b97bc27765aa69bedbc03aec1",
                    "uncleHash" : "0x1dcc4de8dec75d7aab85b567b6ccd41ad312451b948a7413f0a142fd40d49347"
                },
                "blocknumber" : "3",
                "rlp" : "0xf90262f901f9a02683575bf141a131242eab1ab39b3c6d96606800a5c125c4259921325f297c8da01dcc4de8dec75d7aab85b567b6ccd41ad312451b948a7413f0a142fd40d49347948888f1f195afa192cfee860698584c030f4c9db1a09a128c7bb310d9b2213db6b74cefb8323d1e697dd86e58df3302eb6d3dc76d89a08d4f70e47fd980bc4182bf6735e827a3ab98040b97bc27765aa69bedbc03aec1a0056b23fbba480696b65fe5a59b8f2148a1299103c4f57df839233af2cf4ca2d2b90100000000000000000000000000000000000000000000000000000000000000000000000000000000000000000000000000000000000000000000000000000000000000000000000000000000000000000000000000000000000000000000000000000000000000000000000000000000000000000000000000000000000000000000000000000000000000000000000000000000000000000000000000000000000000000000000000000000000000000000000000000000000000000000000000000000000000000000000000000000000000000000000000000000000000000000000000000000000000000000000000000000000000000000000000000000008302008003832fefba8252088459d6659a80a097ddf520c5d75a757ffd8b7c5c83a8f08bde358adfc95c7465d5e185cf99bff28800c62a37fa2c34bdf863f861020182795394095e7baea6a6c7c4c2dfeb977efac326af552d8782012c801ba02c0496b83cb527e403cb3900d83856644a2359e9cc79ca5fbcf508d8c6c1506ca030cedfd3b5105bbf823116d858790f1c48ab545751cb870ffda6ba3663d9261dc0",
                "transactions" : [
                    {
                        "data" : "",
                        "gasLimit" : "0x7953",
                        "gasPrice" : "0x01",
                        "nonce" : "0x02",
                        "r" : "0x2c0496b83cb527e403cb3900d83856644a2359e9cc79ca5fbcf508d8c6c1506c",
                        "s" : "0x30cedfd3b5105bbf823116d858790f1c48ab545751cb870ffda6ba3663d9261d",
                        "to" : "0x095e7baea6a6c7c4c2dfeb977efac326af552d87",
                        "v" : "0x1b",
                        "value" : "0x012c"
                    }
                ],
                "uncleHeaders" : [
                ]
            },
            {
                "blockHeader" : {
                    "bloom" : "0x00000000000000000000000000000000000000000000000000000000000000000000000000000000000000000000000000000000000000000000000000000000000000000000000000000000000000000000000000000000000000000000000000000000000000000000000000000000000000000000000000000000000000000000000000000000000000000000000000000000000000000000000000000000000000000000000000000000000000000000000000000000000000000000000000000000000000000000000000000000000000000000000000000000000000000000000000000000000000000000000000000000000000000000000000000000",
                    "coinbase" : "0x8888f1f195afa192cfee860698584c030f4c9db1",
                    "difficulty" : "0x0200c0",
                    "extraData" : "",
                    "gasLimit" : "0x2fefba",
                    "gasUsed" : "0xa520",
                    "hash" : "0x6cbd474c98b7a29af92ff2d7d6c74391dd2427cf91c31425451e40cd1aec9da9",
                    "mixHash" : "0x97f4b36924c4617ea84c99c1209f1d2f485c8b82f00ec591bd14604217281bc5",
                    "nonce" : "0xce0e28a3666639bd",
                    "number" : "0x04",
                    "parentHash" : "0x4c91a157c469ec4478bacaf87e491e860a74acfa7875ff42649d1cc32b9c30c6",
                    "receiptTrie" : "0x39da0d15ee87f85a60f7f4e9a13a177a8f81d3734cf3f2f2279b4bf25b12457c",
                    "stateRoot" : "0xc61048a2279f81a5e367615c0f2f491b91e436997a9bbc4d73862682cf84c892",
                    "timestamp" : "0x59d6659b",
                    "transactionsTrie" : "0x0dcc1922a3b55ca48b1b219205d7dc0df5e6379fe0f41e7f76a5b2460ce817f2",
                    "uncleHash" : "0x1dcc4de8dec75d7aab85b567b6ccd41ad312451b948a7413f0a142fd40d49347"
                },
                "blocknumber" : "4",
                "rlp" : "0xf902c9f901f9a04c91a157c469ec4478bacaf87e491e860a74acfa7875ff42649d1cc32b9c30c6a01dcc4de8dec75d7aab85b567b6ccd41ad312451b948a7413f0a142fd40d49347948888f1f195afa192cfee860698584c030f4c9db1a0c61048a2279f81a5e367615c0f2f491b91e436997a9bbc4d73862682cf84c892a00dcc1922a3b55ca48b1b219205d7dc0df5e6379fe0f41e7f76a5b2460ce817f2a039da0d15ee87f85a60f7f4e9a13a177a8f81d3734cf3f2f2279b4bf25b12457cb9010000000000000000000000000000000000000000000000000000000000000000000000000000000000000000000000000000000000000000000000000000000000000000000000000000000000000000000000000000000000000000000000000000000000000000000000000000000000000000000000000000000000000000000000000000000000000000000000000000000000000000000000000000000000000000000000000000000000000000000000000000000000000000000000000000000000000000000000000000000000000000000000000000000000000000000000000000000000000000000000000000000000000000000000000000000000830200c004832fefba82a5208459d6659b80a097f4b36924c4617ea84c99c1209f1d2f485c8b82f00ec591bd14604217281bc588ce0e28a3666639bdf8caf8650301827b1594095e7baea6a6c7c4c2dfeb977efac326af552d8782012c84345345401ca0cd829c2721d28976a5f72f2d5d406960b335c6565df3861fe051ce50654c510ea075909014302e43b22fbe4e49eb21364b00120651883a901b2d02c438feab4534f8610401827b1594195e7baea6a6c7c4c2dfeb977efac326af552d8782012c801ca0f38917a475a084e24157a3e7891a1f53dacccab6a356e572cba058acefdafbb4a078d191c413c17012ee28e17be529cc1136bb1ca8736de3df6856a3a26bf7135fc0",
                "transactions" : [
                    {
                        "data" : "0x34534540",
                        "gasLimit" : "0x7b15",
                        "gasPrice" : "0x01",
                        "nonce" : "0x03",
                        "r" : "0xcd829c2721d28976a5f72f2d5d406960b335c6565df3861fe051ce50654c510e",
                        "s" : "0x75909014302e43b22fbe4e49eb21364b00120651883a901b2d02c438feab4534",
                        "to" : "0x095e7baea6a6c7c4c2dfeb977efac326af552d87",
                        "v" : "0x1c",
                        "value" : "0x012c"
                    },
                    {
                        "data" : "",
                        "gasLimit" : "0x7b15",
                        "gasPrice" : "0x01",
                        "nonce" : "0x04",
                        "r" : "0xf38917a475a084e24157a3e7891a1f53dacccab6a356e572cba058acefdafbb4",
                        "s" : "0x78d191c413c17012ee28e17be529cc1136bb1ca8736de3df6856a3a26bf7135f",
                        "to" : "0x195e7baea6a6c7c4c2dfeb977efac326af552d87",
                        "v" : "0x1c",
                        "value" : "0x012c"
                    }
                ],
                "uncleHeaders" : [
                ]
            }
        ],
        "genesisBlockHeader" : {
            "bloom" : "0x00000000000000000000000000000000000000000000000000000000000000000000000000000000000000000000000000000000000000000000000000000000000000000000000000000000000000000000000000000000000000000000000000000000000000000000000000000000000000000000000000000000000000000000000000000000000000000000000000000000000000000000000000000000000000000000000000000000000000000000000000000000000000000000000000000000000000000000000000000000000000000000000000000000000000000000000000000000000000000000000000000000000000000000000000000000",
            "coinbase" : "0x8888f1f195afa192cfee860698584c030f4c9db1",
            "difficulty" : "0x020000",
            "extraData" : "0x42",
            "gasLimit" : "0x2fefd8",
            "gasUsed" : "0x00",
            "hash" : "0x5a39ed1020c04d4d84539975b893a4e7c53eab6c2965db8bc3468093a31bc5ae",
            "mixHash" : "0x56e81f171bcc55a6ff8345e692c0f86e5b48e01b996cadc001622fb5e363b421",
            "nonce" : "0x0102030405060708",
            "number" : "0x00",
            "parentHash" : "0x0000000000000000000000000000000000000000000000000000000000000000",
            "receiptTrie" : "0x56e81f171bcc55a6ff8345e692c0f86e5b48e01b996cadc001622fb5e363b421",
            "stateRoot" : "0x7dba07d6b448a186e9612e5f737d1c909dce473e53199901a302c00646d523c1",
            "timestamp" : "0x54c98c81",
            "transactionsTrie" : "0x56e81f171bcc55a6ff8345e692c0f86e5b48e01b996cadc001622fb5e363b421",
            "uncleHash" : "0x1dcc4de8dec75d7aab85b567b6ccd41ad312451b948a7413f0a142fd40d49347"
        },
        "genesisRLP" : "0xf901fcf901f7a00000000000000000000000000000000000000000000000000000000000000000a01dcc4de8dec75d7aab85b567b6ccd41ad312451b948a7413f0a142fd40d49347948888f1f195afa192cfee860698584c030f4c9db1a07dba07d6b448a186e9612e5f737d1c909dce473e53199901a302c00646d523c1a056e81f171bcc55a6ff8345e692c0f86e5b48e01b996cadc001622fb5e363b421a056e81f171bcc55a6ff8345e692c0f86e5b48e01b996cadc001622fb5e363b421b90100000000000000000000000000000000000000000000000000000000000000000000000000000000000000000000000000000000000000000000000000000000000000000000000000000000000000000000000000000000000000000000000000000000000000000000000000000000000000000000000000000000000000000000000000000000000000000000000000000000000000000000000000000000000000000000000000000000000000000000000000000000000000000000000000000000000000000000000000000000000000000000000000000000000000000000000000000000000000000000000000000000000000000000000000000000008302000080832fefd8808454c98c8142a056e81f171bcc55a6ff8345e692c0f86e5b48e01b996cadc001622fb5e363b421880102030405060708c0c0",
        "lastblockhash" : "0x47301c929a8ddac8ea001d7ebc2dcb1476a96537c54b87fe42b89b8e90bb00f0",
        "network" : "Byzantium",
        "postState" : {
            "0x095e7baea6a6c7c4c2dfeb977efac326af552d87" : {
                "balance" : "0x28",
                "code" : "",
                "nonce" : "0x00",
                "storage" : {
                }
            },
            "0x8888f1f195afa192cfee860698584c030f4c9db1" : {
                "balance" : "0xa688906bd8b14820",
                "code" : "",
                "nonce" : "0x00",
                "storage" : {
                }
            },
            "0xa94f5374fce5edbc8e2a8697c15331677e6ebf0b" : {
                "balance" : "0x09184e7157b8",
                "code" : "",
                "nonce" : "0x04",
                "storage" : {
                }
            }
        },
        "pre" : {
            "0xa94f5374fce5edbc8e2a8697c15331677e6ebf0b" : {
                "balance" : "0x09184e72a000",
                "code" : "",
                "nonce" : "0x00",
                "storage" : {
                }
            }
        }
    }
}
