{
    "wallet2outOf3txs_Byzantium" : {
        "_info" : {
            "comment" : "",
            "filledwith" : "cpp-1.3.0+commit.6e0ce939.Linux.g++",
            "lllcversion" : "Version: 0.4.18-develop.2017.9.25+commit.a72237f2.Linux.g++",
            "source" : "src/BlockchainTestsFiller/bcWalletTest/wallet2outOf3txsFiller.json",
            "sourceHash" : "6279b26b796216ea9fd26a8df89e3f98e3972b35cf7c988e966b5bde027ecb70"
        },
        "blocks" : [
            {
                "blockHeader" : {
                    "bloom" : "0x00000000000000000000000000000000000000000000000000000000000000000000000000000000000000000000000000000000000000000000000000000000000000000000000000000000000000000000000000000000000000000000000000000000000000000000000000000000000000000000000000000000000000000000000000000000000000000000000000000000000000000000000000000000000000000000000000000000000000000000000000000000000000000000000000000000000000000000000000000000000000000000000000000000000000000000000000000000000000000000000000000000000000000000000000000000",
                    "coinbase" : "0x8888f1f195afa192cfee860698584c030f4c9db1",
                    "difficulty" : "0x020000",
                    "extraData" : "",
                    "gasLimit" : "0x01cb799e",
                    "gasUsed" : "0x12343f",
                    "hash" : "0x855e038661001fb8cd1158d61f82f50bd96fc5ff1b5d76b062dcb7c616a76ae3",
                    "mixHash" : "0x010c08b98cc235529978d149495bfa417269d664462cc8c450d82e523905235c",
                    "nonce" : "0x6b732e69295dcfc7",
                    "number" : "0x01",
                    "parentHash" : "0x85366996aa23e67a63326459bcfff5ef437d21eeb3cd3a4e6ed6d2a1f2b0a4df",
                    "receiptTrie" : "0x813df8950a2895f8d2d8025204ce2a4dc16ff80fb125a63a52a78a179dbb690d",
                    "stateRoot" : "0xda2a45001f2fc1335a5e9cbce68d9e49db6fb20f71281343aba9951e1f518366",
                    "timestamp" : "0x59d6632d",
                    "transactionsTrie" : "0x4627ca6cb9d890cc76a1335f907f3e9b5952ddeb23674843216733922561ed76",
                    "uncleHash" : "0x1dcc4de8dec75d7aab85b567b6ccd41ad312451b948a7413f0a142fd40d49347"
                },
                "rlp" : "0xf91267f901fba085366996aa23e67a63326459bcfff5ef437d21eeb3cd3a4e6ed6d2a1f2b0a4dfa01dcc4de8dec75d7aab85b567b6ccd41ad312451b948a7413f0a142fd40d49347948888f1f195afa192cfee860698584c030f4c9db1a0da2a45001f2fc1335a5e9cbce68d9e49db6fb20f71281343aba9951e1f518366a04627ca6cb9d890cc76a1335f907f3e9b5952ddeb23674843216733922561ed76a0813df8950a2895f8d2d8025204ce2a4dc16ff80fb125a63a52a78a179dbb690db901000000000000000000000000000000000000000000000000000000000000000000000000000000000000000000000000000000000000000000000000000000000000000000000000000000000000000000000000000000000000000000000000000000000000000000000000000000000000000000000000000000000000000000000000000000000000000000000000000000000000000000000000000000000000000000000000000000000000000000000000000000000000000000000000000000000000000000000000000000000000000000000000000000000000000000000000000000000000000000000000000000000000000000000000000000000083020000018401cb799e8312343f8459d6632d80a0010c08b98cc235529978d149495bfa417269d664462cc8c450d82e523905235c886b732e69295dcfc7f91065f9106280018312343f8064b910146060604052604051602080611014833960806040818152925160016000818155818055600160a060020a03331660038190558152610102909452938320939093556201518042046101075582917f102d25c49d33fcdb8976a3f2744e0785c98d9e43b88364859e6aec4ae82eff5c91a250610f958061007f6000396000f300606060405236156100b95760e060020a6000350463173825d9811461010b5780632f54bf6e146101675780634123cb6b1461018f5780635c52c2f5146101985780637065cb48146101c9578063746c9171146101fd578063797af62714610206578063b20d30a914610219578063b61d27f61461024d578063b75c7dc61461026e578063ba51a6df1461029e578063c2cf7326146102d2578063cbf0b0c014610312578063f00d4b5d14610346578063f1736d861461037f575b61038960003411156101095760408051600160a060020a033316815234602082015281517fe1fffcc4923d04b559f4d29a8bfc6cda04eb5b0d3c460751c2402c5c5cc9109c929181900390910190a15b565b610389600435600060003643604051808484808284375050509091019081526040519081900360200190209050610693815b600160a060020a0333166000908152610102602052604081205481808083811415610c1357610d6c565b61038b6004355b600160a060020a03811660009081526101026020526040812054115b919050565b61038b60015481565b610389600036436040518084848082843750505090910190815260405190819003602001902090506107e58161013d565b6103896004356000364360405180848480828437505050909101908152604051908190036020019020905061060b8161013d565b61038b60005481565b61038b6004355b600081610a4b8161013d565b610389600435600036436040518084848082843750505090910190815260405190819003602001902090506107d98161013d565b61038b6004803590602480359160443591820191013560006108043361016e565b610389600435600160a060020a033316600090815261010260205260408120549080808381141561039d5761041f565b610389600435600036436040518084848082843750505090910190815260405190819003602001902090506107528161013d565b61038b600435602435600082815261010360209081526040808320600160a060020a0385168452610102909252822054829081818114156107ab576107cf565b610389600435600036436040518084848082843750505090910190815260405190819003602001902090506107f38161013d565b6103896004356024356000600036436040518084848082843750505090910190815260405190819003602001902090506104ac8161013d565b61038b6101055481565b005b60408051918252519081900360200190f35b5050506000828152610103602052604081206001810154600284900a929083168190111561041f5781546001838101805492909101845590849003905560408051600160a060020a03331681526020810187905281517fc7fb647e59b18047309aa15aad418e5d7ca96d173ad704f1031a2c3d7591734b929181900390910190a15b5050505050565b600160a060020a03831660028361010081101561000257508301819055600160a060020a03851660008181526101026020908152604080832083905584835291829020869055815192835282019290925281517fb532073b38c83145e3e5135377a08bf9aab55bc0fd7c1179cd4fb995d2a5159c929181900390910190a15b505b505050565b156104a5576104ba8361016e565b156104c557506104a7565b600160a060020a0384166000908152610102602052604081205492508214156104ee57506104a7565b6104265b6101045460005b81811015610eba57610104805461010891600091849081101561000257600080516020610f7583398151915201548252506020918252604081208054600160a060020a0319168155600181018290556002810180548382559083528383209193610f3f92601f9290920104810190610a33565b60018054810190819055600160a060020a038316906002906101008110156100025790900160005081905550600160005054610102600050600084600160a060020a03168152602001908152602001600020600050819055507f994a936646fe87ffe4f1e469d3d6aa417d6b855598397f323de5b449f765f0c3826040518082600160a060020a0316815260200191505060405180910390a15b505b50565b15610606576106198261016e565b156106245750610608565b61062c6104f2565b60015460fa90106106415761063f610656565b505b60015460fa901061056c5750610608565b6107105b600060015b600154811015610a47575b600154811080156106865750600281610100811015610002570154600014155b15610d7557600101610666565b156104a757600160a060020a0383166000908152610102602052604081205492508214156106c15750610606565b60016001600050540360006000505411156106dc5750610606565b600060028361010081101561000257508301819055600160a060020a038416815261010260205260408120556106526104f2565b5060408051600160a060020a038516815290517f58619076adf5bb0943d100ef88d52d7c3fd691b19d3a9071b555b651fbf418da9181900360200190a1505050565b15610606576001548211156107675750610608565b60008290556107746104f2565b6040805183815290517facbdb084c721332ac59f9b8e392196c9eb0e4932862da8eb9beaf0dad4f550da9181900360200190a15050565b506001830154600282900a908116600014156107ca57600094506107cf565b600194505b5050505092915050565b15610606575061010555565b156106085760006101065550565b156106065781600160a060020a0316ff5b15610a2357610818846000610e4f3361016e565b156108d4577f92ca3a80853e6663fa31fa10b99225f18d4902939b4c53a9caae9043f6efd00433858786866040518086600160a060020a0316815260200185815260200184600160a060020a031681526020018060200182810382528484828181526020019250808284378201915050965050505050505060405180910390a184600160a060020a03168484846040518083838082843750505090810191506000908083038185876185025a03f15060009350610a2392505050565b6000364360405180848480828437505050909101908152604051908190036020019020915061090490508161020d565b158015610927575060008181526101086020526040812054600160a060020a0316145b15610a235760008181526101086020908152604082208054600160a060020a03191688178155600181018790556002018054858255818452928290209092601f01919091048101908490868215610a2b579182015b82811115610a2b57823582600050559160200191906001019061097c565b50600050507f1733cbb53659d713b79580f79f3f9ff215f78a7c7aa45890f3b89fc5cddfbf328133868887876040518087815260200186600160a060020a0316815260200185815260200184600160a060020a03168152602001806020018281038252848482818152602001925080828437820191505097505050505050505060405180910390a15b949350505050565b5061099a9291505b80821115610a475760008155600101610a33565b5090565b15610c005760008381526101086020526040812054600160a060020a031614610c0057604080516000918220805460018201546002929092018054600160a060020a0392909216949293909291819084908015610acd57820191906000526020600020905b815481529060010190602001808311610ab057829003601f168201915b50509250505060006040518083038185876185025a03f1505050600084815261010860209081526040805181842080546001820154600160a060020a033381811686529685018c905294840181905293166060830181905260a06080840181815260029390930180549185018290527fe7c957c06e9a662c1a6c77366179f5b702b97651dc28eee7d5bf1dff6e40bb4a985095968b969294929390929160c083019085908015610ba257820191906000526020600020905b815481529060010190602001808311610b8557829003601f168201915b505097505050505050505060405180910390a160008381526101086020908152604082208054600160a060020a031916815560018101839055600281018054848255908452828420919392610c0692601f9290920104810190610a33565b50919050565b505050600191505061018a565b6000868152610103602052604081208054909450909250821415610c9c578154835560018381018390556101048054918201808255828015829011610c6b57818360005260206000209182019101610c6b9190610a33565b50505060028401819055610104805488929081101561000257600091909152600080516020610f7583398151915201555b506001820154600284900a90811660001415610d6c5760408051600160a060020a03331681526020810188905281517fe1c52dc63b719ade82e8bea94cc41a0d5d28e4aaf536adb5e9cccc9ff8c1aeda929181900390910190a1825460019011610d59576000868152610103602052604090206002015461010480549091908110156100025760406000908120600080516020610f758339815191529290920181905580825560018083018290556002909201559550610d6c9050565b8254600019018355600183018054821790555b50505050919050565b5b60018054118015610d9857506001546002906101008110156100025701546000145b15610dac5760018054600019019055610d76565b60015481108015610dcf5750600154600290610100811015610002570154600014155b8015610de957506002816101008110156100025701546000145b15610e4a57600154600290610100811015610002578101549082610100811015610002578101919091558190610102906000908361010081101561000257810154825260209290925260408120929092556001546101008110156100025701555b61065b565b1561018a5761010754610e655b62015180420490565b1115610e7e57600061010655610e79610e5c565b610107555b6101065480830110801590610e9c5750610106546101055490830111155b15610eb25750610106805482019055600161018a565b50600061018a565b6106066101045460005b81811015610f4a5761010480548290811015610002576000918252600080516020610f75833981519152015414610f3757610104805461010391600091849081101561000257600080516020610f7583398151915201548252506020919091526040812081815560018101829055600201555b600101610ec4565b5050506001016104f9565b61010480546000808355919091526104a790600080516020610f7583398151915290810190610a3356004c0be60200faa20559308cb7b5a1bb3255c16cb1cab91f525b5ae7a03d02fabe1ba0391c21cb3127c5b49fdea2512f7f78cde18ff1937f96ee11c747135179acc1e1a02fee8b30c0caa7d8bca1ee5c045a59d4be1f9440446e98f32a9345bbc03ae50ec0",
                "transactions" : [
                    {
                        "data" : "0x6060604052604051602080611014833960806040818152925160016000818155818055600160a060020a03331660038190558152610102909452938320939093556201518042046101075582917f102d25c49d33fcdb8976a3f2744e0785c98d9e43b88364859e6aec4ae82eff5c91a250610f958061007f6000396000f300606060405236156100b95760e060020a6000350463173825d9811461010b5780632f54bf6e146101675780634123cb6b1461018f5780635c52c2f5146101985780637065cb48146101c9578063746c9171146101fd578063797af62714610206578063b20d30a914610219578063b61d27f61461024d578063b75c7dc61461026e578063ba51a6df1461029e578063c2cf7326146102d2578063cbf0b0c014610312578063f00d4b5d14610346578063f1736d861461037f575b61038960003411156101095760408051600160a060020a033316815234602082015281517fe1fffcc4923d04b559f4d29a8bfc6cda04eb5b0d3c460751c2402c5c5cc9109c929181900390910190a15b565b610389600435600060003643604051808484808284375050509091019081526040519081900360200190209050610693815b600160a060020a0333166000908152610102602052604081205481808083811415610c1357610d6c565b61038b6004355b600160a060020a03811660009081526101026020526040812054115b919050565b61038b60015481565b610389600036436040518084848082843750505090910190815260405190819003602001902090506107e58161013d565b6103896004356000364360405180848480828437505050909101908152604051908190036020019020905061060b8161013d565b61038b60005481565b61038b6004355b600081610a4b8161013d565b610389600435600036436040518084848082843750505090910190815260405190819003602001902090506107d98161013d565b61038b6004803590602480359160443591820191013560006108043361016e565b610389600435600160a060020a033316600090815261010260205260408120549080808381141561039d5761041f565b610389600435600036436040518084848082843750505090910190815260405190819003602001902090506107528161013d565b61038b600435602435600082815261010360209081526040808320600160a060020a0385168452610102909252822054829081818114156107ab576107cf565b610389600435600036436040518084848082843750505090910190815260405190819003602001902090506107f38161013d565b6103896004356024356000600036436040518084848082843750505090910190815260405190819003602001902090506104ac8161013d565b61038b6101055481565b005b60408051918252519081900360200190f35b5050506000828152610103602052604081206001810154600284900a929083168190111561041f5781546001838101805492909101845590849003905560408051600160a060020a03331681526020810187905281517fc7fb647e59b18047309aa15aad418e5d7ca96d173ad704f1031a2c3d7591734b929181900390910190a15b5050505050565b600160a060020a03831660028361010081101561000257508301819055600160a060020a03851660008181526101026020908152604080832083905584835291829020869055815192835282019290925281517fb532073b38c83145e3e5135377a08bf9aab55bc0fd7c1179cd4fb995d2a5159c929181900390910190a15b505b505050565b156104a5576104ba8361016e565b156104c557506104a7565b600160a060020a0384166000908152610102602052604081205492508214156104ee57506104a7565b6104265b6101045460005b81811015610eba57610104805461010891600091849081101561000257600080516020610f7583398151915201548252506020918252604081208054600160a060020a0319168155600181018290556002810180548382559083528383209193610f3f92601f9290920104810190610a33565b60018054810190819055600160a060020a038316906002906101008110156100025790900160005081905550600160005054610102600050600084600160a060020a03168152602001908152602001600020600050819055507f994a936646fe87ffe4f1e469d3d6aa417d6b855598397f323de5b449f765f0c3826040518082600160a060020a0316815260200191505060405180910390a15b505b50565b15610606576106198261016e565b156106245750610608565b61062c6104f2565b60015460fa90106106415761063f610656565b505b60015460fa901061056c5750610608565b6107105b600060015b600154811015610a47575b600154811080156106865750600281610100811015610002570154600014155b15610d7557600101610666565b156104a757600160a060020a0383166000908152610102602052604081205492508214156106c15750610606565b60016001600050540360006000505411156106dc5750610606565b600060028361010081101561000257508301819055600160a060020a038416815261010260205260408120556106526104f2565b5060408051600160a060020a038516815290517f58619076adf5bb0943d100ef88d52d7c3fd691b19d3a9071b555b651fbf418da9181900360200190a1505050565b15610606576001548211156107675750610608565b60008290556107746104f2565b6040805183815290517facbdb084c721332ac59f9b8e392196c9eb0e4932862da8eb9beaf0dad4f550da9181900360200190a15050565b506001830154600282900a908116600014156107ca57600094506107cf565b600194505b5050505092915050565b15610606575061010555565b156106085760006101065550565b156106065781600160a060020a0316ff5b15610a2357610818846000610e4f3361016e565b156108d4577f92ca3a80853e6663fa31fa10b99225f18d4902939b4c53a9caae9043f6efd00433858786866040518086600160a060020a0316815260200185815260200184600160a060020a031681526020018060200182810382528484828181526020019250808284378201915050965050505050505060405180910390a184600160a060020a03168484846040518083838082843750505090810191506000908083038185876185025a03f15060009350610a2392505050565b6000364360405180848480828437505050909101908152604051908190036020019020915061090490508161020d565b158015610927575060008181526101086020526040812054600160a060020a0316145b15610a235760008181526101086020908152604082208054600160a060020a03191688178155600181018790556002018054858255818452928290209092601f01919091048101908490868215610a2b579182015b82811115610a2b57823582600050559160200191906001019061097c565b50600050507f1733cbb53659d713b79580f79f3f9ff215f78a7c7aa45890f3b89fc5cddfbf328133868887876040518087815260200186600160a060020a0316815260200185815260200184600160a060020a03168152602001806020018281038252848482818152602001925080828437820191505097505050505050505060405180910390a15b949350505050565b5061099a9291505b80821115610a475760008155600101610a33565b5090565b15610c005760008381526101086020526040812054600160a060020a031614610c0057604080516000918220805460018201546002929092018054600160a060020a0392909216949293909291819084908015610acd57820191906000526020600020905b815481529060010190602001808311610ab057829003601f168201915b50509250505060006040518083038185876185025a03f1505050600084815261010860209081526040805181842080546001820154600160a060020a033381811686529685018c905294840181905293166060830181905260a06080840181815260029390930180549185018290527fe7c957c06e9a662c1a6c77366179f5b702b97651dc28eee7d5bf1dff6e40bb4a985095968b969294929390929160c083019085908015610ba257820191906000526020600020905b815481529060010190602001808311610b8557829003601f168201915b505097505050505050505060405180910390a160008381526101086020908152604082208054600160a060020a031916815560018101839055600281018054848255908452828420919392610c0692601f9290920104810190610a33565b50919050565b505050600191505061018a565b6000868152610103602052604081208054909450909250821415610c9c578154835560018381018390556101048054918201808255828015829011610c6b57818360005260206000209182019101610c6b9190610a33565b50505060028401819055610104805488929081101561000257600091909152600080516020610f7583398151915201555b506001820154600284900a90811660001415610d6c5760408051600160a060020a03331681526020810188905281517fe1c52dc63b719ade82e8bea94cc41a0d5d28e4aaf536adb5e9cccc9ff8c1aeda929181900390910190a1825460019011610d59576000868152610103602052604090206002015461010480549091908110156100025760406000908120600080516020610f758339815191529290920181905580825560018083018290556002909201559550610d6c9050565b8254600019018355600183018054821790555b50505050919050565b5b60018054118015610d9857506001546002906101008110156100025701546000145b15610dac5760018054600019019055610d76565b60015481108015610dcf5750600154600290610100811015610002570154600014155b8015610de957506002816101008110156100025701546000145b15610e4a57600154600290610100811015610002578101549082610100811015610002578101919091558190610102906000908361010081101561000257810154825260209290925260408120929092556001546101008110156100025701555b61065b565b1561018a5761010754610e655b62015180420490565b1115610e7e57600061010655610e79610e5c565b610107555b6101065480830110801590610e9c5750610106546101055490830111155b15610eb25750610106805482019055600161018a565b50600061018a565b6106066101045460005b81811015610f4a5761010480548290811015610002576000918252600080516020610f75833981519152015414610f3757610104805461010391600091849081101561000257600080516020610f7583398151915201548252506020919091526040812081815560018101829055600201555b600101610ec4565b5050506001016104f9565b61010480546000808355919091526104a790600080516020610f7583398151915290810190610a3356004c0be60200faa20559308cb7b5a1bb3255c16cb1cab91f525b5ae7a03d02fabe",
                        "gasLimit" : "0x12343f",
                        "gasPrice" : "0x01",
                        "nonce" : "0x00",
                        "r" : "0x391c21cb3127c5b49fdea2512f7f78cde18ff1937f96ee11c747135179acc1e1",
                        "s" : "0x2fee8b30c0caa7d8bca1ee5c045a59d4be1f9440446e98f32a9345bbc03ae50e",
                        "to" : "",
                        "v" : "0x1b",
                        "value" : "0x64"
                    }
                ],
                "uncleHeaders" : [
                ]
            },
            {
                "blockHeader" : {
                    "bloom" : "0x00000000000000000000000000000000000000000000000000000000000000000000000000000000000000000000000000000000000000000000000000000000000000000000000000000000000000000000000000000000000000000000000000000000000000000000000000000000000000000000000000000000000000000000000000000000000000000000000000000000000000000000000000000000000000000000000000000000000000000000000000000000000000000000000000000000000000000000000000000000000000000000000000000000000000000000000000000000000000000000000000000000000000000000000000000000",
                    "coinbase" : "0x8888f1f195afa192cfee860698584c030f4c9db1",
                    "difficulty" : "0x020040",
                    "extraData" : "",
                    "gasLimit" : "0x01cb0c37",
                    "gasUsed" : "0x5898",
                    "hash" : "0xc762e8862af80de13d8fe78198257565c6d8973d7771907c4ec53ca2a40e19a9",
                    "mixHash" : "0x08b676193535df2ce2254cb27df44721ac3c32d0d2eb2130f662fcc0ba99ada0",
                    "nonce" : "0x05133f25a8227f39",
                    "number" : "0x02",
                    "parentHash" : "0x855e038661001fb8cd1158d61f82f50bd96fc5ff1b5d76b062dcb7c616a76ae3",
                    "receiptTrie" : "0x64c9ee68988c98c83550fa66a2b196ed07cf4bfef7bb1d93a0a736acc51cb36d",
                    "stateRoot" : "0x3f24e257cc2cb18ce2ce4307d48b9fe4612a538d7b31e7fa2a97e5e955957fe5",
                    "timestamp" : "0x59d6632f",
                    "transactionsTrie" : "0xb691ee9b339f14b00f6b72f8628ee525ac13786aa4700e79cc2ab2aef7a3dff7",
                    "uncleHash" : "0x1dcc4de8dec75d7aab85b567b6ccd41ad312451b948a7413f0a142fd40d49347"
                },
                "rlp" : "0xf90286f901faa0855e038661001fb8cd1158d61f82f50bd96fc5ff1b5d76b062dcb7c616a76ae3a01dcc4de8dec75d7aab85b567b6ccd41ad312451b948a7413f0a142fd40d49347948888f1f195afa192cfee860698584c030f4c9db1a03f24e257cc2cb18ce2ce4307d48b9fe4612a538d7b31e7fa2a97e5e955957fe5a0b691ee9b339f14b00f6b72f8628ee525ac13786aa4700e79cc2ab2aef7a3dff7a064c9ee68988c98c83550fa66a2b196ed07cf4bfef7bb1d93a0a736acc51cb36db901000000000000000000000000000000000000000000000000000000000000000000000000000000000000000000000000000000000000000000000000000000000000000000000000000000000000000000000000000000000000000000000000000000000000000000000000000000000000000000000000000000000000000000000000000000000000000000000000000000000000000000000000000000000000000000000000000000000000000000000000000000000000000000000000000000000000000000000000000000000000000000000000000000000000000000000000000000000000000000000000000000000000000000000000000000000083020040028401cb0c378258988459d6632f80a008b676193535df2ce2254cb27df44721ac3c32d0d2eb2130f662fcc0ba99ada08805133f25a8227f39f886f884010183989680946295ee1b4f6dd65047762f924ecd367c17eabf8f64a47065cb48000000000000000000000000aaaf5374fce5edbc8e2a8697c15331677e6ebaaa1ba081b347124f5a88c2e04509723f18984b91020bddbd74c982c651856727b5fa0da041d1c0ef7309812cb795a5c86c462db176d8f782a8babbeb61ca715a49620504c0",
                "transactions" : [
                    {
                        "data" : "0x7065cb48000000000000000000000000aaaf5374fce5edbc8e2a8697c15331677e6ebaaa",
                        "gasLimit" : "0x989680",
                        "gasPrice" : "0x01",
                        "nonce" : "0x01",
                        "r" : "0x81b347124f5a88c2e04509723f18984b91020bddbd74c982c651856727b5fa0d",
                        "s" : "0x41d1c0ef7309812cb795a5c86c462db176d8f782a8babbeb61ca715a49620504",
                        "to" : "0x6295ee1b4f6dd65047762f924ecd367c17eabf8f",
                        "v" : "0x1b",
                        "value" : "0x64"
                    }
                ],
                "uncleHeaders" : [
                ]
            },
            {
                "blockHeader" : {
                    "bloom" : "0x00000000000000000000000000000000000000000000000000000000000000000000000000000000000000000000000000000000000000000000000000000000000000000000000000000000000000000000000000000000000000000000000000000000000000000000000000000000000000000000000000000000000000000000000000000000000000000000000000000000000000000000000000000000000000000000000000000000000000000000000000000000000000000000000000000000000000000000000000000000000000000000000000000000000000000000000000000000000000000000000000000000000000000000000000000000",
                    "coinbase" : "0x8888f1f195afa192cfee860698584c030f4c9db1",
                    "difficulty" : "0x020080",
                    "extraData" : "",
                    "gasLimit" : "0x01ca998f",
                    "gasUsed" : "0x5898",
                    "hash" : "0x9c4f273f65fdd9bd184b9587018a927c8022b84031cfee6b44c149ac1fc0faa2",
                    "mixHash" : "0x897635cae2c39b356afa23493c1862e265760a079d8c62f489e8f3fd15e84913",
                    "nonce" : "0xc4779e28c6ff198f",
                    "number" : "0x03",
                    "parentHash" : "0xc762e8862af80de13d8fe78198257565c6d8973d7771907c4ec53ca2a40e19a9",
                    "receiptTrie" : "0x64c9ee68988c98c83550fa66a2b196ed07cf4bfef7bb1d93a0a736acc51cb36d",
                    "stateRoot" : "0x9644fe87c7a0ad8900dd3777edee3b3ee401b128e49ff8248ec0611f4a7e6bb0",
                    "timestamp" : "0x59d66333",
                    "transactionsTrie" : "0xc6371b32e0ee2e7726ad8826559f777d04a5ca57fcd2f4352d00e622c97eb65c",
                    "uncleHash" : "0x1dcc4de8dec75d7aab85b567b6ccd41ad312451b948a7413f0a142fd40d49347"
                },
                "rlp" : "0xf90286f901faa0c762e8862af80de13d8fe78198257565c6d8973d7771907c4ec53ca2a40e19a9a01dcc4de8dec75d7aab85b567b6ccd41ad312451b948a7413f0a142fd40d49347948888f1f195afa192cfee860698584c030f4c9db1a09644fe87c7a0ad8900dd3777edee3b3ee401b128e49ff8248ec0611f4a7e6bb0a0c6371b32e0ee2e7726ad8826559f777d04a5ca57fcd2f4352d00e622c97eb65ca064c9ee68988c98c83550fa66a2b196ed07cf4bfef7bb1d93a0a736acc51cb36db901000000000000000000000000000000000000000000000000000000000000000000000000000000000000000000000000000000000000000000000000000000000000000000000000000000000000000000000000000000000000000000000000000000000000000000000000000000000000000000000000000000000000000000000000000000000000000000000000000000000000000000000000000000000000000000000000000000000000000000000000000000000000000000000000000000000000000000000000000000000000000000000000000000000000000000000000000000000000000000000000000000000000000000000000000000000083020080038401ca998f8258988459d6633380a0897635cae2c39b356afa23493c1862e265760a079d8c62f489e8f3fd15e8491388c4779e28c6ff198ff886f884020183989680946295ee1b4f6dd65047762f924ecd367c17eabf8f64a47065cb480000000000000000000000003fb1cd2cd96c6d5c0b5eb3322d807b34482481d41ba0d912bcb809e842cab8d2511a2a8d3ff7041511191b25a060d51498b44e55219aa011975ad6c3d56ed510a0ad1df22eea294201fc5aad5d9d81f6a705355ce7254ec0",
                "transactions" : [
                    {
                        "data" : "0x7065cb480000000000000000000000003fb1cd2cd96c6d5c0b5eb3322d807b34482481d4",
                        "gasLimit" : "0x989680",
                        "gasPrice" : "0x01",
                        "nonce" : "0x02",
                        "r" : "0xd912bcb809e842cab8d2511a2a8d3ff7041511191b25a060d51498b44e55219a",
                        "s" : "0x11975ad6c3d56ed510a0ad1df22eea294201fc5aad5d9d81f6a705355ce7254e",
                        "to" : "0x6295ee1b4f6dd65047762f924ecd367c17eabf8f",
                        "v" : "0x1b",
                        "value" : "0x64"
                    }
                ],
                "uncleHeaders" : [
                ]
            },
            {
                "blockHeader" : {
                    "bloom" : "0x00000000000000000000000000000000000000000000000000000000000000000000000000000000000000000000000000000000000000000000000000000000000000000000000000000000000000000000000000000000000000000000000000000000000000000000000000000000000000000000000000000000000000000000000000000000000000000000000000000000000000000000000000000000000000000000000000000000000000000000000000000000000000000000000000000000000000000000000000000000000000000000000000000000000000000000000000000000000000000000000000000000000000000000000000000000",
                    "coinbase" : "0x8888f1f195afa192cfee860698584c030f4c9db1",
                    "difficulty" : "0x020080",
                    "extraData" : "",
                    "gasLimit" : "0x01ca2704",
                    "gasUsed" : "0x53d8",
                    "hash" : "0xe2ca633f95538e3acd81d424092f48403bd02d7aef87822905a6155c09b7841c",
                    "mixHash" : "0x5c125cccc7a33a64ba54ce4feed2bb90b32ec854134f4fa2a0776396d6faa497",
                    "nonce" : "0x27013c7f719123af",
                    "number" : "0x04",
                    "parentHash" : "0x9c4f273f65fdd9bd184b9587018a927c8022b84031cfee6b44c149ac1fc0faa2",
                    "receiptTrie" : "0xfd0dd7d7f176bf035bfb1b9994fedbbfa5144d5ae535c97bf67904178ab50ebb",
                    "stateRoot" : "0x31f20099f6392156a911338170b435fba3103860583e755e47655ea25032439e",
                    "timestamp" : "0x59d6633d",
                    "transactionsTrie" : "0xc97c3672cf48c16c3094d787add7e1462d747b25c1679de26d605a913e884416",
                    "uncleHash" : "0x1dcc4de8dec75d7aab85b567b6ccd41ad312451b948a7413f0a142fd40d49347"
                },
                "rlp" : "0xf90286f901faa09c4f273f65fdd9bd184b9587018a927c8022b84031cfee6b44c149ac1fc0faa2a01dcc4de8dec75d7aab85b567b6ccd41ad312451b948a7413f0a142fd40d49347948888f1f195afa192cfee860698584c030f4c9db1a031f20099f6392156a911338170b435fba3103860583e755e47655ea25032439ea0c97c3672cf48c16c3094d787add7e1462d747b25c1679de26d605a913e884416a0fd0dd7d7f176bf035bfb1b9994fedbbfa5144d5ae535c97bf67904178ab50ebbb901000000000000000000000000000000000000000000000000000000000000000000000000000000000000000000000000000000000000000000000000000000000000000000000000000000000000000000000000000000000000000000000000000000000000000000000000000000000000000000000000000000000000000000000000000000000000000000000000000000000000000000000000000000000000000000000000000000000000000000000000000000000000000000000000000000000000000000000000000000000000000000000000000000000000000000000000000000000000000000000000000000000000000000000000000000000083020080048401ca27048253d88459d6633d80a05c125cccc7a33a64ba54ce4feed2bb90b32ec854134f4fa2a0776396d6faa4978827013c7f719123aff886f884030183989680946295ee1b4f6dd65047762f924ecd367c17eabf8f64a4ba51a6df00000000000000000000000000000000000000000000000000000000000000021ba02e2d6ddd6aa8a83e668a06e4e7d4de746192596c9eee05355842ed91a4c9da7da02bed72bfd144a96a1ed6983fc317b5839d0a52d003432da5d0693672c6ca2dcec0",
                "transactions" : [
                    {
                        "data" : "0xba51a6df0000000000000000000000000000000000000000000000000000000000000002",
                        "gasLimit" : "0x989680",
                        "gasPrice" : "0x01",
                        "nonce" : "0x03",
                        "r" : "0x2e2d6ddd6aa8a83e668a06e4e7d4de746192596c9eee05355842ed91a4c9da7d",
                        "s" : "0x2bed72bfd144a96a1ed6983fc317b5839d0a52d003432da5d0693672c6ca2dce",
                        "to" : "0x6295ee1b4f6dd65047762f924ecd367c17eabf8f",
                        "v" : "0x1b",
                        "value" : "0x64"
                    }
                ],
                "uncleHeaders" : [
                ]
            },
            {
                "blockHeader" : {
                    "bloom" : "0x00000000000000000000000000000000000000000000000000000000000000000000000000000000000000000000000000000000000000000000000000000000000000000000000000000000000000000000000000000000000000000000000000000000000000000000000000000000000000000000000000000000000000000000000000000000000000000000000000000000000000000000000000000000000000000000000000000000000000000000000000000000000000000000000000000000000000000000000000000000000000000000000000000000000000000000000000000000000000000000000000000000000000000000000000000000",
                    "coinbase" : "0x8888f1f195afa192cfee860698584c030f4c9db1",
                    "difficulty" : "0x0200c0",
                    "extraData" : "",
                    "gasLimit" : "0x01c9b495",
                    "gasUsed" : "0x5a18",
                    "hash" : "0x51a4dbdd1601ef5ecdf863e570bf792e8dd3fc4df1d2dd0f316fc7c75e65fffc",
                    "mixHash" : "0x938f21bb0ffb66ecebf0ca90376735eea20b5fb6afaa1baf731e177db7d714d0",
                    "nonce" : "0xeec372d77762db30",
                    "number" : "0x05",
                    "parentHash" : "0xe2ca633f95538e3acd81d424092f48403bd02d7aef87822905a6155c09b7841c",
                    "receiptTrie" : "0xab3eeff2244e3a925ca1b800e6f0ed545b0a5e9aa68894b92a777d8c66036411",
                    "stateRoot" : "0xb2bc557bd0bcc3e76ab54c6d75710a92b0cf78ddd3d8581c437e94cc13c304f9",
                    "timestamp" : "0x59d66341",
                    "transactionsTrie" : "0xecd62630e9a1144ef2736a9f023a082ed153967d54960ef3033e7e9cf18e8db1",
                    "uncleHash" : "0x1dcc4de8dec75d7aab85b567b6ccd41ad312451b948a7413f0a142fd40d49347"
                },
                "rlp" : "0xf902c8f901faa0e2ca633f95538e3acd81d424092f48403bd02d7aef87822905a6155c09b7841ca01dcc4de8dec75d7aab85b567b6ccd41ad312451b948a7413f0a142fd40d49347948888f1f195afa192cfee860698584c030f4c9db1a0b2bc557bd0bcc3e76ab54c6d75710a92b0cf78ddd3d8581c437e94cc13c304f9a0ecd62630e9a1144ef2736a9f023a082ed153967d54960ef3033e7e9cf18e8db1a0ab3eeff2244e3a925ca1b800e6f0ed545b0a5e9aa68894b92a777d8c66036411b9010000000000000000000000000000000000000000000000000000000000000000000000000000000000000000000000000000000000000000000000000000000000000000000000000000000000000000000000000000000000000000000000000000000000000000000000000000000000000000000000000000000000000000000000000000000000000000000000000000000000000000000000000000000000000000000000000000000000000000000000000000000000000000000000000000000000000000000000000000000000000000000000000000000000000000000000000000000000000000000000000000000000000000000000000000000000830200c0058401c9b495825a188459d6634180a0938f21bb0ffb66ecebf0ca90376735eea20b5fb6afaa1baf731e177db7d714d088eec372d77762db30f8c8f8c604018401335617946295ee1b4f6dd65047762f924ecd367c17eabf8f64b864b61d27f6000000000000000000000000aaaf5374fce5edbc8e2a8697c15331677e6ebaaa000000000000000000000000000000000000000000000000000000000000000900000000000000000000000000000000000000000000000000000000000000601ba01bdc2741b4e79f91418d23b051cf4caf8cce242ce1db1a62db6bf49b812ab935a00e1ef17507e65843d4e8523038bf3e94dfb09ae421cace04cb1ba94978b9cecac0",
                "transactions" : [
                    {
                        "data" : "0xb61d27f6000000000000000000000000aaaf5374fce5edbc8e2a8697c15331677e6ebaaa00000000000000000000000000000000000000000000000000000000000000090000000000000000000000000000000000000000000000000000000000000060",
                        "gasLimit" : "0x01335617",
                        "gasPrice" : "0x01",
                        "nonce" : "0x04",
                        "r" : "0x1bdc2741b4e79f91418d23b051cf4caf8cce242ce1db1a62db6bf49b812ab935",
                        "s" : "0x0e1ef17507e65843d4e8523038bf3e94dfb09ae421cace04cb1ba94978b9ceca",
                        "to" : "0x6295ee1b4f6dd65047762f924ecd367c17eabf8f",
                        "v" : "0x1b",
                        "value" : "0x64"
                    }
                ],
                "uncleHeaders" : [
                ]
            },
            {
                "blockHeader" : {
                    "bloom" : "0x00000000000000000000000000000000000000000000000000000000000000000000000000000000000000000000000000000000000000000000000000000000000000000000000000000000000000000000000000000000000000000000000000000000000000000000000000000000000000000000000000000000000000000000000000000000000000000000000000000000000000000000000000000000000000000000000000000000000000000000000000000000000000000000000000000000000000000000000000000000000000000000000000000000000000000000000000000000000000000000000000000000000000000000000000000000",
                    "coinbase" : "0x8888f1f195afa192cfee860698584c030f4c9db1",
                    "difficulty" : "0x020100",
                    "extraData" : "",
                    "gasLimit" : "0x01c94244",
                    "gasUsed" : "0x5b58",
                    "hash" : "0xce81b5dfb8ba4c76158ecc84eed7cdf7fb9bcf2339bb4e17ef04c166d14fb4c4",
                    "mixHash" : "0xfd9aa53155ca7e0f4e941bfa22317f68dbc4bee17b05713515b1aa8a2684be43",
                    "nonce" : "0x84c4f70bc85ed5d8",
                    "number" : "0x06",
                    "parentHash" : "0x51a4dbdd1601ef5ecdf863e570bf792e8dd3fc4df1d2dd0f316fc7c75e65fffc",
                    "receiptTrie" : "0xb09e38f8fc6c050da667c53966bcdd7769cb3f3e732cb8115e029759c9ced945",
                    "stateRoot" : "0x6a1c2d7eb74cb26fc60697b562f5015c8d6a96b3412964004f95c418dc088b06",
                    "timestamp" : "0x59d66347",
                    "transactionsTrie" : "0x0f89268439c6e2945e538f79ee3b036eb9505787978bf65fcee5e396d97d51c0",
                    "uncleHash" : "0x1dcc4de8dec75d7aab85b567b6ccd41ad312451b948a7413f0a142fd40d49347"
                },
                "rlp" : "0xf90287f901faa051a4dbdd1601ef5ecdf863e570bf792e8dd3fc4df1d2dd0f316fc7c75e65fffca01dcc4de8dec75d7aab85b567b6ccd41ad312451b948a7413f0a142fd40d49347948888f1f195afa192cfee860698584c030f4c9db1a06a1c2d7eb74cb26fc60697b562f5015c8d6a96b3412964004f95c418dc088b06a00f89268439c6e2945e538f79ee3b036eb9505787978bf65fcee5e396d97d51c0a0b09e38f8fc6c050da667c53966bcdd7769cb3f3e732cb8115e029759c9ced945b901000000000000000000000000000000000000000000000000000000000000000000000000000000000000000000000000000000000000000000000000000000000000000000000000000000000000000000000000000000000000000000000000000000000000000000000000000000000000000000000000000000000000000000000000000000000000000000000000000000000000000000000000000000000000000000000000000000000000000000000000000000000000000000000000000000000000000000000000000000000000000000000000000000000000000000000000000000000000000000000000000000000000000000000000000000000083020100068401c94244825b588459d6634780a0fd9aa53155ca7e0f4e941bfa22317f68dbc4bee17b05713515b1aa8a2684be438884c4f70bc85ed5d8f887f88580018401335617946295ee1b4f6dd65047762f924ecd367c17eabf8f64a4797af62745cdc51a93c670e2712bcef060b979e79bd8c4c25fb303229debad0010481f161ba06efe5d66bc9082e02a96cbd101f1a3688c66bdbcef72fc51198351da37d0ad38a06ad104520dc5f7d5ff29f1ebe7dd3986a31b1c4592f9aa06fea521a8770a8b34c0",
                "transactions" : [
                    {
                        "data" : "0x797af62745cdc51a93c670e2712bcef060b979e79bd8c4c25fb303229debad0010481f16",
                        "gasLimit" : "0x01335617",
                        "gasPrice" : "0x01",
                        "nonce" : "0x00",
                        "r" : "0x6efe5d66bc9082e02a96cbd101f1a3688c66bdbcef72fc51198351da37d0ad38",
                        "s" : "0x6ad104520dc5f7d5ff29f1ebe7dd3986a31b1c4592f9aa06fea521a8770a8b34",
                        "to" : "0x6295ee1b4f6dd65047762f924ecd367c17eabf8f",
                        "v" : "0x1b",
                        "value" : "0x64"
                    }
                ],
                "uncleHeaders" : [
                ]
            }
        ],
        "genesisBlockHeader" : {
            "bloom" : "0x00000000000000000000000000000000000000000000000000000000000000000000000000000000000000000000000000000000000000000000000000000000000000000000000000000000000000000000000000000000000000000000000000000000000000000000000000000000000000000000000000000000000000000000000000000000000000000000000000000000000000000000000000000000000000000000000000000000000000000000000000000000000000000000000000000000000000000000000000000000000000000000000000000000000000000000000000000000000000000000000000000000000000000000000000000000",
            "coinbase" : "0x8888f1f195afa192cfee860698584c030f4c9db1",
            "difficulty" : "0x020000",
            "extraData" : "0x42",
            "gasLimit" : "0x01cbec98",
            "gasUsed" : "0x00",
            "hash" : "0x85366996aa23e67a63326459bcfff5ef437d21eeb3cd3a4e6ed6d2a1f2b0a4df",
            "mixHash" : "0x56e81f171bcc55a6ff8345e692c0f86e5b48e01b996cadc001622fb5e363b421",
            "nonce" : "0x0102030405060708",
            "number" : "0x00",
            "parentHash" : "0x0000000000000000000000000000000000000000000000000000000000000000",
            "receiptTrie" : "0x56e81f171bcc55a6ff8345e692c0f86e5b48e01b996cadc001622fb5e363b421",
            "stateRoot" : "0xef999f205afd5a06b812add49f57943393760b898fc31a67fa428c35314345d6",
            "timestamp" : "0x54c98c81",
            "transactionsTrie" : "0x56e81f171bcc55a6ff8345e692c0f86e5b48e01b996cadc001622fb5e363b421",
            "uncleHash" : "0x1dcc4de8dec75d7aab85b567b6ccd41ad312451b948a7413f0a142fd40d49347"
        },
        "genesisRLP" : "0xf901fdf901f8a00000000000000000000000000000000000000000000000000000000000000000a01dcc4de8dec75d7aab85b567b6ccd41ad312451b948a7413f0a142fd40d49347948888f1f195afa192cfee860698584c030f4c9db1a0ef999f205afd5a06b812add49f57943393760b898fc31a67fa428c35314345d6a056e81f171bcc55a6ff8345e692c0f86e5b48e01b996cadc001622fb5e363b421a056e81f171bcc55a6ff8345e692c0f86e5b48e01b996cadc001622fb5e363b421b901000000000000000000000000000000000000000000000000000000000000000000000000000000000000000000000000000000000000000000000000000000000000000000000000000000000000000000000000000000000000000000000000000000000000000000000000000000000000000000000000000000000000000000000000000000000000000000000000000000000000000000000000000000000000000000000000000000000000000000000000000000000000000000000000000000000000000000000000000000000000000000000000000000000000000000000000000000000000000000000000000000000000000000000000000000000083020000808401cbec98808454c98c8142a056e81f171bcc55a6ff8345e692c0f86e5b48e01b996cadc001622fb5e363b421880102030405060708c0c0",
        "lastblockhash" : "0xce81b5dfb8ba4c76158ecc84eed7cdf7fb9bcf2339bb4e17ef04c166d14fb4c4",
        "network" : "Byzantium",
        "postState" : {
            "0x3fb1cd2cd96c6d5c0b5eb3322d807b34482481d4" : {
                "balance" : "0x5af31079e444",
                "code" : "",
                "nonce" : "0x01",
                "storage" : {
                }
            },
            "0x6295ee1b4f6dd65047762f924ecd367c17eabf8f" : {
                "balance" : "0x01f4",
                "code" : "",
                "nonce" : "0x00",
                "storage" : {
                }
            },
            "0x8888f1f195afa192cfee860698584c030f4c9db1" : {
                "balance" : "0xf9ccd8a1c51beeb7",
                "code" : "",
                "nonce" : "0x00",
                "storage" : {
                }
            },
            "0xa94f5374fce5edbc8e2a8697c15331677e6ebf0b" : {
                "balance" : "0x5af31066ab11",
                "code" : "",
                "nonce" : "0x05",
                "storage" : {
                }
            }
        },
        "pre" : {
            "0x3fb1cd2cd96c6d5c0b5eb3322d807b34482481d4" : {
                "balance" : "0x5af3107a4000",
                "code" : "",
                "nonce" : "0x00",
                "storage" : {
                }
            },
            "0xa94f5374fce5edbc8e2a8697c15331677e6ebf0b" : {
                "balance" : "0x5af3107a4000",
                "code" : "",
                "nonce" : "0x00",
                "storage" : {
                }
            }
        }
    }
}
