{
    "CallContractFromNotBestBlock_Byzantium" : {
        "_info" : {
            "comment" : "",
            "filledwith" : "cpp-1.3.0+commit.6e0ce939.Linux.g++",
            "lllcversion" : "Version: 0.4.18-develop.2017.9.25+commit.a72237f2.Linux.g++",
            "source" : "src/BlockchainTestsFiller/bcMultiChainTest/CallContractFromNotBestBlockFiller.json",
            "sourceHash" : "6abcc2d1c6b524e0b39176802927d310c88cebadbefc65671c1059aaa316ef13"
        },
        "blocks" : [
            {
                "blockHeader" : {
                    "bloom" : "0x00000000000000000000000000000000000000000000000000000000000000000000000000000000000000000000000000000000000000000000000000000000000000000000000000000000000000000000000000000000000000000000000000000000000000000000000000000000000000000000000000000000000000000000000000000000000000000000000000000000000000000000000000000000000000000000000000000000000000000000000000000000000000000000000000000000000000000000000000000000000000000000000000000000000000000000000000000000000000000000000000000000000000000000000000000000",
                    "coinbase" : "0x8888f1f195afa192cfee860698584c030f4c9db1",
                    "difficulty" : "0x020000",
                    "extraData" : "",
                    "gasLimit" : "0x2fefba",
                    "gasUsed" : "0x5208",
                    "hash" : "0x86db4f3d366f8744e63db56e428651b71e32056a4a178adcf482da32638216e5",
                    "mixHash" : "0x48cd9444a04a473dcec77ec8ad773a9ba0c9cd653430a11d971de71e3a3c19c5",
                    "nonce" : "0x52a81cf3823b1811",
                    "number" : "0x01",
                    "parentHash" : "0x5a39ed1020c04d4d84539975b893a4e7c53eab6c2965db8bc3468093a31bc5ae",
                    "receiptTrie" : "0x056b23fbba480696b65fe5a59b8f2148a1299103c4f57df839233af2cf4ca2d2",
                    "stateRoot" : "0x5c2e5a51a79da58791cdfe572bcfa3dfe9c860bf7fad7d9738a1aace56ef9332",
                    "timestamp" : "0x59d66579",
                    "transactionsTrie" : "0x5c9151c2413d1cd25c51ffb4ac38948acc1359bf08c6b49f283660e9bcf0f516",
                    "uncleHash" : "0x1dcc4de8dec75d7aab85b567b6ccd41ad312451b948a7413f0a142fd40d49347"
                },
                "blocknumber" : "1",
                "chainname" : "A",
                "rlp" : "0xf90261f901f9a05a39ed1020c04d4d84539975b893a4e7c53eab6c2965db8bc3468093a31bc5aea01dcc4de8dec75d7aab85b567b6ccd41ad312451b948a7413f0a142fd40d49347948888f1f195afa192cfee860698584c030f4c9db1a05c2e5a51a79da58791cdfe572bcfa3dfe9c860bf7fad7d9738a1aace56ef9332a05c9151c2413d1cd25c51ffb4ac38948acc1359bf08c6b49f283660e9bcf0f516a0056b23fbba480696b65fe5a59b8f2148a1299103c4f57df839233af2cf4ca2d2b90100000000000000000000000000000000000000000000000000000000000000000000000000000000000000000000000000000000000000000000000000000000000000000000000000000000000000000000000000000000000000000000000000000000000000000000000000000000000000000000000000000000000000000000000000000000000000000000000000000000000000000000000000000000000000000000000000000000000000000000000000000000000000000000000000000000000000000000000000000000000000000000000000000000000000000000000000000000000000000000000000000000000000000000000000000000008302000001832fefba8252088459d6657980a048cd9444a04a473dcec77ec8ad773a9ba0c9cd653430a11d971de71e3a3c19c58852a81cf3823b1811f862f86080018304cb2f94095e7baea6a6c7c4c2dfeb977efac326af552d870a801ba077c7cd36820c71821c1aed59de46e70e701c4a8dd89c9ba508ab722210f60da8a03f29825d40c7c3f7bff3ca69267e0f3fb74b2d18b8c2c4e3c135b5d3b06e288dc0",
                "transactions" : [
                    {
                        "data" : "",
                        "gasLimit" : "0x04cb2f",
                        "gasPrice" : "0x01",
                        "nonce" : "0x00",
                        "r" : "0x77c7cd36820c71821c1aed59de46e70e701c4a8dd89c9ba508ab722210f60da8",
                        "s" : "0x3f29825d40c7c3f7bff3ca69267e0f3fb74b2d18b8c2c4e3c135b5d3b06e288d",
                        "to" : "0x095e7baea6a6c7c4c2dfeb977efac326af552d87",
                        "v" : "0x1b",
                        "value" : "0x0a"
                    }
                ],
                "uncleHeaders" : [
                ]
            },
            {
                "blockHeader" : {
                    "bloom" : "0x00000000000000000000000000000000000000000000000000000000000000000000000000000000000000000000000000000000000000000000000000000000000000000000000000000000000000000000000000000000000000000000000000000000000000000000000000000000000000000000000000000000000000000000000000000000000000000000000000000000000000000000000000000000000000000000000000000000000000000000000000000000000000000000000000000000000000000000000000000000000000000000000000000000000000000000000000000000000000000000000000000000000000000000000000000000",
                    "coinbase" : "0x8888f1f195afa192cfee860698584c030f4c9db1",
                    "difficulty" : "0x020040",
                    "extraData" : "",
                    "gasLimit" : "0x2fefba",
                    "gasUsed" : "0x013de3",
                    "hash" : "0x65ede44c37a235e067911afa89f876895976abc3252786d66ac3e1c6c8e009b1",
                    "mixHash" : "0x101e5b1eb547a86a205db2d2d20d09303955951531683d5572701264cf45b05b",
                    "nonce" : "0x9ecf7fa6954c582e",
                    "number" : "0x02",
                    "parentHash" : "0x86db4f3d366f8744e63db56e428651b71e32056a4a178adcf482da32638216e5",
                    "receiptTrie" : "0x0c38cd6201a5d336455c846f8f4602a1eff9826d519023e5bdbf7d72936dd42b",
                    "stateRoot" : "0x034bb4c93b372ff257e1ff648cad78af19f134938b211e5d539eb05cc5453dfd",
                    "timestamp" : "0x59d6657f",
                    "transactionsTrie" : "0x73605c813df801dea03161bc2f66993a59f86babc47efa9d0e952bc79a26fabd",
                    "uncleHash" : "0x1dcc4de8dec75d7aab85b567b6ccd41ad312451b948a7413f0a142fd40d49347"
                },
                "blocknumber" : "2",
                "chainname" : "A",
                "rlp" : "0xf902cdf901faa086db4f3d366f8744e63db56e428651b71e32056a4a178adcf482da32638216e5a01dcc4de8dec75d7aab85b567b6ccd41ad312451b948a7413f0a142fd40d49347948888f1f195afa192cfee860698584c030f4c9db1a0034bb4c93b372ff257e1ff648cad78af19f134938b211e5d539eb05cc5453dfda073605c813df801dea03161bc2f66993a59f86babc47efa9d0e952bc79a26fabda00c38cd6201a5d336455c846f8f4602a1eff9826d519023e5bdbf7d72936dd42bb90100000000000000000000000000000000000000000000000000000000000000000000000000000000000000000000000000000000000000000000000000000000000000000000000000000000000000000000000000000000000000000000000000000000000000000000000000000000000000000000000000000000000000000000000000000000000000000000000000000000000000000000000000000000000000000000000000000000000000000000000000000000000000000000000000000000000000000000000000000000000000000000000000000000000000000000000000000000000000000000000000000000000000000000000000000000008302004002832fefba83013de38459d6657f80a0101e5b1eb547a86a205db2d2d20d09303955951531683d5572701264cf45b05b889ecf7fa6954c582ef8cdf8cb01018304cb2f8080b87e6060604052606e8060106000396000f360606040526000357c010000000000000000000000000000000000000000000000000000000090048063c0406226146037576035565b005b60406004506056565b6040518082815260200191505060405180910390f35b6000600560006000508190555060059050606b565b90561ca0b5a59222c12d3a9d52fddef1c7881a0dc7e72f5aed83be3cd7d7fdf868ec92a2a0551fea14e12dc99b6d78884bf5f0edae2da6ad4102d955057251d5d2aa8f54a5c0",
                "transactions" : [
                    {
                        "data" : "0x6060604052606e8060106000396000f360606040526000357c010000000000000000000000000000000000000000000000000000000090048063c0406226146037576035565b005b60406004506056565b6040518082815260200191505060405180910390f35b6000600560006000508190555060059050606b565b9056",
                        "gasLimit" : "0x04cb2f",
                        "gasPrice" : "0x01",
                        "nonce" : "0x01",
                        "r" : "0xb5a59222c12d3a9d52fddef1c7881a0dc7e72f5aed83be3cd7d7fdf868ec92a2",
                        "s" : "0x551fea14e12dc99b6d78884bf5f0edae2da6ad4102d955057251d5d2aa8f54a5",
                        "to" : "",
                        "v" : "0x1c",
                        "value" : "0x00"
                    }
                ],
                "uncleHeaders" : [
                ]
            },
            {
                "blockHeader" : {
                    "bloom" : "0x00000000000000000000000000000000000000000000000000000000000000000000000000000000000000000000000000000000000000000000000000000000000000000000000000000000000000000000000000000000000000000000000000000000000000000000000000000000000000000000000000000000000000000000000000000000000000000000000000000000000000000000000000000000000000000000000000000000000000000000000000000000000000000000000000000000000000000000000000000000000000000000000000000000000000000000000000000000000000000000000000000000000000000000000000000000",
                    "coinbase" : "0x8888f1f195afa192cfee860698584c030f4c9db1",
                    "difficulty" : "0x020080",
                    "extraData" : "",
                    "gasLimit" : "0x2fefba",
                    "gasUsed" : "0x524d",
                    "hash" : "0x3be8d0367a4e05d23da94efdf031ef590504e665c199c4b442043f790d8344b1",
                    "mixHash" : "0xedefdcd7f714df17a3460e6578fdaaf09e113c9c31e41cb4f4539f519573da89",
                    "nonce" : "0x3e07487cdce560a7",
                    "number" : "0x03",
                    "parentHash" : "0x65ede44c37a235e067911afa89f876895976abc3252786d66ac3e1c6c8e009b1",
                    "receiptTrie" : "0x652b8794906a678d040dafb6b1c2c04038ff1e9d7a3ecbb8a61c67527cbc9207",
                    "stateRoot" : "0xb9913e63ca42fd5a073fcc15c27ea28d96ea55e7dbf96e086d6f926efcad015e",
                    "timestamp" : "0x59d66583",
                    "transactionsTrie" : "0x88d2ec6b9860aae1a2c3b299f72b6a5d70d7f7ba4722c78f2c49ba96273c2158",
                    "uncleHash" : "0x1dcc4de8dec75d7aab85b567b6ccd41ad312451b948a7413f0a142fd40d49347"
                },
                "blocknumber" : "3",
                "chainname" : "A",
                "rlp" : "0xf90261f901f9a065ede44c37a235e067911afa89f876895976abc3252786d66ac3e1c6c8e009b1a01dcc4de8dec75d7aab85b567b6ccd41ad312451b948a7413f0a142fd40d49347948888f1f195afa192cfee860698584c030f4c9db1a0b9913e63ca42fd5a073fcc15c27ea28d96ea55e7dbf96e086d6f926efcad015ea088d2ec6b9860aae1a2c3b299f72b6a5d70d7f7ba4722c78f2c49ba96273c2158a0652b8794906a678d040dafb6b1c2c04038ff1e9d7a3ecbb8a61c67527cbc9207b90100000000000000000000000000000000000000000000000000000000000000000000000000000000000000000000000000000000000000000000000000000000000000000000000000000000000000000000000000000000000000000000000000000000000000000000000000000000000000000000000000000000000000000000000000000000000000000000000000000000000000000000000000000000000000000000000000000000000000000000000000000000000000000000000000000000000000000000000000000000000000000000000000000000000000000000000000000000000000000000000000000000000000000000000000000000008302008003832fefba82524d8459d6658380a0edefdcd7f714df17a3460e6578fdaaf09e113c9c31e41cb4f4539f519573da89883e07487cdce560a7f862f86002018304cb2f94ec0e71ad0a90ffe1909d27dac207f7680abba42d01801ba03a347e72953c860f32b1eb2c78a680d8734b2ea08085d949d729479796f218d5a047ea6239d9e31ccac8af3366f5ca37184d26e7646e3191a3aeb81c4cf74de500c0",
                "transactions" : [
                    {
                        "data" : "",
                        "gasLimit" : "0x04cb2f",
                        "gasPrice" : "0x01",
                        "nonce" : "0x02",
                        "r" : "0x3a347e72953c860f32b1eb2c78a680d8734b2ea08085d949d729479796f218d5",
                        "s" : "0x47ea6239d9e31ccac8af3366f5ca37184d26e7646e3191a3aeb81c4cf74de500",
                        "to" : "0xec0e71ad0a90ffe1909d27dac207f7680abba42d",
                        "v" : "0x1b",
                        "value" : "0x01"
                    }
                ],
                "uncleHeaders" : [
                ]
            },
            {
                "blockHeader" : {
                    "bloom" : "0x00000000000000000000000000000000000000000000000000000000000000000000000000000000000000000000000000000000000000000000000000000000000000000000000000000000000000000000000000000000000000000000000000000000000000000000000000000000000000000000000000000000000000000000000000000000000000000000000000000000000000000000000000000000000000000000000000000000000000000000000000000000000000000000000000000000000000000000000000000000000000000000000000000000000000000000000000000000000000000000000000000000000000000000000000000000",
                    "coinbase" : "0x8888f1f195afa192cfee860698584c030f4c9db1",
                    "difficulty" : "0x020080",
                    "extraData" : "",
                    "gasLimit" : "0x2fefba",
                    "gasUsed" : "0xa1f0",
                    "hash" : "0xe8b9f457bab6a601b1949c3b78078ec8b76c618b3f5255ae19ce1d017ac14ede",
                    "mixHash" : "0x6778244fd9183229ca31b03cd2ef00ce206b48140ff8f7c134ee06a93dddca3f",
                    "nonce" : "0x5a4d134f32df2aa6",
                    "number" : "0x03",
                    "parentHash" : "0x65ede44c37a235e067911afa89f876895976abc3252786d66ac3e1c6c8e009b1",
                    "receiptTrie" : "0xde7f36a4bf5beafa8b6b4e4053c4b46a43aa0e67cc1c6d0ef1b22df23be9d441",
                    "stateRoot" : "0x6060e16d8c5bffd2f447e6aadf45bca34d6c390bb30a21e83e253b0a7dd62031",
                    "timestamp" : "0x59d66584",
                    "transactionsTrie" : "0xae80fba3191a520feaeaa816d72180278bb03b7dd46f02f742d9384935122e6d",
                    "uncleHash" : "0x1dcc4de8dec75d7aab85b567b6ccd41ad312451b948a7413f0a142fd40d49347"
                },
                "blocknumber" : "3",
                "chainname" : "A",
                "rlp" : "0xf90265f901f9a065ede44c37a235e067911afa89f876895976abc3252786d66ac3e1c6c8e009b1a01dcc4de8dec75d7aab85b567b6ccd41ad312451b948a7413f0a142fd40d49347948888f1f195afa192cfee860698584c030f4c9db1a06060e16d8c5bffd2f447e6aadf45bca34d6c390bb30a21e83e253b0a7dd62031a0ae80fba3191a520feaeaa816d72180278bb03b7dd46f02f742d9384935122e6da0de7f36a4bf5beafa8b6b4e4053c4b46a43aa0e67cc1c6d0ef1b22df23be9d441b90100000000000000000000000000000000000000000000000000000000000000000000000000000000000000000000000000000000000000000000000000000000000000000000000000000000000000000000000000000000000000000000000000000000000000000000000000000000000000000000000000000000000000000000000000000000000000000000000000000000000000000000000000000000000000000000000000000000000000000000000000000000000000000000000000000000000000000000000000000000000000000000000000000000000000000000000000000000000000000000000000000000000000000000000000000000008302008003832fefba82a1f08459d6658480a06778244fd9183229ca31b03cd2ef00ce206b48140ff8f7c134ee06a93dddca3f885a4d134f32df2aa6f866f86402018304cb2f94ec0e71ad0a90ffe1909d27dac207f7680abba42d0284c04062261ba0a3bb6e8efde6041f73e1efa10baef697fd1dab7662cb6f6fb699d72e9906e428a07cd441a417a5969d49af5651a05131a5d717b6823db4595aee2ef2e7bcb4f705c0",
                "transactions" : [
                    {
                        "data" : "0xc0406226",
                        "gasLimit" : "0x04cb2f",
                        "gasPrice" : "0x01",
                        "nonce" : "0x02",
                        "r" : "0xa3bb6e8efde6041f73e1efa10baef697fd1dab7662cb6f6fb699d72e9906e428",
                        "s" : "0x7cd441a417a5969d49af5651a05131a5d717b6823db4595aee2ef2e7bcb4f705",
                        "to" : "0xec0e71ad0a90ffe1909d27dac207f7680abba42d",
                        "v" : "0x1b",
                        "value" : "0x02"
                    }
                ],
                "uncleHeaders" : [
                ]
            }
        ],
        "genesisBlockHeader" : {
            "bloom" : "0x00000000000000000000000000000000000000000000000000000000000000000000000000000000000000000000000000000000000000000000000000000000000000000000000000000000000000000000000000000000000000000000000000000000000000000000000000000000000000000000000000000000000000000000000000000000000000000000000000000000000000000000000000000000000000000000000000000000000000000000000000000000000000000000000000000000000000000000000000000000000000000000000000000000000000000000000000000000000000000000000000000000000000000000000000000000",
            "coinbase" : "0x8888f1f195afa192cfee860698584c030f4c9db1",
            "difficulty" : "0x020000",
            "extraData" : "0x42",
            "gasLimit" : "0x2fefd8",
            "gasUsed" : "0x00",
            "hash" : "0x5a39ed1020c04d4d84539975b893a4e7c53eab6c2965db8bc3468093a31bc5ae",
            "mixHash" : "0x56e81f171bcc55a6ff8345e692c0f86e5b48e01b996cadc001622fb5e363b421",
            "nonce" : "0x0102030405060708",
            "number" : "0x00",
            "parentHash" : "0x0000000000000000000000000000000000000000000000000000000000000000",
            "receiptTrie" : "0x56e81f171bcc55a6ff8345e692c0f86e5b48e01b996cadc001622fb5e363b421",
            "stateRoot" : "0x7dba07d6b448a186e9612e5f737d1c909dce473e53199901a302c00646d523c1",
            "timestamp" : "0x54c98c81",
            "transactionsTrie" : "0x56e81f171bcc55a6ff8345e692c0f86e5b48e01b996cadc001622fb5e363b421",
            "uncleHash" : "0x1dcc4de8dec75d7aab85b567b6ccd41ad312451b948a7413f0a142fd40d49347"
        },
        "genesisRLP" : "0xf901fcf901f7a00000000000000000000000000000000000000000000000000000000000000000a01dcc4de8dec75d7aab85b567b6ccd41ad312451b948a7413f0a142fd40d49347948888f1f195afa192cfee860698584c030f4c9db1a07dba07d6b448a186e9612e5f737d1c909dce473e53199901a302c00646d523c1a056e81f171bcc55a6ff8345e692c0f86e5b48e01b996cadc001622fb5e363b421a056e81f171bcc55a6ff8345e692c0f86e5b48e01b996cadc001622fb5e363b421b90100000000000000000000000000000000000000000000000000000000000000000000000000000000000000000000000000000000000000000000000000000000000000000000000000000000000000000000000000000000000000000000000000000000000000000000000000000000000000000000000000000000000000000000000000000000000000000000000000000000000000000000000000000000000000000000000000000000000000000000000000000000000000000000000000000000000000000000000000000000000000000000000000000000000000000000000000000000000000000000000000000000000000000000000000000000008302000080832fefd8808454c98c8142a056e81f171bcc55a6ff8345e692c0f86e5b48e01b996cadc001622fb5e363b421880102030405060708c0c0",
        "lastblockhash" : "0x3be8d0367a4e05d23da94efdf031ef590504e665c199c4b442043f790d8344b1",
        "network" : "Byzantium",
        "postState" : {
            "0x095e7baea6a6c7c4c2dfeb977efac326af552d87" : {
                "balance" : "0x0a",
                "code" : "",
                "nonce" : "0x00",
                "storage" : {
                }
            },
            "0x8888f1f195afa192cfee860698584c030f4c9db1" : {
                "balance" : "0x7ce66c50e285e238",
                "code" : "",
                "nonce" : "0x00",
                "storage" : {
                }
            },
            "0xa94f5374fce5edbc8e2a8697c15331677e6ebf0b" : {
                "balance" : "0x09184e70bdbd",
                "code" : "",
                "nonce" : "0x03",
                "storage" : {
                }
            },
            "0xec0e71ad0a90ffe1909d27dac207f7680abba42d" : {
                "balance" : "0x01",
                "code" : "0x60606040526000357c010000000000000000000000000000000000000000000000000000000090048063c0406226146037576035565b005b60406004506056565b6040518082815260200191505060405180910390f35b6000600560006000508190555060059050606b565b9056",
                "nonce" : "0x01",
                "storage" : {
                }
            }
        },
        "pre" : {
            "0xa94f5374fce5edbc8e2a8697c15331677e6ebf0b" : {
                "balance" : "0x09184e72a000",
                "code" : "",
                "nonce" : "0x00",
                "storage" : {
                }
            }
        }
    }
}
