{
    "ChainAtoChainBCallContractFormA_Byzantium" : {
        "_info" : {
            "comment" : "",
            "filledwith" : "cpp-1.3.0+commit.6e0ce939.Linux.g++",
            "lllcversion" : "Version: 0.4.18-develop.2017.9.25+commit.a72237f2.Linux.g++",
            "source" : "src/BlockchainTestsFiller/bcMultiChainTest/ChainAtoChainBCallContractFormAFiller.json",
            "sourceHash" : "9df6a91920d732644f4dbe29f07098321e6e33358930125fb9636d870665c647"
        },
        "blocks" : [
            {
                "blockHeader" : {
                    "bloom" : "0x00000000000000000000000000000000000000000000000000000000000000000000000000000000000000000000000000000000000000000000000000000000000000000000000000000000000000000000000000000000000000000000000000000000000000000000000000000000000000000000000000000000000000000000000000000000000000000000000000000000000000000000000000000000000000000000000000000000000000000000000000000000000000000000000000000000000000000000000000000000000000000000000000000000000000000000000000000000000000000000000000000000000000000000000000000000",
                    "coinbase" : "0x8888f1f195afa192cfee860698584c030f4c9db1",
                    "difficulty" : "0x020000",
                    "extraData" : "",
                    "gasLimit" : "0x2fefba",
                    "gasUsed" : "0x5208",
                    "hash" : "0xcba054350e6f9aad91c0e2b4e4d40afdc7a6da0f081bb71c2c83763d20502418",
                    "mixHash" : "0xbfcd2fd25d8384f6e4f3e33c6a659a208b8b95f5329660fa400e9bd0e224f73e",
                    "nonce" : "0xbbe121bf7a2db607",
                    "number" : "0x01",
                    "parentHash" : "0x5a39ed1020c04d4d84539975b893a4e7c53eab6c2965db8bc3468093a31bc5ae",
                    "receiptTrie" : "0x056b23fbba480696b65fe5a59b8f2148a1299103c4f57df839233af2cf4ca2d2",
                    "stateRoot" : "0x5c2e5a51a79da58791cdfe572bcfa3dfe9c860bf7fad7d9738a1aace56ef9332",
                    "timestamp" : "0x59d6670c",
                    "transactionsTrie" : "0x5c9151c2413d1cd25c51ffb4ac38948acc1359bf08c6b49f283660e9bcf0f516",
                    "uncleHash" : "0x1dcc4de8dec75d7aab85b567b6ccd41ad312451b948a7413f0a142fd40d49347"
                },
                "blocknumber" : "1",
                "chainname" : "A",
                "rlp" : "0xf90261f901f9a05a39ed1020c04d4d84539975b893a4e7c53eab6c2965db8bc3468093a31bc5aea01dcc4de8dec75d7aab85b567b6ccd41ad312451b948a7413f0a142fd40d49347948888f1f195afa192cfee860698584c030f4c9db1a05c2e5a51a79da58791cdfe572bcfa3dfe9c860bf7fad7d9738a1aace56ef9332a05c9151c2413d1cd25c51ffb4ac38948acc1359bf08c6b49f283660e9bcf0f516a0056b23fbba480696b65fe5a59b8f2148a1299103c4f57df839233af2cf4ca2d2b90100000000000000000000000000000000000000000000000000000000000000000000000000000000000000000000000000000000000000000000000000000000000000000000000000000000000000000000000000000000000000000000000000000000000000000000000000000000000000000000000000000000000000000000000000000000000000000000000000000000000000000000000000000000000000000000000000000000000000000000000000000000000000000000000000000000000000000000000000000000000000000000000000000000000000000000000000000000000000000000000000000000000000000000000000000000008302000001832fefba8252088459d6670c80a0bfcd2fd25d8384f6e4f3e33c6a659a208b8b95f5329660fa400e9bd0e224f73e88bbe121bf7a2db607f862f86080018304cb2f94095e7baea6a6c7c4c2dfeb977efac326af552d870a801ba077c7cd36820c71821c1aed59de46e70e701c4a8dd89c9ba508ab722210f60da8a03f29825d40c7c3f7bff3ca69267e0f3fb74b2d18b8c2c4e3c135b5d3b06e288dc0",
                "transactions" : [
                    {
                        "data" : "",
                        "gasLimit" : "0x04cb2f",
                        "gasPrice" : "0x01",
                        "nonce" : "0x00",
                        "r" : "0x77c7cd36820c71821c1aed59de46e70e701c4a8dd89c9ba508ab722210f60da8",
                        "s" : "0x3f29825d40c7c3f7bff3ca69267e0f3fb74b2d18b8c2c4e3c135b5d3b06e288d",
                        "to" : "0x095e7baea6a6c7c4c2dfeb977efac326af552d87",
                        "v" : "0x1b",
                        "value" : "0x0a"
                    }
                ],
                "uncleHeaders" : [
                ]
            },
            {
                "blockHeader" : {
                    "bloom" : "0x00000000000000000000000000000000000000000000000000000000000000000000000000000000000000000000000000000000000000000000000000000000000000000000000000000000000000000000000000000000000000000000000000000000000000000000000000000000000000000000000000000000000000000000000000000000000000000000000000000000000000000000000000000000000000000000000000000000000000000000000000000000000000000000000000000000000000000000000000000000000000000000000000000000000000000000000000000000000000000000000000000000000000000000000000000000",
                    "coinbase" : "0x8888f1f195afa192cfee860698584c030f4c9db1",
                    "difficulty" : "0x020040",
                    "extraData" : "",
                    "gasLimit" : "0x2fefba",
                    "gasUsed" : "0x013de3",
                    "hash" : "0x41bb670dcc68de5dea256af5163381837b87cf8ce49dbefe14886514afb8eaad",
                    "mixHash" : "0xd5cb58bbcd91abe1d2b14fcfaebbca70458033ed70764f046b55587073a6f6d3",
                    "nonce" : "0xa9a8704a3ae7ef3b",
                    "number" : "0x02",
                    "parentHash" : "0xcba054350e6f9aad91c0e2b4e4d40afdc7a6da0f081bb71c2c83763d20502418",
                    "receiptTrie" : "0x0c38cd6201a5d336455c846f8f4602a1eff9826d519023e5bdbf7d72936dd42b",
                    "stateRoot" : "0x034bb4c93b372ff257e1ff648cad78af19f134938b211e5d539eb05cc5453dfd",
                    "timestamp" : "0x59d66711",
                    "transactionsTrie" : "0x73605c813df801dea03161bc2f66993a59f86babc47efa9d0e952bc79a26fabd",
                    "uncleHash" : "0x1dcc4de8dec75d7aab85b567b6ccd41ad312451b948a7413f0a142fd40d49347"
                },
                "blocknumber" : "2",
                "chainname" : "A",
                "rlp" : "0xf902cdf901faa0cba054350e6f9aad91c0e2b4e4d40afdc7a6da0f081bb71c2c83763d20502418a01dcc4de8dec75d7aab85b567b6ccd41ad312451b948a7413f0a142fd40d49347948888f1f195afa192cfee860698584c030f4c9db1a0034bb4c93b372ff257e1ff648cad78af19f134938b211e5d539eb05cc5453dfda073605c813df801dea03161bc2f66993a59f86babc47efa9d0e952bc79a26fabda00c38cd6201a5d336455c846f8f4602a1eff9826d519023e5bdbf7d72936dd42bb90100000000000000000000000000000000000000000000000000000000000000000000000000000000000000000000000000000000000000000000000000000000000000000000000000000000000000000000000000000000000000000000000000000000000000000000000000000000000000000000000000000000000000000000000000000000000000000000000000000000000000000000000000000000000000000000000000000000000000000000000000000000000000000000000000000000000000000000000000000000000000000000000000000000000000000000000000000000000000000000000000000000000000000000000000000000008302004002832fefba83013de38459d6671180a0d5cb58bbcd91abe1d2b14fcfaebbca70458033ed70764f046b55587073a6f6d388a9a8704a3ae7ef3bf8cdf8cb01018304cb2f8080b87e6060604052606e8060106000396000f360606040526000357c010000000000000000000000000000000000000000000000000000000090048063c0406226146037576035565b005b60406004506056565b6040518082815260200191505060405180910390f35b6000600560006000508190555060059050606b565b90561ca0b5a59222c12d3a9d52fddef1c7881a0dc7e72f5aed83be3cd7d7fdf868ec92a2a0551fea14e12dc99b6d78884bf5f0edae2da6ad4102d955057251d5d2aa8f54a5c0",
                "transactions" : [
                    {
                        "data" : "0x6060604052606e8060106000396000f360606040526000357c010000000000000000000000000000000000000000000000000000000090048063c0406226146037576035565b005b60406004506056565b6040518082815260200191505060405180910390f35b6000600560006000508190555060059050606b565b9056",
                        "gasLimit" : "0x04cb2f",
                        "gasPrice" : "0x01",
                        "nonce" : "0x01",
                        "r" : "0xb5a59222c12d3a9d52fddef1c7881a0dc7e72f5aed83be3cd7d7fdf868ec92a2",
                        "s" : "0x551fea14e12dc99b6d78884bf5f0edae2da6ad4102d955057251d5d2aa8f54a5",
                        "to" : "",
                        "v" : "0x1c",
                        "value" : "0x00"
                    }
                ],
                "uncleHeaders" : [
                ]
            },
            {
                "blockHeader" : {
                    "bloom" : "0x00000000000000000000000000000000000000000000000000000000000000000000000000000000000000000000000000000000000000000000000000000000000000000000000000000000000000000000000000000000000000000000000000000000000000000000000000000000000000000000000000000000000000000000000000000000000000000000000000000000000000000000000000000000000000000000000000000000000000000000000000000000000000000000000000000000000000000000000000000000000000000000000000000000000000000000000000000000000000000000000000000000000000000000000000000000",
                    "coinbase" : "0x8888f1f195afa192cfee860698584c030f4c9db1",
                    "difficulty" : "0x020080",
                    "extraData" : "",
                    "gasLimit" : "0x2fefba",
                    "gasUsed" : "0xa1f0",
                    "hash" : "0x4336c6e22c41b977ce301518efd30cc59fa4b5bb9e9d9a81afba2f028eea986e",
                    "mixHash" : "0x726acbcc29d99fbc93126dd26c4fe2b45d431e0ef96670eacd8df452f8674b3e",
                    "nonce" : "0x2864295afae28bcc",
                    "number" : "0x03",
                    "parentHash" : "0x41bb670dcc68de5dea256af5163381837b87cf8ce49dbefe14886514afb8eaad",
                    "receiptTrie" : "0xde7f36a4bf5beafa8b6b4e4053c4b46a43aa0e67cc1c6d0ef1b22df23be9d441",
                    "stateRoot" : "0x1c7c261070fcff9b3c1dd52bdd23a6d8893c18cf03d563fe711f11b74f572d35",
                    "timestamp" : "0x59d66712",
                    "transactionsTrie" : "0x9c858c8136eab078bee6f5662d1efc4efb2ea41ceaa4a2fa70867ba34b6a8c5f",
                    "uncleHash" : "0x1dcc4de8dec75d7aab85b567b6ccd41ad312451b948a7413f0a142fd40d49347"
                },
                "blocknumber" : "3",
                "chainname" : "A",
                "rlp" : "0xf90265f901f9a041bb670dcc68de5dea256af5163381837b87cf8ce49dbefe14886514afb8eaada01dcc4de8dec75d7aab85b567b6ccd41ad312451b948a7413f0a142fd40d49347948888f1f195afa192cfee860698584c030f4c9db1a01c7c261070fcff9b3c1dd52bdd23a6d8893c18cf03d563fe711f11b74f572d35a09c858c8136eab078bee6f5662d1efc4efb2ea41ceaa4a2fa70867ba34b6a8c5fa0de7f36a4bf5beafa8b6b4e4053c4b46a43aa0e67cc1c6d0ef1b22df23be9d441b90100000000000000000000000000000000000000000000000000000000000000000000000000000000000000000000000000000000000000000000000000000000000000000000000000000000000000000000000000000000000000000000000000000000000000000000000000000000000000000000000000000000000000000000000000000000000000000000000000000000000000000000000000000000000000000000000000000000000000000000000000000000000000000000000000000000000000000000000000000000000000000000000000000000000000000000000000000000000000000000000000000000000000000000000000000000008302008003832fefba82a1f08459d6671280a0726acbcc29d99fbc93126dd26c4fe2b45d431e0ef96670eacd8df452f8674b3e882864295afae28bccf866f86402018304cb2f94ec0e71ad0a90ffe1909d27dac207f7680abba42d0184c04062261ba03b9f04ff34e1e3724d8b3e4582a18bdb01b9c2c7ec24cde6fbc20759398982d7a02d16728009bc65da5795e4d429dee397aedbc7b0c3238a48883eea7d377a08adc0",
                "transactions" : [
                    {
                        "data" : "0xc0406226",
                        "gasLimit" : "0x04cb2f",
                        "gasPrice" : "0x01",
                        "nonce" : "0x02",
                        "r" : "0x3b9f04ff34e1e3724d8b3e4582a18bdb01b9c2c7ec24cde6fbc20759398982d7",
                        "s" : "0x2d16728009bc65da5795e4d429dee397aedbc7b0c3238a48883eea7d377a08ad",
                        "to" : "0xec0e71ad0a90ffe1909d27dac207f7680abba42d",
                        "v" : "0x1b",
                        "value" : "0x01"
                    }
                ],
                "uncleHeaders" : [
                ]
            },
            {
                "blockHeader" : {
                    "bloom" : "0x00000000000000000000000000000000000000000000000000000000000000000000000000000000000000000000000000000000000000000000000000000000000000000000000000000000000000000000000000000000000000000000000000000000000000000000000000000000000000000000000000000000000000000000000000000000000000000000000000000000000000000000000000000000000000000000000000000000000000000000000000000000000000000000000000000000000000000000000000000000000000000000000000000000000000000000000000000000000000000000000000000000000000000000000000000000",
                    "coinbase" : "0x8888f1f195afa192cfee860698584c030f4c9db1",
                    "difficulty" : "0x020000",
                    "extraData" : "",
                    "gasLimit" : "0x2fefba",
                    "gasUsed" : "0x5208",
                    "hash" : "0x661ca933e7a2df9b80ddbaf62a47223f8898c74e6b00a5558d82d4fbe6698f60",
                    "mixHash" : "0x8efa5f93bb76a16425d269408cccecbbb7e4ca4f8103d818b14a9e4a973c259e",
                    "nonce" : "0x3f76508976e1e397",
                    "number" : "0x01",
                    "parentHash" : "0x5a39ed1020c04d4d84539975b893a4e7c53eab6c2965db8bc3468093a31bc5ae",
                    "receiptTrie" : "0x056b23fbba480696b65fe5a59b8f2148a1299103c4f57df839233af2cf4ca2d2",
                    "stateRoot" : "0x7eaa75e6fe237ecf4eae39b3ad06d5300217a4ef2a5aa58de74645abc8bdee72",
                    "timestamp" : "0x59d66717",
                    "transactionsTrie" : "0x89176230d5c4ac60168e999c7a9fbea712992e712c253d635601a9d625c640fa",
                    "uncleHash" : "0x1dcc4de8dec75d7aab85b567b6ccd41ad312451b948a7413f0a142fd40d49347"
                },
                "blocknumber" : "1",
                "chainname" : "B",
                "rlp" : "0xf90261f901f9a05a39ed1020c04d4d84539975b893a4e7c53eab6c2965db8bc3468093a31bc5aea01dcc4de8dec75d7aab85b567b6ccd41ad312451b948a7413f0a142fd40d49347948888f1f195afa192cfee860698584c030f4c9db1a07eaa75e6fe237ecf4eae39b3ad06d5300217a4ef2a5aa58de74645abc8bdee72a089176230d5c4ac60168e999c7a9fbea712992e712c253d635601a9d625c640faa0056b23fbba480696b65fe5a59b8f2148a1299103c4f57df839233af2cf4ca2d2b90100000000000000000000000000000000000000000000000000000000000000000000000000000000000000000000000000000000000000000000000000000000000000000000000000000000000000000000000000000000000000000000000000000000000000000000000000000000000000000000000000000000000000000000000000000000000000000000000000000000000000000000000000000000000000000000000000000000000000000000000000000000000000000000000000000000000000000000000000000000000000000000000000000000000000000000000000000000000000000000000000000000000000000000000000000000008302000001832fefba8252088459d6671780a08efa5f93bb76a16425d269408cccecbbb7e4ca4f8103d818b14a9e4a973c259e883f76508976e1e397f862f86080018304cb2f94095e7baea6a6c7c4c2dfeb977efac326af552d8764801ca066995adf6b8ce265233fe0ef11b24f7571908674be85c347eed4359396cfa4b1a0458062325e034ea6722559f0153094069424c0d508b7b104f2635a52bfaaa532c0",
                "transactions" : [
                    {
                        "data" : "",
                        "gasLimit" : "0x04cb2f",
                        "gasPrice" : "0x01",
                        "nonce" : "0x00",
                        "r" : "0x66995adf6b8ce265233fe0ef11b24f7571908674be85c347eed4359396cfa4b1",
                        "s" : "0x458062325e034ea6722559f0153094069424c0d508b7b104f2635a52bfaaa532",
                        "to" : "0x095e7baea6a6c7c4c2dfeb977efac326af552d87",
                        "v" : "0x1c",
                        "value" : "0x64"
                    }
                ],
                "uncleHeaders" : [
                ]
            },
            {
                "blockHeader" : {
                    "bloom" : "0x00000000000000000000000000000000000000000000000000000000000000000000000000000000000000000000000000000000000000000000000000000000000000000000000000000000000000000000000000000000000000000000000000000000000000000000000000000000000000000000000000000000000000000000000000000000000000000000000000000000000000000000000000000000000000000000000000000000000000000000000000000000000000000000000000000000000000000000000000000000000000000000000000000000000000000000000000000000000000000000000000000000000000000000000000000000",
                    "coinbase" : "0x8888f1f195afa192cfee860698584c030f4c9db1",
                    "difficulty" : "0x020040",
                    "extraData" : "",
                    "gasLimit" : "0x2fefba",
                    "gasUsed" : "0x5208",
                    "hash" : "0x626726cd5578646885b6d29bacd85cdd74d576cb3560901cbe55c7fa63c9c2ee",
                    "mixHash" : "0xacd2157fd5820f6d61d9eed92791c6ab8a0ea9cf41d89058ba6e714415d373df",
                    "nonce" : "0x1a20ed43757c6efd",
                    "number" : "0x02",
                    "parentHash" : "0x661ca933e7a2df9b80ddbaf62a47223f8898c74e6b00a5558d82d4fbe6698f60",
                    "receiptTrie" : "0x056b23fbba480696b65fe5a59b8f2148a1299103c4f57df839233af2cf4ca2d2",
                    "stateRoot" : "0x8b811084c255d1c610027ff74cd900ddf7039c9e89e6637caf23fb87ad43be5c",
                    "timestamp" : "0x59d66718",
                    "transactionsTrie" : "0x7322a6c669d75cf4eef8eea32991f58b54d874be9bdb69cc30aab3eb1efa0519",
                    "uncleHash" : "0x1dcc4de8dec75d7aab85b567b6ccd41ad312451b948a7413f0a142fd40d49347"
                },
                "blocknumber" : "2",
                "chainname" : "B",
                "rlp" : "0xf90260f901f9a0661ca933e7a2df9b80ddbaf62a47223f8898c74e6b00a5558d82d4fbe6698f60a01dcc4de8dec75d7aab85b567b6ccd41ad312451b948a7413f0a142fd40d49347948888f1f195afa192cfee860698584c030f4c9db1a08b811084c255d1c610027ff74cd900ddf7039c9e89e6637caf23fb87ad43be5ca07322a6c669d75cf4eef8eea32991f58b54d874be9bdb69cc30aab3eb1efa0519a0056b23fbba480696b65fe5a59b8f2148a1299103c4f57df839233af2cf4ca2d2b90100000000000000000000000000000000000000000000000000000000000000000000000000000000000000000000000000000000000000000000000000000000000000000000000000000000000000000000000000000000000000000000000000000000000000000000000000000000000000000000000000000000000000000000000000000000000000000000000000000000000000000000000000000000000000000000000000000000000000000000000000000000000000000000000000000000000000000000000000000000000000000000000000000000000000000000000000000000000000000000000000000000000000000000000000000000008302004002832fefba8252088459d6671880a0acd2157fd5820f6d61d9eed92791c6ab8a0ea9cf41d89058ba6e714415d373df881a20ed43757c6efdf861f85f010182795394ec0e71ad0a90ffe1909d27dac207f7680abba42d64801ba0520d98a0391575b2bec2e8404dd143eaeec125c5eb6aa93bc9bc7f16499fbb23a01b773ac3f48586b6e464ae84081081bd18313e0f8ea20e2ac4dfe18499f05addc0",
                "transactions" : [
                    {
                        "data" : "",
                        "gasLimit" : "0x7953",
                        "gasPrice" : "0x01",
                        "nonce" : "0x01",
                        "r" : "0x520d98a0391575b2bec2e8404dd143eaeec125c5eb6aa93bc9bc7f16499fbb23",
                        "s" : "0x1b773ac3f48586b6e464ae84081081bd18313e0f8ea20e2ac4dfe18499f05add",
                        "to" : "0xec0e71ad0a90ffe1909d27dac207f7680abba42d",
                        "v" : "0x1b",
                        "value" : "0x64"
                    }
                ],
                "uncleHeaders" : [
                ]
            },
            {
                "blockHeader" : {
                    "bloom" : "0x00000000000000000000000000000000000000000000000000000000000000000000000000000000000000000000000000000000000000000000000000000000000000000000000000000000000000000000000000000000000000000000000000000000000000000000000000000000000000000000000000000000000000000000000000000000000000000000000000000000000000000000000000000000000000000000000000000000000000000000000000000000000000000000000000000000000000000000000000000000000000000000000000000000000000000000000000000000000000000000000000000000000000000000000000000000",
                    "coinbase" : "0x8888f1f195afa192cfee860698584c030f4c9db1",
                    "difficulty" : "0x020080",
                    "extraData" : "",
                    "gasLimit" : "0x2fefba",
                    "gasUsed" : "0xa630",
                    "hash" : "0x8d6dadf04a991ae7609449ac43d42f25bbf134035a19d034b0ff91004f9d1ea4",
                    "mixHash" : "0x4f409e8005e711f5207b1419114045297719adeedf4eb956b512ee7e31a0ca67",
                    "nonce" : "0x0a73eeb35fd41903",
                    "number" : "0x03",
                    "parentHash" : "0x626726cd5578646885b6d29bacd85cdd74d576cb3560901cbe55c7fa63c9c2ee",
                    "receiptTrie" : "0x767dbcd5c6723b314b4b5cb11afb81f538fe2139dfd547712b703f8432995a01",
                    "stateRoot" : "0x7e4c629532892968414fed5126152358dedf036006ef6faa5c7778b629847c2e",
                    "timestamp" : "0x59d6671a",
                    "transactionsTrie" : "0xc736cbcf2498d7d04570566d0cc6c5be5d23733a7ae5e1df0d61643b766044df",
                    "uncleHash" : "0x1dcc4de8dec75d7aab85b567b6ccd41ad312451b948a7413f0a142fd40d49347"
                },
                "blocknumber" : "3",
                "chainname" : "B",
                "rlp" : "0xf902c8f901f9a0626726cd5578646885b6d29bacd85cdd74d576cb3560901cbe55c7fa63c9c2eea01dcc4de8dec75d7aab85b567b6ccd41ad312451b948a7413f0a142fd40d49347948888f1f195afa192cfee860698584c030f4c9db1a07e4c629532892968414fed5126152358dedf036006ef6faa5c7778b629847c2ea0c736cbcf2498d7d04570566d0cc6c5be5d23733a7ae5e1df0d61643b766044dfa0767dbcd5c6723b314b4b5cb11afb81f538fe2139dfd547712b703f8432995a01b90100000000000000000000000000000000000000000000000000000000000000000000000000000000000000000000000000000000000000000000000000000000000000000000000000000000000000000000000000000000000000000000000000000000000000000000000000000000000000000000000000000000000000000000000000000000000000000000000000000000000000000000000000000000000000000000000000000000000000000000000000000000000000000000000000000000000000000000000000000000000000000000000000000000000000000000000000000000000000000000000000000000000000000000000000000000008302008003832fefba82a6308459d6671a80a04f409e8005e711f5207b1419114045297719adeedf4eb956b512ee7e31a0ca67880a73eeb35fd41903f8c9f8630201827b1594095e7baea6a6c7c4c2dfeb977efac326af552d876484345345401ba0c912adcf452d35df5a1f79eaf137953512e39a643d44c25419acb9526baf1913a04d4529643671cfa998a7fb0ed28618f822d4141cee5796e43badf52cb46f435cf8620301827b1594ec0e71ad0a90ffe1909d27dac207f7680abba42d1484c04062261ba0ec0a1117ee6a01860b6318a782b36127f809a760d24db64b3791147d15dbff879fe80e8a90c3dd4a0463f85d6fb821267c427db9dfc6e6db8f2a627979937f39c0",
                "transactions" : [
                    {
                        "data" : "0x34534540",
                        "gasLimit" : "0x7b15",
                        "gasPrice" : "0x01",
                        "nonce" : "0x02",
                        "r" : "0xc912adcf452d35df5a1f79eaf137953512e39a643d44c25419acb9526baf1913",
                        "s" : "0x4d4529643671cfa998a7fb0ed28618f822d4141cee5796e43badf52cb46f435c",
                        "to" : "0x095e7baea6a6c7c4c2dfeb977efac326af552d87",
                        "v" : "0x1b",
                        "value" : "0x64"
                    },
                    {
                        "data" : "0xc0406226",
                        "gasLimit" : "0x7b15",
                        "gasPrice" : "0x01",
                        "nonce" : "0x03",
                        "r" : "0xec0a1117ee6a01860b6318a782b36127f809a760d24db64b3791147d15dbff87",
                        "s" : "0xe80e8a90c3dd4a0463f85d6fb821267c427db9dfc6e6db8f2a627979937f39",
                        "to" : "0xec0e71ad0a90ffe1909d27dac207f7680abba42d",
                        "v" : "0x1b",
                        "value" : "0x14"
                    }
                ],
                "uncleHeaders" : [
                ]
            },
            {
                "blockHeader" : {
                    "bloom" : "0x00000000000000000000000000000000000000000000000000000000000000000000000000000000000000000000000000000000000000000000000000000000000000000000000000000000000000000000000000000000000000000000000000000000000000000000000000000000000000000000000000000000000000000000000000000000000000000000000000000000000000000000000000000000000000000000000000000000000000000000000000000000000000000000000000000000000000000000000000000000000000000000000000000000000000000000000000000000000000000000000000000000000000000000000000000000",
                    "coinbase" : "0x8888f1f195afa192cfee860698584c030f4c9db1",
                    "difficulty" : "0x0200c0",
                    "extraData" : "",
                    "gasLimit" : "0x2fefba",
                    "gasUsed" : "0x5208",
                    "hash" : "0x0baa295777bb1431ce0ed2fa6bbf4c89daf243511773331596e2cf5b893dd95d",
                    "mixHash" : "0xbba02be0e8c71430cf2c6a0ded6457570042a79d678a508bb80d108a899cf85f",
                    "nonce" : "0x2afa097f68fbd838",
                    "number" : "0x04",
                    "parentHash" : "0x8d6dadf04a991ae7609449ac43d42f25bbf134035a19d034b0ff91004f9d1ea4",
                    "receiptTrie" : "0x056b23fbba480696b65fe5a59b8f2148a1299103c4f57df839233af2cf4ca2d2",
                    "stateRoot" : "0xbdc3b37258cf85ca649d2d6d13af47d0a2acee045f6ae8913ad6f9d9f008cb41",
                    "timestamp" : "0x59d6671c",
                    "transactionsTrie" : "0x43c0b898ea93246c6f00333bf6a14de6b819c74d039d2cdf382ef1b7e895447c",
                    "uncleHash" : "0x1dcc4de8dec75d7aab85b567b6ccd41ad312451b948a7413f0a142fd40d49347"
                },
                "blocknumber" : "4",
                "chainname" : "B",
                "rlp" : "0xf90260f901f9a08d6dadf04a991ae7609449ac43d42f25bbf134035a19d034b0ff91004f9d1ea4a01dcc4de8dec75d7aab85b567b6ccd41ad312451b948a7413f0a142fd40d49347948888f1f195afa192cfee860698584c030f4c9db1a0bdc3b37258cf85ca649d2d6d13af47d0a2acee045f6ae8913ad6f9d9f008cb41a043c0b898ea93246c6f00333bf6a14de6b819c74d039d2cdf382ef1b7e895447ca0056b23fbba480696b65fe5a59b8f2148a1299103c4f57df839233af2cf4ca2d2b9010000000000000000000000000000000000000000000000000000000000000000000000000000000000000000000000000000000000000000000000000000000000000000000000000000000000000000000000000000000000000000000000000000000000000000000000000000000000000000000000000000000000000000000000000000000000000000000000000000000000000000000000000000000000000000000000000000000000000000000000000000000000000000000000000000000000000000000000000000000000000000000000000000000000000000000000000000000000000000000000000000000000000000000000000000000000830200c004832fefba8252088459d6671c80a0bba02be0e8c71430cf2c6a0ded6457570042a79d678a508bb80d108a899cf85f882afa097f68fbd838f861f85f040182795394095e7baea6a6c7c4c2dfeb977efac326af552d8764801ba082a2dec18c512127304e5a7d1f5b3e513c26b43d85a095a6f448afdbe89431afa020ae86c5ade7d19c7f5110f4c3cf7b4cae94f1c774c66ac4252501e90d84c1cac0",
                "transactions" : [
                    {
                        "data" : "",
                        "gasLimit" : "0x7953",
                        "gasPrice" : "0x01",
                        "nonce" : "0x04",
                        "r" : "0x82a2dec18c512127304e5a7d1f5b3e513c26b43d85a095a6f448afdbe89431af",
                        "s" : "0x20ae86c5ade7d19c7f5110f4c3cf7b4cae94f1c774c66ac4252501e90d84c1ca",
                        "to" : "0x095e7baea6a6c7c4c2dfeb977efac326af552d87",
                        "v" : "0x1b",
                        "value" : "0x64"
                    }
                ],
                "uncleHeaders" : [
                ]
            }
        ],
        "genesisBlockHeader" : {
            "bloom" : "0x00000000000000000000000000000000000000000000000000000000000000000000000000000000000000000000000000000000000000000000000000000000000000000000000000000000000000000000000000000000000000000000000000000000000000000000000000000000000000000000000000000000000000000000000000000000000000000000000000000000000000000000000000000000000000000000000000000000000000000000000000000000000000000000000000000000000000000000000000000000000000000000000000000000000000000000000000000000000000000000000000000000000000000000000000000000",
            "coinbase" : "0x8888f1f195afa192cfee860698584c030f4c9db1",
            "difficulty" : "0x020000",
            "extraData" : "0x42",
            "gasLimit" : "0x2fefd8",
            "gasUsed" : "0x00",
            "hash" : "0x5a39ed1020c04d4d84539975b893a4e7c53eab6c2965db8bc3468093a31bc5ae",
            "mixHash" : "0x56e81f171bcc55a6ff8345e692c0f86e5b48e01b996cadc001622fb5e363b421",
            "nonce" : "0x0102030405060708",
            "number" : "0x00",
            "parentHash" : "0x0000000000000000000000000000000000000000000000000000000000000000",
            "receiptTrie" : "0x56e81f171bcc55a6ff8345e692c0f86e5b48e01b996cadc001622fb5e363b421",
            "stateRoot" : "0x7dba07d6b448a186e9612e5f737d1c909dce473e53199901a302c00646d523c1",
            "timestamp" : "0x54c98c81",
            "transactionsTrie" : "0x56e81f171bcc55a6ff8345e692c0f86e5b48e01b996cadc001622fb5e363b421",
            "uncleHash" : "0x1dcc4de8dec75d7aab85b567b6ccd41ad312451b948a7413f0a142fd40d49347"
        },
        "genesisRLP" : "0xf901fcf901f7a00000000000000000000000000000000000000000000000000000000000000000a01dcc4de8dec75d7aab85b567b6ccd41ad312451b948a7413f0a142fd40d49347948888f1f195afa192cfee860698584c030f4c9db1a07dba07d6b448a186e9612e5f737d1c909dce473e53199901a302c00646d523c1a056e81f171bcc55a6ff8345e692c0f86e5b48e01b996cadc001622fb5e363b421a056e81f171bcc55a6ff8345e692c0f86e5b48e01b996cadc001622fb5e363b421b90100000000000000000000000000000000000000000000000000000000000000000000000000000000000000000000000000000000000000000000000000000000000000000000000000000000000000000000000000000000000000000000000000000000000000000000000000000000000000000000000000000000000000000000000000000000000000000000000000000000000000000000000000000000000000000000000000000000000000000000000000000000000000000000000000000000000000000000000000000000000000000000000000000000000000000000000000000000000000000000000000000000000000000000000000000000008302000080832fefd8808454c98c8142a056e81f171bcc55a6ff8345e692c0f86e5b48e01b996cadc001622fb5e363b421880102030405060708c0c0",
        "lastblockhash" : "0x0baa295777bb1431ce0ed2fa6bbf4c89daf243511773331596e2cf5b893dd95d",
        "network" : "Byzantium",
        "postState" : {
            "0x095e7baea6a6c7c4c2dfeb977efac326af552d87" : {
                "balance" : "0x012c",
                "code" : "",
                "nonce" : "0x00",
                "storage" : {
                }
            },
            "0x8888f1f195afa192cfee860698584c030f4c9db1" : {
                "balance" : "0xa688906bd8b19c48",
                "code" : "",
                "nonce" : "0x00",
                "storage" : {
                }
            },
            "0xa94f5374fce5edbc8e2a8697c15331677e6ebf0b" : {
                "balance" : "0x09184e710214",
                "code" : "",
                "nonce" : "0x05",
                "storage" : {
                }
            },
            "0xec0e71ad0a90ffe1909d27dac207f7680abba42d" : {
                "balance" : "0x78",
                "code" : "",
                "nonce" : "0x00",
                "storage" : {
                }
            }
        },
        "pre" : {
            "0xa94f5374fce5edbc8e2a8697c15331677e6ebf0b" : {
                "balance" : "0x09184e72a000",
                "code" : "",
                "nonce" : "0x00",
                "storage" : {
                }
            }
        }
    }
}
