{
    "ChainAtoChainB_BlockHash_Byzantium" : {
        "_info" : {
            "comment" : "",
            "filledwith" : "cpp-1.3.0+commit.6e0ce939.Linux.g++",
            "lllcversion" : "Version: 0.4.18-develop.2017.9.25+commit.a72237f2.Linux.g++",
            "source" : "src/BlockchainTestsFiller/bcMultiChainTest/ChainAtoChainB_BlockHashFiller.json",
            "sourceHash" : "587b10a9fa0bf2a945225e82c9298ea5103aeb411f3295735a78995a1889cfff"
        },
        "blocks" : [
            {
                "blockHeader" : {
                    "bloom" : "0x00000000000000000000000000000000000000000000000000000000000000000000000000000000000000000000000000000000000000000000000000000000000000000000000000000000000000000000000000000000000000000000000000000000000000000000000000000000000000000000000000000000000000000000000000000000000000000000000000000000000000000000000000000000000000000000000000000000000000000000000000000000000000000000000000000000000000000000000000000000000000000000000000000000000000000000000000000000000000000000000000000000000000000000000000000000",
                    "coinbase" : "0x8888f1f195afa192cfee860698584c030f4c9db1",
                    "difficulty" : "0x020000",
                    "extraData" : "",
                    "gasLimit" : "0x2fefba",
                    "gasUsed" : "0x5208",
                    "hash" : "0x0e8d244b4e31c0c8381f096da031d96c19f4a2650efdcad92901934136a1a2ad",
                    "mixHash" : "0x356e454bf825e6443b00422627e851263f4a16bfbc9a2b69e8208a303c7a9be9",
                    "nonce" : "0x2960dc8b3de9d12d",
                    "number" : "0x01",
                    "parentHash" : "0x61ab7b8f9756ce9e6f430cfb103b7ddee023c65c9125fcdcbc5539b122ca3432",
                    "receiptTrie" : "0x056b23fbba480696b65fe5a59b8f2148a1299103c4f57df839233af2cf4ca2d2",
                    "stateRoot" : "0xcee7cefb281867d70ba3fd34908d7295d300287b2a065219ae7babbd0bd708aa",
                    "timestamp" : "0x59d666c9",
                    "transactionsTrie" : "0xf80217763f8d00269566918ebd3c7729465f8b9818a0f437bf215a8190884d5d",
                    "uncleHash" : "0x1dcc4de8dec75d7aab85b567b6ccd41ad312451b948a7413f0a142fd40d49347"
                },
                "blocknumber" : "1",
                "chainname" : "A",
                "rlp" : "0xf90261f901f9a061ab7b8f9756ce9e6f430cfb103b7ddee023c65c9125fcdcbc5539b122ca3432a01dcc4de8dec75d7aab85b567b6ccd41ad312451b948a7413f0a142fd40d49347948888f1f195afa192cfee860698584c030f4c9db1a0cee7cefb281867d70ba3fd34908d7295d300287b2a065219ae7babbd0bd708aaa0f80217763f8d00269566918ebd3c7729465f8b9818a0f437bf215a8190884d5da0056b23fbba480696b65fe5a59b8f2148a1299103c4f57df839233af2cf4ca2d2b90100000000000000000000000000000000000000000000000000000000000000000000000000000000000000000000000000000000000000000000000000000000000000000000000000000000000000000000000000000000000000000000000000000000000000000000000000000000000000000000000000000000000000000000000000000000000000000000000000000000000000000000000000000000000000000000000000000000000000000000000000000000000000000000000000000000000000000000000000000000000000000000000000000000000000000000000000000000000000000000000000000000000000000000000000000000008302000001832fefba8252088459d666c980a0356e454bf825e6443b00422627e851263f4a16bfbc9a2b69e8208a303c7a9be9882960dc8b3de9d12df862f86080018304cb2f94a95e7baea6a6c7c4c2dfeb977efac326af552d870a801ca0886931af2e4e440628e6e862e50944534ff3068c38cabb908dc708fa3736bfe0a03de874195b35641546d6c48409cca106127e5260a67fe7ed21a35dfb1f7a08b5c0",
                "transactions" : [
                    {
                        "data" : "",
                        "gasLimit" : "0x04cb2f",
                        "gasPrice" : "0x01",
                        "nonce" : "0x00",
                        "r" : "0x886931af2e4e440628e6e862e50944534ff3068c38cabb908dc708fa3736bfe0",
                        "s" : "0x3de874195b35641546d6c48409cca106127e5260a67fe7ed21a35dfb1f7a08b5",
                        "to" : "0xa95e7baea6a6c7c4c2dfeb977efac326af552d87",
                        "v" : "0x1c",
                        "value" : "0x0a"
                    }
                ],
                "uncleHeaders" : [
                ]
            },
            {
                "blockHeader" : {
                    "bloom" : "0x00000000000000000000000000000000000000000000000000000000000000000000000000000000000000000000000000000000000000000000000000000000000000000000000000000000000000000000000000000000000000000000000000000000000000000000000000000000000000000000000000000000000000000000000000000000000000000000000000000000000000000000000000000000000000000000000000000000000000000000000000000000000000000000000000000000000000000000000000000000000000000000000000000000000000000000000000000000000000000000000000000000000000000000000000000000",
                    "coinbase" : "0x8888f1f195afa192cfee860698584c030f4c9db1",
                    "difficulty" : "0x020040",
                    "extraData" : "",
                    "gasLimit" : "0x2fefba",
                    "gasUsed" : "0xa042",
                    "hash" : "0xe5be132d65df02edfc8916200b9137e9d59154f0d231f5a4a180841874a236b8",
                    "mixHash" : "0x9121d71c87e69a589cdfb67adadceb59c6d96305f8d531d6b59921c50c8c6e3d",
                    "nonce" : "0xe0a8dd3826c6117a",
                    "number" : "0x02",
                    "parentHash" : "0x0e8d244b4e31c0c8381f096da031d96c19f4a2650efdcad92901934136a1a2ad",
                    "receiptTrie" : "0x3218a5c148a88742bf17461fb0acd6bf6caf81038570f36a5016b10b414fe6f8",
                    "stateRoot" : "0xd3b2f91839f8b51a87bd08d9e37ba8e34d7fca3a1c545839e8fefc6584260c58",
                    "timestamp" : "0x59d666ca",
                    "transactionsTrie" : "0xc673e076264c4669a5c2e479f1757b78e42511efe33b5fd2c0a23b929c7f87f5",
                    "uncleHash" : "0x1dcc4de8dec75d7aab85b567b6ccd41ad312451b948a7413f0a142fd40d49347"
                },
                "blocknumber" : "2",
                "chainname" : "A",
                "rlp" : "0xf90260f901f9a00e8d244b4e31c0c8381f096da031d96c19f4a2650efdcad92901934136a1a2ada01dcc4de8dec75d7aab85b567b6ccd41ad312451b948a7413f0a142fd40d49347948888f1f195afa192cfee860698584c030f4c9db1a0d3b2f91839f8b51a87bd08d9e37ba8e34d7fca3a1c545839e8fefc6584260c58a0c673e076264c4669a5c2e479f1757b78e42511efe33b5fd2c0a23b929c7f87f5a03218a5c148a88742bf17461fb0acd6bf6caf81038570f36a5016b10b414fe6f8b90100000000000000000000000000000000000000000000000000000000000000000000000000000000000000000000000000000000000000000000000000000000000000000000000000000000000000000000000000000000000000000000000000000000000000000000000000000000000000000000000000000000000000000000000000000000000000000000000000000000000000000000000000000000000000000000000000000000000000000000000000000000000000000000000000000000000000000000000000000000000000000000000000000000000000000000000000000000000000000000000000000000000000000000000000000000008302004002832fefba82a0428459d666ca80a09121d71c87e69a589cdfb67adadceb59c6d96305f8d531d6b59921c50c8c6e3d88e0a8dd3826c6117af861f85f01018304cb2f94095e7baea6a6c7c4c2dfeb977efac326af552d870a801ba033c86e64d708c97c6b135cadff79dbf45985aa0b53694789e90d15f756765f239f1d0f8caa2a16405148c9d85581be5814960010f3cba938b5501590cea1f7cfc0",
                "transactions" : [
                    {
                        "data" : "",
                        "gasLimit" : "0x04cb2f",
                        "gasPrice" : "0x01",
                        "nonce" : "0x01",
                        "r" : "0x33c86e64d708c97c6b135cadff79dbf45985aa0b53694789e90d15f756765f23",
                        "s" : "0x1d0f8caa2a16405148c9d85581be5814960010f3cba938b5501590cea1f7cf",
                        "to" : "0x095e7baea6a6c7c4c2dfeb977efac326af552d87",
                        "v" : "0x1b",
                        "value" : "0x0a"
                    }
                ],
                "uncleHeaders" : [
                ]
            },
            {
                "blockHeader" : {
                    "bloom" : "0x00000000000000000000000000000000000000000000000000000000000000000000000000000000000000000000000000000000000000000000000000000000000000000000000000000000000000000000000000000000000000000000000000000000000000000000000000000000000000000000000000000000000000000000000000000000000000000000000000000000000000000000000000000000000000000000000000000000000000000000000000000000000000000000000000000000000000000000000000000000000000000000000000000000000000000000000000000000000000000000000000000000000000000000000000000000",
                    "coinbase" : "0x8888f1f195afa192cfee860698584c030f4c9db1",
                    "difficulty" : "0x020000",
                    "extraData" : "",
                    "gasLimit" : "0x2fefba",
                    "gasUsed" : "0x5208",
                    "hash" : "0x6769aafb6e48e89f3f13799aae97f42358b95973fe87119600cd8b8403b7e019",
                    "mixHash" : "0xe6c931330b152337f02751c93bd9d14213177c4fec4f0f1983c04902cc360c17",
                    "nonce" : "0x8c75dfc5cce5dad8",
                    "number" : "0x03",
                    "parentHash" : "0xe5be132d65df02edfc8916200b9137e9d59154f0d231f5a4a180841874a236b8",
                    "receiptTrie" : "0x056b23fbba480696b65fe5a59b8f2148a1299103c4f57df839233af2cf4ca2d2",
                    "stateRoot" : "0x470149805c37b573b6cf613e5b0b7190b5bdd53bf55e8c4d88fd00eef3f04dc2",
                    "timestamp" : "0x59d666e2",
                    "transactionsTrie" : "0xe4ddf887030952f0f259c5e4ea01be3271c08e931e39f32f7b8fa6d7c772e759",
                    "uncleHash" : "0x1dcc4de8dec75d7aab85b567b6ccd41ad312451b948a7413f0a142fd40d49347"
                },
                "blocknumber" : "3",
                "chainname" : "A",
                "rlp" : "0xf90261f901f9a0e5be132d65df02edfc8916200b9137e9d59154f0d231f5a4a180841874a236b8a01dcc4de8dec75d7aab85b567b6ccd41ad312451b948a7413f0a142fd40d49347948888f1f195afa192cfee860698584c030f4c9db1a0470149805c37b573b6cf613e5b0b7190b5bdd53bf55e8c4d88fd00eef3f04dc2a0e4ddf887030952f0f259c5e4ea01be3271c08e931e39f32f7b8fa6d7c772e759a0056b23fbba480696b65fe5a59b8f2148a1299103c4f57df839233af2cf4ca2d2b90100000000000000000000000000000000000000000000000000000000000000000000000000000000000000000000000000000000000000000000000000000000000000000000000000000000000000000000000000000000000000000000000000000000000000000000000000000000000000000000000000000000000000000000000000000000000000000000000000000000000000000000000000000000000000000000000000000000000000000000000000000000000000000000000000000000000000000000000000000000000000000000000000000000000000000000000000000000000000000000000000000000000000000000000000000000008302000003832fefba8252088459d666e280a0e6c931330b152337f02751c93bd9d14213177c4fec4f0f1983c04902cc360c17888c75dfc5cce5dad8f862f86002018304cb2f94a95e7baea6a6c7c4c2dfeb977efac326af552d870a801ca04c5dbd975005a9dd8c5d871ca55eae1ebc2931db605bae918121448cddd02e74a042df3d63071196c4c66fe0db760150fe7c176f3dce7daba73b5c8bcadc53f102c0",
                "transactions" : [
                    {
                        "data" : "",
                        "gasLimit" : "0x04cb2f",
                        "gasPrice" : "0x01",
                        "nonce" : "0x02",
                        "r" : "0x4c5dbd975005a9dd8c5d871ca55eae1ebc2931db605bae918121448cddd02e74",
                        "s" : "0x42df3d63071196c4c66fe0db760150fe7c176f3dce7daba73b5c8bcadc53f102",
                        "to" : "0xa95e7baea6a6c7c4c2dfeb977efac326af552d87",
                        "v" : "0x1c",
                        "value" : "0x0a"
                    }
                ],
                "uncleHeaders" : [
                ]
            },
            {
                "blockHeader" : {
                    "bloom" : "0x00000000000000000000000000000000000000000000000000000000000000000000000000000000000000000000000000000000000000000000000000000000000000000000000000000000000000000000000000000000000000000000000000000000000000000000000000000000000000000000000000000000000000000000000000000000000000000000000000000000000000000000000000000000000000000000000000000000000000000000000000000000000000000000000000000000000000000000000000000000000000000000000000000000000000000000000000000000000000000000000000000000000000000000000000000000",
                    "coinbase" : "0x8888f1f195afa192cfee860698584c030f4c9db1",
                    "difficulty" : "0x020000",
                    "extraData" : "",
                    "gasLimit" : "0x2fefba",
                    "gasUsed" : "0x5208",
                    "hash" : "0xd8330fece16054bd9f5403aec300a78884ceb5488a65770a4dc26cb5f83e80ed",
                    "mixHash" : "0x9f1c57c7c52754fa30d2dba5c89c586b9ac4abc3ab570661cd20acb47bdf710b",
                    "nonce" : "0x63f1146533bc760a",
                    "number" : "0x01",
                    "parentHash" : "0x61ab7b8f9756ce9e6f430cfb103b7ddee023c65c9125fcdcbc5539b122ca3432",
                    "receiptTrie" : "0x056b23fbba480696b65fe5a59b8f2148a1299103c4f57df839233af2cf4ca2d2",
                    "stateRoot" : "0x847b0d2fe1c717daece47a08432a9e2d2316c997670cb2d24a24a785843e4886",
                    "timestamp" : "0x59d666ce",
                    "transactionsTrie" : "0xda4ff51d21fb53978f91cc0bae0c01cfe4ed3485b999e4ef55d16441198223b5",
                    "uncleHash" : "0x1dcc4de8dec75d7aab85b567b6ccd41ad312451b948a7413f0a142fd40d49347"
                },
                "blocknumber" : "1",
                "chainname" : "B",
                "rlp" : "0xf90261f901f9a061ab7b8f9756ce9e6f430cfb103b7ddee023c65c9125fcdcbc5539b122ca3432a01dcc4de8dec75d7aab85b567b6ccd41ad312451b948a7413f0a142fd40d49347948888f1f195afa192cfee860698584c030f4c9db1a0847b0d2fe1c717daece47a08432a9e2d2316c997670cb2d24a24a785843e4886a0da4ff51d21fb53978f91cc0bae0c01cfe4ed3485b999e4ef55d16441198223b5a0056b23fbba480696b65fe5a59b8f2148a1299103c4f57df839233af2cf4ca2d2b90100000000000000000000000000000000000000000000000000000000000000000000000000000000000000000000000000000000000000000000000000000000000000000000000000000000000000000000000000000000000000000000000000000000000000000000000000000000000000000000000000000000000000000000000000000000000000000000000000000000000000000000000000000000000000000000000000000000000000000000000000000000000000000000000000000000000000000000000000000000000000000000000000000000000000000000000000000000000000000000000000000000000000000000000000000000008302000001832fefba8252088459d666ce80a09f1c57c7c52754fa30d2dba5c89c586b9ac4abc3ab570661cd20acb47bdf710b8863f1146533bc760af862f86080018304cb2f94a95e7baea6a6c7c4c2dfeb977efac326af552d8764801ba08d9a64385e3a24e9f6fdd49256c9f7d23cd501deaa55c5b4283fc58b2a601039a02518fdccd38aa1caaf4b49c907f750961f325d3d70104a22700b16d9af0d0557c0",
                "transactions" : [
                    {
                        "data" : "",
                        "gasLimit" : "0x04cb2f",
                        "gasPrice" : "0x01",
                        "nonce" : "0x00",
                        "r" : "0x8d9a64385e3a24e9f6fdd49256c9f7d23cd501deaa55c5b4283fc58b2a601039",
                        "s" : "0x2518fdccd38aa1caaf4b49c907f750961f325d3d70104a22700b16d9af0d0557",
                        "to" : "0xa95e7baea6a6c7c4c2dfeb977efac326af552d87",
                        "v" : "0x1b",
                        "value" : "0x64"
                    }
                ],
                "uncleHeaders" : [
                ]
            },
            {
                "blockHeader" : {
                    "bloom" : "0x00000000000000000000000000000000000000000000000000000000000000000000000000000000000000000000000000000000000000000000000000000000000000000000000000000000000000000000000000000000000000000000000000000000000000000000000000000000000000000000000000000000000000000000000000000000000000000000000000000000000000000000000000000000000000000000000000000000000000000000000000000000000000000000000000000000000000000000000000000000000000000000000000000000000000000000000000000000000000000000000000000000000000000000000000000000",
                    "coinbase" : "0x8888f1f195afa192cfee860698584c030f4c9db1",
                    "difficulty" : "0x020040",
                    "extraData" : "",
                    "gasLimit" : "0x2fefba",
                    "gasUsed" : "0xa042",
                    "hash" : "0x26ea7a6b241af38c015980b9d273ad15d5866d01a55b34d80630f9b3faba3526",
                    "mixHash" : "0x7b0709652c1faf9496823ff029ab2ae0031c663fd9d1de7fb10dbc358c02e635",
                    "nonce" : "0x81b3eec7cc1af28b",
                    "number" : "0x02",
                    "parentHash" : "0xd8330fece16054bd9f5403aec300a78884ceb5488a65770a4dc26cb5f83e80ed",
                    "receiptTrie" : "0x3218a5c148a88742bf17461fb0acd6bf6caf81038570f36a5016b10b414fe6f8",
                    "stateRoot" : "0xb3170e9e075491c03ef7558856a5d7058ee450ac323a423ccf4d3d7de876e731",
                    "timestamp" : "0x59d666cf",
                    "transactionsTrie" : "0x7d90b54544a650e638e06d360a7dc2eee226c40373df61476b792ca3eccae35b",
                    "uncleHash" : "0x1dcc4de8dec75d7aab85b567b6ccd41ad312451b948a7413f0a142fd40d49347"
                },
                "blocknumber" : "2",
                "chainname" : "B",
                "rlp" : "0xf90261f901f9a0d8330fece16054bd9f5403aec300a78884ceb5488a65770a4dc26cb5f83e80eda01dcc4de8dec75d7aab85b567b6ccd41ad312451b948a7413f0a142fd40d49347948888f1f195afa192cfee860698584c030f4c9db1a0b3170e9e075491c03ef7558856a5d7058ee450ac323a423ccf4d3d7de876e731a07d90b54544a650e638e06d360a7dc2eee226c40373df61476b792ca3eccae35ba03218a5c148a88742bf17461fb0acd6bf6caf81038570f36a5016b10b414fe6f8b90100000000000000000000000000000000000000000000000000000000000000000000000000000000000000000000000000000000000000000000000000000000000000000000000000000000000000000000000000000000000000000000000000000000000000000000000000000000000000000000000000000000000000000000000000000000000000000000000000000000000000000000000000000000000000000000000000000000000000000000000000000000000000000000000000000000000000000000000000000000000000000000000000000000000000000000000000000000000000000000000000000000000000000000000000000000008302004002832fefba82a0428459d666cf80a07b0709652c1faf9496823ff029ab2ae0031c663fd9d1de7fb10dbc358c02e6358881b3eec7cc1af28bf862f86001018304bb2b94095e7baea6a6c7c4c2dfeb977efac326af552d8764801ca0b66e1a2ee26689bdbb87af26141f167ded19e6b2041407bf4f80a36ce30a1b1ba0084e5def3deddc4ba0bd7dd8cebf184a8c3a3c2d5d9af5cb642bdf819d2e0be4c0",
                "transactions" : [
                    {
                        "data" : "",
                        "gasLimit" : "0x04bb2b",
                        "gasPrice" : "0x01",
                        "nonce" : "0x01",
                        "r" : "0xb66e1a2ee26689bdbb87af26141f167ded19e6b2041407bf4f80a36ce30a1b1b",
                        "s" : "0x084e5def3deddc4ba0bd7dd8cebf184a8c3a3c2d5d9af5cb642bdf819d2e0be4",
                        "to" : "0x095e7baea6a6c7c4c2dfeb977efac326af552d87",
                        "v" : "0x1c",
                        "value" : "0x64"
                    }
                ],
                "uncleHeaders" : [
                ]
            },
            {
                "blockHeader" : {
                    "bloom" : "0x00000000000000000000000000000000000000000000000000000000000000000000000000000000000000000000000000000000000000000000000000000000000000000000000000000000000000000000000000000000000000000000000000000000000000000000000000000000000000000000000000000000000000000000000000000000000000000000000000000000000000000000000000000000000000000000000000000000000000000000000000000000000000000000000000000000000000000000000000000000000000000000000000000000000000000000000000000000000000000000000000000000000000000000000000000000",
                    "coinbase" : "0x8888f1f195afa192cfee860698584c030f4c9db1",
                    "difficulty" : "0x020080",
                    "extraData" : "",
                    "gasLimit" : "0x2fefba",
                    "gasUsed" : "0xb8c2",
                    "hash" : "0xa63f08c962fcdd6f9340ebec80fd00e7fbdc7b814483a4305cdd223bf5a274d1",
                    "mixHash" : "0x4d5627731b9d8ca242e5a7f6139a2a0f11ce23aecc4380ac2ceb0e8ff01467ff",
                    "nonce" : "0x235fdae6c2e393ad",
                    "number" : "0x03",
                    "parentHash" : "0x26ea7a6b241af38c015980b9d273ad15d5866d01a55b34d80630f9b3faba3526",
                    "receiptTrie" : "0x09c7e535246c16933f8ace8ce7317be9594b34e69d1b7614fad8833f472d5bbd",
                    "stateRoot" : "0x1d191dc251f1c3ddc32adbf674df3a4ee199c5b278641a5734e184d07482023b",
                    "timestamp" : "0x59d666d3",
                    "transactionsTrie" : "0xdc4835e461e554b15b7cff146b8f5e4790884dc5b95ba55dcdb9413324e8e9d1",
                    "uncleHash" : "0x1dcc4de8dec75d7aab85b567b6ccd41ad312451b948a7413f0a142fd40d49347"
                },
                "blocknumber" : "3",
                "chainname" : "B",
                "rlp" : "0xf902c7f901f9a026ea7a6b241af38c015980b9d273ad15d5866d01a55b34d80630f9b3faba3526a01dcc4de8dec75d7aab85b567b6ccd41ad312451b948a7413f0a142fd40d49347948888f1f195afa192cfee860698584c030f4c9db1a01d191dc251f1c3ddc32adbf674df3a4ee199c5b278641a5734e184d07482023ba0dc4835e461e554b15b7cff146b8f5e4790884dc5b95ba55dcdb9413324e8e9d1a009c7e535246c16933f8ace8ce7317be9594b34e69d1b7614fad8833f472d5bbdb90100000000000000000000000000000000000000000000000000000000000000000000000000000000000000000000000000000000000000000000000000000000000000000000000000000000000000000000000000000000000000000000000000000000000000000000000000000000000000000000000000000000000000000000000000000000000000000000000000000000000000000000000000000000000000000000000000000000000000000000000000000000000000000000000000000000000000000000000000000000000000000000000000000000000000000000000000000000000000000000000000000000000000000000000000000000008302008003832fefba82b8c28459d666d380a04d5627731b9d8ca242e5a7f6139a2a0f11ce23aecc4380ac2ceb0e8ff01467ff88235fdae6c2e393adf8c8f86402018304bced94a95e7baea6a6c7c4c2dfeb977efac326af552d876484345345401ca001b915c97ee89b7016ee84e5466b4cd53977ace84e8dd3e9030652862e722ea9a0367362887662049d155f976aedec5a5c4083b88bb0761b889ef8961f83fc6493f86003018304bced94095e7baea6a6c7c4c2dfeb977efac326af552d8714801ca0f744123591e70b1daa1c642f5d229b1aff459c3fc3e14bb883cc3963b3baefafa079a36255b16361f7c101ed3144f1f97308731ddffa6dab8c3304918d6b937007c0",
                "transactions" : [
                    {
                        "data" : "0x34534540",
                        "gasLimit" : "0x04bced",
                        "gasPrice" : "0x01",
                        "nonce" : "0x02",
                        "r" : "0x01b915c97ee89b7016ee84e5466b4cd53977ace84e8dd3e9030652862e722ea9",
                        "s" : "0x367362887662049d155f976aedec5a5c4083b88bb0761b889ef8961f83fc6493",
                        "to" : "0xa95e7baea6a6c7c4c2dfeb977efac326af552d87",
                        "v" : "0x1c",
                        "value" : "0x64"
                    },
                    {
                        "data" : "",
                        "gasLimit" : "0x04bced",
                        "gasPrice" : "0x01",
                        "nonce" : "0x03",
                        "r" : "0xf744123591e70b1daa1c642f5d229b1aff459c3fc3e14bb883cc3963b3baefaf",
                        "s" : "0x79a36255b16361f7c101ed3144f1f97308731ddffa6dab8c3304918d6b937007",
                        "to" : "0x095e7baea6a6c7c4c2dfeb977efac326af552d87",
                        "v" : "0x1c",
                        "value" : "0x14"
                    }
                ],
                "uncleHeaders" : [
                ]
            },
            {
                "blockHeader" : {
                    "bloom" : "0x00000000000000000000000000000000000000000000000000000000000000000000000000000000000000000000000000000000000000000000000000000000000000000000000000000000000000000000000000000000000000000000000000000000000000000000000000000000000000000000000000000000000000000000000000000000000000000000000000000000000000000000000000000000000000000000000000000000000000000000000000000000000000000000000000000000000000000000000000000000000000000000000000000000000000000000000000000000000000000000000000000000000000000000000000000000",
                    "coinbase" : "0x8888f1f195afa192cfee860698584c030f4c9db1",
                    "difficulty" : "0x0200c0",
                    "extraData" : "",
                    "gasLimit" : "0x2fefba",
                    "gasUsed" : "0x00",
                    "hash" : "0x4d82f7556bc711a9dd33640be64a7584362ecc877f6eeb5b270ee823bb35c003",
                    "mixHash" : "0x56c68960a6ea91946cafab95642bad2add73d51cf6456004ac4c71ec81ea1883",
                    "nonce" : "0x83a6056c5ff40627",
                    "number" : "0x04",
                    "parentHash" : "0xa63f08c962fcdd6f9340ebec80fd00e7fbdc7b814483a4305cdd223bf5a274d1",
                    "receiptTrie" : "0x56e81f171bcc55a6ff8345e692c0f86e5b48e01b996cadc001622fb5e363b421",
                    "stateRoot" : "0xbd41ac290d46574eb2c3cf3408062ec2254178410097897aaa8f74bad20dc0ae",
                    "timestamp" : "0x59d666d4",
                    "transactionsTrie" : "0x56e81f171bcc55a6ff8345e692c0f86e5b48e01b996cadc001622fb5e363b421",
                    "uncleHash" : "0x1dcc4de8dec75d7aab85b567b6ccd41ad312451b948a7413f0a142fd40d49347"
                },
                "blocknumber" : "4",
                "chainname" : "B",
                "rlp" : "0xf901fcf901f7a0a63f08c962fcdd6f9340ebec80fd00e7fbdc7b814483a4305cdd223bf5a274d1a01dcc4de8dec75d7aab85b567b6ccd41ad312451b948a7413f0a142fd40d49347948888f1f195afa192cfee860698584c030f4c9db1a0bd41ac290d46574eb2c3cf3408062ec2254178410097897aaa8f74bad20dc0aea056e81f171bcc55a6ff8345e692c0f86e5b48e01b996cadc001622fb5e363b421a056e81f171bcc55a6ff8345e692c0f86e5b48e01b996cadc001622fb5e363b421b9010000000000000000000000000000000000000000000000000000000000000000000000000000000000000000000000000000000000000000000000000000000000000000000000000000000000000000000000000000000000000000000000000000000000000000000000000000000000000000000000000000000000000000000000000000000000000000000000000000000000000000000000000000000000000000000000000000000000000000000000000000000000000000000000000000000000000000000000000000000000000000000000000000000000000000000000000000000000000000000000000000000000000000000000000000000000830200c004832fefba808459d666d480a056c68960a6ea91946cafab95642bad2add73d51cf6456004ac4c71ec81ea18838883a6056c5ff40627c0c0",
                "transactions" : [
                ],
                "uncleHeaders" : [
                ]
            }
        ],
        "genesisBlockHeader" : {
            "bloom" : "0x00000000000000000000000000000000000000000000000000000000000000000000000000000000000000000000000000000000000000000000000000000000000000000000000000000000000000000000000000000000000000000000000000000000000000000000000000000000000000000000000000000000000000000000000000000000000000000000000000000000000000000000000000000000000000000000000000000000000000000000000000000000000000000000000000000000000000000000000000000000000000000000000000000000000000000000000000000000000000000000000000000000000000000000000000000000",
            "coinbase" : "0x8888f1f195afa192cfee860698584c030f4c9db1",
            "difficulty" : "0x020000",
            "extraData" : "0x42",
            "gasLimit" : "0x2fefd8",
            "gasUsed" : "0x00",
            "hash" : "0x61ab7b8f9756ce9e6f430cfb103b7ddee023c65c9125fcdcbc5539b122ca3432",
            "mixHash" : "0x56e81f171bcc55a6ff8345e692c0f86e5b48e01b996cadc001622fb5e363b421",
            "nonce" : "0x0102030405060708",
            "number" : "0x00",
            "parentHash" : "0x0000000000000000000000000000000000000000000000000000000000000000",
            "receiptTrie" : "0x56e81f171bcc55a6ff8345e692c0f86e5b48e01b996cadc001622fb5e363b421",
            "stateRoot" : "0x398e5bc661b4ab9fe39ac0e75999adc2b233c95947c7cc6f0b8062510cac5bb8",
            "timestamp" : "0x54c98c81",
            "transactionsTrie" : "0x56e81f171bcc55a6ff8345e692c0f86e5b48e01b996cadc001622fb5e363b421",
            "uncleHash" : "0x1dcc4de8dec75d7aab85b567b6ccd41ad312451b948a7413f0a142fd40d49347"
        },
        "genesisRLP" : "0xf901fcf901f7a00000000000000000000000000000000000000000000000000000000000000000a01dcc4de8dec75d7aab85b567b6ccd41ad312451b948a7413f0a142fd40d49347948888f1f195afa192cfee860698584c030f4c9db1a0398e5bc661b4ab9fe39ac0e75999adc2b233c95947c7cc6f0b8062510cac5bb8a056e81f171bcc55a6ff8345e692c0f86e5b48e01b996cadc001622fb5e363b421a056e81f171bcc55a6ff8345e692c0f86e5b48e01b996cadc001622fb5e363b421b90100000000000000000000000000000000000000000000000000000000000000000000000000000000000000000000000000000000000000000000000000000000000000000000000000000000000000000000000000000000000000000000000000000000000000000000000000000000000000000000000000000000000000000000000000000000000000000000000000000000000000000000000000000000000000000000000000000000000000000000000000000000000000000000000000000000000000000000000000000000000000000000000000000000000000000000000000000000000000000000000000000000000000000000000000000000008302000080832fefd8808454c98c8142a056e81f171bcc55a6ff8345e692c0f86e5b48e01b996cadc001622fb5e363b421880102030405060708c0c0",
        "lastblockhash" : "0x4d82f7556bc711a9dd33640be64a7584362ecc877f6eeb5b270ee823bb35c003",
        "network" : "Byzantium",
        "postState" : {
            "0x095e7baea6a6c7c4c2dfeb977efac326af552d87" : {
                "balance" : "0x09184e72a078",
                "code" : "0x600140600155",
                "nonce" : "0x00",
                "storage" : {
                    "0x01" : "0xd8330fece16054bd9f5403aec300a78884ceb5488a65770a4dc26cb5f83e80ed"
                }
            },
            "0x8888f1f195afa192cfee860698584c030f4c9db1" : {
                "balance" : "0xa688906bd8b1ab0c",
                "code" : "",
                "nonce" : "0x00",
                "storage" : {
                }
            },
            "0xa94f5374fce5edbc8e2a8697c15331677e6ebf0b" : {
                "balance" : "0x09184e70f3b4",
                "code" : "",
                "nonce" : "0x04",
                "storage" : {
                }
            },
            "0xa95e7baea6a6c7c4c2dfeb977efac326af552d87" : {
                "balance" : "0xc8",
                "code" : "",
                "nonce" : "0x00",
                "storage" : {
                }
            }
        },
        "pre" : {
            "0x095e7baea6a6c7c4c2dfeb977efac326af552d87" : {
                "balance" : "0x09184e72a000",
                "code" : "0x600140600155",
                "nonce" : "0x00",
                "storage" : {
                }
            },
            "0xa94f5374fce5edbc8e2a8697c15331677e6ebf0b" : {
                "balance" : "0x09184e72a000",
                "code" : "",
                "nonce" : "0x00",
                "storage" : {
                }
            }
        }
    }
}
