{
    "UncleFromSideChain_Byzantium" : {
        "_info" : {
            "comment" : "",
            "filledwith" : "cpp-1.3.0+commit.6e0ce939.Linux.g++",
            "lllcversion" : "Version: 0.4.18-develop.2017.9.25+commit.a72237f2.Linux.g++",
            "source" : "src/BlockchainTestsFiller/bcMultiChainTest/UncleFromSideChainFiller.json",
            "sourceHash" : "e071728ae99ada7896e09d260fedab38d479f4024f2a98ea3a9c5026bb88f41e"
        },
        "blocks" : [
            {
                "blockHeader" : {
                    "bloom" : "0x00000000000000000000000000000000000000000000000000000000000000000000000000000000000000000000000000000000000000000000000000000000000000000000000000000000000000000000000000000000000000000000000000000000000000000000000000000000000000000000000000000000000000000000000000000000000000000000000000000000000000000000000000000000000000000000000000000000000000000000000000000000000000000000000000000000000000000000000000000000000000000000000000000000000000000000000000000000000000000000000000000000000000000000000000000000",
                    "coinbase" : "0x8888f1f195afa192cfee860698584c030f4c9db1",
                    "difficulty" : "0x020000",
                    "extraData" : "",
                    "gasLimit" : "0x2fefba",
                    "gasUsed" : "0x5208",
                    "hash" : "0xaa99acb4243e31e2d401a8e86a37895557f2b862dc84a2196da7076e913fc060",
                    "mixHash" : "0xcc39b19f31a583d0100410f4008f58d7ddf59ae148175c80d993eddb4445d83c",
                    "nonce" : "0xc04eaacf0c82f0c7",
                    "number" : "0x01",
                    "parentHash" : "0x5a39ed1020c04d4d84539975b893a4e7c53eab6c2965db8bc3468093a31bc5ae",
                    "receiptTrie" : "0x056b23fbba480696b65fe5a59b8f2148a1299103c4f57df839233af2cf4ca2d2",
                    "stateRoot" : "0x5c2e5a51a79da58791cdfe572bcfa3dfe9c860bf7fad7d9738a1aace56ef9332",
                    "timestamp" : "0x59d66465",
                    "transactionsTrie" : "0x5c9151c2413d1cd25c51ffb4ac38948acc1359bf08c6b49f283660e9bcf0f516",
                    "uncleHash" : "0x1dcc4de8dec75d7aab85b567b6ccd41ad312451b948a7413f0a142fd40d49347"
                },
                "blocknumber" : "1",
                "chainname" : "A",
                "rlp" : "0xf90261f901f9a05a39ed1020c04d4d84539975b893a4e7c53eab6c2965db8bc3468093a31bc5aea01dcc4de8dec75d7aab85b567b6ccd41ad312451b948a7413f0a142fd40d49347948888f1f195afa192cfee860698584c030f4c9db1a05c2e5a51a79da58791cdfe572bcfa3dfe9c860bf7fad7d9738a1aace56ef9332a05c9151c2413d1cd25c51ffb4ac38948acc1359bf08c6b49f283660e9bcf0f516a0056b23fbba480696b65fe5a59b8f2148a1299103c4f57df839233af2cf4ca2d2b90100000000000000000000000000000000000000000000000000000000000000000000000000000000000000000000000000000000000000000000000000000000000000000000000000000000000000000000000000000000000000000000000000000000000000000000000000000000000000000000000000000000000000000000000000000000000000000000000000000000000000000000000000000000000000000000000000000000000000000000000000000000000000000000000000000000000000000000000000000000000000000000000000000000000000000000000000000000000000000000000000000000000000000000000000000000008302000001832fefba8252088459d6646580a0cc39b19f31a583d0100410f4008f58d7ddf59ae148175c80d993eddb4445d83c88c04eaacf0c82f0c7f862f86080018304cb2f94095e7baea6a6c7c4c2dfeb977efac326af552d870a801ba077c7cd36820c71821c1aed59de46e70e701c4a8dd89c9ba508ab722210f60da8a03f29825d40c7c3f7bff3ca69267e0f3fb74b2d18b8c2c4e3c135b5d3b06e288dc0",
                "transactions" : [
                    {
                        "data" : "",
                        "gasLimit" : "0x04cb2f",
                        "gasPrice" : "0x01",
                        "nonce" : "0x00",
                        "r" : "0x77c7cd36820c71821c1aed59de46e70e701c4a8dd89c9ba508ab722210f60da8",
                        "s" : "0x3f29825d40c7c3f7bff3ca69267e0f3fb74b2d18b8c2c4e3c135b5d3b06e288d",
                        "to" : "0x095e7baea6a6c7c4c2dfeb977efac326af552d87",
                        "v" : "0x1b",
                        "value" : "0x0a"
                    }
                ],
                "uncleHeaders" : [
                ]
            },
            {
                "blockHeader" : {
                    "bloom" : "0x00000000000000000000000000000000000000000000000000000000000000000000000000000000000000000000000000000000000000000000000000000000000000000000000000000000000000000000000000000000000000000000000000000000000000000000000000000000000000000000000000000000000000000000000000000000000000000000000000000000000000000000000000000000000000000000000000000000000000000000000000000000000000000000000000000000000000000000000000000000000000000000000000000000000000000000000000000000000000000000000000000000000000000000000000000000",
                    "coinbase" : "0x8888f1f195afa192cfee860698584c030f4c9db1",
                    "difficulty" : "0x020040",
                    "extraData" : "",
                    "gasLimit" : "0x2fefba",
                    "gasUsed" : "0x5208",
                    "hash" : "0x29a802c0616f706eb2a3723a9bf3700f99f647899270165bf23c65dcff6e6e29",
                    "mixHash" : "0xda28d2ee21a28260cb2048420815e17308f167c7f0ad999f279f1ec38caa780c",
                    "nonce" : "0x17a6709a45e53fe4",
                    "number" : "0x02",
                    "parentHash" : "0xaa99acb4243e31e2d401a8e86a37895557f2b862dc84a2196da7076e913fc060",
                    "receiptTrie" : "0x056b23fbba480696b65fe5a59b8f2148a1299103c4f57df839233af2cf4ca2d2",
                    "stateRoot" : "0xafa912463a5b4eb0c07cf26dbba6281effdc1d109b6fa28c961647217d90d39d",
                    "timestamp" : "0x59d66466",
                    "transactionsTrie" : "0xc673e076264c4669a5c2e479f1757b78e42511efe33b5fd2c0a23b929c7f87f5",
                    "uncleHash" : "0x1dcc4de8dec75d7aab85b567b6ccd41ad312451b948a7413f0a142fd40d49347"
                },
                "blocknumber" : "2",
                "chainname" : "A",
                "rlp" : "0xf90260f901f9a0aa99acb4243e31e2d401a8e86a37895557f2b862dc84a2196da7076e913fc060a01dcc4de8dec75d7aab85b567b6ccd41ad312451b948a7413f0a142fd40d49347948888f1f195afa192cfee860698584c030f4c9db1a0afa912463a5b4eb0c07cf26dbba6281effdc1d109b6fa28c961647217d90d39da0c673e076264c4669a5c2e479f1757b78e42511efe33b5fd2c0a23b929c7f87f5a0056b23fbba480696b65fe5a59b8f2148a1299103c4f57df839233af2cf4ca2d2b90100000000000000000000000000000000000000000000000000000000000000000000000000000000000000000000000000000000000000000000000000000000000000000000000000000000000000000000000000000000000000000000000000000000000000000000000000000000000000000000000000000000000000000000000000000000000000000000000000000000000000000000000000000000000000000000000000000000000000000000000000000000000000000000000000000000000000000000000000000000000000000000000000000000000000000000000000000000000000000000000000000000000000000000000000000000008302004002832fefba8252088459d6646680a0da28d2ee21a28260cb2048420815e17308f167c7f0ad999f279f1ec38caa780c8817a6709a45e53fe4f861f85f01018304cb2f94095e7baea6a6c7c4c2dfeb977efac326af552d870a801ba033c86e64d708c97c6b135cadff79dbf45985aa0b53694789e90d15f756765f239f1d0f8caa2a16405148c9d85581be5814960010f3cba938b5501590cea1f7cfc0",
                "transactions" : [
                    {
                        "data" : "",
                        "gasLimit" : "0x04cb2f",
                        "gasPrice" : "0x01",
                        "nonce" : "0x01",
                        "r" : "0x33c86e64d708c97c6b135cadff79dbf45985aa0b53694789e90d15f756765f23",
                        "s" : "0x1d0f8caa2a16405148c9d85581be5814960010f3cba938b5501590cea1f7cf",
                        "to" : "0x095e7baea6a6c7c4c2dfeb977efac326af552d87",
                        "v" : "0x1b",
                        "value" : "0x0a"
                    }
                ],
                "uncleHeaders" : [
                ]
            },
            {
                "blockHeader" : {
                    "bloom" : "0x00000000000000000000000000000000000000000000000000000000000000000000000000000000000000000000000000000000000000000000000000000000000000000000000000000000000000000000000000000000000000000000000000000000000000000000000000000000000000000000000000000000000000000000000000000000000000000000000000000000000000000000000000000000000000000000000000000000000000000000000000000000000000000000000000000000000000000000000000000000000000000000000000000000000000000000000000000000000000000000000000000000000000000000000000000000",
                    "coinbase" : "0x8888f1f195afa192cfee860698584c030f4c9db1",
                    "difficulty" : "0x020080",
                    "extraData" : "",
                    "gasLimit" : "0x2fefba",
                    "gasUsed" : "0x5208",
                    "hash" : "0x4bb30014d9b5231283196b56f56f6e6537e4548515536c6352c5fffd7ba7cac6",
                    "mixHash" : "0xa086e2b2bbfefee1a0a37f4bf56cd64cf37611d236bff4d304febc536e4741df",
                    "nonce" : "0xa615f6e18e3b9a93",
                    "number" : "0x03",
                    "parentHash" : "0x29a802c0616f706eb2a3723a9bf3700f99f647899270165bf23c65dcff6e6e29",
                    "receiptTrie" : "0x056b23fbba480696b65fe5a59b8f2148a1299103c4f57df839233af2cf4ca2d2",
                    "stateRoot" : "0x0e6fc2a2603c865d55e1210b3306d6a450183752927e1443fdddfff9991e845e",
                    "timestamp" : "0x59d66468",
                    "transactionsTrie" : "0x1722b8a91bfc4f5614ce36ee77c7cce6620ab4af36d3c54baa66d7dbeb7bce1a",
                    "uncleHash" : "0x1dcc4de8dec75d7aab85b567b6ccd41ad312451b948a7413f0a142fd40d49347"
                },
                "blocknumber" : "3",
                "chainname" : "A",
                "rlp" : "0xf90261f901f9a029a802c0616f706eb2a3723a9bf3700f99f647899270165bf23c65dcff6e6e29a01dcc4de8dec75d7aab85b567b6ccd41ad312451b948a7413f0a142fd40d49347948888f1f195afa192cfee860698584c030f4c9db1a00e6fc2a2603c865d55e1210b3306d6a450183752927e1443fdddfff9991e845ea01722b8a91bfc4f5614ce36ee77c7cce6620ab4af36d3c54baa66d7dbeb7bce1aa0056b23fbba480696b65fe5a59b8f2148a1299103c4f57df839233af2cf4ca2d2b90100000000000000000000000000000000000000000000000000000000000000000000000000000000000000000000000000000000000000000000000000000000000000000000000000000000000000000000000000000000000000000000000000000000000000000000000000000000000000000000000000000000000000000000000000000000000000000000000000000000000000000000000000000000000000000000000000000000000000000000000000000000000000000000000000000000000000000000000000000000000000000000000000000000000000000000000000000000000000000000000000000000000000000000000000000000008302008003832fefba8252088459d6646880a0a086e2b2bbfefee1a0a37f4bf56cd64cf37611d236bff4d304febc536e4741df88a615f6e18e3b9a93f862f86002018304cb2f94095e7baea6a6c7c4c2dfeb977efac326af552d870a801ca015eb1cc916728b9799e55c489857727669afb2986433d5f54cde11faaed9f0eea05d36f6d06c34aae8d0a2a5895c8ba4a17ad46a5fa59f361cb3e7e01a23030e38c0",
                "transactions" : [
                    {
                        "data" : "",
                        "gasLimit" : "0x04cb2f",
                        "gasPrice" : "0x01",
                        "nonce" : "0x02",
                        "r" : "0x15eb1cc916728b9799e55c489857727669afb2986433d5f54cde11faaed9f0ee",
                        "s" : "0x5d36f6d06c34aae8d0a2a5895c8ba4a17ad46a5fa59f361cb3e7e01a23030e38",
                        "to" : "0x095e7baea6a6c7c4c2dfeb977efac326af552d87",
                        "v" : "0x1c",
                        "value" : "0x0a"
                    }
                ],
                "uncleHeaders" : [
                ]
            },
            {
                "blockHeader" : {
                    "bloom" : "0x00000000000000000000000000000000000000000000000000000000000000000000000000000000000000000000000000000000000000000000000000000000000000000000000000000000000000000000000000000000000000000000000000000000000000000000000000000000000000000000000000000000000000000000000000000000000000000000000000000000000000000000000000000000000000000000000000000000000000000000000000000000000000000000000000000000000000000000000000000000000000000000000000000000000000000000000000000000000000000000000000000000000000000000000000000000",
                    "coinbase" : "0x8888f1f195afa192cfee860698584c030f4c9db1",
                    "difficulty" : "0x020000",
                    "extraData" : "",
                    "gasLimit" : "0x2fefba",
                    "gasUsed" : "0x5208",
                    "hash" : "0x0976b7f6fd452a8089a413a7b9cdf61c77ba1f7e15d08df02231119f62ae331b",
                    "mixHash" : "0xb6299147637f5353e956c2ea6e916e9a9bf8d785fce96b418e9111101ca8a4e4",
                    "nonce" : "0x7ac90229fbfb50f0",
                    "number" : "0x01",
                    "parentHash" : "0x5a39ed1020c04d4d84539975b893a4e7c53eab6c2965db8bc3468093a31bc5ae",
                    "receiptTrie" : "0x056b23fbba480696b65fe5a59b8f2148a1299103c4f57df839233af2cf4ca2d2",
                    "stateRoot" : "0x7eaa75e6fe237ecf4eae39b3ad06d5300217a4ef2a5aa58de74645abc8bdee72",
                    "timestamp" : "0x59d6646a",
                    "transactionsTrie" : "0x89176230d5c4ac60168e999c7a9fbea712992e712c253d635601a9d625c640fa",
                    "uncleHash" : "0x1dcc4de8dec75d7aab85b567b6ccd41ad312451b948a7413f0a142fd40d49347"
                },
                "blocknumber" : "1",
                "chainname" : "B",
                "rlp" : "0xf90261f901f9a05a39ed1020c04d4d84539975b893a4e7c53eab6c2965db8bc3468093a31bc5aea01dcc4de8dec75d7aab85b567b6ccd41ad312451b948a7413f0a142fd40d49347948888f1f195afa192cfee860698584c030f4c9db1a07eaa75e6fe237ecf4eae39b3ad06d5300217a4ef2a5aa58de74645abc8bdee72a089176230d5c4ac60168e999c7a9fbea712992e712c253d635601a9d625c640faa0056b23fbba480696b65fe5a59b8f2148a1299103c4f57df839233af2cf4ca2d2b90100000000000000000000000000000000000000000000000000000000000000000000000000000000000000000000000000000000000000000000000000000000000000000000000000000000000000000000000000000000000000000000000000000000000000000000000000000000000000000000000000000000000000000000000000000000000000000000000000000000000000000000000000000000000000000000000000000000000000000000000000000000000000000000000000000000000000000000000000000000000000000000000000000000000000000000000000000000000000000000000000000000000000000000000000000000008302000001832fefba8252088459d6646a80a0b6299147637f5353e956c2ea6e916e9a9bf8d785fce96b418e9111101ca8a4e4887ac90229fbfb50f0f862f86080018304cb2f94095e7baea6a6c7c4c2dfeb977efac326af552d8764801ca066995adf6b8ce265233fe0ef11b24f7571908674be85c347eed4359396cfa4b1a0458062325e034ea6722559f0153094069424c0d508b7b104f2635a52bfaaa532c0",
                "transactions" : [
                    {
                        "data" : "",
                        "gasLimit" : "0x04cb2f",
                        "gasPrice" : "0x01",
                        "nonce" : "0x00",
                        "r" : "0x66995adf6b8ce265233fe0ef11b24f7571908674be85c347eed4359396cfa4b1",
                        "s" : "0x458062325e034ea6722559f0153094069424c0d508b7b104f2635a52bfaaa532",
                        "to" : "0x095e7baea6a6c7c4c2dfeb977efac326af552d87",
                        "v" : "0x1c",
                        "value" : "0x64"
                    }
                ],
                "uncleHeaders" : [
                ]
            },
            {
                "blockHeader" : {
                    "bloom" : "0x00000000000000000000000000000000000000000000000000000000000000000000000000000000000000000000000000000000000000000000000000000000000000000000000000000000000000000000000000000000000000000000000000000000000000000000000000000000000000000000000000000000000000000000000000000000000000000000000000000000000000000000000000000000000000000000000000000000000000000000000000000000000000000000000000000000000000000000000000000000000000000000000000000000000000000000000000000000000000000000000000000000000000000000000000000000",
                    "coinbase" : "0x8888f1f195afa192cfee860698584c030f4c9db1",
                    "difficulty" : "0x020040",
                    "extraData" : "",
                    "gasLimit" : "0x2fefba",
                    "gasUsed" : "0x5208",
                    "hash" : "0x3879aec2a146376aaa29ae5245794d839a8088f2553a5baad1feaa56969d3e20",
                    "mixHash" : "0x815c2805ee9d0f5a91b3ccc62387e0ae02c604d26c47190879d37e5e2099cbcb",
                    "nonce" : "0xa559622cedf8cd27",
                    "number" : "0x02",
                    "parentHash" : "0x0976b7f6fd452a8089a413a7b9cdf61c77ba1f7e15d08df02231119f62ae331b",
                    "receiptTrie" : "0x056b23fbba480696b65fe5a59b8f2148a1299103c4f57df839233af2cf4ca2d2",
                    "stateRoot" : "0x016bd2cd45d288cdbd107b9752dc2cb5fc1e42a2719e0bc9c9f74361a5dafd39",
                    "timestamp" : "0x59d66471",
                    "transactionsTrie" : "0x1517d551f5e39788f89454305805e9e71f154ea0919d5e052b03d652ef6f657d",
                    "uncleHash" : "0x1dcc4de8dec75d7aab85b567b6ccd41ad312451b948a7413f0a142fd40d49347"
                },
                "blocknumber" : "2",
                "chainname" : "B",
                "rlp" : "0xf90260f901f9a00976b7f6fd452a8089a413a7b9cdf61c77ba1f7e15d08df02231119f62ae331ba01dcc4de8dec75d7aab85b567b6ccd41ad312451b948a7413f0a142fd40d49347948888f1f195afa192cfee860698584c030f4c9db1a0016bd2cd45d288cdbd107b9752dc2cb5fc1e42a2719e0bc9c9f74361a5dafd39a01517d551f5e39788f89454305805e9e71f154ea0919d5e052b03d652ef6f657da0056b23fbba480696b65fe5a59b8f2148a1299103c4f57df839233af2cf4ca2d2b90100000000000000000000000000000000000000000000000000000000000000000000000000000000000000000000000000000000000000000000000000000000000000000000000000000000000000000000000000000000000000000000000000000000000000000000000000000000000000000000000000000000000000000000000000000000000000000000000000000000000000000000000000000000000000000000000000000000000000000000000000000000000000000000000000000000000000000000000000000000000000000000000000000000000000000000000000000000000000000000000000000000000000000000000000000000008302004002832fefba8252088459d6647180a0815c2805ee9d0f5a91b3ccc62387e0ae02c604d26c47190879d37e5e2099cbcb88a559622cedf8cd27f861f85f010182795394095e7baea6a6c7c4c2dfeb977efac326af552d8764801ba06ae7ce87f0c32417d409ba74b51cdf591f7515007c1c7ce9a4255010f46e1467a064b5f4b57fad4d9582bd666e1befd1e8943ba2f3ce7afc107f04aa4530d5a995c0",
                "transactions" : [
                    {
                        "data" : "",
                        "gasLimit" : "0x7953",
                        "gasPrice" : "0x01",
                        "nonce" : "0x01",
                        "r" : "0x6ae7ce87f0c32417d409ba74b51cdf591f7515007c1c7ce9a4255010f46e1467",
                        "s" : "0x64b5f4b57fad4d9582bd666e1befd1e8943ba2f3ce7afc107f04aa4530d5a995",
                        "to" : "0x095e7baea6a6c7c4c2dfeb977efac326af552d87",
                        "v" : "0x1b",
                        "value" : "0x64"
                    }
                ],
                "uncleHeaders" : [
                ]
            },
            {
                "blockHeader" : {
                    "bloom" : "0x00000000000000000000000000000000000000000000000000000000000000000000000000000000000000000000000000000000000000000000000000000000000000000000000000000000000000000000000000000000000000000000000000000000000000000000000000000000000000000000000000000000000000000000000000000000000000000000000000000000000000000000000000000000000000000000000000000000000000000000000000000000000000000000000000000000000000000000000000000000000000000000000000000000000000000000000000000000000000000000000000000000000000000000000000000000",
                    "coinbase" : "0x8888f1f195afa192cfee860698584c030f4c9db1",
                    "difficulty" : "0x020080",
                    "extraData" : "",
                    "gasLimit" : "0x2fefba",
                    "gasUsed" : "0xa520",
                    "hash" : "0xb2fa809f7148d94b3e9ca3e458c342f67d11058d6d95a6c446e9839ac12110ad",
                    "mixHash" : "0x5b6e0ebf6613b45139e0cdfdf7f1f51264da74d512cb95f80a6a6558baf0350a",
                    "nonce" : "0xa555aa338ea42f17",
                    "number" : "0x03",
                    "parentHash" : "0x3879aec2a146376aaa29ae5245794d839a8088f2553a5baad1feaa56969d3e20",
                    "receiptTrie" : "0x39da0d15ee87f85a60f7f4e9a13a177a8f81d3734cf3f2f2279b4bf25b12457c",
                    "stateRoot" : "0xbb1d24691e473074d0355b5249c7d64b0f2dd978037b4e904a2b574877303978",
                    "timestamp" : "0x59d66474",
                    "transactionsTrie" : "0x78477aaf28ad6a7c05765196a0e352baef952d24592631e2d954955cc6f903f0",
                    "uncleHash" : "0x1dcc4de8dec75d7aab85b567b6ccd41ad312451b948a7413f0a142fd40d49347"
                },
                "blocknumber" : "3",
                "chainname" : "B",
                "rlp" : "0xf902c5f901f9a03879aec2a146376aaa29ae5245794d839a8088f2553a5baad1feaa56969d3e20a01dcc4de8dec75d7aab85b567b6ccd41ad312451b948a7413f0a142fd40d49347948888f1f195afa192cfee860698584c030f4c9db1a0bb1d24691e473074d0355b5249c7d64b0f2dd978037b4e904a2b574877303978a078477aaf28ad6a7c05765196a0e352baef952d24592631e2d954955cc6f903f0a039da0d15ee87f85a60f7f4e9a13a177a8f81d3734cf3f2f2279b4bf25b12457cb90100000000000000000000000000000000000000000000000000000000000000000000000000000000000000000000000000000000000000000000000000000000000000000000000000000000000000000000000000000000000000000000000000000000000000000000000000000000000000000000000000000000000000000000000000000000000000000000000000000000000000000000000000000000000000000000000000000000000000000000000000000000000000000000000000000000000000000000000000000000000000000000000000000000000000000000000000000000000000000000000000000000000000000000000000000000008302008003832fefba82a5208459d6647480a05b6e0ebf6613b45139e0cdfdf7f1f51264da74d512cb95f80a6a6558baf0350a88a555aa338ea42f17f8c6f8630201827b1594095e7baea6a6c7c4c2dfeb977efac326af552d876484345345401ba0c912adcf452d35df5a1f79eaf137953512e39a643d44c25419acb9526baf1913a04d4529643671cfa998a7fb0ed28618f822d4141cee5796e43badf52cb46f435cf85f0301827b1594095e7baea6a6c7c4c2dfeb977efac326af552d8714801ca04ae9ddaa1757ec78622ffb35ca33ade06b0e771a2fd2f9036a0fe855030246b5a053b9db67598fc4d139f3c304d6f63b23a6872b654407ed4260738f054da4b6ffc0",
                "transactions" : [
                    {
                        "data" : "0x34534540",
                        "gasLimit" : "0x7b15",
                        "gasPrice" : "0x01",
                        "nonce" : "0x02",
                        "r" : "0xc912adcf452d35df5a1f79eaf137953512e39a643d44c25419acb9526baf1913",
                        "s" : "0x4d4529643671cfa998a7fb0ed28618f822d4141cee5796e43badf52cb46f435c",
                        "to" : "0x095e7baea6a6c7c4c2dfeb977efac326af552d87",
                        "v" : "0x1b",
                        "value" : "0x64"
                    },
                    {
                        "data" : "",
                        "gasLimit" : "0x7b15",
                        "gasPrice" : "0x01",
                        "nonce" : "0x03",
                        "r" : "0x4ae9ddaa1757ec78622ffb35ca33ade06b0e771a2fd2f9036a0fe855030246b5",
                        "s" : "0x53b9db67598fc4d139f3c304d6f63b23a6872b654407ed4260738f054da4b6ff",
                        "to" : "0x095e7baea6a6c7c4c2dfeb977efac326af552d87",
                        "v" : "0x1c",
                        "value" : "0x14"
                    }
                ],
                "uncleHeaders" : [
                ]
            },
            {
                "blocknumber" : "4",
                "chainname" : "B",
                "expectExceptionALL" : "InvalidUncleParentHash",
                "rlp" : "0xf9045cf901f9a0b2fa809f7148d94b3e9ca3e458c342f67d11058d6d95a6c446e9839ac12110ada02be50a8d954bd52e4b698dcfbc7cad64fe27f215d97acc4ff13eccaab4e70587948888f1f195afa192cfee860698584c030f4c9db1a092f12a18e8808593ef60ebd025fa59edf95cb0220daf48292a658758418f0cd7a043c0b898ea93246c6f00333bf6a14de6b819c74d039d2cdf382ef1b7e895447ca0056b23fbba480696b65fe5a59b8f2148a1299103c4f57df839233af2cf4ca2d2b9010000000000000000000000000000000000000000000000000000000000000000000000000000000000000000000000000000000000000000000000000000000000000000000000000000000000000000000000000000000000000000000000000000000000000000000000000000000000000000000000000000000000000000000000000000000000000000000000000000000000000000000000000000000000000000000000000000000000000000000000000000000000000000000000000000000000000000000000000000000000000000000000000000000000000000000000000000000000000000000000000000000000000000000000000000000000830200c004832fefba8252088459d6647780a06e16d2ed5cb0208979c57caa1de2087f93ebca1177d3511ebca7b92e72419e55886b0d34ac41fa215df861f85f040182795394095e7baea6a6c7c4c2dfeb977efac326af552d8764801ba082a2dec18c512127304e5a7d1f5b3e513c26b43d85a095a6f448afdbe89431afa020ae86c5ade7d19c7f5110f4c3cf7b4cae94f1c774c66ac4252501e90d84c1caf901faf901f7a029a802c0616f706eb2a3723a9bf3700f99f647899270165bf23c65dcff6e6e29a01dcc4de8dec75d7aab85b567b6ccd41ad312451b948a7413f0a142fd40d49347940000000000000000000000000000000000000000a0afa912463a5b4eb0c07cf26dbba6281effdc1d109b6fa28c961647217d90d39da056e81f171bcc55a6ff8345e692c0f86e5b48e01b996cadc001622fb5e363b421a056e81f171bcc55a6ff8345e692c0f86e5b48e01b996cadc001622fb5e363b421b90100000000000000000000000000000000000000000000000000000000000000000000000000000000000000000000000000000000000000000000000000000000000000000000000000000000000000000000000000000000000000000000000000000000000000000000000000000000000000000000000000000000000000000000000000000000000000000000000000000000000000000000000000000000000000000000000000000000000000000000000000000000000000000000000000000000000000000000000000000000000000000000000000000000000000000000000000000000000000000000000000000000000000000000000000000000008302004003832fefba808459d6647480a01d3a7229d7c5617efa428f0fc8a32b79df17f4ed15468f92c337a0d44d671837882dbfdc1ca90db2af"
            },
            {
                "blockHeader" : {
                    "bloom" : "0x00000000000000000000000000000000000000000000000000000000000000000000000000000000000000000000000000000000000000000000000000000000000000000000000000000000000000000000000000000000000000000000000000000000000000000000000000000000000000000000000000000000000000000000000000000000000000000000000000000000000000000000000000000000000000000000000000000000000000000000000000000000000000000000000000000000000000000000000000000000000000000000000000000000000000000000000000000000000000000000000000000000000000000000000000000000",
                    "coinbase" : "0x8888f1f195afa192cfee860698584c030f4c9db1",
                    "difficulty" : "0x0200c0",
                    "extraData" : "",
                    "gasLimit" : "0x2fefba",
                    "gasUsed" : "0x00",
                    "hash" : "0x40a70fca0683b962b8ebfc419575c30968545c8b93889e987363027af918b35a",
                    "mixHash" : "0x847d1a7710772068d7dbd31ad8a86148ec2325c05242a0667d628fc629d019d0",
                    "nonce" : "0xa98716018da04e9c",
                    "number" : "0x04",
                    "parentHash" : "0xb2fa809f7148d94b3e9ca3e458c342f67d11058d6d95a6c446e9839ac12110ad",
                    "receiptTrie" : "0x56e81f171bcc55a6ff8345e692c0f86e5b48e01b996cadc001622fb5e363b421",
                    "stateRoot" : "0xb555c3e38661957da837e34745bcb143a04730b6049aaa27b2dce92c1ea89772",
                    "timestamp" : "0x59d66479",
                    "transactionsTrie" : "0x56e81f171bcc55a6ff8345e692c0f86e5b48e01b996cadc001622fb5e363b421",
                    "uncleHash" : "0x1dcc4de8dec75d7aab85b567b6ccd41ad312451b948a7413f0a142fd40d49347"
                },
                "blocknumber" : "4",
                "chainname" : "B",
                "rlp" : "0xf901fcf901f7a0b2fa809f7148d94b3e9ca3e458c342f67d11058d6d95a6c446e9839ac12110ada01dcc4de8dec75d7aab85b567b6ccd41ad312451b948a7413f0a142fd40d49347948888f1f195afa192cfee860698584c030f4c9db1a0b555c3e38661957da837e34745bcb143a04730b6049aaa27b2dce92c1ea89772a056e81f171bcc55a6ff8345e692c0f86e5b48e01b996cadc001622fb5e363b421a056e81f171bcc55a6ff8345e692c0f86e5b48e01b996cadc001622fb5e363b421b9010000000000000000000000000000000000000000000000000000000000000000000000000000000000000000000000000000000000000000000000000000000000000000000000000000000000000000000000000000000000000000000000000000000000000000000000000000000000000000000000000000000000000000000000000000000000000000000000000000000000000000000000000000000000000000000000000000000000000000000000000000000000000000000000000000000000000000000000000000000000000000000000000000000000000000000000000000000000000000000000000000000000000000000000000000000000830200c004832fefba808459d6647980a0847d1a7710772068d7dbd31ad8a86148ec2325c05242a0667d628fc629d019d088a98716018da04e9cc0c0",
                "transactions" : [
                ],
                "uncleHeaders" : [
                ]
            }
        ],
        "genesisBlockHeader" : {
            "bloom" : "0x00000000000000000000000000000000000000000000000000000000000000000000000000000000000000000000000000000000000000000000000000000000000000000000000000000000000000000000000000000000000000000000000000000000000000000000000000000000000000000000000000000000000000000000000000000000000000000000000000000000000000000000000000000000000000000000000000000000000000000000000000000000000000000000000000000000000000000000000000000000000000000000000000000000000000000000000000000000000000000000000000000000000000000000000000000000",
            "coinbase" : "0x8888f1f195afa192cfee860698584c030f4c9db1",
            "difficulty" : "0x020000",
            "extraData" : "0x42",
            "gasLimit" : "0x2fefd8",
            "gasUsed" : "0x00",
            "hash" : "0x5a39ed1020c04d4d84539975b893a4e7c53eab6c2965db8bc3468093a31bc5ae",
            "mixHash" : "0x56e81f171bcc55a6ff8345e692c0f86e5b48e01b996cadc001622fb5e363b421",
            "nonce" : "0x0102030405060708",
            "number" : "0x00",
            "parentHash" : "0x0000000000000000000000000000000000000000000000000000000000000000",
            "receiptTrie" : "0x56e81f171bcc55a6ff8345e692c0f86e5b48e01b996cadc001622fb5e363b421",
            "stateRoot" : "0x7dba07d6b448a186e9612e5f737d1c909dce473e53199901a302c00646d523c1",
            "timestamp" : "0x54c98c81",
            "transactionsTrie" : "0x56e81f171bcc55a6ff8345e692c0f86e5b48e01b996cadc001622fb5e363b421",
            "uncleHash" : "0x1dcc4de8dec75d7aab85b567b6ccd41ad312451b948a7413f0a142fd40d49347"
        },
        "genesisRLP" : "0xf901fcf901f7a00000000000000000000000000000000000000000000000000000000000000000a01dcc4de8dec75d7aab85b567b6ccd41ad312451b948a7413f0a142fd40d49347948888f1f195afa192cfee860698584c030f4c9db1a07dba07d6b448a186e9612e5f737d1c909dce473e53199901a302c00646d523c1a056e81f171bcc55a6ff8345e692c0f86e5b48e01b996cadc001622fb5e363b421a056e81f171bcc55a6ff8345e692c0f86e5b48e01b996cadc001622fb5e363b421b90100000000000000000000000000000000000000000000000000000000000000000000000000000000000000000000000000000000000000000000000000000000000000000000000000000000000000000000000000000000000000000000000000000000000000000000000000000000000000000000000000000000000000000000000000000000000000000000000000000000000000000000000000000000000000000000000000000000000000000000000000000000000000000000000000000000000000000000000000000000000000000000000000000000000000000000000000000000000000000000000000000000000000000000000000000000008302000080832fefd8808454c98c8142a056e81f171bcc55a6ff8345e692c0f86e5b48e01b996cadc001622fb5e363b421880102030405060708c0c0",
        "lastblockhash" : "0x40a70fca0683b962b8ebfc419575c30968545c8b93889e987363027af918b35a",
        "network" : "Byzantium",
        "postState" : {
            "0x095e7baea6a6c7c4c2dfeb977efac326af552d87" : {
                "balance" : "0x0140",
                "code" : "",
                "nonce" : "0x00",
                "storage" : {
                }
            },
            "0x8888f1f195afa192cfee860698584c030f4c9db1" : {
                "balance" : "0xa688906bd8b14930",
                "code" : "",
                "nonce" : "0x00",
                "storage" : {
                }
            },
            "0xa94f5374fce5edbc8e2a8697c15331677e6ebf0b" : {
                "balance" : "0x09184e715590",
                "code" : "",
                "nonce" : "0x04",
                "storage" : {
                }
            }
        },
        "pre" : {
            "0xa94f5374fce5edbc8e2a8697c15331677e6ebf0b" : {
                "balance" : "0x09184e72a000",
                "code" : "",
                "nonce" : "0x00",
                "storage" : {
                }
            }
        }
    }
}
