{
    "blockhashTests_Byzantium" : {
        "_info" : {
            "comment" : "",
            "filledwith" : "cpp-1.3.0+commit.6e0ce939.Linux.g++",
            "lllcversion" : "Version: 0.4.18-develop.2017.9.25+commit.a72237f2.Linux.g++",
            "source" : "src/BlockchainTestsFiller/bcStateTests/blockhashTestsFiller.json",
            "sourceHash" : "f9fe6846560aa2d8e608d29feefd320697228779277fe25645e70c0ba51eedf4"
        },
        "blocks" : [
            {
                "blockHeader" : {
                    "bloom" : "0x00000000000000000000000000000000000000000000000000000000000000000000000000000000000000000000000000000000000000000000000000000000000000000000000000000000000000000000000000000000000000000000000000000000000000000000000000000000000000000000000000000000000000000000000000000000000000000000000000000000000000000000000000000000000000000000000000000000000000000000000000000000000000000000000000000000000000000000000000000000000000000000000000000000000000000000000000000000000000000000000000000000000000000000000000000000",
                    "coinbase" : "0x8888f1f195afa192cfee860698584c030f4c9db1",
                    "difficulty" : "0x020000",
                    "extraData" : "",
                    "gasLimit" : "0x2fefba",
                    "gasUsed" : "0xc786",
                    "hash" : "0x7397434aaddd355153536466f1d1bc54eeb1a8d4395c1020ba05d471c1f7ab00",
                    "mixHash" : "0xa1fecff46f849add596017cf2145b58fd37804612cc9237213301680d4cd5b34",
                    "nonce" : "0x9b6253e179e9c717",
                    "number" : "0x01",
                    "parentHash" : "0x8799dc2d3892b4aa4d44cf37e10a701ea8a5e160339cae79543089f39c15281b",
                    "receiptTrie" : "0xb565287f9d7037fff8c3c42722846eec8fdb408777eb75244bd13c2354037d58",
                    "stateRoot" : "0x0c5151470fd2b6d7b9683051d2936d3e4ea835a80d8c244d7e5f7b6488fa3b00",
                    "timestamp" : "0x59d7722b",
                    "transactionsTrie" : "0xd6ba91470a65633ad8e430f5e77ee4a78fcbc83700385d342db5ff39989ea497",
                    "uncleHash" : "0x1dcc4de8dec75d7aab85b567b6ccd41ad312451b948a7413f0a142fd40d49347"
                },
                "rlp" : "0xf90261f901f9a08799dc2d3892b4aa4d44cf37e10a701ea8a5e160339cae79543089f39c15281ba01dcc4de8dec75d7aab85b567b6ccd41ad312451b948a7413f0a142fd40d49347948888f1f195afa192cfee860698584c030f4c9db1a00c5151470fd2b6d7b9683051d2936d3e4ea835a80d8c244d7e5f7b6488fa3b00a0d6ba91470a65633ad8e430f5e77ee4a78fcbc83700385d342db5ff39989ea497a0b565287f9d7037fff8c3c42722846eec8fdb408777eb75244bd13c2354037d58b90100000000000000000000000000000000000000000000000000000000000000000000000000000000000000000000000000000000000000000000000000000000000000000000000000000000000000000000000000000000000000000000000000000000000000000000000000000000000000000000000000000000000000000000000000000000000000000000000000000000000000000000000000000000000000000000000000000000000000000000000000000000000000000000000000000000000000000000000000000000000000000000000000000000000000000000000000000000000000000000000000000000000000000000000000000000008302000001832fefba82c7868459d7722b80a0a1fecff46f849add596017cf2145b58fd37804612cc9237213301680d4cd5b34889b6253e179e9c717f862f8608001830249f094095e7baea6a6c7c4c2dfeb977efac326af552d8780801ba08f7d4d301a80268a68d5d45905cc84a1e05b4e11cfb1d04ec7a4a5c4a23b5c90a0499c4eee3f24777a1d34dc19c24b62634b9b92ecbb1fd87ea5e7b845f2ba16c3c0",
                "transactions" : [
                    {
                        "data" : "",
                        "gasLimit" : "0x0249f0",
                        "gasPrice" : "0x01",
                        "nonce" : "0x00",
                        "r" : "0x8f7d4d301a80268a68d5d45905cc84a1e05b4e11cfb1d04ec7a4a5c4a23b5c90",
                        "s" : "0x499c4eee3f24777a1d34dc19c24b62634b9b92ecbb1fd87ea5e7b845f2ba16c3",
                        "to" : "0x095e7baea6a6c7c4c2dfeb977efac326af552d87",
                        "v" : "0x1b",
                        "value" : "0x00"
                    }
                ],
                "uncleHeaders" : [
                ]
            },
            {
                "blockHeader" : {
                    "bloom" : "0x00000000000000000000000000000000000000000000000000000000000000000000000000000000000000000000000000000000000000000000000000000000000000000000000000000000000000000000000000000000000000000000000000000000000000000000000000000000000000000000000000000000000000000000000000000000000000000000000000000000000000000000000000000000000000000000000000000000000000000000000000000000000000000000000000000000000000000000000000000000000000000000000000000000000000000000000000000000000000000000000000000000000000000000000000000000",
                    "coinbase" : "0x8888f1f195afa192cfee860698584c030f4c9db1",
                    "difficulty" : "0x020040",
                    "extraData" : "",
                    "gasLimit" : "0x2fefba",
                    "gasUsed" : "0x0249f0",
                    "hash" : "0xff9ff0247410690685b2c5b43f3459ffc2eef8cd0a139e41a5111e0c7f6d085d",
                    "mixHash" : "0xbd591068d23f8329ff0c820e26e499c9cd4484cfec87ba7c0529911c20972bac",
                    "nonce" : "0xa1567f346d11bd5a",
                    "number" : "0x02",
                    "parentHash" : "0x7397434aaddd355153536466f1d1bc54eeb1a8d4395c1020ba05d471c1f7ab00",
                    "receiptTrie" : "0xa0e10907f175886de9bd8cd4ac2c21d1db4109a3a9fecf60f54015ee102803fd",
                    "stateRoot" : "0x2ad5a3d93f7854eca2f3225fa7186c97efd75a63f0b42af52ef9218471cf966f",
                    "timestamp" : "0x59d77230",
                    "transactionsTrie" : "0xd954a5202e78be1de112b20b2cfd81b0671426b93c739bf5c6fa87ae8213197a",
                    "uncleHash" : "0x1dcc4de8dec75d7aab85b567b6ccd41ad312451b948a7413f0a142fd40d49347"
                },
                "rlp" : "0xf90262f901faa07397434aaddd355153536466f1d1bc54eeb1a8d4395c1020ba05d471c1f7ab00a01dcc4de8dec75d7aab85b567b6ccd41ad312451b948a7413f0a142fd40d49347948888f1f195afa192cfee860698584c030f4c9db1a02ad5a3d93f7854eca2f3225fa7186c97efd75a63f0b42af52ef9218471cf966fa0d954a5202e78be1de112b20b2cfd81b0671426b93c739bf5c6fa87ae8213197aa0a0e10907f175886de9bd8cd4ac2c21d1db4109a3a9fecf60f54015ee102803fdb90100000000000000000000000000000000000000000000000000000000000000000000000000000000000000000000000000000000000000000000000000000000000000000000000000000000000000000000000000000000000000000000000000000000000000000000000000000000000000000000000000000000000000000000000000000000000000000000000000000000000000000000000000000000000000000000000000000000000000000000000000000000000000000000000000000000000000000000000000000000000000000000000000000000000000000000000000000000000000000000000000000000000000000000000000000000008302004002832fefba830249f08459d7723080a0bd591068d23f8329ff0c820e26e499c9cd4484cfec87ba7c0529911c20972bac88a1567f346d11bd5af862f8600180830249f094195e7baea6a6c7c4c2dfeb977efac326af552d8780801ba0ef2b3ee7fab91f73e7d1be76f0698c08df26d48c12be1a3c330d3f5dff39e856a025b8af8c65b0bd99dd4998fabea60caee571797731eac5569ee5f79ecada5759c0",
                "transactions" : [
                    {
                        "data" : "",
                        "gasLimit" : "0x0249f0",
                        "gasPrice" : "0x00",
                        "nonce" : "0x01",
                        "r" : "0xef2b3ee7fab91f73e7d1be76f0698c08df26d48c12be1a3c330d3f5dff39e856",
                        "s" : "0x25b8af8c65b0bd99dd4998fabea60caee571797731eac5569ee5f79ecada5759",
                        "to" : "0x195e7baea6a6c7c4c2dfeb977efac326af552d87",
                        "v" : "0x1b",
                        "value" : "0x00"
                    }
                ],
                "uncleHeaders" : [
                ]
            },
            {
                "blockHeader" : {
                    "bloom" : "0x00000000000000000000000000000000000000000000000000000000000000000000000000000000000000000000000000000000000000000000000000000000000000000000000000000000000000000000000000000000000000000000000000000000000000000000000000000000000000000000000000000000000000000000000000000000000000000000000000000000000000000000000000000000000000000000000000000000000000000000000000000000000000000000000000000000000000000000000000000000000000000000000000000000000000000000000000000000000000000000000000000000000000000000000000000000",
                    "coinbase" : "0x8888f1f195afa192cfee860698584c030f4c9db1",
                    "difficulty" : "0x020080",
                    "extraData" : "",
                    "gasLimit" : "0x2fefba",
                    "gasUsed" : "0xc786",
                    "hash" : "0xea3ee27f0cf4bf0aacb59911187d6f6133f24f45d92e0966dc2bfe3bf5b7b183",
                    "mixHash" : "0x5c4431453d47bb851ed69b23ebf1737c4e5a68f5c8ada79c48759c48b2e7a538",
                    "nonce" : "0x6e86d86c767614ca",
                    "number" : "0x03",
                    "parentHash" : "0xff9ff0247410690685b2c5b43f3459ffc2eef8cd0a139e41a5111e0c7f6d085d",
                    "receiptTrie" : "0xb565287f9d7037fff8c3c42722846eec8fdb408777eb75244bd13c2354037d58",
                    "stateRoot" : "0x7340eb9718a5e71886494ec7f74d9489819d8ee315d8db1e7efc0a5d19cebc47",
                    "timestamp" : "0x59d77231",
                    "transactionsTrie" : "0xe7a583cf499521fb1b10b3a375047663e25fd78b3db53b1e92e1c41e53cbb23d",
                    "uncleHash" : "0x1dcc4de8dec75d7aab85b567b6ccd41ad312451b948a7413f0a142fd40d49347"
                },
                "rlp" : "0xf90261f901f9a0ff9ff0247410690685b2c5b43f3459ffc2eef8cd0a139e41a5111e0c7f6d085da01dcc4de8dec75d7aab85b567b6ccd41ad312451b948a7413f0a142fd40d49347948888f1f195afa192cfee860698584c030f4c9db1a07340eb9718a5e71886494ec7f74d9489819d8ee315d8db1e7efc0a5d19cebc47a0e7a583cf499521fb1b10b3a375047663e25fd78b3db53b1e92e1c41e53cbb23da0b565287f9d7037fff8c3c42722846eec8fdb408777eb75244bd13c2354037d58b90100000000000000000000000000000000000000000000000000000000000000000000000000000000000000000000000000000000000000000000000000000000000000000000000000000000000000000000000000000000000000000000000000000000000000000000000000000000000000000000000000000000000000000000000000000000000000000000000000000000000000000000000000000000000000000000000000000000000000000000000000000000000000000000000000000000000000000000000000000000000000000000000000000000000000000000000000000000000000000000000000000000000000000000000000000000008302008003832fefba82c7868459d7723180a05c4431453d47bb851ed69b23ebf1737c4e5a68f5c8ada79c48759c48b2e7a538886e86d86c767614caf862f8600280830249f094295e7baea6a6c7c4c2dfeb977efac326af552d8780801ca0a37e56d9fcf9bcb6a4240007f7a298e4557e84a41317ad8a54c6f758670dfdcfa079c6ba18545fe9c7e7b934ee3d441a9160f63ffd8916318e2fb2f8dbd58c5aa2c0",
                "transactions" : [
                    {
                        "data" : "",
                        "gasLimit" : "0x0249f0",
                        "gasPrice" : "0x00",
                        "nonce" : "0x02",
                        "r" : "0xa37e56d9fcf9bcb6a4240007f7a298e4557e84a41317ad8a54c6f758670dfdcf",
                        "s" : "0x79c6ba18545fe9c7e7b934ee3d441a9160f63ffd8916318e2fb2f8dbd58c5aa2",
                        "to" : "0x295e7baea6a6c7c4c2dfeb977efac326af552d87",
                        "v" : "0x1c",
                        "value" : "0x00"
                    }
                ],
                "uncleHeaders" : [
                ]
            },
            {
                "blockHeader" : {
                    "bloom" : "0x00000000000000000000000000000000000000000000000000000000000000000000000000000000000000000000000000000000000000000000000000000000000000000000000000000000000000000000000000000000000000000000000000000000000000000000000000000000000000000000000000000000000000000000000000000000000000000000000000000000000000000000000000000000000000000000000000000000000000000000000000000000000000000000000000000000000000000000000000000000000000000000000000000000000000000000000000000000000000000000000000000000000000000000000000000000",
                    "coinbase" : "0x8888f1f195afa192cfee860698584c030f4c9db1",
                    "difficulty" : "0x0200c0",
                    "extraData" : "",
                    "gasLimit" : "0x2fefba",
                    "gasUsed" : "0xb3e4",
                    "hash" : "0xeae5c26d8f2e80bed9b694f9af08458d3bf13a6397d97e9884bde1afc9765ea5",
                    "mixHash" : "0xd6bef4d9a52cb806c76be7a4980724901d8427ede26e8683caa5bb3540bf3cd1",
                    "nonce" : "0x2e52a69a7076b6ac",
                    "number" : "0x04",
                    "parentHash" : "0xea3ee27f0cf4bf0aacb59911187d6f6133f24f45d92e0966dc2bfe3bf5b7b183",
                    "receiptTrie" : "0xf68c94a11b351e89243b28ebf712bbfe38f50539a4c5edacd6bd3664dca75900",
                    "stateRoot" : "0x002c2ab7f1e2f1256a17f5110d471258e7d120f94040aac7301888f8611b2a30",
                    "timestamp" : "0x59d77235",
                    "transactionsTrie" : "0x39949f1106c123c2b08c5d83d1901d8f52b8ea143715aff7bb41b20421a5a3f7",
                    "uncleHash" : "0x1dcc4de8dec75d7aab85b567b6ccd41ad312451b948a7413f0a142fd40d49347"
                },
                "rlp" : "0xf90261f901f9a0ea3ee27f0cf4bf0aacb59911187d6f6133f24f45d92e0966dc2bfe3bf5b7b183a01dcc4de8dec75d7aab85b567b6ccd41ad312451b948a7413f0a142fd40d49347948888f1f195afa192cfee860698584c030f4c9db1a0002c2ab7f1e2f1256a17f5110d471258e7d120f94040aac7301888f8611b2a30a039949f1106c123c2b08c5d83d1901d8f52b8ea143715aff7bb41b20421a5a3f7a0f68c94a11b351e89243b28ebf712bbfe38f50539a4c5edacd6bd3664dca75900b9010000000000000000000000000000000000000000000000000000000000000000000000000000000000000000000000000000000000000000000000000000000000000000000000000000000000000000000000000000000000000000000000000000000000000000000000000000000000000000000000000000000000000000000000000000000000000000000000000000000000000000000000000000000000000000000000000000000000000000000000000000000000000000000000000000000000000000000000000000000000000000000000000000000000000000000000000000000000000000000000000000000000000000000000000000000000830200c004832fefba82b3e48459d7723580a0d6bef4d9a52cb806c76be7a4980724901d8427ede26e8683caa5bb3540bf3cd1882e52a69a7076b6acf862f8600380830249f094395e7baea6a6c7c4c2dfeb977efac326af552d8780801ba07a287ed5f28cb05cfca14aedc3f5c6adcb1d5508f8ffc1a1a80e6807ef92c881a06788de15c61f27947a7c2e3dad465db599dbe5205deb1f1336722c058b4f0b11c0",
                "transactions" : [
                    {
                        "data" : "",
                        "gasLimit" : "0x0249f0",
                        "gasPrice" : "0x00",
                        "nonce" : "0x03",
                        "r" : "0x7a287ed5f28cb05cfca14aedc3f5c6adcb1d5508f8ffc1a1a80e6807ef92c881",
                        "s" : "0x6788de15c61f27947a7c2e3dad465db599dbe5205deb1f1336722c058b4f0b11",
                        "to" : "0x395e7baea6a6c7c4c2dfeb977efac326af552d87",
                        "v" : "0x1b",
                        "value" : "0x00"
                    }
                ],
                "uncleHeaders" : [
                ]
            },
            {
                "blockHeader" : {
                    "bloom" : "0x00000000000000000000000000000000000000000000000000000000000000000000000000000000000000000000000000000000000000000000000000000000000000000000000000000000000000000000000000000000000000000000000000000000000000000000000000000000000000000000000000000000000000000000000000000000000000000000000000000000000000000000000000000000000000000000000000000000000000000000000000000000000000000000000000000000000000000000000000000000000000000000000000000000000000000000000000000000000000000000000000000000000000000000000000000000",
                    "coinbase" : "0x8888f1f195afa192cfee860698584c030f4c9db1",
                    "difficulty" : "0x020100",
                    "extraData" : "",
                    "gasLimit" : "0x2fefba",
                    "gasUsed" : "0xc786",
                    "hash" : "0x8add38dd5f1c22189dccdcb5c9ff23a6db52748c8bc96d4fcc5a2fd3d9af0783",
                    "mixHash" : "0x8e0d49e110da8b93fd622c1b0f59222962e82c10d6b4fa7b0d5ec4ae9a2225b2",
                    "nonce" : "0x6e54997af0df9870",
                    "number" : "0x05",
                    "parentHash" : "0xeae5c26d8f2e80bed9b694f9af08458d3bf13a6397d97e9884bde1afc9765ea5",
                    "receiptTrie" : "0xb565287f9d7037fff8c3c42722846eec8fdb408777eb75244bd13c2354037d58",
                    "stateRoot" : "0x73cd461173a6a2540908795152b8093ddf39f1fdbf69813e8964a277d8096200",
                    "timestamp" : "0x59d77237",
                    "transactionsTrie" : "0x41159ca0124f819b698853a7387ce44c5f62b720be5fbbf848064bfde11cbc98",
                    "uncleHash" : "0x1dcc4de8dec75d7aab85b567b6ccd41ad312451b948a7413f0a142fd40d49347"
                },
                "rlp" : "0xf90261f901f9a0eae5c26d8f2e80bed9b694f9af08458d3bf13a6397d97e9884bde1afc9765ea5a01dcc4de8dec75d7aab85b567b6ccd41ad312451b948a7413f0a142fd40d49347948888f1f195afa192cfee860698584c030f4c9db1a073cd461173a6a2540908795152b8093ddf39f1fdbf69813e8964a277d8096200a041159ca0124f819b698853a7387ce44c5f62b720be5fbbf848064bfde11cbc98a0b565287f9d7037fff8c3c42722846eec8fdb408777eb75244bd13c2354037d58b90100000000000000000000000000000000000000000000000000000000000000000000000000000000000000000000000000000000000000000000000000000000000000000000000000000000000000000000000000000000000000000000000000000000000000000000000000000000000000000000000000000000000000000000000000000000000000000000000000000000000000000000000000000000000000000000000000000000000000000000000000000000000000000000000000000000000000000000000000000000000000000000000000000000000000000000000000000000000000000000000000000000000000000000000000000000008302010005832fefba82c7868459d7723780a08e0d49e110da8b93fd622c1b0f59222962e82c10d6b4fa7b0d5ec4ae9a2225b2886e54997af0df9870f862f8600480830249f094495e7baea6a6c7c4c2dfeb977efac326af552d8780801ca031cf6ed06716db235afb7f74fd576a3e8712110b46c8183ca913ce0419c8db64a06eaa270e49692dee44a7e60bec345205589f62aabb2517d9bf202b065c846c54c0",
                "transactions" : [
                    {
                        "data" : "",
                        "gasLimit" : "0x0249f0",
                        "gasPrice" : "0x00",
                        "nonce" : "0x04",
                        "r" : "0x31cf6ed06716db235afb7f74fd576a3e8712110b46c8183ca913ce0419c8db64",
                        "s" : "0x6eaa270e49692dee44a7e60bec345205589f62aabb2517d9bf202b065c846c54",
                        "to" : "0x495e7baea6a6c7c4c2dfeb977efac326af552d87",
                        "v" : "0x1c",
                        "value" : "0x00"
                    }
                ],
                "uncleHeaders" : [
                ]
            }
        ],
        "genesisBlockHeader" : {
            "bloom" : "0x00000000000000000000000000000000000000000000000000000000000000000000000000000000000000000000000000000000000000000000000000000000000000000000000000000000000000000000000000000000000000000000000000000000000000000000000000000000000000000000000000000000000000000000000000000000000000000000000000000000000000000000000000000000000000000000000000000000000000000000000000000000000000000000000000000000000000000000000000000000000000000000000000000000000000000000000000000000000000000000000000000000000000000000000000000000",
            "coinbase" : "0x8888f1f195afa192cfee860698584c030f4c9db1",
            "difficulty" : "0x020000",
            "extraData" : "0x42",
            "gasLimit" : "0x2fefd8",
            "gasUsed" : "0x00",
            "hash" : "0x8799dc2d3892b4aa4d44cf37e10a701ea8a5e160339cae79543089f39c15281b",
            "mixHash" : "0x56e81f171bcc55a6ff8345e692c0f86e5b48e01b996cadc001622fb5e363b421",
            "nonce" : "0x0102030405060708",
            "number" : "0x00",
            "parentHash" : "0x0000000000000000000000000000000000000000000000000000000000000000",
            "receiptTrie" : "0x56e81f171bcc55a6ff8345e692c0f86e5b48e01b996cadc001622fb5e363b421",
            "stateRoot" : "0x031105585da186c353e585e6ba310866f4df1e63d822ad1d929be695faff0afb",
            "timestamp" : "0x54c98c81",
            "transactionsTrie" : "0x56e81f171bcc55a6ff8345e692c0f86e5b48e01b996cadc001622fb5e363b421",
            "uncleHash" : "0x1dcc4de8dec75d7aab85b567b6ccd41ad312451b948a7413f0a142fd40d49347"
        },
        "genesisRLP" : "0xf901fcf901f7a00000000000000000000000000000000000000000000000000000000000000000a01dcc4de8dec75d7aab85b567b6ccd41ad312451b948a7413f0a142fd40d49347948888f1f195afa192cfee860698584c030f4c9db1a0031105585da186c353e585e6ba310866f4df1e63d822ad1d929be695faff0afba056e81f171bcc55a6ff8345e692c0f86e5b48e01b996cadc001622fb5e363b421a056e81f171bcc55a6ff8345e692c0f86e5b48e01b996cadc001622fb5e363b421b90100000000000000000000000000000000000000000000000000000000000000000000000000000000000000000000000000000000000000000000000000000000000000000000000000000000000000000000000000000000000000000000000000000000000000000000000000000000000000000000000000000000000000000000000000000000000000000000000000000000000000000000000000000000000000000000000000000000000000000000000000000000000000000000000000000000000000000000000000000000000000000000000000000000000000000000000000000000000000000000000000000000000000000000000000000000008302000080832fefd8808454c98c8142a056e81f171bcc55a6ff8345e692c0f86e5b48e01b996cadc001622fb5e363b421880102030405060708c0c0",
        "lastblockhash" : "0x8add38dd5f1c22189dccdcb5c9ff23a6db52748c8bc96d4fcc5a2fd3d9af0783",
        "network" : "Byzantium",
        "postState" : {
            "0x095e7baea6a6c7c4c2dfeb977efac326af552d87" : {
                "balance" : "0x0de0b6b3a7640000",
                "code" : "0x600040600055600540600155600440600255",
                "nonce" : "0x00",
                "storage" : {
                    "0x00" : "0x8799dc2d3892b4aa4d44cf37e10a701ea8a5e160339cae79543089f39c15281b"
                }
            },
            "0x195e7baea6a6c7c4c2dfeb977efac326af552d87" : {
                "balance" : "0x0de0b6b3a7640000",
                "code" : "0x61010043035b804050600556",
                "nonce" : "0x00",
                "storage" : {
                }
            },
            "0x295e7baea6a6c7c4c2dfeb977efac326af552d87" : {
                "balance" : "0x0de0b6b3a7640000",
                "code" : "0x60004060005560044060015561010040600255",
                "nonce" : "0x00",
                "storage" : {
                    "0x00" : "0x8799dc2d3892b4aa4d44cf37e10a701ea8a5e160339cae79543089f39c15281b"
                }
            },
            "0x395e7baea6a6c7c4c2dfeb977efac326af552d87" : {
                "balance" : "0x0de0b6b3a7640000",
                "code" : "0x6000406000556801000000000000000140600155",
                "nonce" : "0x00",
                "storage" : {
                    "0x00" : "0x8799dc2d3892b4aa4d44cf37e10a701ea8a5e160339cae79543089f39c15281b"
                }
            },
            "0x495e7baea6a6c7c4c2dfeb977efac326af552d87" : {
                "balance" : "0x0de0b6b3a7640000",
                "code" : "0x600040600055610101406001557fffffffffffffffffffffffffffffffffffffffffffffffffffffffffffffffff40600255",
                "nonce" : "0x00",
                "storage" : {
                    "0x00" : "0x8799dc2d3892b4aa4d44cf37e10a701ea8a5e160339cae79543089f39c15281b"
                }
            },
            "0x8888f1f195afa192cfee860698584c030f4c9db1" : {
                "balance" : "0xd02ab486cedcc786",
                "code" : "",
                "nonce" : "0x00",
                "storage" : {
                }
            },
            "0xa94f5374fce5edbc8e2a8697c15331677e6ebf0b" : {
                "balance" : "0x0e7aba",
                "code" : "",
                "nonce" : "0x05",
                "storage" : {
                }
            }
        },
        "pre" : {
            "0x095e7baea6a6c7c4c2dfeb977efac326af552d87" : {
                "balance" : "0x0de0b6b3a7640000",
                "code" : "0x600040600055600540600155600440600255",
                "nonce" : "0x00",
                "storage" : {
                }
            },
            "0x195e7baea6a6c7c4c2dfeb977efac326af552d87" : {
                "balance" : "0x0de0b6b3a7640000",
                "code" : "0x61010043035b804050600556",
                "nonce" : "0x00",
                "storage" : {
                }
            },
            "0x295e7baea6a6c7c4c2dfeb977efac326af552d87" : {
                "balance" : "0x0de0b6b3a7640000",
                "code" : "0x60004060005560044060015561010040600255",
                "nonce" : "0x00",
                "storage" : {
                }
            },
            "0x395e7baea6a6c7c4c2dfeb977efac326af552d87" : {
                "balance" : "0x0de0b6b3a7640000",
                "code" : "0x6000406000556801000000000000000140600155",
                "nonce" : "0x00",
                "storage" : {
                }
            },
            "0x495e7baea6a6c7c4c2dfeb977efac326af552d87" : {
                "balance" : "0x0de0b6b3a7640000",
                "code" : "0x600040600055610101406001557fffffffffffffffffffffffffffffffffffffffffffffffffffffffffffffffff40600255",
                "nonce" : "0x00",
                "storage" : {
                }
            },
            "0xa94f5374fce5edbc8e2a8697c15331677e6ebf0b" : {
                "balance" : "0x0f4240",
                "code" : "",
                "nonce" : "0x00",
                "storage" : {
                }
            }
        }
    }
}
