{
    "blockhashNonConstArg_Byzantium" : {
        "_info" : {
            "comment" : "",
            "filledwith" : "cpp-1.3.0+commit.13735e44.Linux.g++",
            "lllcversion" : "Version: 0.4.20-develop.2018.1.8+commit.2548228b.Linux.g++",
            "source" : "src/BlockchainTestsFiller/bcStateTests/blockhashNonConstArgFiller.json",
            "sourceHash" : "0967f57a7781c24cfc5791c0bd72a027d0d279f435b5149ca3044f03e56f9d04"
        },
        "blocks" : [
            {
                "blockHeader" : {
                    "bloom" : "0x00000000000000000000000000000000000000000000000000000000000000000000000000000000000000000000000000000000000000000000000000000000000000000000000000000000000000000000000000000000000000000000000000000000000000000000000000000000000000000000000000000000000000000000000000000000000000000000000000000000000000000000000000000000000000000000000000000000000000000000000000000000000000000000000000000000000000000000000000000000000000000000000000000000000000000000000000000000000000000000000000000000000000000000000000000000",
                    "coinbase" : "0x2adc25665018aa1fe0e6bc666dac8fc2697ff9ba",
                    "difficulty" : "0x020000",
                    "extraData" : "",
                    "gasLimit" : "0x7fe0000000000001",
                    "gasUsed" : "0xa1d2",
                    "hash" : "0x01ea3a33d94a842e3593b27e0c01d3a4dd2835cfee7d4bd646b6dcf0f9fc02f4",
                    "mixHash" : "0xe7dadf92c2ccb501d51bd029ddacbd63ee7090b00f9f66d5a6ce5f348b7d7509",
                    "nonce" : "0x9af21e88534345b0",
                    "number" : "0x01",
                    "parentHash" : "0x638c93ac9a70744774064a4a4d0f212962c527de64123d211e8ac93e94d07016",
                    "receiptTrie" : "0x937678e691c76d814065237bb6237a86d2e93541725fb830c0bb7ccd5e927f12",
                    "stateRoot" : "0xf1fee462eab7b12257a837ec1658457caef6da3402056fcefd421da129fbf8d6",
                    "timestamp" : "0x5a536d26",
                    "transactionsTrie" : "0x1b8e596a9db7ec729190ec7a6678c3dd8e7c9a3a1017c8460bb56eb845d06688",
                    "uncleHash" : "0x1dcc4de8dec75d7aab85b567b6ccd41ad312451b948a7413f0a142fd40d49347"
                },
                "rlp" : "0xf90266f901fea0638c93ac9a70744774064a4a4d0f212962c527de64123d211e8ac93e94d07016a01dcc4de8dec75d7aab85b567b6ccd41ad312451b948a7413f0a142fd40d49347942adc25665018aa1fe0e6bc666dac8fc2697ff9baa0f1fee462eab7b12257a837ec1658457caef6da3402056fcefd421da129fbf8d6a01b8e596a9db7ec729190ec7a6678c3dd8e7c9a3a1017c8460bb56eb845d06688a0937678e691c76d814065237bb6237a86d2e93541725fb830c0bb7ccd5e927f12b90100000000000000000000000000000000000000000000000000000000000000000000000000000000000000000000000000000000000000000000000000000000000000000000000000000000000000000000000000000000000000000000000000000000000000000000000000000000000000000000000000000000000000000000000000000000000000000000000000000000000000000000000000000000000000000000000000000000000000000000000000000000000000000000000000000000000000000000000000000000000000000000000000000000000000000000000000000000000000000000000000000000000000000000000000000000008302000001887fe000000000000182a1d2845a536d2680a0e7dadf92c2ccb501d51bd029ddacbd63ee7090b00f9f66d5a6ce5f348b7d7509889af21e88534345b0f862f8608001830249f094100000000000000000000000000000000000000080801ca05e9a8d9240c75515986647d9630197613462976cda4a542b6725e0b7eb4fedf3a01d242de15a6e46330a9a0d411f18ca2c9d27201fb6feefffe70b9313634e7be2c0",
                "transactions" : [
                    {
                        "data" : "",
                        "gasLimit" : "0x0249f0",
                        "gasPrice" : "0x01",
                        "nonce" : "0x00",
                        "r" : "0x5e9a8d9240c75515986647d9630197613462976cda4a542b6725e0b7eb4fedf3",
                        "s" : "0x1d242de15a6e46330a9a0d411f18ca2c9d27201fb6feefffe70b9313634e7be2",
                        "to" : "0x1000000000000000000000000000000000000000",
                        "v" : "0x1c",
                        "value" : "0x00"
                    }
                ],
                "uncleHeaders" : [
                ]
            },
            {
                "blockHeader" : {
                    "bloom" : "0x00000000000000000000000000000000000000000000000000000000000000000000000000000000000000000000000000000000000000000000000000000000000000000000000000000000000000000000000000000000000000000000000000000000000000000000000000000000000000000000000000000000000000000000000000000000000000000000000000000000000000000000000000000000000000000000000000000000000000000000000000000000000000000000000000000000000000000000000000000000000000000000000000000000000000000000000000000000000000000000000000000000000000000000000000000000",
                    "coinbase" : "0x2adc25665018aa1fe0e6bc666dac8fc2697ff9ba",
                    "difficulty" : "0x020040",
                    "extraData" : "",
                    "gasLimit" : "0x7fc0080000000032",
                    "gasUsed" : "0x673a",
                    "hash" : "0xdfcaadcfbc644ebd130e5b559ac70e9cccfc6dded4df5b263c37e8ae7104fe50",
                    "mixHash" : "0x8b9029a8f8bab1850744f72a25be3a538522f8337bf9265d296dd3b629fe1c3b",
                    "nonce" : "0x4b71bef9a1d45ce2",
                    "number" : "0x02",
                    "parentHash" : "0x01ea3a33d94a842e3593b27e0c01d3a4dd2835cfee7d4bd646b6dcf0f9fc02f4",
                    "receiptTrie" : "0x0ff2719413fbf72319ea3db7817ab9cdfeb200cef1f84ea9f875423d113feff9",
                    "stateRoot" : "0x46f70e55c3830c2ccd73dc3726ed6a33c79ed68f24f2107343be4f24a512f4ab",
                    "timestamp" : "0x5a536d27",
                    "transactionsTrie" : "0xf775f2b85ec9e073e11dc6ec7498ccc344023c2c7396c4f84376b241847f2031",
                    "uncleHash" : "0x1dcc4de8dec75d7aab85b567b6ccd41ad312451b948a7413f0a142fd40d49347"
                },
                "rlp" : "0xf90266f901fea001ea3a33d94a842e3593b27e0c01d3a4dd2835cfee7d4bd646b6dcf0f9fc02f4a01dcc4de8dec75d7aab85b567b6ccd41ad312451b948a7413f0a142fd40d49347942adc25665018aa1fe0e6bc666dac8fc2697ff9baa046f70e55c3830c2ccd73dc3726ed6a33c79ed68f24f2107343be4f24a512f4aba0f775f2b85ec9e073e11dc6ec7498ccc344023c2c7396c4f84376b241847f2031a00ff2719413fbf72319ea3db7817ab9cdfeb200cef1f84ea9f875423d113feff9b90100000000000000000000000000000000000000000000000000000000000000000000000000000000000000000000000000000000000000000000000000000000000000000000000000000000000000000000000000000000000000000000000000000000000000000000000000000000000000000000000000000000000000000000000000000000000000000000000000000000000000000000000000000000000000000000000000000000000000000000000000000000000000000000000000000000000000000000000000000000000000000000000000000000000000000000000000000000000000000000000000000000000000000000000000000000008302004002887fc008000000003282673a845a536d2780a08b9029a8f8bab1850744f72a25be3a538522f8337bf9265d296dd3b629fe1c3b884b71bef9a1d45ce2f862f8600101830249f094100000000000000000000000000000000000000080801ba0751c1d010c829a9a015b2f3610cd2a7b35e673d78c5714d967a569204f7984f4a0685472121ffea7a61a87980620e6a1ee31d72c13d3c519d52050e0de82b3b9a7c0",
                "transactions" : [
                    {
                        "data" : "",
                        "gasLimit" : "0x0249f0",
                        "gasPrice" : "0x01",
                        "nonce" : "0x01",
                        "r" : "0x751c1d010c829a9a015b2f3610cd2a7b35e673d78c5714d967a569204f7984f4",
                        "s" : "0x685472121ffea7a61a87980620e6a1ee31d72c13d3c519d52050e0de82b3b9a7",
                        "to" : "0x1000000000000000000000000000000000000000",
                        "v" : "0x1b",
                        "value" : "0x00"
                    }
                ],
                "uncleHeaders" : [
                ]
            }
        ],
        "genesisBlockHeader" : {
            "bloom" : "0x00000000000000000000000000000000000000000000000000000000000000000000000000000000000000000000000000000000000000000000000000000000000000000000000000000000000000000000000000000000000000000000000000000000000000000000000000000000000000000000000000000000000000000000000000000000000000000000000000000000000000000000000000000000000000000000000000000000000000000000000000000000000000000000000000000000000000000000000000000000000000000000000000000000000000000000000000000000000000000000000000000000000000000000000000000000",
            "coinbase" : "0x2adc25665018aa1fe0e6bc666dac8fc2697ff9ba",
            "difficulty" : "0x020000",
            "extraData" : "0x42",
            "gasLimit" : "0x7fffffffffffffff",
            "gasUsed" : "0x00",
            "hash" : "0x638c93ac9a70744774064a4a4d0f212962c527de64123d211e8ac93e94d07016",
            "mixHash" : "0x56e81f171bcc55a6ff8345e692c0f86e5b48e01b996cadc001622fb5e363b421",
            "nonce" : "0x0102030405060708",
            "number" : "0x00",
            "parentHash" : "0x0000000000000000000000000000000000000000000000000000000000000000",
            "receiptTrie" : "0x56e81f171bcc55a6ff8345e692c0f86e5b48e01b996cadc001622fb5e363b421",
            "stateRoot" : "0x69b0536ac7e71586442ecf42d9e46ade1978c2027ae3f04d69d07b3579bb3ed3",
            "timestamp" : "0x03b6",
            "transactionsTrie" : "0x56e81f171bcc55a6ff8345e692c0f86e5b48e01b996cadc001622fb5e363b421",
            "uncleHash" : "0x1dcc4de8dec75d7aab85b567b6ccd41ad312451b948a7413f0a142fd40d49347"
        },
        "genesisRLP" : "0xf901fff901faa00000000000000000000000000000000000000000000000000000000000000000a01dcc4de8dec75d7aab85b567b6ccd41ad312451b948a7413f0a142fd40d49347942adc25665018aa1fe0e6bc666dac8fc2697ff9baa069b0536ac7e71586442ecf42d9e46ade1978c2027ae3f04d69d07b3579bb3ed3a056e81f171bcc55a6ff8345e692c0f86e5b48e01b996cadc001622fb5e363b421a056e81f171bcc55a6ff8345e692c0f86e5b48e01b996cadc001622fb5e363b421b90100000000000000000000000000000000000000000000000000000000000000000000000000000000000000000000000000000000000000000000000000000000000000000000000000000000000000000000000000000000000000000000000000000000000000000000000000000000000000000000000000000000000000000000000000000000000000000000000000000000000000000000000000000000000000000000000000000000000000000000000000000000000000000000000000000000000000000000000000000000000000000000000000000000000000000000000000000000000000000000000000000000000000000000000000000000008302000080887fffffffffffffff808203b642a056e81f171bcc55a6ff8345e692c0f86e5b48e01b996cadc001622fb5e363b421880102030405060708c0c0",
        "lastblockhash" : "0xdfcaadcfbc644ebd130e5b559ac70e9cccfc6dded4df5b263c37e8ae7104fe50",
        "network" : "Byzantium",
        "postState" : {
            "0x1000000000000000000000000000000000000000" : {
                "balance" : "0x00",
                "code" : "0x7310000000000000000000000000000000000000003140600155",
                "nonce" : "0x00",
                "storage" : {
                    "0x01" : "0x638c93ac9a70744774064a4a4d0f212962c527de64123d211e8ac93e94d07016"
                }
            },
            "0x1000000000000000000000000000000000000001" : {
                "balance" : "0x01",
                "code" : "0x7310000000000000000000000000000000000000013140600155",
                "nonce" : "0x00",
                "storage" : {
                }
            },
            "0x2adc25665018aa1fe0e6bc666dac8fc2697ff9ba" : {
                "balance" : "0x53444835ec59090c",
                "code" : "",
                "nonce" : "0x00",
                "storage" : {
                }
            },
            "0xa94f5374fce5edbc8e2a8697c15331677e6ebf0b" : {
                "balance" : "0x7ffffffffffef6f3",
                "code" : "",
                "nonce" : "0x02",
                "storage" : {
                }
            }
        },
        "pre" : {
            "0x1000000000000000000000000000000000000000" : {
                "balance" : "0x00",
                "code" : "0x7310000000000000000000000000000000000000003140600155",
                "nonce" : "0x00",
                "storage" : {
                }
            },
            "0x1000000000000000000000000000000000000001" : {
                "balance" : "0x01",
                "code" : "0x7310000000000000000000000000000000000000013140600155",
                "nonce" : "0x00",
                "storage" : {
                }
            },
            "0xa94f5374fce5edbc8e2a8697c15331677e6ebf0b" : {
                "balance" : "0x7fffffffffffffff",
                "code" : "",
                "nonce" : "0x00",
                "storage" : {
                }
            }
        }
    },
    "blockhashNonConstArg_Constantinople" : {
        "_info" : {
            "comment" : "",
            "filledwith" : "cpp-1.3.0+commit.13735e44.Linux.g++",
            "lllcversion" : "Version: 0.4.20-develop.2018.1.8+commit.2548228b.Linux.g++",
            "source" : "src/BlockchainTestsFiller/bcStateTests/blockhashNonConstArgFiller.json",
            "sourceHash" : "0967f57a7781c24cfc5791c0bd72a027d0d279f435b5149ca3044f03e56f9d04"
        },
        "blocks" : [
            {
                "blockHeader" : {
                    "bloom" : "0x00000000000000000000000000000000000000000000000000000000000000000000000000000000000000000000000000000000000000000000000000000000000000000000000000000000000000000000000000000000000000000000000000000000000000000000000000000000000000000000000000000000000000000000000000000000000000000000000000000000000000000000000000000000000000000000000000000000000000000000000000000000000000000000000000000000000000000000000000000000000000000000000000000000000000000000000000000000000000000000000000000000000000000000000000000000",
                    "coinbase" : "0x2adc25665018aa1fe0e6bc666dac8fc2697ff9ba",
                    "difficulty" : "0x020000",
                    "extraData" : "",
                    "gasLimit" : "0x7fe0000000000001",
                    "gasUsed" : "0xa4de",
                    "hash" : "0x3afa5714afccb3f098542e62fbfde47a8065260b3875ba0986eb87c8a6e40cef",
                    "mixHash" : "0x12eb284d1b1487d40be0d813ded6264be2b5303a84fc38f6445156e4ac66d7e6",
                    "nonce" : "0xade37774a6756133",
                    "number" : "0x01",
                    "parentHash" : "0x638c93ac9a70744774064a4a4d0f212962c527de64123d211e8ac93e94d07016",
                    "receiptTrie" : "0xe742d5e44c3c28472366b1a3b39ffdc5a2ba3304824ace2205d8f802a82867b1",
                    "stateRoot" : "0x4ff8e3ed2bd5529ff6be20f36b83eca57769584306c2e47d034ce8937039bb8d",
                    "timestamp" : "0x5a536d33",
                    "transactionsTrie" : "0x1b8e596a9db7ec729190ec7a6678c3dd8e7c9a3a1017c8460bb56eb845d06688",
                    "uncleHash" : "0x1dcc4de8dec75d7aab85b567b6ccd41ad312451b948a7413f0a142fd40d49347"
                },
                "rlp" : "0xf90266f901fea0638c93ac9a70744774064a4a4d0f212962c527de64123d211e8ac93e94d07016a01dcc4de8dec75d7aab85b567b6ccd41ad312451b948a7413f0a142fd40d49347942adc25665018aa1fe0e6bc666dac8fc2697ff9baa04ff8e3ed2bd5529ff6be20f36b83eca57769584306c2e47d034ce8937039bb8da01b8e596a9db7ec729190ec7a6678c3dd8e7c9a3a1017c8460bb56eb845d06688a0e742d5e44c3c28472366b1a3b39ffdc5a2ba3304824ace2205d8f802a82867b1b90100000000000000000000000000000000000000000000000000000000000000000000000000000000000000000000000000000000000000000000000000000000000000000000000000000000000000000000000000000000000000000000000000000000000000000000000000000000000000000000000000000000000000000000000000000000000000000000000000000000000000000000000000000000000000000000000000000000000000000000000000000000000000000000000000000000000000000000000000000000000000000000000000000000000000000000000000000000000000000000000000000000000000000000000000000000008302000001887fe000000000000182a4de845a536d3380a012eb284d1b1487d40be0d813ded6264be2b5303a84fc38f6445156e4ac66d7e688ade37774a6756133f862f8608001830249f094100000000000000000000000000000000000000080801ca05e9a8d9240c75515986647d9630197613462976cda4a542b6725e0b7eb4fedf3a01d242de15a6e46330a9a0d411f18ca2c9d27201fb6feefffe70b9313634e7be2c0",
                "transactions" : [
                    {
                        "data" : "",
                        "gasLimit" : "0x0249f0",
                        "gasPrice" : "0x01",
                        "nonce" : "0x00",
                        "r" : "0x5e9a8d9240c75515986647d9630197613462976cda4a542b6725e0b7eb4fedf3",
                        "s" : "0x1d242de15a6e46330a9a0d411f18ca2c9d27201fb6feefffe70b9313634e7be2",
                        "to" : "0x1000000000000000000000000000000000000000",
                        "v" : "0x1c",
                        "value" : "0x00"
                    }
                ],
                "uncleHeaders" : [
                ]
            },
            {
                "blockHeader" : {
                    "bloom" : "0x00000000000000000000000000000000000000000000000000000000000000000000000000000000000000000000000000000000000000000000000000000000000000000000000000000000000000000000000000000000000000000000000000000000000000000000000000000000000000000000000000000000000000000000000000000000000000000000000000000000000000000000000000000000000000000000000000000000000000000000000000000000000000000000000000000000000000000000000000000000000000000000000000000000000000000000000000000000000000000000000000000000000000000000000000000000",
                    "coinbase" : "0x2adc25665018aa1fe0e6bc666dac8fc2697ff9ba",
                    "difficulty" : "0x020040",
                    "extraData" : "",
                    "gasLimit" : "0x7fc0080000000033",
                    "gasUsed" : "0x6a46",
                    "hash" : "0x959e05a972e2e3140ae1cfea6637112f5c98b5548425c238c4aef12732464701",
                    "mixHash" : "0x9afa93e8f7cd63ad62b7faf6cad0be7c50ee9fbf7b6c0e98df6255e4f3bdd707",
                    "nonce" : "0x5e723416b7a303a1",
                    "number" : "0x02",
                    "parentHash" : "0x3afa5714afccb3f098542e62fbfde47a8065260b3875ba0986eb87c8a6e40cef",
                    "receiptTrie" : "0x366882ac179cc3cfa958819e5c7af5000c442f7ce744bbfda296e66b0efbb306",
                    "stateRoot" : "0x670ed8dc27d07d7732cb962b517dd6ad351e1ba0306c69d0dfe9a90adf3c7615",
                    "timestamp" : "0x5a536d34",
                    "transactionsTrie" : "0xf775f2b85ec9e073e11dc6ec7498ccc344023c2c7396c4f84376b241847f2031",
                    "uncleHash" : "0x1dcc4de8dec75d7aab85b567b6ccd41ad312451b948a7413f0a142fd40d49347"
                },
                "rlp" : "0xf90266f901fea03afa5714afccb3f098542e62fbfde47a8065260b3875ba0986eb87c8a6e40cefa01dcc4de8dec75d7aab85b567b6ccd41ad312451b948a7413f0a142fd40d49347942adc25665018aa1fe0e6bc666dac8fc2697ff9baa0670ed8dc27d07d7732cb962b517dd6ad351e1ba0306c69d0dfe9a90adf3c7615a0f775f2b85ec9e073e11dc6ec7498ccc344023c2c7396c4f84376b241847f2031a0366882ac179cc3cfa958819e5c7af5000c442f7ce744bbfda296e66b0efbb306b90100000000000000000000000000000000000000000000000000000000000000000000000000000000000000000000000000000000000000000000000000000000000000000000000000000000000000000000000000000000000000000000000000000000000000000000000000000000000000000000000000000000000000000000000000000000000000000000000000000000000000000000000000000000000000000000000000000000000000000000000000000000000000000000000000000000000000000000000000000000000000000000000000000000000000000000000000000000000000000000000000000000000000000000000000000000008302004002887fc0080000000033826a46845a536d3480a09afa93e8f7cd63ad62b7faf6cad0be7c50ee9fbf7b6c0e98df6255e4f3bdd707885e723416b7a303a1f862f8600101830249f094100000000000000000000000000000000000000080801ba0751c1d010c829a9a015b2f3610cd2a7b35e673d78c5714d967a569204f7984f4a0685472121ffea7a61a87980620e6a1ee31d72c13d3c519d52050e0de82b3b9a7c0",
                "transactions" : [
                    {
                        "data" : "",
                        "gasLimit" : "0x0249f0",
                        "gasPrice" : "0x01",
                        "nonce" : "0x01",
                        "r" : "0x751c1d010c829a9a015b2f3610cd2a7b35e673d78c5714d967a569204f7984f4",
                        "s" : "0x685472121ffea7a61a87980620e6a1ee31d72c13d3c519d52050e0de82b3b9a7",
                        "to" : "0x1000000000000000000000000000000000000000",
                        "v" : "0x1b",
                        "value" : "0x00"
                    }
                ],
                "uncleHeaders" : [
                ]
            }
        ],
        "genesisBlockHeader" : {
            "bloom" : "0x00000000000000000000000000000000000000000000000000000000000000000000000000000000000000000000000000000000000000000000000000000000000000000000000000000000000000000000000000000000000000000000000000000000000000000000000000000000000000000000000000000000000000000000000000000000000000000000000000000000000000000000000000000000000000000000000000000000000000000000000000000000000000000000000000000000000000000000000000000000000000000000000000000000000000000000000000000000000000000000000000000000000000000000000000000000",
            "coinbase" : "0x2adc25665018aa1fe0e6bc666dac8fc2697ff9ba",
            "difficulty" : "0x020000",
            "extraData" : "0x42",
            "gasLimit" : "0x7fffffffffffffff",
            "gasUsed" : "0x00",
            "hash" : "0x638c93ac9a70744774064a4a4d0f212962c527de64123d211e8ac93e94d07016",
            "mixHash" : "0x56e81f171bcc55a6ff8345e692c0f86e5b48e01b996cadc001622fb5e363b421",
            "nonce" : "0x0102030405060708",
            "number" : "0x00",
            "parentHash" : "0x0000000000000000000000000000000000000000000000000000000000000000",
            "receiptTrie" : "0x56e81f171bcc55a6ff8345e692c0f86e5b48e01b996cadc001622fb5e363b421",
            "stateRoot" : "0x69b0536ac7e71586442ecf42d9e46ade1978c2027ae3f04d69d07b3579bb3ed3",
            "timestamp" : "0x03b6",
            "transactionsTrie" : "0x56e81f171bcc55a6ff8345e692c0f86e5b48e01b996cadc001622fb5e363b421",
            "uncleHash" : "0x1dcc4de8dec75d7aab85b567b6ccd41ad312451b948a7413f0a142fd40d49347"
        },
        "genesisRLP" : "0xf901fff901faa00000000000000000000000000000000000000000000000000000000000000000a01dcc4de8dec75d7aab85b567b6ccd41ad312451b948a7413f0a142fd40d49347942adc25665018aa1fe0e6bc666dac8fc2697ff9baa069b0536ac7e71586442ecf42d9e46ade1978c2027ae3f04d69d07b3579bb3ed3a056e81f171bcc55a6ff8345e692c0f86e5b48e01b996cadc001622fb5e363b421a056e81f171bcc55a6ff8345e692c0f86e5b48e01b996cadc001622fb5e363b421b90100000000000000000000000000000000000000000000000000000000000000000000000000000000000000000000000000000000000000000000000000000000000000000000000000000000000000000000000000000000000000000000000000000000000000000000000000000000000000000000000000000000000000000000000000000000000000000000000000000000000000000000000000000000000000000000000000000000000000000000000000000000000000000000000000000000000000000000000000000000000000000000000000000000000000000000000000000000000000000000000000000000000000000000000000000000008302000080887fffffffffffffff808203b642a056e81f171bcc55a6ff8345e692c0f86e5b48e01b996cadc001622fb5e363b421880102030405060708c0c0",
        "lastblockhash" : "0x959e05a972e2e3140ae1cfea6637112f5c98b5548425c238c4aef12732464701",
        "network" : "Constantinople",
        "postState" : {
            "0x1000000000000000000000000000000000000000" : {
                "balance" : "0x00",
                "code" : "0x7310000000000000000000000000000000000000003140600155",
                "nonce" : "0x00",
                "storage" : {
                    "0x01" : "0x638c93ac9a70744774064a4a4d0f212962c527de64123d211e8ac93e94d07016"
                }
            },
            "0x1000000000000000000000000000000000000001" : {
                "balance" : "0x01",
                "code" : "0x7310000000000000000000000000000000000000013140600155",
                "nonce" : "0x00",
                "storage" : {
                }
            },
            "0x2adc25665018aa1fe0e6bc666dac8fc2697ff9ba" : {
                "balance" : "0x53444835ec590f24",
                "code" : "",
                "nonce" : "0x00",
                "storage" : {
                }
            },
            "0xa94f5374fce5edbc8e2a8697c15331677e6ebf0b" : {
                "balance" : "0x7ffffffffffef0db",
                "code" : "",
                "nonce" : "0x02",
                "storage" : {
                }
            }
        },
        "pre" : {
            "0x1000000000000000000000000000000000000000" : {
                "balance" : "0x00",
                "code" : "0x7310000000000000000000000000000000000000003140600155",
                "nonce" : "0x00",
                "storage" : {
                }
            },
            "0x1000000000000000000000000000000000000001" : {
                "balance" : "0x01",
                "code" : "0x7310000000000000000000000000000000000000013140600155",
                "nonce" : "0x00",
                "storage" : {
                }
            },
            "0xa94f5374fce5edbc8e2a8697c15331677e6ebf0b" : {
                "balance" : "0x7fffffffffffffff",
                "code" : "",
                "nonce" : "0x00",
                "storage" : {
                }
            }
        }
    }
}
