{
    "BLOCKHASH_Bounds_Byzantium" : {
        "_info" : {
            "comment" : "",
            "filledwith" : "cpp-1.3.0+commit.6e0ce939.Linux.g++",
            "lllcversion" : "Version: 0.4.18-develop.2017.9.25+commit.a72237f2.Linux.g++",
            "source" : "src/BlockchainTestsFiller/bcStateTests/BLOCKHASH_BoundsFiller.json",
            "sourceHash" : "6083fe9b53d35bbc90657b8469e4622c46981dcbc9a05b7bad31ab7be798a498"
        },
        "blocks" : [
            {
                "blockHeader" : {
                    "bloom" : "0x00000000000000000000000000000000000000000000000000000000000000000000000000000000000000000000000000000000000000000000000000000000000000000000000000000000000000000000000000000000000000000000000000000000000000000000000000000000000000000000000000000000000000000000000000000000000000000000000000000000000000000000000000000000000000000000000000000000000000000000000000000000000000000000000000000000000000000000000000000000000000000000000000000000000000000000000000000000000000000000000000000000000000000000000000000000",
                    "coinbase" : "0x2adc25665018aa1fe0e6bc666dac8fc2697ff9ba",
                    "difficulty" : "0x020000",
                    "extraData" : "",
                    "gasLimit" : "0x7fffffffffffffff",
                    "gasUsed" : "0x022f9c",
                    "hash" : "0x2bda3f5684b144a955a28a1ffdc2dae25e51603f685aae03d0fcc885184d568f",
                    "mixHash" : "0xb3aeb58d2a00a29c3f5791c069b567fe7faa5ae05c662cfc13a3326783b65fad",
                    "nonce" : "0x03f2e8c623582f07",
                    "number" : "0x01",
                    "parentHash" : "0xf7666415a06fe86f39a614be3e707683426ca0cec5a92ccce6664bebbe2ba55c",
                    "receiptTrie" : "0x9461ef32a449e195a70ffb749824e6f58a63c17fbef6738d5096638528555625",
                    "stateRoot" : "0x930b6edbe1369c1e948380a1e0b23c75e1a5ee80558fa0076b7a44ea09b952eb",
                    "timestamp" : "0x03e8",
                    "transactionsTrie" : "0xee43fc418be6b43209e9692e06c96b18ce47ed4e0be964cc1b2128567debc2dd",
                    "uncleHash" : "0x1dcc4de8dec75d7aab85b567b6ccd41ad312451b948a7413f0a142fd40d49347"
                },
                "rlp" : "0xf9032bf901fda0f7666415a06fe86f39a614be3e707683426ca0cec5a92ccce6664bebbe2ba55ca01dcc4de8dec75d7aab85b567b6ccd41ad312451b948a7413f0a142fd40d49347942adc25665018aa1fe0e6bc666dac8fc2697ff9baa0930b6edbe1369c1e948380a1e0b23c75e1a5ee80558fa0076b7a44ea09b952eba0ee43fc418be6b43209e9692e06c96b18ce47ed4e0be964cc1b2128567debc2dda09461ef32a449e195a70ffb749824e6f58a63c17fbef6738d5096638528555625b90100000000000000000000000000000000000000000000000000000000000000000000000000000000000000000000000000000000000000000000000000000000000000000000000000000000000000000000000000000000000000000000000000000000000000000000000000000000000000000000000000000000000000000000000000000000000000000000000000000000000000000000000000000000000000000000000000000000000000000000000000000000000000000000000000000000000000000000000000000000000000000000000000000000000000000000000000000000000000000000000000000000000000000000000000000000008302000001887fffffffffffffff83022f9c8203e880a0b3aeb58d2a00a29c3f5791c069b567fe7faa5ae05c662cfc13a3326783b65fad8803f2e8c623582f07f90127f8608001830249f094100000000000000000000000000000000000000001801ba0a8d69db5cc7b988975447a2e77fa471a04e8738915df60767b3104a95bf95c1aa030d6d7f9cd259c5937c46412312a382eabaf62794a7f6d6183891f864057feecf8608001830f424094100000000000000000000000000000000000000101801ba03e25058b9043ef9130f5423b04831a80989f086dacf5ff8468da47b0790086d7a04115beb874eee5f516fd60c91471249bde75186e260632ebf3567b7f05b3ea40f8618001840ee6b28094100000000000000000000000000000000000000201801ca0b4d82d934cb8d0b959b87a51e42cd51d560d24a71047b2127e78830404837662a00e7c42d2e4ce666564a232a4705cf6e43a2bcf29ecbd7db39a21484d01383e75c0",
                "transactions" : [
                    {
                        "data" : "",
                        "gasLimit" : "0x0249f0",
                        "gasPrice" : "0x01",
                        "nonce" : "0x00",
                        "r" : "0xa8d69db5cc7b988975447a2e77fa471a04e8738915df60767b3104a95bf95c1a",
                        "s" : "0x30d6d7f9cd259c5937c46412312a382eabaf62794a7f6d6183891f864057feec",
                        "to" : "0x1000000000000000000000000000000000000000",
                        "v" : "0x1b",
                        "value" : "0x01"
                    },
                    {
                        "data" : "",
                        "gasLimit" : "0x0f4240",
                        "gasPrice" : "0x01",
                        "nonce" : "0x00",
                        "r" : "0x3e25058b9043ef9130f5423b04831a80989f086dacf5ff8468da47b0790086d7",
                        "s" : "0x4115beb874eee5f516fd60c91471249bde75186e260632ebf3567b7f05b3ea40",
                        "to" : "0x1000000000000000000000000000000000000001",
                        "v" : "0x1b",
                        "value" : "0x01"
                    },
                    {
                        "data" : "",
                        "gasLimit" : "0x0ee6b280",
                        "gasPrice" : "0x01",
                        "nonce" : "0x00",
                        "r" : "0xb4d82d934cb8d0b959b87a51e42cd51d560d24a71047b2127e78830404837662",
                        "s" : "0x0e7c42d2e4ce666564a232a4705cf6e43a2bcf29ecbd7db39a21484d01383e75",
                        "to" : "0x1000000000000000000000000000000000000002",
                        "v" : "0x1c",
                        "value" : "0x01"
                    }
                ],
                "uncleHeaders" : [
                ]
            }
        ],
        "genesisBlockHeader" : {
            "bloom" : "0x00000000000000000000000000000000000000000000000000000000000000000000000000000000000000000000000000000000000000000000000000000000000000000000000000000000000000000000000000000000000000000000000000000000000000000000000000000000000000000000000000000000000000000000000000000000000000000000000000000000000000000000000000000000000000000000000000000000000000000000000000000000000000000000000000000000000000000000000000000000000000000000000000000000000000000000000000000000000000000000000000000000000000000000000000000000",
            "coinbase" : "0x2adc25665018aa1fe0e6bc666dac8fc2697ff9ba",
            "difficulty" : "0x020000",
            "extraData" : "0x42",
            "gasLimit" : "0x7fffffffffffffff",
            "gasUsed" : "0x00",
            "hash" : "0xf7666415a06fe86f39a614be3e707683426ca0cec5a92ccce6664bebbe2ba55c",
            "mixHash" : "0x56e81f171bcc55a6ff8345e692c0f86e5b48e01b996cadc001622fb5e363b421",
            "nonce" : "0x0102030405060708",
            "number" : "0x00",
            "parentHash" : "0x0000000000000000000000000000000000000000000000000000000000000000",
            "receiptTrie" : "0x56e81f171bcc55a6ff8345e692c0f86e5b48e01b996cadc001622fb5e363b421",
            "stateRoot" : "0xb8973de1e49b2791294aef552ead7d9fca219707572a9ce18a2a5b98f25bce4a",
            "timestamp" : "0x03b6",
            "transactionsTrie" : "0x56e81f171bcc55a6ff8345e692c0f86e5b48e01b996cadc001622fb5e363b421",
            "uncleHash" : "0x1dcc4de8dec75d7aab85b567b6ccd41ad312451b948a7413f0a142fd40d49347"
        },
        "genesisRLP" : "0xf901fff901faa00000000000000000000000000000000000000000000000000000000000000000a01dcc4de8dec75d7aab85b567b6ccd41ad312451b948a7413f0a142fd40d49347942adc25665018aa1fe0e6bc666dac8fc2697ff9baa0b8973de1e49b2791294aef552ead7d9fca219707572a9ce18a2a5b98f25bce4aa056e81f171bcc55a6ff8345e692c0f86e5b48e01b996cadc001622fb5e363b421a056e81f171bcc55a6ff8345e692c0f86e5b48e01b996cadc001622fb5e363b421b90100000000000000000000000000000000000000000000000000000000000000000000000000000000000000000000000000000000000000000000000000000000000000000000000000000000000000000000000000000000000000000000000000000000000000000000000000000000000000000000000000000000000000000000000000000000000000000000000000000000000000000000000000000000000000000000000000000000000000000000000000000000000000000000000000000000000000000000000000000000000000000000000000000000000000000000000000000000000000000000000000000000000000000000000000000000008302000080887fffffffffffffff808203b642a056e81f171bcc55a6ff8345e692c0f86e5b48e01b996cadc001622fb5e363b421880102030405060708c0c0",
        "lastblockhash" : "0x2bda3f5684b144a955a28a1ffdc2dae25e51603f685aae03d0fcc885184d568f",
        "network" : "Byzantium",
        "postState" : {
            "0x1000000000000000000000000000000000000000" : {
                "balance" : "0x01",
                "code" : "0x60004060005563ffffffff4060015567ffffffffffffffff406002556fffffffffffffffffffffffffffffffff406003557fffffffffffffffffffffffffffffffffffffffffffffffffffffffffffffffff40600455",
                "nonce" : "0x00",
                "storage" : {
                    "0x00" : "0xf7666415a06fe86f39a614be3e707683426ca0cec5a92ccce6664bebbe2ba55c"
                }
            },
            "0x1000000000000000000000000000000000000001" : {
                "balance" : "0x01",
                "code" : "0x60004060005563ffffffff4060015567ffffffffffffffff406002556fffffffffffffffffffffffffffffffff406003557fffffffffffffffffffffffffffffffffffffffffffffffffffffffffffffffff40600455",
                "nonce" : "0x00",
                "storage" : {
                    "0x00" : "0xf7666415a06fe86f39a614be3e707683426ca0cec5a92ccce6664bebbe2ba55c"
                }
            },
            "0x1000000000000000000000000000000000000002" : {
                "balance" : "0x01",
                "code" : "",
                "nonce" : "0x00",
                "storage" : {
                }
            },
            "0x118797674cc60c07ad39a824cecc53c29d803feb" : {
                "balance" : "0x7fffffffffffadf6",
                "code" : "",
                "nonce" : "0x01",
                "storage" : {
                }
            },
            "0x2adc25665018aa1fe0e6bc666dac8fc2697ff9ba" : {
                "balance" : "0x29a2241af62e2f9c",
                "code" : "",
                "nonce" : "0x00",
                "storage" : {
                }
            },
            "0x840c2083a4726e89c45df3387770b8fb55677229" : {
                "balance" : "0x7fffffffffff1134",
                "code" : "",
                "nonce" : "0x01",
                "storage" : {
                }
            },
            "0xa94f5374fce5edbc8e2a8697c15331677e6ebf0b" : {
                "balance" : "0x7fffffffffff1134",
                "code" : "",
                "nonce" : "0x01",
                "storage" : {
                }
            }
        },
        "pre" : {
            "0x1000000000000000000000000000000000000000" : {
                "balance" : "0x00",
                "code" : "0x60004060005563ffffffff4060015567ffffffffffffffff406002556fffffffffffffffffffffffffffffffff406003557fffffffffffffffffffffffffffffffffffffffffffffffffffffffffffffffff40600455",
                "nonce" : "0x00",
                "storage" : {
                }
            },
            "0x1000000000000000000000000000000000000001" : {
                "balance" : "0x00",
                "code" : "0x60004060005563ffffffff4060015567ffffffffffffffff406002556fffffffffffffffffffffffffffffffff406003557fffffffffffffffffffffffffffffffffffffffffffffffffffffffffffffffff40600455",
                "nonce" : "0x00",
                "storage" : {
                }
            },
            "0x118797674cc60c07ad39a824cecc53c29d803feb" : {
                "balance" : "0x7fffffffffffffff",
                "code" : "",
                "nonce" : "0x00",
                "storage" : {
                }
            },
            "0x840c2083a4726e89c45df3387770b8fb55677229" : {
                "balance" : "0x7fffffffffffffff",
                "code" : "",
                "nonce" : "0x00",
                "storage" : {
                }
            },
            "0xa94f5374fce5edbc8e2a8697c15331677e6ebf0b" : {
                "balance" : "0x7fffffffffffffff",
                "code" : "",
                "nonce" : "0x00",
                "storage" : {
                }
            }
        }
    }
}
