{
    "multimpleBalanceInstruction_Byzantium" : {
        "_info" : {
            "comment" : "",
            "filledwith" : "cpp-1.3.0+commit.6e0ce939.Linux.g++",
            "lllcversion" : "Version: 0.4.18-develop.2017.9.25+commit.a72237f2.Linux.g++",
            "source" : "src/BlockchainTestsFiller/bcStateTests/multimpleBalanceInstructionFiller.json",
            "sourceHash" : "2ef5b6e285a4d85a0bb82398c2878eea1b1129daea05ea9d05aab541b9e1a870"
        },
        "blocks" : [
            {
                "blockHeader" : {
                    "bloom" : "0x00000000000000000000000000000000000000000000000000000000000000000000000000000000000000000000000000000000000000000000000000000000000000000000000000000000000000000000000000000000000000000000000000000000000000000000000000000000000000000000000000000000000000000000000000000000000000000000000000000000000000000000000000000000000000000000000000000000000000000000000000000000000000000000000000000000000000000000000000000000000000000000000000000000000000000000000000000000000000000000000000000000000000000000000000000000",
                    "coinbase" : "0x8888f1f195afa192cfee860698584c030f4c9db1",
                    "difficulty" : "0x020000",
                    "extraData" : "",
                    "gasLimit" : "0x2fefba",
                    "gasUsed" : "0x016b66",
                    "hash" : "0x9da6eef2909ed27e69cf0dc0260902efa4820f542fc8139e7974f1e61f859d27",
                    "mixHash" : "0xeb68ed5d0fb53f6386d775ef2b2af8d85153af3b7e92adf74f3a35fe01e02403",
                    "nonce" : "0x39817924b9cf3f59",
                    "number" : "0x01",
                    "parentHash" : "0xe38bef3dadb98e856ea82c7e9813b76a6ec8d9cf60694dd65d800a1669c1a1fd",
                    "receiptTrie" : "0x4b33fa3c9c50b7b9a4500f5c0b1e71ab43362abc81c2cf31fd2b54acf7d750d8",
                    "stateRoot" : "0x6e6be3f633fe0399cb17a9d8238b988a39bd9ab3e0ac0820f4df705a1ee37536",
                    "timestamp" : "0x59d771c0",
                    "transactionsTrie" : "0x6fb77a9ddaa64a8e161b643d05533a4093f2be900ad06279b1b56b3bcee3b979",
                    "uncleHash" : "0x1dcc4de8dec75d7aab85b567b6ccd41ad312451b948a7413f0a142fd40d49347"
                },
                "rlp" : "0xf90262f901faa0e38bef3dadb98e856ea82c7e9813b76a6ec8d9cf60694dd65d800a1669c1a1fda01dcc4de8dec75d7aab85b567b6ccd41ad312451b948a7413f0a142fd40d49347948888f1f195afa192cfee860698584c030f4c9db1a06e6be3f633fe0399cb17a9d8238b988a39bd9ab3e0ac0820f4df705a1ee37536a06fb77a9ddaa64a8e161b643d05533a4093f2be900ad06279b1b56b3bcee3b979a04b33fa3c9c50b7b9a4500f5c0b1e71ab43362abc81c2cf31fd2b54acf7d750d8b90100000000000000000000000000000000000000000000000000000000000000000000000000000000000000000000000000000000000000000000000000000000000000000000000000000000000000000000000000000000000000000000000000000000000000000000000000000000000000000000000000000000000000000000000000000000000000000000000000000000000000000000000000000000000000000000000000000000000000000000000000000000000000000000000000000000000000000000000000000000000000000000000000000000000000000000000000000000000000000000000000000000000000000000000000000000008302000001832fefba83016b668459d771c080a0eb68ed5d0fb53f6386d775ef2b2af8d85153af3b7e92adf74f3a35fe01e024038839817924b9cf3f59f862f860800a830249f094095e7baea6a6c7c4c2dfeb977efac326af552d870a801ba0d42a045ac77a6d4676dd5fbc5104ed7471b6cef2465cfefaa52919b340f942a9a06e4d319aea79e45cde79d337e6edf849ceac505cab65dd41a572cab132d4dccac0",
                "transactions" : [
                    {
                        "data" : "",
                        "gasLimit" : "0x0249f0",
                        "gasPrice" : "0x0a",
                        "nonce" : "0x00",
                        "r" : "0xd42a045ac77a6d4676dd5fbc5104ed7471b6cef2465cfefaa52919b340f942a9",
                        "s" : "0x6e4d319aea79e45cde79d337e6edf849ceac505cab65dd41a572cab132d4dcca",
                        "to" : "0x095e7baea6a6c7c4c2dfeb977efac326af552d87",
                        "v" : "0x1b",
                        "value" : "0x0a"
                    }
                ],
                "uncleHeaders" : [
                ]
            },
            {
                "blockHeader" : {
                    "bloom" : "0x00000000000000000000000000000000000000000000000000000000000000000000000000000000000000000000000000000000000000000000000000000000000000000000000000000000000000000000000000000000000000000000000000000000000000000000000000000000000000000000000000000000000000000000000000000000000000000000000000000000000000000000000000000000000000000000000000000000000000000000000000000000000000000000000000000000000000000000000000000000000000000000000000000000000000000000000000000000000000000000000000000000000000000000000000000000",
                    "coinbase" : "0x8888f1f195afa192cfee860698584c030f4c9db1",
                    "difficulty" : "0x020040",
                    "extraData" : "",
                    "gasLimit" : "0x2fefba",
                    "gasUsed" : "0x02304c",
                    "hash" : "0x2f3a3f3af8f7cf21f644bb0fba82f178a372774bb374ae383f5ed243b5ca3a30",
                    "mixHash" : "0x3680f0d62871e842a8bc766390541906b1a7149320a8f546e155587325bd17cb",
                    "nonce" : "0x7e230f00c205ace3",
                    "number" : "0x02",
                    "parentHash" : "0x9da6eef2909ed27e69cf0dc0260902efa4820f542fc8139e7974f1e61f859d27",
                    "receiptTrie" : "0x9af1b05f3b250eb2110d221b758ef528310519c529c911a0127da79cff0c5793",
                    "stateRoot" : "0x0553d7350e6e6c0b9b06e287352e8c39db15c58b544791eb923c5ebf66d893d9",
                    "timestamp" : "0x59d771c1",
                    "transactionsTrie" : "0x0ec2a6fb4e8b6e9423d61e1f2f5144d628c59cfc0bcc98fe1f8d8fd4a6f6f35b",
                    "uncleHash" : "0x1dcc4de8dec75d7aab85b567b6ccd41ad312451b948a7413f0a142fd40d49347"
                },
                "rlp" : "0xf90264f901faa09da6eef2909ed27e69cf0dc0260902efa4820f542fc8139e7974f1e61f859d27a01dcc4de8dec75d7aab85b567b6ccd41ad312451b948a7413f0a142fd40d49347948888f1f195afa192cfee860698584c030f4c9db1a00553d7350e6e6c0b9b06e287352e8c39db15c58b544791eb923c5ebf66d893d9a00ec2a6fb4e8b6e9423d61e1f2f5144d628c59cfc0bcc98fe1f8d8fd4a6f6f35ba09af1b05f3b250eb2110d221b758ef528310519c529c911a0127da79cff0c5793b90100000000000000000000000000000000000000000000000000000000000000000000000000000000000000000000000000000000000000000000000000000000000000000000000000000000000000000000000000000000000000000000000000000000000000000000000000000000000000000000000000000000000000000000000000000000000000000000000000000000000000000000000000000000000000000000000000000000000000000000000000000000000000000000000000000000000000000000000000000000000000000000000000000000000000000000000000000000000000000000000000000000000000000000000000000000008302004002832fefba8302304c8459d771c180a03680f0d62871e842a8bc766390541906b1a7149320a8f546e155587325bd17cb887e230f00c205ace3f864f862010a830249f094195e7baea6a6c7c4c2dfeb977efac326af552d878203e8801ba06d01fca31ce3065aac598e12f6cee26f63f9162a0ff86ff3bbadf6099c7531dca06d33d52ce23c9fcd69179690e21de794371a38940a590f32f8570eddfd926e71c0",
                "transactions" : [
                    {
                        "data" : "",
                        "gasLimit" : "0x0249f0",
                        "gasPrice" : "0x0a",
                        "nonce" : "0x01",
                        "r" : "0x6d01fca31ce3065aac598e12f6cee26f63f9162a0ff86ff3bbadf6099c7531dc",
                        "s" : "0x6d33d52ce23c9fcd69179690e21de794371a38940a590f32f8570eddfd926e71",
                        "to" : "0x195e7baea6a6c7c4c2dfeb977efac326af552d87",
                        "v" : "0x1b",
                        "value" : "0x03e8"
                    }
                ],
                "uncleHeaders" : [
                ]
            }
        ],
        "genesisBlockHeader" : {
            "bloom" : "0x00000000000000000000000000000000000000000000000000000000000000000000000000000000000000000000000000000000000000000000000000000000000000000000000000000000000000000000000000000000000000000000000000000000000000000000000000000000000000000000000000000000000000000000000000000000000000000000000000000000000000000000000000000000000000000000000000000000000000000000000000000000000000000000000000000000000000000000000000000000000000000000000000000000000000000000000000000000000000000000000000000000000000000000000000000000",
            "coinbase" : "0x8888f1f195afa192cfee860698584c030f4c9db1",
            "difficulty" : "0x020000",
            "extraData" : "0x42",
            "gasLimit" : "0x2fefd8",
            "gasUsed" : "0x00",
            "hash" : "0xe38bef3dadb98e856ea82c7e9813b76a6ec8d9cf60694dd65d800a1669c1a1fd",
            "mixHash" : "0x56e81f171bcc55a6ff8345e692c0f86e5b48e01b996cadc001622fb5e363b421",
            "nonce" : "0x0102030405060708",
            "number" : "0x00",
            "parentHash" : "0x0000000000000000000000000000000000000000000000000000000000000000",
            "receiptTrie" : "0x56e81f171bcc55a6ff8345e692c0f86e5b48e01b996cadc001622fb5e363b421",
            "stateRoot" : "0xf403922bfd555a9223f68fc755564004e20d78bb42aae647e867e3b23c48beba",
            "timestamp" : "0x54c98c81",
            "transactionsTrie" : "0x56e81f171bcc55a6ff8345e692c0f86e5b48e01b996cadc001622fb5e363b421",
            "uncleHash" : "0x1dcc4de8dec75d7aab85b567b6ccd41ad312451b948a7413f0a142fd40d49347"
        },
        "genesisRLP" : "0xf901fcf901f7a00000000000000000000000000000000000000000000000000000000000000000a01dcc4de8dec75d7aab85b567b6ccd41ad312451b948a7413f0a142fd40d49347948888f1f195afa192cfee860698584c030f4c9db1a0f403922bfd555a9223f68fc755564004e20d78bb42aae647e867e3b23c48bebaa056e81f171bcc55a6ff8345e692c0f86e5b48e01b996cadc001622fb5e363b421a056e81f171bcc55a6ff8345e692c0f86e5b48e01b996cadc001622fb5e363b421b90100000000000000000000000000000000000000000000000000000000000000000000000000000000000000000000000000000000000000000000000000000000000000000000000000000000000000000000000000000000000000000000000000000000000000000000000000000000000000000000000000000000000000000000000000000000000000000000000000000000000000000000000000000000000000000000000000000000000000000000000000000000000000000000000000000000000000000000000000000000000000000000000000000000000000000000000000000000000000000000000000000000000000000000000000000000008302000080832fefd8808454c98c8142a056e81f171bcc55a6ff8345e692c0f86e5b48e01b996cadc001622fb5e363b421880102030405060708c0c0",
        "lastblockhash" : "0x2f3a3f3af8f7cf21f644bb0fba82f178a372774bb374ae383f5ed243b5ca3a30",
        "network" : "Byzantium",
        "postState" : {
            "0x095e7baea6a6c7c4c2dfeb977efac326af552d87" : {
                "balance" : "0x0186aa",
                "code" : "0x73a94f5374fce5edbc8e2a8697c15331677e6ebf0b31600055738888f1f195afa192cfee860698584c030f4c9db13160015573a94f5374fce5edbc8e2a8697c15331677e6ebf0b31600255738888f1f195afa192cfee860698584c030f4c9db13160035573095e7baea6a6c7c4c2dfeb977efac326af552d8731600555",
                "nonce" : "0x00",
                "storage" : {
                    "0x00" : "0x17485b3218",
                    "0x02" : "0x17485b3218",
                    "0x05" : "0x0186aa"
                }
            },
            "0x195e7baea6a6c7c4c2dfeb977efac326af552d87" : {
                "balance" : "0x018a88",
                "code" : "0x73a94f5374fce5edbc8e2a8697c15331677e6ebf0b31600055738888f1f195afa192cfee860698584c030f4c9db13160015573a94f5374fce5edbc8e2a8697c15331677e6ebf0b31600255738888f1f195afa192cfee860698584c030f4c9db13160035573095e7baea6a6c7c4c2dfeb977efac326af552d873160045573195e7baea6a6c7c4c2dfeb977efac326af552d8731600555",
                "nonce" : "0x00",
                "storage" : {
                    "0x00" : "0x17484cfc34",
                    "0x01" : "0x29a2241af63a31fc",
                    "0x02" : "0x17484cfc34",
                    "0x03" : "0x29a2241af63a31fc",
                    "0x04" : "0x0186aa",
                    "0x05" : "0x018a88"
                }
            },
            "0x8888f1f195afa192cfee860698584c030f4c9db1" : {
                "balance" : "0x53444835ec7c14f4",
                "code" : "",
                "nonce" : "0x00",
                "storage" : {
                }
            },
            "0xa94f5374fce5edbc8e2a8697c15331677e6ebf0b" : {
                "balance" : "0x17484dfc9c",
                "code" : "",
                "nonce" : "0x02",
                "storage" : {
                }
            }
        },
        "pre" : {
            "0x095e7baea6a6c7c4c2dfeb977efac326af552d87" : {
                "balance" : "0x0186a0",
                "code" : "0x73a94f5374fce5edbc8e2a8697c15331677e6ebf0b31600055738888f1f195afa192cfee860698584c030f4c9db13160015573a94f5374fce5edbc8e2a8697c15331677e6ebf0b31600255738888f1f195afa192cfee860698584c030f4c9db13160035573095e7baea6a6c7c4c2dfeb977efac326af552d8731600555",
                "nonce" : "0x00",
                "storage" : {
                }
            },
            "0x195e7baea6a6c7c4c2dfeb977efac326af552d87" : {
                "balance" : "0x0186a0",
                "code" : "0x73a94f5374fce5edbc8e2a8697c15331677e6ebf0b31600055738888f1f195afa192cfee860698584c030f4c9db13160015573a94f5374fce5edbc8e2a8697c15331677e6ebf0b31600255738888f1f195afa192cfee860698584c030f4c9db13160035573095e7baea6a6c7c4c2dfeb977efac326af552d873160045573195e7baea6a6c7c4c2dfeb977efac326af552d8731600555",
                "nonce" : "0x00",
                "storage" : {
                }
            },
            "0xa94f5374fce5edbc8e2a8697c15331677e6ebf0b" : {
                "balance" : "0x1748721582",
                "code" : "",
                "nonce" : "0x00",
                "storage" : {
                }
            }
        }
    }
}
