{
    "suicideCoinbase_Byzantium" : {
        "_info" : {
            "comment" : "",
            "filledwith" : "cpp-1.3.0+commit.6e0ce939.Linux.g++",
            "lllcversion" : "Version: 0.4.18-develop.2017.9.25+commit.a72237f2.Linux.g++",
            "source" : "src/BlockchainTestsFiller/bcStateTests/suicideCoinbaseFiller.json",
            "sourceHash" : "03c4ed98f80817688e0388283f65a1c96b7e850c98ba4ea2a76dfec7819c0f5c"
        },
        "blocks" : [
            {
                "blockHeader" : {
                    "bloom" : "0x00000000000000000000000000000000000000000000000000000000000000000000000000000000000000000000000000000000000000000000000000000000000000000000000000000000000000000000000000000000000000000000000000000000000000000000000000000000000000000000000000000000000000000000000000000000000000000000000000000000000000000000000000000000000000000000000000000000000000000000000000000000000000000000000000000000000000000000000000000000000000000000000000000000000000000000000000000000000000000000000000000000000000000000000000000000",
                    "coinbase" : "0x8888f1f195afa192cfee860698584c030f4c9db1",
                    "difficulty" : "0x020000",
                    "extraData" : "",
                    "gasLimit" : "0x2fefba",
                    "gasUsed" : "0xd78b",
                    "hash" : "0x279cf4ea1968c9912df4c80f4085b7a3fd2fc5dc86e53cda330beb8dcc5d419e",
                    "mixHash" : "0x9b8d9374995e326edce76c53fc96679ae4da2330beea94f8f98d415f48da4b8b",
                    "nonce" : "0x4246e7910c211bd7",
                    "number" : "0x01",
                    "parentHash" : "0xaff00eb20f8a48450b9ea5307e2737287854f357c9022280772e995cc22affd3",
                    "receiptTrie" : "0xbfdc5b2625b36e6ec90c187f8613616313206a2f68381dd6ed415639b72d225d",
                    "stateRoot" : "0x6f77466c3c462f4d649b127848efa8ba5b891c2c1f321a90551513a2b68c1def",
                    "timestamp" : "0x59d77261",
                    "transactionsTrie" : "0xfcfe9f2203bd98342867117fa3de299a09578371efd04fc9e76a46f7f1fda4bb",
                    "uncleHash" : "0x1dcc4de8dec75d7aab85b567b6ccd41ad312451b948a7413f0a142fd40d49347"
                },
                "rlp" : "0xf9032ef901f9a0aff00eb20f8a48450b9ea5307e2737287854f357c9022280772e995cc22affd3a01dcc4de8dec75d7aab85b567b6ccd41ad312451b948a7413f0a142fd40d49347948888f1f195afa192cfee860698584c030f4c9db1a06f77466c3c462f4d649b127848efa8ba5b891c2c1f321a90551513a2b68c1defa0fcfe9f2203bd98342867117fa3de299a09578371efd04fc9e76a46f7f1fda4bba0bfdc5b2625b36e6ec90c187f8613616313206a2f68381dd6ed415639b72d225db90100000000000000000000000000000000000000000000000000000000000000000000000000000000000000000000000000000000000000000000000000000000000000000000000000000000000000000000000000000000000000000000000000000000000000000000000000000000000000000000000000000000000000000000000000000000000000000000000000000000000000000000000000000000000000000000000000000000000000000000000000000000000000000000000000000000000000000000000000000000000000000000000000000000000000000000000000000000000000000000000000000000000000000000000000000000008302000001832fefba82d78b8459d7726180a09b8d9374995e326edce76c53fc96679ae4da2330beea94f8f98d415f48da4b8b884246e7910c211bd7f9012ef866800a8307a120948888f1f195afa192cfee860698584c030f4c9db18203e9840c55699c1ba091fc4c402ced19b984e953546d3fc786c46a79c9f0c7918b8f3343dc529ef0e5a0546d89230c90ca8bf7988a826430d4771ab3a67cc0f3cb8019d67ab10ec10524f861010a82c3509400000000000000000000000000000000000000008203e8801ba0b03ab16ed211bf447ac030216ab088f18367ee51303545d2957990e9d3a28f10a07f18dd055139f7ac5558997b80ccae799ab6fbad2326799db509a9d4e5a52d72f861020a82c3509400000000000000000000000000000000000000008203ea801ba00925abd1221d388622138f4bae46803313f297001e96fec22dc4268fca5b5a82a055cd8142bcec39f80b359aa089f6a70568d23a67048026703981fad9339ef5d4c0",
                "transactions" : [
                    {
                        "data" : "0x0c55699c",
                        "gasLimit" : "0x07a120",
                        "gasPrice" : "0x0a",
                        "nonce" : "0x00",
                        "r" : "0x91fc4c402ced19b984e953546d3fc786c46a79c9f0c7918b8f3343dc529ef0e5",
                        "s" : "0x546d89230c90ca8bf7988a826430d4771ab3a67cc0f3cb8019d67ab10ec10524",
                        "to" : "0x8888f1f195afa192cfee860698584c030f4c9db1",
                        "v" : "0x1b",
                        "value" : "0x03e9"
                    },
                    {
                        "data" : "",
                        "gasLimit" : "0xc350",
                        "gasPrice" : "0x0a",
                        "nonce" : "0x01",
                        "r" : "0xb03ab16ed211bf447ac030216ab088f18367ee51303545d2957990e9d3a28f10",
                        "s" : "0x7f18dd055139f7ac5558997b80ccae799ab6fbad2326799db509a9d4e5a52d72",
                        "to" : "0x0000000000000000000000000000000000000000",
                        "v" : "0x1b",
                        "value" : "0x03e8"
                    },
                    {
                        "data" : "",
                        "gasLimit" : "0xc350",
                        "gasPrice" : "0x0a",
                        "nonce" : "0x02",
                        "r" : "0x0925abd1221d388622138f4bae46803313f297001e96fec22dc4268fca5b5a82",
                        "s" : "0x55cd8142bcec39f80b359aa089f6a70568d23a67048026703981fad9339ef5d4",
                        "to" : "0x0000000000000000000000000000000000000000",
                        "v" : "0x1b",
                        "value" : "0x03ea"
                    }
                ],
                "uncleHeaders" : [
                ]
            }
        ],
        "genesisBlockHeader" : {
            "bloom" : "0x00000000000000000000000000000000000000000000000000000000000000000000000000000000000000000000000000000000000000000000000000000000000000000000000000000000000000000000000000000000000000000000000000000000000000000000000000000000000000000000000000000000000000000000000000000000000000000000000000000000000000000000000000000000000000000000000000000000000000000000000000000000000000000000000000000000000000000000000000000000000000000000000000000000000000000000000000000000000000000000000000000000000000000000000000000000",
            "coinbase" : "0x8888f1f195afa192cfee860698584c030f4c9db1",
            "difficulty" : "0x020000",
            "extraData" : "0x42",
            "gasLimit" : "0x2fefd8",
            "gasUsed" : "0x00",
            "hash" : "0xaff00eb20f8a48450b9ea5307e2737287854f357c9022280772e995cc22affd3",
            "mixHash" : "0x56e81f171bcc55a6ff8345e692c0f86e5b48e01b996cadc001622fb5e363b421",
            "nonce" : "0x0102030405060708",
            "number" : "0x00",
            "parentHash" : "0x0000000000000000000000000000000000000000000000000000000000000000",
            "receiptTrie" : "0x56e81f171bcc55a6ff8345e692c0f86e5b48e01b996cadc001622fb5e363b421",
            "stateRoot" : "0x4941fba20142b10d43d0a893dfa4f5eedcbcb4b55c8554efd71e226624d9b37c",
            "timestamp" : "0x54c98c81",
            "transactionsTrie" : "0x56e81f171bcc55a6ff8345e692c0f86e5b48e01b996cadc001622fb5e363b421",
            "uncleHash" : "0x1dcc4de8dec75d7aab85b567b6ccd41ad312451b948a7413f0a142fd40d49347"
        },
        "genesisRLP" : "0xf901fcf901f7a00000000000000000000000000000000000000000000000000000000000000000a01dcc4de8dec75d7aab85b567b6ccd41ad312451b948a7413f0a142fd40d49347948888f1f195afa192cfee860698584c030f4c9db1a04941fba20142b10d43d0a893dfa4f5eedcbcb4b55c8554efd71e226624d9b37ca056e81f171bcc55a6ff8345e692c0f86e5b48e01b996cadc001622fb5e363b421a056e81f171bcc55a6ff8345e692c0f86e5b48e01b996cadc001622fb5e363b421b90100000000000000000000000000000000000000000000000000000000000000000000000000000000000000000000000000000000000000000000000000000000000000000000000000000000000000000000000000000000000000000000000000000000000000000000000000000000000000000000000000000000000000000000000000000000000000000000000000000000000000000000000000000000000000000000000000000000000000000000000000000000000000000000000000000000000000000000000000000000000000000000000000000000000000000000000000000000000000000000000000000000000000000000000000000000008302000080832fefd8808454c98c8142a056e81f171bcc55a6ff8345e692c0f86e5b48e01b996cadc001622fb5e363b421880102030405060708c0c0",
        "lastblockhash" : "0x279cf4ea1968c9912df4c80f4085b7a3fd2fc5dc86e53cda330beb8dcc5d419e",
        "network" : "Byzantium",
        "postState" : {
            "0x0000000000000000000000000000000000000000" : {
                "balance" : "0x07d2",
                "code" : "",
                "nonce" : "0x00",
                "storage" : {
                }
            },
            "0x8888f1f195afa192cfee860698584c030f4c9db1" : {
                "balance" : "0x29a2241af63268a0",
                "code" : "",
                "nonce" : "0x00",
                "storage" : {
                }
            },
            "0xa94f5374fce5edbc8e2a8697c15331677e6ebf0b" : {
                "balance" : "0x02540374a8",
                "code" : "",
                "nonce" : "0x03",
                "storage" : {
                }
            }
        },
        "pre" : {
            "0x8888f1f195afa192cfee860698584c030f4c9db1" : {
                "balance" : "0x03e8",
                "code" : "0x60606040526000357c0100000000000000000000000000000000000000000000000000000000900480630c55699c146037576035565b005b60406004506042565b005b3373ffffffffffffffffffffffffffffffffffffffff16ff5b56",
                "nonce" : "0x00",
                "storage" : {
                }
            },
            "0xa94f5374fce5edbc8e2a8697c15331677e6ebf0b" : {
                "balance" : "0x02540be400",
                "code" : "",
                "nonce" : "0x00",
                "storage" : {
                }
            }
        }
    }
}
