{
    "dataTx2_Byzantium" : {
        "_info" : {
            "comment" : "",
            "filledwith" : "cpp-1.3.0+commit.6e0ce939.Linux.g++",
            "lllcversion" : "Version: 0.4.18-develop.2017.9.25+commit.a72237f2.Linux.g++",
            "source" : "src/BlockchainTestsFiller/bcValidBlockTest/dataTx2Filler.json",
            "sourceHash" : "da7430053f89d824bc5eeba6c5bf5194c69278ec3d3b6eee141e20554b34cc35"
        },
        "blocks" : [
            {
                "blockHeader" : {
                    "bloom" : "0x00000000000000000000000000000000000000000000000000000000000000000000000000000000000000000000000000000000000000000000000000000000000000000000000000000000000000000000000000000000000000000000000000000000000000000000000000000000000000000000000000000000000000000000000000000000000000000000000000000000000000000000000000000000000000000000000000000000000000000000000000000000000000000000000000000000000000000000000000000000000000000000000000000000000000000000000000000000000000000000000000000000000000000000000000000000",
                    "coinbase" : "0x8888f1f195afa192cfee860698584c030f4c9db1",
                    "difficulty" : "0x020000",
                    "extraData" : "",
                    "gasLimit" : "0x2fefba",
                    "gasUsed" : "0x0186a0",
                    "hash" : "0x05cf17ea3801444d509ffecf426fd2bd27abd1df3d9769accc06fe08a5cad463",
                    "mixHash" : "0x6a53b82799dac4a0a0e9e9b8d2475585651d25a491c0da594f2e7a41908cba6d",
                    "nonce" : "0x7a0f1dbcdd9cc12c",
                    "number" : "0x01",
                    "parentHash" : "0x636aff25807a6331b7c9a8e4c984f3f8e38d7608adf34ee801f5265ca4fe19ac",
                    "receiptTrie" : "0x777f1c1c378807634128348e4f0eeca6a0e7f516ea411690ca04266323f671a4",
                    "stateRoot" : "0xce92899e3ea7ad39bfa5148b4be21c21d7582652aa6cc4c0d1cde39a10041c94",
                    "timestamp" : "0x59d776f2",
                    "transactionsTrie" : "0x02c56753744d1f68550540c286b9b349d3cfca065bf1a087da62ac06057ff7f8",
                    "uncleHash" : "0x1dcc4de8dec75d7aab85b567b6ccd41ad312451b948a7413f0a142fd40d49347"
                },
                "rlp" : "0xf90400f901faa0636aff25807a6331b7c9a8e4c984f3f8e38d7608adf34ee801f5265ca4fe19aca01dcc4de8dec75d7aab85b567b6ccd41ad312451b948a7413f0a142fd40d49347948888f1f195afa192cfee860698584c030f4c9db1a0ce92899e3ea7ad39bfa5148b4be21c21d7582652aa6cc4c0d1cde39a10041c94a002c56753744d1f68550540c286b9b349d3cfca065bf1a087da62ac06057ff7f8a0777f1c1c378807634128348e4f0eeca6a0e7f516ea411690ca04266323f671a4b90100000000000000000000000000000000000000000000000000000000000000000000000000000000000000000000000000000000000000000000000000000000000000000000000000000000000000000000000000000000000000000000000000000000000000000000000000000000000000000000000000000000000000000000000000000000000000000000000000000000000000000000000000000000000000000000000000000000000000000000000000000000000000000000000000000000000000000000000000000000000000000000000000000000000000000000000000000000000000000000000000000000000000000000000000000000008302000001832fefba830186a08459d776f280a06a53b82799dac4a0a0e9e9b8d2475585651d25a491c0da594f2e7a41908cba6d887a0f1dbcdd9cc12cf901fff901fc8032830186a08080b901ae60056013565b6101918061001d6000396000f35b3360008190555056006001600060e060020a6000350480630a874df61461003a57806341c0e1b514610058578063a02b161e14610066578063dbbdf0831461007757005b610045600435610149565b80600160a060020a031660005260206000f35b610060610161565b60006000f35b6100716004356100d4565b60006000f35b61008560043560243561008b565b60006000f35b600054600160a060020a031632600160a060020a031614156100ac576100b1565b6100d0565b8060018360005260205260406000208190555081600060005260206000a15b5050565b600054600160a060020a031633600160a060020a031614158015610118575033600160a060020a0316600182600052602052604060002054600160a060020a031614155b61012157610126565b610146565b600060018260005260205260406000208190555080600060005260206000a15b50565b60006001826000526020526040600020549050919050565b600054600160a060020a031633600160a060020a0316146101815761018f565b600054600160a060020a0316ff5b561ba0468a915f087692bb9be503831a3dfef2cf9c8dee26deb40ff2ec99e8d22665aea05cedae0810c3851ecd1004bfdbfe6ddc7753c2d665993bb01ce75af7857b13dcc0",
                "transactions" : [
                    {
                        "data" : "0x60056013565b6101918061001d6000396000f35b3360008190555056006001600060e060020a6000350480630a874df61461003a57806341c0e1b514610058578063a02b161e14610066578063dbbdf0831461007757005b610045600435610149565b80600160a060020a031660005260206000f35b610060610161565b60006000f35b6100716004356100d4565b60006000f35b61008560043560243561008b565b60006000f35b600054600160a060020a031632600160a060020a031614156100ac576100b1565b6100d0565b8060018360005260205260406000208190555081600060005260206000a15b5050565b600054600160a060020a031633600160a060020a031614158015610118575033600160a060020a0316600182600052602052604060002054600160a060020a031614155b61012157610126565b610146565b600060018260005260205260406000208190555080600060005260206000a15b50565b60006001826000526020526040600020549050919050565b600054600160a060020a031633600160a060020a0316146101815761018f565b600054600160a060020a0316ff5b56",
                        "gasLimit" : "0x0186a0",
                        "gasPrice" : "0x32",
                        "nonce" : "0x00",
                        "r" : "0x468a915f087692bb9be503831a3dfef2cf9c8dee26deb40ff2ec99e8d22665ae",
                        "s" : "0x5cedae0810c3851ecd1004bfdbfe6ddc7753c2d665993bb01ce75af7857b13dc",
                        "to" : "",
                        "v" : "0x1b",
                        "value" : "0x00"
                    }
                ],
                "uncleHeaders" : [
                ]
            }
        ],
        "genesisBlockHeader" : {
            "bloom" : "0x00000000000000000000000000000000000000000000000000000000000000000000000000000000000000000000000000000000000000000000000000000000000000000000000000000000000000000000000000000000000000000000000000000000000000000000000000000000000000000000000000000000000000000000000000000000000000000000000000000000000000000000000000000000000000000000000000000000000000000000000000000000000000000000000000000000000000000000000000000000000000000000000000000000000000000000000000000000000000000000000000000000000000000000000000000000",
            "coinbase" : "0x8888f1f195afa192cfee860698584c030f4c9db1",
            "difficulty" : "0x020000",
            "extraData" : "0x42",
            "gasLimit" : "0x2fefd8",
            "gasUsed" : "0x64",
            "hash" : "0x636aff25807a6331b7c9a8e4c984f3f8e38d7608adf34ee801f5265ca4fe19ac",
            "mixHash" : "0x56e81f171bcc55a6ff8345e692c0f86e5b48e01b996cadc001622fb5e363b421",
            "nonce" : "0x0102030405060708",
            "number" : "0x00",
            "parentHash" : "0x0000000000000000000000000000000000000000000000000000000000000000",
            "receiptTrie" : "0x56e81f171bcc55a6ff8345e692c0f86e5b48e01b996cadc001622fb5e363b421",
            "stateRoot" : "0xcafd881ab193703b83816c49ff6c2bf6ba6f464a1be560c42106128c8dbc35e7",
            "timestamp" : "0x54c98c81",
            "transactionsTrie" : "0x56e81f171bcc55a6ff8345e692c0f86e5b48e01b996cadc001622fb5e363b421",
            "uncleHash" : "0x1dcc4de8dec75d7aab85b567b6ccd41ad312451b948a7413f0a142fd40d49347"
        },
        "genesisRLP" : "0xf901fcf901f7a00000000000000000000000000000000000000000000000000000000000000000a01dcc4de8dec75d7aab85b567b6ccd41ad312451b948a7413f0a142fd40d49347948888f1f195afa192cfee860698584c030f4c9db1a0cafd881ab193703b83816c49ff6c2bf6ba6f464a1be560c42106128c8dbc35e7a056e81f171bcc55a6ff8345e692c0f86e5b48e01b996cadc001622fb5e363b421a056e81f171bcc55a6ff8345e692c0f86e5b48e01b996cadc001622fb5e363b421b90100000000000000000000000000000000000000000000000000000000000000000000000000000000000000000000000000000000000000000000000000000000000000000000000000000000000000000000000000000000000000000000000000000000000000000000000000000000000000000000000000000000000000000000000000000000000000000000000000000000000000000000000000000000000000000000000000000000000000000000000000000000000000000000000000000000000000000000000000000000000000000000000000000000000000000000000000000000000000000000000000000000000000000000000000000000008302000080832fefd8648454c98c8142a056e81f171bcc55a6ff8345e692c0f86e5b48e01b996cadc001622fb5e363b421880102030405060708c0c0",
        "lastblockhash" : "0x05cf17ea3801444d509ffecf426fd2bd27abd1df3d9769accc06fe08a5cad463",
        "network" : "Byzantium",
        "postState" : {
            "0x8888f1f195afa192cfee860698584c030f4c9db1" : {
                "balance" : "0x29a2241af6784b40",
                "code" : "",
                "nonce" : "0x00",
                "storage" : {
                }
            },
            "0xa94f5374fce5edbc8e2a8697c15331677e6ebf0b" : {
                "balance" : "0x0253bf98c0",
                "code" : "",
                "nonce" : "0x01",
                "storage" : {
                }
            }
        },
        "pre" : {
            "0xa94f5374fce5edbc8e2a8697c15331677e6ebf0b" : {
                "balance" : "0x02540be400",
                "code" : "",
                "nonce" : "0x00",
                "storage" : {
                }
            }
        }
    }
}
