{
    "highGasUsage_Byzantium" : {
        "_info" : {
            "comment" : "",
            "filledwith" : "cpp-1.3.0+commit.6e0ce939.Linux.g++",
            "lllcversion" : "Version: 0.4.18-develop.2017.9.25+commit.a72237f2.Linux.g++",
            "source" : "src/BlockchainTestsFiller/bcGasPricerTest/highGasUsageFiller.json",
            "sourceHash" : "5a1f96866fb1d36c359c26a43c8a52aa475b57d31ab0d7d378f15f74431fc7ad"
        },
        "blocks" : [
            {
                "blockHeader" : {
                    "bloom" : "0x00000000000000000000000000000000000000000000000000000000000000000000000000000000000000000000000000000000000000000000000000000000000000000000000000000000000000000000000000000000000000000000000000000000000000000000000000000000000000000000000000000000000000000000000000000000000000000000000000000000000000000000000000000000000000000000000000000000000000000000000000000000000000000000000000000000000000000000000000000000000000000000000000000000000000000000000000000000000000000000000000000000000000000000000000000000",
                    "coinbase" : "0x8888f1f195afa192cfee860698584c030f4c9db1",
                    "difficulty" : "0x020000",
                    "extraData" : "",
                    "gasLimit" : "0x01dee69a",
                    "gasUsed" : "0x53a0",
                    "hash" : "0xa36017dde8271856d5afd8eb312635b0040efb03bd1f526575f7f67333a169c8",
                    "mixHash" : "0xc79c35a668c3d5726eb4865056985129d289a7b69dadf7547afd66c1d16e0bda",
                    "nonce" : "0x7b9c36240d72fbb3",
                    "number" : "0x01",
                    "parentHash" : "0x77b486355f28180f65accb3be55e117aafb307e1ea2d05e92691876998752d83",
                    "receiptTrie" : "0x5782169ebc489f825f674f12f6e144b21e2c243fde3efc10121bef02c076ad8f",
                    "stateRoot" : "0x02f8193e4effff57c4e3cc55a309c6a0ff4cbe33e7bf6fc19ec1aa4bbc3999bf",
                    "timestamp" : "0x59d66667",
                    "transactionsTrie" : "0xbdb25a2e5860522e943625b58a5429571aaf3123038ffff0922fe58753e51b83",
                    "uncleHash" : "0x1dcc4de8dec75d7aab85b567b6ccd41ad312451b948a7413f0a142fd40d49347"
                },
                "rlp" : "0xf9026ef901faa077b486355f28180f65accb3be55e117aafb307e1ea2d05e92691876998752d83a01dcc4de8dec75d7aab85b567b6ccd41ad312451b948a7413f0a142fd40d49347948888f1f195afa192cfee860698584c030f4c9db1a002f8193e4effff57c4e3cc55a309c6a0ff4cbe33e7bf6fc19ec1aa4bbc3999bfa0bdb25a2e5860522e943625b58a5429571aaf3123038ffff0922fe58753e51b83a05782169ebc489f825f674f12f6e144b21e2c243fde3efc10121bef02c076ad8fb901000000000000000000000000000000000000000000000000000000000000000000000000000000000000000000000000000000000000000000000000000000000000000000000000000000000000000000000000000000000000000000000000000000000000000000000000000000000000000000000000000000000000000000000000000000000000000000000000000000000000000000000000000000000000000000000000000000000000000000000000000000000000000000000000000000000000000000000000000000000000000000000000000000000000000000000000000000000000000000000000000000000000000000000000000000000083020000018401dee69a8253a08459d6666780a0c79c35a668c3d5726eb4865056985129d289a7b69dadf7547afd66c1d16e0bda887b9c36240d72fbb3f86ef86c808609184e72a000830cf85094095e7baea6a6c7c4c2dfeb977efac326af552d870a86ffffffffffff1ca019b72b9fb71e156dc46b934987514054bf7c6ba1b3f0030a2645d31d51f92979a01f60971cd6a647c763d70e81fbd3fdc8ad1c9a2b93771397040c2842042ae10dc0",
                "transactions" : [
                    {
                        "data" : "0xffffffffffff",
                        "gasLimit" : "0x0cf850",
                        "gasPrice" : "0x09184e72a000",
                        "nonce" : "0x00",
                        "r" : "0x19b72b9fb71e156dc46b934987514054bf7c6ba1b3f0030a2645d31d51f92979",
                        "s" : "0x1f60971cd6a647c763d70e81fbd3fdc8ad1c9a2b93771397040c2842042ae10d",
                        "to" : "0x095e7baea6a6c7c4c2dfeb977efac326af552d87",
                        "v" : "0x1c",
                        "value" : "0x0a"
                    }
                ],
                "uncleHeaders" : [
                ]
            },
            {
                "blockHeader" : {
                    "bloom" : "0x00000000000000000000000000000000000000000000000000000000000000000000000000000000000000000000000000000000000000000000000000000000000000000000000000000000000000000000000000000000000000000000000000000000000000000000000000000000000000000000000000000000000000000000000000000000000000000000000000000000000000000000000000000000000000000000000000000000000000000000000000000000000000000000000000000000000000000000000000000000000000000000000000000000000000000000000000000000000000000000000000000000000000000000000000000000",
                    "coinbase" : "0x8888f1f195afa192cfee860698584c030f4c9db1",
                    "difficulty" : "0x020040",
                    "extraData" : "",
                    "gasLimit" : "0x01de6efb",
                    "gasUsed" : "0x53a0",
                    "hash" : "0xc074d8f634613e28fc0bedc0da4b1ddf3a318abb6be8a244b991106de98ed5ab",
                    "mixHash" : "0x73236b1c8cb39fb88fda9e233a746dad75c091ac85cba2ee88f01e19d1c3e924",
                    "nonce" : "0xec4d46bc7daeea81",
                    "number" : "0x02",
                    "parentHash" : "0xa36017dde8271856d5afd8eb312635b0040efb03bd1f526575f7f67333a169c8",
                    "receiptTrie" : "0x5782169ebc489f825f674f12f6e144b21e2c243fde3efc10121bef02c076ad8f",
                    "stateRoot" : "0x7da919bea7101a7525979e839c95dc1a9ff532e9810150f2eb40b5f2965efbc9",
                    "timestamp" : "0x59d6666a",
                    "transactionsTrie" : "0x17db9a3dd5b472429bd1b90821461a18b829a3b9c2a9fca3ad191f0b661cc407",
                    "uncleHash" : "0x1dcc4de8dec75d7aab85b567b6ccd41ad312451b948a7413f0a142fd40d49347"
                },
                "rlp" : "0xf9026ef901faa0a36017dde8271856d5afd8eb312635b0040efb03bd1f526575f7f67333a169c8a01dcc4de8dec75d7aab85b567b6ccd41ad312451b948a7413f0a142fd40d49347948888f1f195afa192cfee860698584c030f4c9db1a07da919bea7101a7525979e839c95dc1a9ff532e9810150f2eb40b5f2965efbc9a017db9a3dd5b472429bd1b90821461a18b829a3b9c2a9fca3ad191f0b661cc407a05782169ebc489f825f674f12f6e144b21e2c243fde3efc10121bef02c076ad8fb901000000000000000000000000000000000000000000000000000000000000000000000000000000000000000000000000000000000000000000000000000000000000000000000000000000000000000000000000000000000000000000000000000000000000000000000000000000000000000000000000000000000000000000000000000000000000000000000000000000000000000000000000000000000000000000000000000000000000000000000000000000000000000000000000000000000000000000000000000000000000000000000000000000000000000000000000000000000000000000000000000000000000000000000000000000000083020040028401de6efb8253a08459d6666a80a073236b1c8cb39fb88fda9e233a746dad75c091ac85cba2ee88f01e19d1c3e92488ec4d46bc7daeea81f86ef86c01860ae9f7bcc000830cf85094095e7baea6a6c7c4c2dfeb977efac326af552d870a86ffffffffffff1ca0b4ab3eb88ca16e29f56e151a20ea5ee639ae06675f09fb6c6e16c4bc1e959626a002489e2fd69bffcb8da9fef04e8392fc0d54cae04d2b0d7b97eaa1a2da10c4b3c0",
                "transactions" : [
                    {
                        "data" : "0xffffffffffff",
                        "gasLimit" : "0x0cf850",
                        "gasPrice" : "0x0ae9f7bcc000",
                        "nonce" : "0x01",
                        "r" : "0xb4ab3eb88ca16e29f56e151a20ea5ee639ae06675f09fb6c6e16c4bc1e959626",
                        "s" : "0x02489e2fd69bffcb8da9fef04e8392fc0d54cae04d2b0d7b97eaa1a2da10c4b3",
                        "to" : "0x095e7baea6a6c7c4c2dfeb977efac326af552d87",
                        "v" : "0x1c",
                        "value" : "0x0a"
                    }
                ],
                "uncleHeaders" : [
                ]
            },
            {
                "blockHeader" : {
                    "bloom" : "0x00000000000000000000000000000000000000000000000000000000000000000000000000000000000000000000000000000000000000000000000000000000000000000000000000000000000000000000000000000000000000000000000000000000000000000000000000000000000000000000000000000000000000000000000000000000000000000000000000000000000000000000000000000000000000000000000000000000000000000000000000000000000000000000000000000000000000000000000000000000000000000000000000000000000000000000000000000000000000000000000000000000000000000000000000000000",
                    "coinbase" : "0x8888f1f195afa192cfee860698584c030f4c9db1",
                    "difficulty" : "0x020080",
                    "extraData" : "",
                    "gasLimit" : "0x01ddf77a",
                    "gasUsed" : "0x53a0",
                    "hash" : "0xe00fb546b2b20387ef075de6dbb1d907713d4e3fd730dd86dbfae1a85025b43b",
                    "mixHash" : "0xa318a13fe34358cd02c4ee36bb441c5ac54dc9dfec171c367529a863e0f11002",
                    "nonce" : "0xf8dd44b393a4bbc3",
                    "number" : "0x03",
                    "parentHash" : "0xc074d8f634613e28fc0bedc0da4b1ddf3a318abb6be8a244b991106de98ed5ab",
                    "receiptTrie" : "0x5782169ebc489f825f674f12f6e144b21e2c243fde3efc10121bef02c076ad8f",
                    "stateRoot" : "0x55f8bfb675a1786c6063efcce15824c0f01270709475877c577fa6b5c54876d6",
                    "timestamp" : "0x59d6666d",
                    "transactionsTrie" : "0xd57c128083300688fb576176b64642c73923b044aac86cfd7a1ebbe06c05eb96",
                    "uncleHash" : "0x1dcc4de8dec75d7aab85b567b6ccd41ad312451b948a7413f0a142fd40d49347"
                },
                "rlp" : "0xf9026df901faa0c074d8f634613e28fc0bedc0da4b1ddf3a318abb6be8a244b991106de98ed5aba01dcc4de8dec75d7aab85b567b6ccd41ad312451b948a7413f0a142fd40d49347948888f1f195afa192cfee860698584c030f4c9db1a055f8bfb675a1786c6063efcce15824c0f01270709475877c577fa6b5c54876d6a0d57c128083300688fb576176b64642c73923b044aac86cfd7a1ebbe06c05eb96a05782169ebc489f825f674f12f6e144b21e2c243fde3efc10121bef02c076ad8fb901000000000000000000000000000000000000000000000000000000000000000000000000000000000000000000000000000000000000000000000000000000000000000000000000000000000000000000000000000000000000000000000000000000000000000000000000000000000000000000000000000000000000000000000000000000000000000000000000000000000000000000000000000000000000000000000000000000000000000000000000000000000000000000000000000000000000000000000000000000000000000000000000000000000000000000000000000000000000000000000000000000000000000000000000000000000083020080038401ddf77a8253a08459d6666d80a0a318a13fe34358cd02c4ee36bb441c5ac54dc9dfec171c367529a863e0f1100288f8dd44b393a4bbc3f86df86b02860cbba106e000830cf85094095e7baea6a6c7c4c2dfeb977efac326af552d870a86ffffffffffff1ca0a3a2bcd3060ce8c9dc7581366dd6b8aed226741ff0bd3cdbdbaaf91aef5e9bd89f4812314cce53dc10fcc9176b981858bc806b5fcb42a72fd5675027750ff925c0",
                "transactions" : [
                    {
                        "data" : "0xffffffffffff",
                        "gasLimit" : "0x0cf850",
                        "gasPrice" : "0x0cbba106e000",
                        "nonce" : "0x02",
                        "r" : "0xa3a2bcd3060ce8c9dc7581366dd6b8aed226741ff0bd3cdbdbaaf91aef5e9bd8",
                        "s" : "0x4812314cce53dc10fcc9176b981858bc806b5fcb42a72fd5675027750ff925",
                        "to" : "0x095e7baea6a6c7c4c2dfeb977efac326af552d87",
                        "v" : "0x1c",
                        "value" : "0x0a"
                    }
                ],
                "uncleHeaders" : [
                ]
            },
            {
                "blockHeader" : {
                    "bloom" : "0x00000000000000000000000000000000000000000000000000000000000000000000000000000000000000000000000000000000000000000000000000000000000000000000000000000000000000000000000000000000000000000000000000000000000000000000000000000000000000000000000000000000000000000000000000000000000000000000000000000000000000000000000000000000000000000000000000000000000000000000000000000000000000000000000000000000000000000000000000000000000000000000000000000000000000000000000000000000000000000000000000000000000000000000000000000000",
                    "coinbase" : "0x8888f1f195afa192cfee860698584c030f4c9db1",
                    "difficulty" : "0x0200c0",
                    "extraData" : "",
                    "gasLimit" : "0x01dd8017",
                    "gasUsed" : "0x53a0",
                    "hash" : "0x8f33cbba8914efa9e392cc0661c229afaf3889719f98e9464f8e8b72916fac7c",
                    "mixHash" : "0xd1fa752a6d746806be8492e89821800378c4032738ad36b6351717d216f7d6ef",
                    "nonce" : "0x0afd99a8cc7de659",
                    "number" : "0x04",
                    "parentHash" : "0xe00fb546b2b20387ef075de6dbb1d907713d4e3fd730dd86dbfae1a85025b43b",
                    "receiptTrie" : "0x5782169ebc489f825f674f12f6e144b21e2c243fde3efc10121bef02c076ad8f",
                    "stateRoot" : "0xad03e2cc3e14cae0a1de425904f0953497d13072f41210c1eb1a43d2c4eb68eb",
                    "timestamp" : "0x59d6666f",
                    "transactionsTrie" : "0xd78763945db011d5419eec1a4ec20ae122a9e1360b5ba7bd255ae495d73be17f",
                    "uncleHash" : "0x1dcc4de8dec75d7aab85b567b6ccd41ad312451b948a7413f0a142fd40d49347"
                },
                "rlp" : "0xf9026ef901faa0e00fb546b2b20387ef075de6dbb1d907713d4e3fd730dd86dbfae1a85025b43ba01dcc4de8dec75d7aab85b567b6ccd41ad312451b948a7413f0a142fd40d49347948888f1f195afa192cfee860698584c030f4c9db1a0ad03e2cc3e14cae0a1de425904f0953497d13072f41210c1eb1a43d2c4eb68eba0d78763945db011d5419eec1a4ec20ae122a9e1360b5ba7bd255ae495d73be17fa05782169ebc489f825f674f12f6e144b21e2c243fde3efc10121bef02c076ad8fb9010000000000000000000000000000000000000000000000000000000000000000000000000000000000000000000000000000000000000000000000000000000000000000000000000000000000000000000000000000000000000000000000000000000000000000000000000000000000000000000000000000000000000000000000000000000000000000000000000000000000000000000000000000000000000000000000000000000000000000000000000000000000000000000000000000000000000000000000000000000000000000000000000000000000000000000000000000000000000000000000000000000000000000000000000000000000830200c0048401dd80178253a08459d6666f80a0d1fa752a6d746806be8492e89821800378c4032738ad36b6351717d216f7d6ef880afd99a8cc7de659f86ef86c03860e8d4a510000830cf85094095e7baea6a6c7c4c2dfeb977efac326af552d870a86ffffffffffff1ca0f9cc20ee2874dce3b534d35149f43b4a0f3356d833d9d445fa8c161a6b622e6ba06543b736231a6d85107c7e6083e9067a0d00aaad744816646e16115445f908cac0",
                "transactions" : [
                    {
                        "data" : "0xffffffffffff",
                        "gasLimit" : "0x0cf850",
                        "gasPrice" : "0x0e8d4a510000",
                        "nonce" : "0x03",
                        "r" : "0xf9cc20ee2874dce3b534d35149f43b4a0f3356d833d9d445fa8c161a6b622e6b",
                        "s" : "0x6543b736231a6d85107c7e6083e9067a0d00aaad744816646e16115445f908ca",
                        "to" : "0x095e7baea6a6c7c4c2dfeb977efac326af552d87",
                        "v" : "0x1c",
                        "value" : "0x0a"
                    }
                ],
                "uncleHeaders" : [
                ]
            },
            {
                "blockHeader" : {
                    "bloom" : "0x00000000000000000000000000000000000000000000000000000000000000000000000000000000000000000000000000000000000000000000000000000000000000000000000000000000000000000000000000000000000000000000000000000000000000000000000000000000000000000000000000000000000000000000000000000000000000000000000000000000000000000000000000000000000000000000000000000000000000000000000000000000000000000000000000000000000000000000000000000000000000000000000000000000000000000000000000000000000000000000000000000000000000000000000000000000",
                    "coinbase" : "0x8888f1f195afa192cfee860698584c030f4c9db1",
                    "difficulty" : "0x020100",
                    "extraData" : "",
                    "gasLimit" : "0x01dd08d1",
                    "gasUsed" : "0x53a0",
                    "hash" : "0xa8db5a2a0bb7251c3703e758ea32c2aab4bccb3033b4287ec4dbb65f73cb6293",
                    "mixHash" : "0x5f38925efd1630f3b9060234668c700ab6702dfacae666b77b88cf06ac4513ad",
                    "nonce" : "0x2e46e2a72cd40b3d",
                    "number" : "0x05",
                    "parentHash" : "0x8f33cbba8914efa9e392cc0661c229afaf3889719f98e9464f8e8b72916fac7c",
                    "receiptTrie" : "0x5782169ebc489f825f674f12f6e144b21e2c243fde3efc10121bef02c076ad8f",
                    "stateRoot" : "0x09defb28cb13fb5242ce6110ec137ed530264d0f027f1ccbba8d5ee10f4df398",
                    "timestamp" : "0x59d66670",
                    "transactionsTrie" : "0x066a7ed4bb74feca3008a9dcfda7ad4291fe4124dd335ada65989ab27a776af9",
                    "uncleHash" : "0x1dcc4de8dec75d7aab85b567b6ccd41ad312451b948a7413f0a142fd40d49347"
                },
                "rlp" : "0xf9026ef901faa08f33cbba8914efa9e392cc0661c229afaf3889719f98e9464f8e8b72916fac7ca01dcc4de8dec75d7aab85b567b6ccd41ad312451b948a7413f0a142fd40d49347948888f1f195afa192cfee860698584c030f4c9db1a009defb28cb13fb5242ce6110ec137ed530264d0f027f1ccbba8d5ee10f4df398a0066a7ed4bb74feca3008a9dcfda7ad4291fe4124dd335ada65989ab27a776af9a05782169ebc489f825f674f12f6e144b21e2c243fde3efc10121bef02c076ad8fb901000000000000000000000000000000000000000000000000000000000000000000000000000000000000000000000000000000000000000000000000000000000000000000000000000000000000000000000000000000000000000000000000000000000000000000000000000000000000000000000000000000000000000000000000000000000000000000000000000000000000000000000000000000000000000000000000000000000000000000000000000000000000000000000000000000000000000000000000000000000000000000000000000000000000000000000000000000000000000000000000000000000000000000000000000000000083020100058401dd08d18253a08459d6667080a05f38925efd1630f3b9060234668c700ab6702dfacae666b77b88cf06ac4513ad882e46e2a72cd40b3df86ef86c0486105ef39b2000830cf85094095e7baea6a6c7c4c2dfeb977efac326af552d870a86ffffffffffff1ca06cda2e6b92c549ee2fb1c1078ad116315093eae7b06d54dd6ad8f3d4d1d246e5a026b9d1b5dfe1480b3b8f1cdccb06714f61631dcac3680f3b45ac9a84928b78a3c0",
                "transactions" : [
                    {
                        "data" : "0xffffffffffff",
                        "gasLimit" : "0x0cf850",
                        "gasPrice" : "0x105ef39b2000",
                        "nonce" : "0x04",
                        "r" : "0x6cda2e6b92c549ee2fb1c1078ad116315093eae7b06d54dd6ad8f3d4d1d246e5",
                        "s" : "0x26b9d1b5dfe1480b3b8f1cdccb06714f61631dcac3680f3b45ac9a84928b78a3",
                        "to" : "0x095e7baea6a6c7c4c2dfeb977efac326af552d87",
                        "v" : "0x1c",
                        "value" : "0x0a"
                    }
                ],
                "uncleHeaders" : [
                ]
            },
            {
                "blockHeader" : {
                    "bloom" : "0x00000000000000000000000000000000000000000000000000000000000000000000000000000000000000000000000000000000000000000000000000000000000000000000000000000000000000000000000000000000000000000000000000000000000000000000000000000000000000000000000000000000000000000000000000000000000000000000000000000000000000000000000000000000000000000000000000000000000000000000000000000000000000000000000000000000000000000000000000000000000000000000000000000000000000000000000000000000000000000000000000000000000000000000000000000000",
                    "coinbase" : "0x8888f1f195afa192cfee860698584c030f4c9db1",
                    "difficulty" : "0x020140",
                    "extraData" : "",
                    "gasLimit" : "0x01dc91a9",
                    "gasUsed" : "0x53a0",
                    "hash" : "0xccce7f7838f3a8b2f30431fa06c8c81f3551d5619759fd96beb1bdc15fa548a8",
                    "mixHash" : "0x90ad8bc9654d001edca66436093ec16a03133c6b8242a81d66bce97b348b401d",
                    "nonce" : "0x75e00be992b39744",
                    "number" : "0x06",
                    "parentHash" : "0xa8db5a2a0bb7251c3703e758ea32c2aab4bccb3033b4287ec4dbb65f73cb6293",
                    "receiptTrie" : "0x5782169ebc489f825f674f12f6e144b21e2c243fde3efc10121bef02c076ad8f",
                    "stateRoot" : "0x6917cacbc1e78d21ac3111dc0b73c15fc38abbf5324a29c2819bb86e91c0f6e6",
                    "timestamp" : "0x59d66671",
                    "transactionsTrie" : "0x1f4f6fa6c6d35a4af215a996cfcdcfb8eb3df22f0f6ab2f57ec58d6ad6a4e57d",
                    "uncleHash" : "0x1dcc4de8dec75d7aab85b567b6ccd41ad312451b948a7413f0a142fd40d49347"
                },
                "rlp" : "0xf9026ef901faa0a8db5a2a0bb7251c3703e758ea32c2aab4bccb3033b4287ec4dbb65f73cb6293a01dcc4de8dec75d7aab85b567b6ccd41ad312451b948a7413f0a142fd40d49347948888f1f195afa192cfee860698584c030f4c9db1a06917cacbc1e78d21ac3111dc0b73c15fc38abbf5324a29c2819bb86e91c0f6e6a01f4f6fa6c6d35a4af215a996cfcdcfb8eb3df22f0f6ab2f57ec58d6ad6a4e57da05782169ebc489f825f674f12f6e144b21e2c243fde3efc10121bef02c076ad8fb901000000000000000000000000000000000000000000000000000000000000000000000000000000000000000000000000000000000000000000000000000000000000000000000000000000000000000000000000000000000000000000000000000000000000000000000000000000000000000000000000000000000000000000000000000000000000000000000000000000000000000000000000000000000000000000000000000000000000000000000000000000000000000000000000000000000000000000000000000000000000000000000000000000000000000000000000000000000000000000000000000000000000000000000000000000000083020140068401dc91a98253a08459d6667180a090ad8bc9654d001edca66436093ec16a03133c6b8242a81d66bce97b348b401d8875e00be992b39744f86ef86c058612309ce54000830cf85094095e7baea6a6c7c4c2dfeb977efac326af552d870a86ffffffffffff1ca0d2b6a9d3c6286c1a71d88ef2e3d3889352311a9348ee7c7256c2af3db4b048dca00e3f13618132ebefdf2e207668c6fff0b2b3f2bbe95f2b1528e2d267a24cade2c0",
                "transactions" : [
                    {
                        "data" : "0xffffffffffff",
                        "gasLimit" : "0x0cf850",
                        "gasPrice" : "0x12309ce54000",
                        "nonce" : "0x05",
                        "r" : "0xd2b6a9d3c6286c1a71d88ef2e3d3889352311a9348ee7c7256c2af3db4b048dc",
                        "s" : "0x0e3f13618132ebefdf2e207668c6fff0b2b3f2bbe95f2b1528e2d267a24cade2",
                        "to" : "0x095e7baea6a6c7c4c2dfeb977efac326af552d87",
                        "v" : "0x1c",
                        "value" : "0x0a"
                    }
                ],
                "uncleHeaders" : [
                ]
            },
            {
                "blockHeader" : {
                    "bloom" : "0x00000000000000000000000000000000000000000000000000000000000000000000000000000000000000000000000000000000000000000000000000000000000000000000000000000000000000000000000000000000000000000000000000000000000000000000000000000000000000000000000000000000000000000000000000000000000000000000000000000000000000000000000000000000000000000000000000000000000000000000000000000000000000000000000000000000000000000000000000000000000000000000000000000000000000000000000000000000000000000000000000000000000000000000000000000000",
                    "coinbase" : "0x8888f1f195afa192cfee860698584c030f4c9db1",
                    "difficulty" : "0x020180",
                    "extraData" : "",
                    "gasLimit" : "0x01dc1a9f",
                    "gasUsed" : "0x53a0",
                    "hash" : "0xa9ed1b1c64a42485b24a3370de04e444c64737d1a0a9055056b4eb1846f6ed96",
                    "mixHash" : "0x450dac7e19a37bce73780423a999f87850b9b8e730e965e2273c3fac89b66e17",
                    "nonce" : "0x16e3b6d558249558",
                    "number" : "0x07",
                    "parentHash" : "0xccce7f7838f3a8b2f30431fa06c8c81f3551d5619759fd96beb1bdc15fa548a8",
                    "receiptTrie" : "0x5782169ebc489f825f674f12f6e144b21e2c243fde3efc10121bef02c076ad8f",
                    "stateRoot" : "0x869fe33b73f64f9515d91a38ccd5e0d32138476bee266dcf727b9fef796a8d76",
                    "timestamp" : "0x59d66672",
                    "transactionsTrie" : "0x71e64105f752773f43221dd85e44d299d08b229cdbcea166536fb48f72de8b73",
                    "uncleHash" : "0x1dcc4de8dec75d7aab85b567b6ccd41ad312451b948a7413f0a142fd40d49347"
                },
                "rlp" : "0xf9026ef901faa0ccce7f7838f3a8b2f30431fa06c8c81f3551d5619759fd96beb1bdc15fa548a8a01dcc4de8dec75d7aab85b567b6ccd41ad312451b948a7413f0a142fd40d49347948888f1f195afa192cfee860698584c030f4c9db1a0869fe33b73f64f9515d91a38ccd5e0d32138476bee266dcf727b9fef796a8d76a071e64105f752773f43221dd85e44d299d08b229cdbcea166536fb48f72de8b73a05782169ebc489f825f674f12f6e144b21e2c243fde3efc10121bef02c076ad8fb901000000000000000000000000000000000000000000000000000000000000000000000000000000000000000000000000000000000000000000000000000000000000000000000000000000000000000000000000000000000000000000000000000000000000000000000000000000000000000000000000000000000000000000000000000000000000000000000000000000000000000000000000000000000000000000000000000000000000000000000000000000000000000000000000000000000000000000000000000000000000000000000000000000000000000000000000000000000000000000000000000000000000000000000000000000000083020180078401dc1a9f8253a08459d6667280a0450dac7e19a37bce73780423a999f87850b9b8e730e965e2273c3fac89b66e178816e3b6d558249558f86ef86c06861402462f6000830cf85094095e7baea6a6c7c4c2dfeb977efac326af552d870a86ffffffffffff1ca07dbb1abd6964f8167ff9d79b438a83137eda9ee4d8d5e73b6088113249846956a03de1e4e462f720df0f4d7012c0f3be32cb908b309d70642fcf8175f2ca3b0c8fc0",
                "transactions" : [
                    {
                        "data" : "0xffffffffffff",
                        "gasLimit" : "0x0cf850",
                        "gasPrice" : "0x1402462f6000",
                        "nonce" : "0x06",
                        "r" : "0x7dbb1abd6964f8167ff9d79b438a83137eda9ee4d8d5e73b6088113249846956",
                        "s" : "0x3de1e4e462f720df0f4d7012c0f3be32cb908b309d70642fcf8175f2ca3b0c8f",
                        "to" : "0x095e7baea6a6c7c4c2dfeb977efac326af552d87",
                        "v" : "0x1c",
                        "value" : "0x0a"
                    }
                ],
                "uncleHeaders" : [
                ]
            },
            {
                "blockHeader" : {
                    "bloom" : "0x00000000000000000000000000000000000000000000000000000000000000000000000000000000000000000000000000000000000000000000000000000000000000000000000000000000000000000000000000000000000000000000000000000000000000000000000000000000000000000000000000000000000000000000000000000000000000000000000000000000000000000000000000000000000000000000000000000000000000000000000000000000000000000000000000000000000000000000000000000000000000000000000000000000000000000000000000000000000000000000000000000000000000000000000000000000",
                    "coinbase" : "0x8888f1f195afa192cfee860698584c030f4c9db1",
                    "difficulty" : "0x0201c0",
                    "extraData" : "",
                    "gasLimit" : "0x01dba3b3",
                    "gasUsed" : "0x53a0",
                    "hash" : "0xb13388435c9eb96a188a3e72515777949f56084bb59eb140a57777d33efe61ba",
                    "mixHash" : "0xe9bfd275d149accd25f0203373175d097fe49b43d08136ceaa63f35d3e27c25d",
                    "nonce" : "0x7c9e8a72a356113c",
                    "number" : "0x08",
                    "parentHash" : "0xa9ed1b1c64a42485b24a3370de04e444c64737d1a0a9055056b4eb1846f6ed96",
                    "receiptTrie" : "0x5782169ebc489f825f674f12f6e144b21e2c243fde3efc10121bef02c076ad8f",
                    "stateRoot" : "0xe0f1a4dc47c0daef60b08b1beb432e378891b5f5fdd42667734001e892cd5f8a",
                    "timestamp" : "0x59d66673",
                    "transactionsTrie" : "0x5292f0bb53c9ff642471ea0098f045c8871914dc62bc44123f7db66adc83e925",
                    "uncleHash" : "0x1dcc4de8dec75d7aab85b567b6ccd41ad312451b948a7413f0a142fd40d49347"
                },
                "rlp" : "0xf9026ef901faa0a9ed1b1c64a42485b24a3370de04e444c64737d1a0a9055056b4eb1846f6ed96a01dcc4de8dec75d7aab85b567b6ccd41ad312451b948a7413f0a142fd40d49347948888f1f195afa192cfee860698584c030f4c9db1a0e0f1a4dc47c0daef60b08b1beb432e378891b5f5fdd42667734001e892cd5f8aa05292f0bb53c9ff642471ea0098f045c8871914dc62bc44123f7db66adc83e925a05782169ebc489f825f674f12f6e144b21e2c243fde3efc10121bef02c076ad8fb9010000000000000000000000000000000000000000000000000000000000000000000000000000000000000000000000000000000000000000000000000000000000000000000000000000000000000000000000000000000000000000000000000000000000000000000000000000000000000000000000000000000000000000000000000000000000000000000000000000000000000000000000000000000000000000000000000000000000000000000000000000000000000000000000000000000000000000000000000000000000000000000000000000000000000000000000000000000000000000000000000000000000000000000000000000000000830201c0088401dba3b38253a08459d6667380a0e9bfd275d149accd25f0203373175d097fe49b43d08136ceaa63f35d3e27c25d887c9e8a72a356113cf86ef86c078615d3ef798000830cf85094095e7baea6a6c7c4c2dfeb977efac326af552d870a86ffffffffffff1ba0a4d2b7612da4b7493213decb120ea2826e72adac5e605bc9a889d287df4e6a50a04b08a8ee68b2e984220db524a5e6c5fa93b083bafb728734a5ddad91ee51b41fc0",
                "transactions" : [
                    {
                        "data" : "0xffffffffffff",
                        "gasLimit" : "0x0cf850",
                        "gasPrice" : "0x15d3ef798000",
                        "nonce" : "0x07",
                        "r" : "0xa4d2b7612da4b7493213decb120ea2826e72adac5e605bc9a889d287df4e6a50",
                        "s" : "0x4b08a8ee68b2e984220db524a5e6c5fa93b083bafb728734a5ddad91ee51b41f",
                        "to" : "0x095e7baea6a6c7c4c2dfeb977efac326af552d87",
                        "v" : "0x1b",
                        "value" : "0x0a"
                    }
                ],
                "uncleHeaders" : [
                ]
            },
            {
                "blockHeader" : {
                    "bloom" : "0x00000000000000000000000000000000000000000000000000000000000000000000000000000000000000000000000000000000000000000000000000000000000000000000000000000000000000000000000000000000000000000000000000000000000000000000000000000000000000000000000000000000000000000000000000000000000000000000000000000000000000000000000000000000000000000000000000000000000000000000000000000000000000000000000000000000000000000000000000000000000000000000000000000000000000000000000000000000000000000000000000000000000000000000000000000000",
                    "coinbase" : "0x8888f1f195afa192cfee860698584c030f4c9db1",
                    "difficulty" : "0x020200",
                    "extraData" : "",
                    "gasLimit" : "0x01db2ce5",
                    "gasUsed" : "0x53a0",
                    "hash" : "0x4256bcc1a9bf04c24da201331cb06cf4ecc7c4672459fa7c9cdde7d646f73eeb",
                    "mixHash" : "0x2608ca57ecb3198d5dd07533d77e4ebe99eb0b561d9715c9519ff40ef95e43bc",
                    "nonce" : "0xc0b63638ac444e32",
                    "number" : "0x09",
                    "parentHash" : "0xb13388435c9eb96a188a3e72515777949f56084bb59eb140a57777d33efe61ba",
                    "receiptTrie" : "0x5782169ebc489f825f674f12f6e144b21e2c243fde3efc10121bef02c076ad8f",
                    "stateRoot" : "0x9f9d3090e23cf278564d2de28da8ca62d68e44c4a34e0cfec39d7580d64ffe84",
                    "timestamp" : "0x59d66677",
                    "transactionsTrie" : "0x874dabcca653170e57fe4d0241cddcd6f9ef93c07765e1635de159cff6c4e753",
                    "uncleHash" : "0x1dcc4de8dec75d7aab85b567b6ccd41ad312451b948a7413f0a142fd40d49347"
                },
                "rlp" : "0xf9026ef901faa0b13388435c9eb96a188a3e72515777949f56084bb59eb140a57777d33efe61baa01dcc4de8dec75d7aab85b567b6ccd41ad312451b948a7413f0a142fd40d49347948888f1f195afa192cfee860698584c030f4c9db1a09f9d3090e23cf278564d2de28da8ca62d68e44c4a34e0cfec39d7580d64ffe84a0874dabcca653170e57fe4d0241cddcd6f9ef93c07765e1635de159cff6c4e753a05782169ebc489f825f674f12f6e144b21e2c243fde3efc10121bef02c076ad8fb901000000000000000000000000000000000000000000000000000000000000000000000000000000000000000000000000000000000000000000000000000000000000000000000000000000000000000000000000000000000000000000000000000000000000000000000000000000000000000000000000000000000000000000000000000000000000000000000000000000000000000000000000000000000000000000000000000000000000000000000000000000000000000000000000000000000000000000000000000000000000000000000000000000000000000000000000000000000000000000000000000000000000000000000000000000000083020200098401db2ce58253a08459d6667780a02608ca57ecb3198d5dd07533d77e4ebe99eb0b561d9715c9519ff40ef95e43bc88c0b63638ac444e32f86ef86c088617a598c3a000830cf85094095e7baea6a6c7c4c2dfeb977efac326af552d870a86ffffffffffff1ba09d1e6336a3acb8cf03efb4ab7e187a8bcaa125bbbe195997ac6fe2664b1ccce7a027d556535661b74e4453f54e6921117abbf541de92cbe791c463037bec440285c0",
                "transactions" : [
                    {
                        "data" : "0xffffffffffff",
                        "gasLimit" : "0x0cf850",
                        "gasPrice" : "0x17a598c3a000",
                        "nonce" : "0x08",
                        "r" : "0x9d1e6336a3acb8cf03efb4ab7e187a8bcaa125bbbe195997ac6fe2664b1ccce7",
                        "s" : "0x27d556535661b74e4453f54e6921117abbf541de92cbe791c463037bec440285",
                        "to" : "0x095e7baea6a6c7c4c2dfeb977efac326af552d87",
                        "v" : "0x1b",
                        "value" : "0x0a"
                    }
                ],
                "uncleHeaders" : [
                ]
            },
            {
                "blockHeader" : {
                    "bloom" : "0x00000000000000000000000000000000000000000000000000000000000000000000000000000000000000000000000000000000000000000000000000000000000000000000000000000000000000000000000000000000000000000000000000000000000000000000000000000000000000000000000000000000000000000000000000000000000000000000000000000000000000000000000000000000000000000000000000000000000000000000000000000000000000000000000000000000000000000000000000000000000000000000000000000000000000000000000000000000000000000000000000000000000000000000000000000000",
                    "coinbase" : "0x8888f1f195afa192cfee860698584c030f4c9db1",
                    "difficulty" : "0x020240",
                    "extraData" : "",
                    "gasLimit" : "0x01dab634",
                    "gasUsed" : "0x53a0",
                    "hash" : "0xf8f5710db2ac125af699712618469293eba3df88adb4e88a9af8b3d3bda19379",
                    "mixHash" : "0x6333c0317d720a1e67d5330fcee73afa476f434922f2ca6640c0036437747e62",
                    "nonce" : "0x2711227fa6485956",
                    "number" : "0x0a",
                    "parentHash" : "0x4256bcc1a9bf04c24da201331cb06cf4ecc7c4672459fa7c9cdde7d646f73eeb",
                    "receiptTrie" : "0x5782169ebc489f825f674f12f6e144b21e2c243fde3efc10121bef02c076ad8f",
                    "stateRoot" : "0xd4890c4f52dbca8ace9f4db0d199098713b19ac4934476910f84df034b959e9c",
                    "timestamp" : "0x59d66679",
                    "transactionsTrie" : "0x557fb34c4e06a92e14a8dbf88f43c139ae7cfee4654b01f159509179eb86f17e",
                    "uncleHash" : "0x1dcc4de8dec75d7aab85b567b6ccd41ad312451b948a7413f0a142fd40d49347"
                },
                "rlp" : "0xf9026ef901faa04256bcc1a9bf04c24da201331cb06cf4ecc7c4672459fa7c9cdde7d646f73eeba01dcc4de8dec75d7aab85b567b6ccd41ad312451b948a7413f0a142fd40d49347948888f1f195afa192cfee860698584c030f4c9db1a0d4890c4f52dbca8ace9f4db0d199098713b19ac4934476910f84df034b959e9ca0557fb34c4e06a92e14a8dbf88f43c139ae7cfee4654b01f159509179eb86f17ea05782169ebc489f825f674f12f6e144b21e2c243fde3efc10121bef02c076ad8fb9010000000000000000000000000000000000000000000000000000000000000000000000000000000000000000000000000000000000000000000000000000000000000000000000000000000000000000000000000000000000000000000000000000000000000000000000000000000000000000000000000000000000000000000000000000000000000000000000000000000000000000000000000000000000000000000000000000000000000000000000000000000000000000000000000000000000000000000000000000000000000000000000000000000000000000000000000000000000000000000000000000000000000000000000000000000000830202400a8401dab6348253a08459d6667980a06333c0317d720a1e67d5330fcee73afa476f434922f2ca6640c0036437747e62882711227fa6485956f86ef86c09861977420dc000830cf85094095e7baea6a6c7c4c2dfeb977efac326af552d870a86ffffffffffff1ba03e0d159c71bddaf7507905a0f97fb2c86b773a56460d3c3ae461fdb2593a0d4ea02deec822756dddc958ce784740a503cf4895e632502c6c7966a5c662cf6a3561c0",
                "transactions" : [
                    {
                        "data" : "0xffffffffffff",
                        "gasLimit" : "0x0cf850",
                        "gasPrice" : "0x1977420dc000",
                        "nonce" : "0x09",
                        "r" : "0x3e0d159c71bddaf7507905a0f97fb2c86b773a56460d3c3ae461fdb2593a0d4e",
                        "s" : "0x2deec822756dddc958ce784740a503cf4895e632502c6c7966a5c662cf6a3561",
                        "to" : "0x095e7baea6a6c7c4c2dfeb977efac326af552d87",
                        "v" : "0x1b",
                        "value" : "0x0a"
                    }
                ],
                "uncleHeaders" : [
                ]
            },
            {
                "blockHeader" : {
                    "bloom" : "0x00000000000000000000000000000000000000000000000000000000000000000000000000000000000000000000000000000000000000000000000000000000000000000000000000000000000000000000000000000000000000000000000000000000000000000000000000000000000000000000000000000000000000000000000000000000000000000000000000000000000000000000000000000000000000000000000000000000000000000000000000000000000000000000000000000000000000000000000000000000000000000000000000000000000000000000000000000000000000000000000000000000000000000000000000000000",
                    "coinbase" : "0x8888f1f195afa192cfee860698584c030f4c9db1",
                    "difficulty" : "0x020280",
                    "extraData" : "",
                    "gasLimit" : "0x01da3fa1",
                    "gasUsed" : "0x53a0",
                    "hash" : "0x1da2800d1dae6f3142efbfb238c9db3c2efa4d7132f3cd54c3a93d5b59f582ad",
                    "mixHash" : "0x016c348dc0ec8447c88b8325f7ef4f722bf53f605c09ab9f692168eb7f746781",
                    "nonce" : "0xb403e004dd3b35b4",
                    "number" : "0x0b",
                    "parentHash" : "0xf8f5710db2ac125af699712618469293eba3df88adb4e88a9af8b3d3bda19379",
                    "receiptTrie" : "0x5782169ebc489f825f674f12f6e144b21e2c243fde3efc10121bef02c076ad8f",
                    "stateRoot" : "0xd333a86dee8dc696330321ff2e10d2eced762f6cd1e4c12d7692865e729aed46",
                    "timestamp" : "0x59d6667b",
                    "transactionsTrie" : "0x54541930d62573205e70bcfd40bc51c131e79d9f038a85b84d20203381407e21",
                    "uncleHash" : "0x1dcc4de8dec75d7aab85b567b6ccd41ad312451b948a7413f0a142fd40d49347"
                },
                "rlp" : "0xf9026ef901faa0f8f5710db2ac125af699712618469293eba3df88adb4e88a9af8b3d3bda19379a01dcc4de8dec75d7aab85b567b6ccd41ad312451b948a7413f0a142fd40d49347948888f1f195afa192cfee860698584c030f4c9db1a0d333a86dee8dc696330321ff2e10d2eced762f6cd1e4c12d7692865e729aed46a054541930d62573205e70bcfd40bc51c131e79d9f038a85b84d20203381407e21a05782169ebc489f825f674f12f6e144b21e2c243fde3efc10121bef02c076ad8fb9010000000000000000000000000000000000000000000000000000000000000000000000000000000000000000000000000000000000000000000000000000000000000000000000000000000000000000000000000000000000000000000000000000000000000000000000000000000000000000000000000000000000000000000000000000000000000000000000000000000000000000000000000000000000000000000000000000000000000000000000000000000000000000000000000000000000000000000000000000000000000000000000000000000000000000000000000000000000000000000000000000000000000000000000000000000000830202800b8401da3fa18253a08459d6667b80a0016c348dc0ec8447c88b8325f7ef4f722bf53f605c09ab9f692168eb7f74678188b403e004dd3b35b4f86ef86c0a861b48eb57e000830cf85094095e7baea6a6c7c4c2dfeb977efac326af552d870a86ffffffffffff1ba0a4ce64813530f35e4c45168988a82aaa5dd4ffec2e1325e8edc99b428dc390a8a0270598015d7aa6d92aacaad70a4c72f9022db2642c77b06cd068e28ba80a5a68c0",
                "transactions" : [
                    {
                        "data" : "0xffffffffffff",
                        "gasLimit" : "0x0cf850",
                        "gasPrice" : "0x1b48eb57e000",
                        "nonce" : "0x0a",
                        "r" : "0xa4ce64813530f35e4c45168988a82aaa5dd4ffec2e1325e8edc99b428dc390a8",
                        "s" : "0x270598015d7aa6d92aacaad70a4c72f9022db2642c77b06cd068e28ba80a5a68",
                        "to" : "0x095e7baea6a6c7c4c2dfeb977efac326af552d87",
                        "v" : "0x1b",
                        "value" : "0x0a"
                    }
                ],
                "uncleHeaders" : [
                ]
            }
        ],
        "genesisBlockHeader" : {
            "bloom" : "0x00000000000000000000000000000000000000000000000000000000000000000000000000000000000000000000000000000000000000000000000000000000000000000000000000000000000000000000000000000000000000000000000000000000000000000000000000000000000000000000000000000000000000000000000000000000000000000000000000000000000000000000000000000000000000000000000000000000000000000000000000000000000000000000000000000000000000000000000000000000000000000000000000000000000000000000000000000000000000000000000000000000000000000000000000000000",
            "coinbase" : "0x8888f1f195afa192cfee860698584c030f4c9db1",
            "difficulty" : "0x020000",
            "extraData" : "0x42",
            "gasLimit" : "0x01df5e70",
            "gasUsed" : "0x00",
            "hash" : "0x77b486355f28180f65accb3be55e117aafb307e1ea2d05e92691876998752d83",
            "mixHash" : "0x56e81f171bcc55a6ff8345e692c0f86e5b48e01b996cadc001622fb5e363b421",
            "nonce" : "0x0102030405060708",
            "number" : "0x00",
            "parentHash" : "0x0000000000000000000000000000000000000000000000000000000000000000",
            "receiptTrie" : "0x56e81f171bcc55a6ff8345e692c0f86e5b48e01b996cadc001622fb5e363b421",
            "stateRoot" : "0x71f7c8fb1ecac2ee69cd5aa02564d358fc641845977fa4e30c65be195167bb45",
            "timestamp" : "0x54c98c81",
            "transactionsTrie" : "0x56e81f171bcc55a6ff8345e692c0f86e5b48e01b996cadc001622fb5e363b421",
            "uncleHash" : "0x1dcc4de8dec75d7aab85b567b6ccd41ad312451b948a7413f0a142fd40d49347"
        },
        "genesisRLP" : "0xf901fdf901f8a00000000000000000000000000000000000000000000000000000000000000000a01dcc4de8dec75d7aab85b567b6ccd41ad312451b948a7413f0a142fd40d49347948888f1f195afa192cfee860698584c030f4c9db1a071f7c8fb1ecac2ee69cd5aa02564d358fc641845977fa4e30c65be195167bb45a056e81f171bcc55a6ff8345e692c0f86e5b48e01b996cadc001622fb5e363b421a056e81f171bcc55a6ff8345e692c0f86e5b48e01b996cadc001622fb5e363b421b901000000000000000000000000000000000000000000000000000000000000000000000000000000000000000000000000000000000000000000000000000000000000000000000000000000000000000000000000000000000000000000000000000000000000000000000000000000000000000000000000000000000000000000000000000000000000000000000000000000000000000000000000000000000000000000000000000000000000000000000000000000000000000000000000000000000000000000000000000000000000000000000000000000000000000000000000000000000000000000000000000000000000000000000000000000000083020000808401df5e70808454c98c8142a056e81f171bcc55a6ff8345e692c0f86e5b48e01b996cadc001622fb5e363b421880102030405060708c0c0",
        "lastblockhash" : "0x1da2800d1dae6f3142efbfb238c9db3c2efa4d7132f3cd54c3a93d5b59f582ad",
        "network" : "Byzantium",
        "postState" : {
            "0x095e7baea6a6c7c4c2dfeb977efac326af552d87" : {
                "balance" : "0x6e",
                "code" : "",
                "nonce" : "0x00",
                "storage" : {
                }
            },
            "0x8888f1f195afa192cfee860698584c030f4c9db1" : {
                "balance" : "0x020b53faecd53c0000",
                "code" : "",
                "nonce" : "0x00",
                "storage" : {
                }
            },
            "0xa94f5374fce5edbc8e2a8697c15331677e6ebf0b" : {
                "balance" : "0x1d14a0215cf8145fe6a7ff92",
                "code" : "",
                "nonce" : "0x0b",
                "storage" : {
                }
            },
            "0xaaaf5374fce5edbc8e2a8697c15331677e6ebf0b" : {
                "balance" : "0x02540be400",
                "code" : "0x60003551",
                "nonce" : "0x00",
                "storage" : {
                }
            }
        },
        "pre" : {
            "0xa94f5374fce5edbc8e2a8697c15331677e6ebf0b" : {
                "balance" : "0x1d14a0219e54822428000000",
                "code" : "",
                "nonce" : "0x00",
                "storage" : {
                }
            },
            "0xaaaf5374fce5edbc8e2a8697c15331677e6ebf0b" : {
                "balance" : "0x02540be400",
                "code" : "0x60003551",
                "nonce" : "0x00",
                "storage" : {
                }
            }
        }
    }
}
